:020000000144B9
:20003200542E452E4B2E4E2E4F432E4F2E4D2E000000E58775C7AA75C7555387FBF5F078F7
:20005200227400F608B83FFBE5F054105320EF422075813E75228075231090715D79007AC7
:200072000C7B737C00EB4C601CE493A3CAC583CAC9C582C9F0A3CAC583CAC9C582C91BBB58
:20009200FFE31C80E0900F0AE4F0126C3A75C7AA75C75543C602E504F0A3E505F075C7AAFD
:2000B20075C75553C6FD2212001B80FB7E00CF2522F582EE3523F583EF227E00CF2522F956
:2000D200EE3523FAEF227E00C5222FC522C5233EC5232278F9126FD3E60886F0C0E0C0F099
:2000F200740975F000C0E0C0F0120B4A158115811581158178FB126FD3E60886F0C0E0C072
:20011200F0740E75F000C0E0C0F0120B4A1581158115811581E50D127005AB12126FFC1222
:2001320070EB700302013FE4F5F002014212014322E509B50E15E50AB50F10E50BB5100BCE
:20015200E50CB51106C3E4F5F00422E4F5F02278F9126FD3E60886F0C0E0C0F0740975F0D8
:2001720000C0E0C0F0120B4A158115811581158178FB126FD3E60886F0C0E0C0F0740E75EC
:20019200F000C0E0C0F0120B4A1581158115811581E50D60030201BBE5126007740175F003
:2001B2000080031201CE0201CDE51260081201CE1270BE8003E4F5F00201CD2212014340A5
:2001D200057003740122E42278FB126FD3E60886F0C0E0C0F0740975F000C0E0C0F0120B2E
:2001F2004A1581158115811581C374879509F8400EE50D700A08E50A03D8FD75F000227572
:20021200F0012278FB126FD3E60886F0C0E0C0F0740975F000C0E0C0F0120B4A1581158179
:2002320015811581C3748F9509F840D30500E50B850AF0C3C5F013C5F013D8F7C0E0E50DE9
:200252006006E5F04480F5F0D0E02275F00122740075F00CC0E0C0F078F9126FD3E60886E0
:20027200F0C0E0C0F0120B4A15811581158115812278FB126FD3E60886F07B2E7C00127079
:20029200E270030202A1E5084408F508020301E5084401F508E508540470030202C0E5087E
:2002B200540860030202BD050EE50E02030178FB126FD3E60886F0C0E0C0F01204D21581A7
:2002D200158145F070030202F4E508540870030202EDE5084404F5080202F1050EE50E02FA
:2002F2000301E50854087003020301150EE50E227FFC7EFF1200DAE4F517F508740E75F036
:2003120000C0E0C0F012026115811581E4F5F07F001200BEF0A3C5F0F0C5F07F001200BE86
:20033200E0A3F5F0E0C5F07B057C001270C2700302042B80207F001200BEE0A3F5F0E0C5CE
:20035200F01270A47F001200BEF0A3C5F0F0C5F01270AD80C67F001200BEE0A3F5F0E0C568
:20037200F0C333C5F033C5F079147A0C126FF578FB126FD3E60886F089828A8312714F1238
:2003920070527F021200BEF0A3C5F0F0C5F07F021200BEE0A3F5F0E0C5F045F0700C7F00CD
:2003B2001200BEE0A3F5F0E0C5F045F070030203E07F021200BEE0A3F5F0E0C5F02430C56A
:2003D200F03400C0F0C0E0120283158115817F001200BEE0A3F5F0E0C5F0C333C5F033C5E5
:2003F200F079147A0C126FF57F021200BEE0A3F5F0E0C5F089828A8312714F127037FBACDA
:20041200F078FB126FD3E60886F0C39BC5F09CC5F018F608A6F002034712050F7F040200A8
:20043200D8740E75F000C0E0C0F01202611581158178FB126FD386060886077810E507544A
:2004520080700FE506C333F506E50733F507D8EF800DE507F50FE506F510E82480F50E22AF
:20047200E50FF50AE510F50BE511F50CC3E51133F511E51033F510E50F33F50FE433F5F045
:20049200E51133F511E51033F510E50F33F50FE5F033F5F0E511250CF511E510350BF5106F
:2004B200E50F350AF50FE435F0F5F0E51133F511E51033F510E50F33F50FE5F033F5F0226F
:2004D20078FB126FD38601120A8D120472701AE994302511F511E43510F510E4350FF50FBE
:2004F2004007120ADBE4F5F022E50AF50FE50BF510E50CF511120ADBE4F5F00422120A8D53
:20051200120B3D74091205A3702FE509FA7498F5091205BAEA602230E710740C75F00C1240
:200532000A5AEAF42401FA020544741075F00C120A5A1206461AEA70F9120B37120ADBE498
:20055200E4F508740E75F000C0E0C0F0741375F000C0E0C0F0120B4A158115811581158176
:2005720022E50D6007740175F0008003E4F5F02278FB126FD3E60886F0C0E0C0F074097539
:20059200F000C0E0C0F0120B4A1581158115811581F875F000E6700E08E6700A08E67006BD
:2005B20008E670020422E42274091205A3701EE50A20E719C31509E5096014E50C33F50C61
:2005D200E50B33F50BE50A33F50A30E7E8C322D32278F9126FD3E60886F0C0E0C0F07409F6
:2005F20075F000C0E0C0F0120B4A158115811581158178FB126FD3E60886F0C0E0C0F07486
:200612000E75F000C0E0C0F0120B4A1581158115811581120646740975F000C0E0C0F07442
:200632001375F000C0E0C0F0120B4A158115811581158122E5096004E50E700CE4F50DF563
:2006520009F50AF50BF50C22E50D6512F50DE509250E30E7085017751701020674400F757E
:200672001702E4F50DF509F50AF50BF50C222480F5091206C1ED20E70EEC33FCEF33FFEEA2
:2006920033FEED33FD1509EC33501574012FFF700F74012EFE7009E43DFD500413FD05098C
:2006B200EFF50CEEF50BEDF50AE50960B2E422E511850CF0A4AFF0E510850CF0A42FFFE472
:2006D200E5F03400FEE511850BF0A42FE5F03EFFE43400FEE50F850CF0A42FFFE5F03EFE38
:2006F200E43400FDE510850BF0A42FFFE5F03EFEED3400FDE511850AF0A42FFCE5F03EFF07
:20071200ED3400FEE50F850BF0A42FFFE5F03EFEE43400FDE510850AF0A42FFFE5F03EFEE5
:20073200ED3400FDE50F850AF0A42EFEE5F03DFD2278F9126FD3E60886F0C0E0C0F074091F
:2007520075F000C0E0C0F0120B4A158115811581158178FB126FD3E60886F0C0E0C0F07424
:200772000E75F000C0E0C0F0120B4A15811581158115811207A6740975F000C0E0C0F07480
:200792001375F000C0E0C0F0120B4A158115811581158122E512650DF50DE50E70030206C5
:2007B20069E5097003020674C3E509950E500620E70602067120E7E62480F5091201485077
:2007D2000CC3E50A950F700280030207F8C3E50A13F50AE50B13F50BE50C13F50C0509E5F0
:2007F200097003020669120827C0E0120827C0E0120827C0E012082754F0C36001D3E4D027
:20081200E03400F50CD0E03400F50BD0E03400F50A1205BA22AA0AA90BA80C850AF0E50B6C
:200832007C00AB0F12705230F00274FFFBF50A750B00750C001206C185020A85010B85008C
:200852000CC3E50C9FFFE50B9EFEE50A9DFD500D1BEF2510FFEE350FFEED3400FD750C00A9
:200872008F0B8E0AEB2278F9126FD3E60886F0C0E0C0F0740975F000C0E0C0F0120B4A1500
:200892008115811581158178FB126FD3E60886F0C0E0C0F0740E75F000C0E0C0F0120B4AEA
:2008B20015811581158115811208C0120946E512F4F512740975F000C0E0C0F0741375F083
:2008D20000C0E0C0F0120B4A15811581158115812278F9126FD3E60886F0C0E0C0F07409DF
:2008F20075F000C0E0C0F0120B4A158115811581158178FB126FD3E60886F0C0E0C0F07483
:200912000E75F000C0E0C0F0120B4A1581158115811581120946740975F000C0E0C0F0743C
:200932001375F000C0E0C0F0120B4A158115811581158122E50D6512F5F0C3E509950EF961
:2009520040249418501E780F740A2402FC02098FE50EF509E50FF50AE510F50BE511F50C76
:20097200E512F50DE422F404F9C3941850E2E50EF509E512F50D780A740F2402FCE665F088
:20099200FD08E665F0FE08E665F0FFE95407FBE95418030303F9E9600AAF06AE05ADF019BE
:2009B2000209A8EB6010E5F013ED13FDEE13FEEF13FF1B0209B5E5F013A804EF3618F50C85
:2009D200EE3618F50BED36F50AE5F0701A5054E50A13F50AE50B13F50BE50C13F50C05098D
:2009F200E509703F0206694015E50DF4F50DE50CF404F50CE4950BF50BE4950AF50AE50ABB
:200A120020E7207020D3E5099408403604F509E50BF50AE50CF50B7004E50A6025E4F50C8B
:200A3200020A10E422E50914F5096019C3E50C33F50CE50B33F50BE50A33F50A30E7E602DE
:200A52000A35020674020671A983A882F58285F083E4F512E0330350037512FFF5F0A3E049
:200A720033C5F033F50E6001D3E5F013F50FA3E0F510A3E0F5118983888222E5812404F857
:200A9200D0E0F6D0E018F6E50D33E50913C0E0E50A2313C0E0E50BC0E0E50CC0E0058105A9
:200AB2008122E5812404F8D0E0F6D0E018F6E51233E50E13C0E0E50F2313C0E0E510C0E068
:200AD200E511C0E00581058122D0E0F583D0E0F582750D00D0E0F50CD0E0F50BD0E033F536
:200AF200F0D0E033F5095003750DFFC36001D3E5F013F50AE47322D0E0F583D0E0F5827524
:200B12001200D0E0F511D0E0F510D0E033F5F0D0E033F50E50037512FFC36001D3E5F013E0
:200B3200F50FE473227809790E8004780E79097F05E6F70809DFFA2278F9126FD3E583C038
:200B5200E0E582C0E08607088606EE7043EFB40903020B69B40E0D8F017D05E709C0E0DD67
:200B7200FA020BD07505008F0109E733F5F019E733C0E050037505FFC36001D3E5F013C03C
:200B9200E00909E7C0E009E7C0E0EDC0E0020BD07505008E838F82A3E033F5F08E838F8277
:200BB200E033C0E050037505FFC36001D3E5F013C0E0A3A3E0C0E0A3E0C0E0EDC0E0088621
:200BD20007088606EFB40903020BE0B40E1AEF2404F9D0E0F7D0E019F7D0E019F7D0E019F0
:200BF200F7D0E019F7020C62E506B40023EF2403F9D0E0F5F0D0E0F7D0E019F7D0E0C5F08A
:200C120033D0E013C5F0231319F7E5F019F78040EFF582850683A3A3A3D0E0F9D0E0F0E5A1
:200C3200828583F01270ADF58285F083D0E0F0E5821270ADF58285F083D0E0C933D0E01376
:200C5200C92313F0E5821270ADF58285F083E9F0D0E0F582D0E0F58375F000EF227FFD7EF6
:200C7200FF1200DAE4F5F0F52485F02578FB126FD3E60886F0F52685F027E4F52AE5268586
:200C920027F07B007C001271057003020CE7E52A75F000C333C5F033C5F078F9126FD386F2
:200CB20001088602126FF5E5248525F089828A8312714F2BC5F03CC5F0F52485F025E52AFB
:200CD200052AE5268527F01270ADF52685F0271270A4020C8FE5248525F07F030200D82262
:200CF20078FB126FD3E60886F05402C5F05400C5F045F0600D18E60886F05400C5F0540226
:200D1200C5F045F07003020D887420F52E747375F00CC0E0C0F074B775F006C0E0C0F0E5A3
:200D32002E75F000C0E0C0F079227A03C001C00279207A03D083D082E0A3F5F0E0C5F089E2
:200D5200828A8312714FC39BC5F09CC0F0C0E0740475F000126F427FF8126FDF740475F0CD
:200D72000079737A0C126FF5E489828A83F0747375F00C020D8BE4F5F0227FFC7EFF1200A6
:200D9200DA7F040200D8E5A04407F5A078FB126FD3E60886F0F52485F025E5A0540764077C
:200DB200F52EE52E6003020DC3C208E4F5F0020F4378FB126FD3E60886F07B017C0012702A
:200DD200E27003020DE8E52E1270057BFF126FFC127037020F43E4F52CD20B79217A00E73A
:200DF200540112700545F0601078FB126FD3E60886F07B017C001270EB45F07003020E25F3
:200E1200740875F000C0E0C0F01210F815811581020E35740175F000C0E0C0F01210F815AB
:200E3200811581E5248525F07B017C00127085F52485F025E5A054076407F52D6003020E54
:200E520056020ED7E52E540475F00045F0600CE52D75F000AB2E7C001270EB45F0700302EF
:200E72000EA1E52C1270051270BE45F06004E52D54037003020EA1D20B740275F000C0E05B
:200E9200C0F01210F815811581E52D452EF52C438701E52D75F00045F0601D78FB126FD3E9
:200EB200E60886F045F06010E5248525F01270ADF52485F0251270BE45F07003020ED402C4
:200ED2000ED7020E46E52D7003020EE3D208020F0B79217A00E7540112700545F06009786A
:200EF200FB126FD3E60886F045F07003020F09C208E4F5F0020F43C208E52C6003020F161F
:200F1200E52EF52CE52C54F7F52CE52C540175F00045F06004E52C54027003020F36E52C78
:200F320054FEF52CE52C1270057BFF126FFC1270372278FB126FD3E60886F01270AD18F65A
:200F520008A6F01270A445F07003020F65438701020F4422126F5374C175F004F51C85F063
:200F72001DD20F126F5022126F5374B675F0EDF51C85F01DC20F126F5022740975F007F5D9
:200F92002F85F030C28CC2A9E51C851DF07B087C001270931270B4F58CE51C851DF054006D
:200FB200C5F05401C5F01270B4F58AE589F52AE52A54F0F52AE52A4401F52AE52AF589129A
:0E0FD2006F50D28CD2A922120F8C120F7922EE
:07000B00C0D0C0E0020FE0CD
:200FE000E51DF4F58CE51CF4F58A200F28C0F0E52F8530F02401C5F0340085F02FF530303F
:20100000010FE51E14F51E7008E5B04444F5B0C201D0F0800F300E0CE53D2323F53D54C052
:09102000453CF5A0D0E0D0D0322F
:07001B00C0D0C0E002102973
:20102900C0F0E51EC4F51EF5F0E5B054BB30F002440430F1024440F5B0D0F0E528F58BE5AC
:2010490029F58DD0E0D0D032126F53C2ABC28EE589540F4410F589E5288529F0900EFCF0F1
:20106900A3C5F0F0C5F0741A75F0F478FB126FD38603088604127052FBACF074FFF5F0C31B
:201089009BC5F09CC5F0F52885F029E5288529F054FFC5F05400C5F0F58BE5288529F07B89
:2010A900087C00127093F58DD28ED2AB126F5078F9126FD3E60886F01270AD18F608A6F05A
:2010C9001270A47B007C001270D270030210DE4387010210B8C28EC2AB900EFCE0A3F5F0DF
:2010E900E0C5F0F52885F029E5B04444F5B022120F661219BA78FB126FD3E60886F0548048
:20110900C5F05400C5F045F0700302111BC20B02111DD20B78FB126FD3E60886F0540FC505
:20112900F05400C5F018F608A6F07430F51EE5B0F51778FB126FD3E6F5F0232325F024D0C8
:20114900F582740BF583E0FFA3E0FEA3E0C0E0A3E0F50EA3E0200B206010E51E4402F51E75
:20116900E51754FBF5B0F517800EE51E4401F51EE51754BFF5B0F517EFC0E0E4C0E0EEC000
:20118900E0E4C0E0121051E517F5B01581158115811581E50E601A7832438701D8FBE4C01D
:2011A900E0E50EC0E0E4C0E01210511581158115811581E517F5B0120F79D20B79217A0038
:2011C900E7540870030211DDE5B04444F5B0E4F51E0211E37407F51ED201C20B12199622A0
:2011E90078FFE5904404F59000209202D8FA2278FB126FD38606E59054EFF5907B08E50687
:2012090033F506E590400454F780024408F590004410F5900000000054EFF59000DBDF12D3
:2012290011E92278FB126FD38606E59054FDF590F5F01211E9E5F04401F590E506C0E0C010
:20124900F01211F8D0F0D0E0E5F04402F590227FFB7EFF1200DA74017F021200BEF0E47F4C
:20126900031200BEF0740175F000C0E0C0F0120D98158115817F041200BEF079207A00E758
:2012890054807003021295C2070212A5742075F000C0E0C0F012122C15811581741875F01D
:2012A90000C0E0C0F012122C15811581E4C0E0C0E012122C1581158178FB126FD3E608867E
:2012C900F07F001200BEF0A3C5F0F0C5F07F001200BE12715689828A83E075F0007B017C5C
:2012E900001270E270030213187F001200BEE0A3F5F0E0C5F01270A47F001200BEF0A3C5C8
:20130900F0F0C5F01270AD74017F031200BEF0E4C0E0C0E012122C15811581741575F000BB
:20132900C0E0C0F012122C15811581E59054FDF5901211E9E59054FEF590E5904401F590F6
:2013490074E075F000C0E0C0F01211F815811581E59054FEF590E4F52EE52E75F0007B09E5
:201369007C001270F5600D7F001200BE12715689828A83E070030216748024E52E052E7F7C
:20138900001200BEE0A3F5F0E0C5F01270A47F001200BEF0A3C5F0F0C5F01270AD80BAE5C7
:2013A9002E75F0007B027C00127085F52D7F001200BE12715689828A83E0F52BE52B54804B
:2013C9007003021594E5904401F590E52D44E075F000C0E0C0F01211F815811581E52B5411
:2013E9002070030214CDE4F52CE52C75F0007B047C001270F570030214BA800AE52C052C72
:20140900E52D052D80E37F001200BEE0A3F5F0E0C5F01270A47F001200BEF0A3C5F0F0C55E
:20142900F01270ADE52B54407003021498E52B5410700302147674027F031200BEF07F0015
:201449001200BE12715689828A83E044C075F000C0E0C0F01211F815811581E52D44E07537
:20146900F000C0E0C0F01211F8158115817F001200BE12715689828A83E0540F44B075F000
:2014890000C0E0C0F01211F8158115810214B77F001200BE12715689828A83E0540F44D048
:2014A90075F000C0E0C0F01211F815811581021405E52B544070030214CAE52DC39404F5B3
:2014C9002D021579E52B54407003021517E52B540FF52CE52C75F0007B027C00127085F502
:2014E9002CE52C700302150874CF75F000C0E0C0F01211F815811581E52C152C0214EAE59E
:201509002E152E74027F031200BEF0021579E52B54107003021579E52B540F75F0007B043B
:201529007C00127037F52DE52D44E075F000C0E0C0F01211F8158115817F001200BEE0A347
:20154900F5F0E0C5F01270A47F001200BEF0A3C5F0F0C5F01270AD7F001200BE12715689C6
:20156900828A83E070030215750213B6E52E152EE52D44E075F000C0E0C0F01211F8158137
:201589001581E59054FEF590021384E52B75F0007B2E7C001270E2700302161AE52E6003AE
:2015A9000215B2E4F52D0215C3E52EC3940175F0007B047C00127037F52DE5904401F59094
:2015C900E52D240244E075F000C0E0C0F01211F81581158174B875F000C0E0C0F01211F8AE
:2015E90015811581E52E75F0007B047C00127037F52DE52D44E075F000C0E0C0F01211F862
:2016090015811581E59054FEF590E52E152E021384E52B75F0007B617C0012710E600CE5AB
:201629002B75F0007B7A7C001270FC45F07003021641E52B54DFF52BE52E75F0007B087C47
:20164900001270E27003021655021674E52B547FF52BE52B4480F52BE52B75F000C0E0C0E5
:20166900F01211F815811581021384E5904402F5907F001200BE12715689828A83E07003BE
:201689000217A578FB126FD3E60886F01270A418F608A6F01270AD78FB126FD3860108867B
:2016A9000289828A83E075F0007B2E7C001270E270030216D118E60886F01270A418F60825
:2016C900A6F01270AD0216A078FB126FD3860108860289828A83E060030216E80217FD7FB6
:2016E900021200BEE070030216FA741EF52A0216FE7406F52A79217A00E75404700302176B
:2017090018E52A75F0007B027C00127093F52A152AE52A700302174F740175F000C0E0C0A4
:20172900F0120D981581158175F0007F041200BE12714B7C001270EB70030217490217FD73
:20174900438701021718740175F000C0E0C0F0120D981581158175F0007F041200BE12713C
:201769004B7C001270EB701E79217A00E7540412700545F06010740175F000C0E0C0F012E3
:201789003E0D1581158145F0700302179BC20A0217FDE47F021200BEF00212C17F031200FD
:2017A900BEE075F0007B017C001270E270030217D8740775F000C0E0C0F0E4C0E0C0F0E415
:2017C900C0E0C0E01218027FFA126FDF0217FD7F031200BEE075F0007B027C001270E27041
:2017E900030217FD741A75F000C0E0C0F012122C158115817F050200D87FFE7EFF1200DAC4
:2018090078F7126FD3E60886F090193E02700EE59054C0F590740A75F000C0E0C0F0120FCF
:201829004415811581D292E5904420F590E59054FDF5901211E9E5904401F590744275F0BC
:2018490000C0E0C0F01211F815811581743075F000C0E0C0F01211F815811581741575F05A
:2018690000C0E0C0F01211F815811581742075F000C0E0C0F01211F815811581741175F04E
:2018890000C0E0C0F01211F815811581E5904402F59002194AE4C0E0C0E012122C158115E4
:2018A90081E5904401F590E59054FDF5901211E9E4F5F07F001200BEF0A3C5F0F0C5F07F84
:2018C900001200BEE0A3F5F0E0C5F07B207C001270C2700302191580207F001200BEE0A3C2
:2018E900F5F0E0C5F01270A47F001200BEF0A3C5F0F0C5F01270AD80C674CF75F000C0E046
:20190900C0F01211F8158115810218E2E5904402F590740175F000C0E0C0F0120F44158166
:201929001581741A75F000C0E0C0F012122C1581158102194A9E1807001818010000004AAC
:2019490019740175F000C0E0C0F0120F44158115817F020200D8C28E78FB126FD3860308A7
:201969008604749675F0981270521270B4C0E0E589540F4420F589D0E0F58DF58BC28BD29F
:201989008E0000759840E5B04403F5B022C2AC900C1EE0A3F5F0E0C0F0C0E012195F1581E0
:2019A9001581E4F519F518E4F51BF51AD2ACD29C22E598540870030219C94387010219BAA8
:2019C900C29CC2ACE4F598C28EE5894450F589E58954DFF5892278FB126FD3E60886F0F590
:2019E9002485F025A924AA2589828A83E07003021A4EA924AA2589828A83E01270057B0A0F
:201A0900126FFC1270E27003021A24740D75F000C0E0C0F0121A4F15811581A924AA258927
:201A2900828A83E0127005C0E0C0F0121A4F15811581E5248525F01270A4F52485F0251222
:201A490070AD0219ED2278FB126FD3C001C002E6C0E0E51AF904B4FF027400B51B0700006A
:201A690000000080F6FAD0E0C083C0828982758300F08A1AD082D083209B02D299D002D0B2
:201A89000122C0E0C0E0121A4FD0E0D0E022E519B5180574FFF5F022F8C082C08388827597
:201AA9008300E0D083D08208B8FF027800881975F00022E518C3951975F0002222E51AC3DB
:071AC900951B75F0002222BD
:07002300C0D0C0E0021AD0BA
:201AD000C00030981CA818C083C0827583008882E599C298F0D082D08308B8FF02780088DD
:201AF00018309909C299E51BB51A09C29BD000D0E0D0D032F8C083C0827583008882E0D0DB
:201B100082D083F59908B8FF027800881BD29B80DC23F42581F8127133126DD4127133C079
:201B300082C0831219DF15811581222278FC126FD38604188603188683188682E4FDFE1231
:201B50001A97A9F0B9FF0A75C7AA75C755D2BF80EEB408028003B47F27ED4E60E21DBDFF02
:201B7000011E7408121A8B7420121A8B7408121A8B8583F0E5821270AD85F083F58280BF49
:201B9000121A8BF024F3600EA30DBD00010EED8EF01270C270A9740A121A8BE4F0ED8EF051
:201BB00022222278F7126FD3E60886F0C0E0C0F0748B75F00CC0E0C0F0120B4A15811581E5
:201BD0001581158178F9126FD3E60886F02404C5F03400C0F0C0E0748B75F00CC0E0C0F07F
:201BF0001205E31581158115811581744675F007C0E0C0F0740E75F000C0E0C0F0120B4A6F
:201C10001581158115811581120946740975F000C0E0C0F0748775F00CC0E0C0F0120B4AA6
:201C30001581158115811581748B75F00CC0E0C0F0748B75F00CC0E0C0F01205E315811517
:201C5000811581158178F9126FD3E60886F0240CC5F03400C0F0C0E0740E75F000C0E0C0EE
:201C7000F0120B4A1581158115811581120646748775F00CC0E0C0F0740E75F000C0E0C044
:201C9000F0120B4A1581158115811581120946740975F000C0E0C0F0748775F00CC0E0C026
:201CB000F0120B4A158115811581158178F9126FD3E60886F02414C5F03400C0F0C0E07457
:201CD0000075F00CC0E0C0F01200E515811581158115817B017C001270EB7003021D7978FC
:201CF000F9126FD3E60886F02414C5F03400C0F0C0E0740975F000C0E0C0F0120B4A158183
:201D1000158115811581748B75F00CC0E0C0F0740E75F000C0E0C0F0120B4A158115811552
:201D3000811581120646120646120646748775F00CC0E0C0F0740E75F000C0E0C0F0120B52
:201D50004A1581158115811581120946740975F000C0E0C0F0748775F00CC0E0C0F0120B65
:201D70004A1581158115811581748B75F00CC0E0C0F078F7126FD3E60886F02408C5F034B5
:201D900000C0F0C0E01205E31581158115811581740975F000C0E0C0F0748375F00CC0E057
:201DB000C0F0120B4A158115811581158178FB126FD3E60886F0C0E0C0F0740075F00CC084
:201DD000E0C0F01200E515811581158115817B017C001270EB7003021E48748375F00CC0AC
:201DF000E0C0F0740975F000C0E0C0F0120B4A158115811581158178FB126FD3E60886F027
:201E1000C0E0C0F0740E75F000C0E0C0F0120B4A1581158115811581120646740975F0002C
:201E3000C0E0C0F0748375F00CC0E0C0F0120B4A1581158115811581748B75F00CC0E0C0FB
:201E5000F0748B75F00CC0E0C0F01205E3158115811581158178F9126FD3E60886F0241013
:201E7000C5F03400C0F0C0E0740E75F000C0E0C0F0120B4A15811581158115811206467451
:201E90000975F000C0E0C0F0747F75F00CC0E0C0F0120B4A158115811581158178FB126F0D
:201EB000D3E60886F0C0E0C0F0740075F00CC0E0C0F01200E515811581158115817B017C0F
:201ED000001270EB7003021F1D747F75F00CC0E0C0F0740975F000C0E0C0F0120B4A1581F1
:201EF00015811581158178FB126FD3E60886F0C0E0C0F0740E75F000C0E0C0F0120B4A15E2
:201F100081158115811581120646021F3A747F75F00CC0E0C0F0740975F000C0E0C0F012BD
:201F30000B4A1581158115811581748375F00CC0E0C0F0740E75F000C0E0C0F0120B4A1579
:201F50008115811581158112094678F9126FD3E60886F02400C5F03400C0F0C0E0740E7550
:201F7000F000C0E0C0F0120B4A1581158115811581120946744A75F007C0E0C0F0740E7580
:201F9000F000C0E0C0F0120B4A1581158115811581120646748775F00CC0E0C0F0740E7521
:201FB000F000C0E0C0F0120B4A15811581158115811207A622E52F8530F02408C5F034075C
:201FD000C5F0900EE4F0A3C5F0F0C5F022E52F8530F0900EE4F0A3C5F0F0C5F022E52F85C8
:201FF00030F0C39408C5F09407C5F0900EE412714F127105700302201C740275F000C0E045
:20201000C0F01210F81581158112215322E52F8530F0900EE412714FC39BC5F09CC5F0C3DE
:20203000C5F013C5F0132278FB126FD3E60886F01270AD18F608A6F01270A445F070030208
:20205000208D78F7126FD3E60886F01270A418F608A6F01270ADF9AAF008E60886F012701A
:20207000A418F608A6F01270ADC001C002F9AAF089828A83E0D083D082F00220372278F942
:20209000126FD3E60886F05400C5F05480C5F045F0700302210508E60886F05400C5F0544D
:2020B00080C5F045F070030220F6181818E60886F07BFF7C7F1270F50856C5F00856C5F05D
:2020D00054FFC5F0547FC5F045F070030220E718E60886F002215278F9126FD3E60886F095
:2020F00002215202210278F9126FD3E60886F002215202215278FB126FD3E60886F05400A4
:20211000C5F05480C5F045F0700302212518E60886F002215278FB126FD3E60886F0181835
:20213000188603088604127105700302214618E60886F002215278FB126FD3E60886F002DA
:20215000215222740375F000C0E0C0F0E4C0E0C0F0E4C0E0C0E012122C7FFA126FDFE590B8
:2021700044404480F590E5B0547FF5B0438701E5B04480F5B0438701E5B0547FF5B0126F53
:202190005375C7AA75C7557587022278FB126FD3860108860289828A83E0A3F5F0E0C5F052
:2021B0002278F9126FD3860108860208E60886F089828A83F0A3C5F0F0C5F022E4F5F02293
:2021D0007FFE7EFF1200DA78FB126FD3E60886F07BFF7CFF1270E2700302220078F7126FFE
:2021F000D3E60886F00826C5F00836C5F002232078F9126FD3E60886F07B007C001270C219
:20221000700302223018E60886F07BFF7CFF1270377F001200BEF0A3C5F0F0C5F002224518
:2022300078F9126FD3E60886F07F001200BEF0A3C5F0F0C5F078FB126FD3E60886F054406A
:20225000C5F05400C5F045F0700302229478F7126FD3E60886F07B897C01127105700302AB
:2022700022917F001200BEE0A3F5F0E0C5F07B047C001270377F001200BEF0A3C5F0F0C54F
:20229000F00222C878F7126FD3E60886F07BBC7C0212710E70030222C87F001200BEE0A3B4
:2022B000F5F0E0C5F07B0A7C001270377F001200BEF0A3C5F0F0C5F078F9126FD3E6088665
:2022D000F07B007C001270C270030222FB181818E60886F07F001200BE12714FC39BC5F051
:2022F0009CC5F018F608A6F002231778F7126FD3E60886F07F001200BE12714F2BC5F03C31
:20231000C5F018F608A6F078F7126FD3E60886F07F020200D87FFA7EFF1200DAE52F85301F
:20233000F07F001200BEF0A3C5F0F0C5F07F021200BEF0A3C5F0F0C5F0900EF7E0A3F5F026
:20235000E0C5F07BFF7CFF1270E2700302239D74A375F00EC0E0C0F0742075F00CC0E0C00B
:20237000F0900EF1E0A3F5F0E0C0F0C0E0740375F000126F427FFA126FDF74A375F00EC074
:20239000E0C0F0121258158115810223C9900EF1E0A3F5F0E0C0F0C0E0900EFAE0A3F5F0E0
:2023B000E0C0F0C0E0900EF7E0A3F5F0E0C0F0C0E0122D527FFA126FDF79217A00E75401F6
:2023D0006007740275F0008005740575F000C0E0C0F0120D9815811581F53160030224ED79
:2023F0001269BA45F070030223FD121FDD438701900EF9E075F00045F0601BE52F8530F0B0
:202410007F021200BE12714FC39BC5F09CC5F07B057C0012710545F070030224D674017513
:20243000F000C0E0C0F0123E0D1581158145F070030224C5740175F000C0E0C0F012408A2A
:2024500015811581F52485F025E5248525F07B007C801270EB601EE5248525F0900EF31242
:20247000714F12710E600EE5248525F0900EF512714F1270F545F070030224B2E5248525DB
:20249000F0900EF1F0A3C5F0F0C5F0121FDDE52F8530F07F021200BEF0A3C5F0F0C5F002B9
:2024B0002349748775F000C0E0C0F01210F815811581022349E52F8530F07F021200BEF042
:2024D000A3C5F0F0C5F0121FEDE52F8530F07F001200BEF0A3C5F0F0C5F00223C9121FDDE0
:2024F000E52F8530F07F001200BE12714FC39BC5F09CC5F07B1E7C00127105700302252433
:20251000746475F0007F041200BEF0A3C5F0F0C5F0022569E52F8530F07F001200BE127113
:202530004FC39BC5F09CC5F07B0F7C001271057003022558740A75F0007F041200BEF0A38F
:20255000C5F0F0C5F0022569740175F0007F041200BEF0A3C5F0F0C5F0E531127005902713
:202570001C02700E900EF1E0A3F5F0E0C5F0022737900EF5E0A3F5F0E0C5F07F041200BEE0
:2025900012714FC39BC5F09CC5F0900EF112714F1270F570030225CF900EF5E0A3F5F0E0D9
:2025B000C5F0900EF1F0A3C5F0F0C5F0740375F000C0E0C0F01210F815811581022734907B
:2025D0000EF1E0A3F5F0E0C0F0C0E07F041200BEE0A3F5F0E0C0F0C0E0900EF7E0A3F5F06C
:2025F000E0C0F0C0E01221D07FFA126FDF900EF1F0A3C5F0F0C5F0022734900EF3E0A3F5DD
:20261000F0E0C5F07F041200BE12714F2BC5F03CC5F0900EF112714F1271057021900EF324
:20263000E0A3F5F0E0C5F07F041200BE12714F2BC5F03CC5F0900EF512714F12710545F075
:20265000700302267C740375F000C0E0C0F01210F815811581900EF3E0A3F5F0E0C5F090C3
:202670000EF1F0A3C5F0F0C5F0022734900EF1E0A3F5F0E0C0F0C0E07F041200BEE0A3F50F
:20269000F0E0C5F01270B4C0E0C0F0900EF7E0A3F5F0E0C0F0C0E01221D07FFA126FDF9086
:2026B0000EF1F0A3C5F0F0C5F0022734E475F080022737900EF1E0A3F5F0E0C5F0900EF37B
:2026D00012714F1270E270030226F2900EF5E0A3F5F0E0C5F0900EF1F0A3C5F0F0C5F00219
:2026F0002706900EF3E0A3F5F0E0C5F0900EF1F0A3C5F0F0C5F0022734740375F000C0E0BA
:20271000C0F01210F815811581022349C326FAFFBC26FBFF0A26FFFF8125FEFF7425FCFF22
:20273000000009270223497F060200D87FFE7EFF1200DA78F9126FD38601088602742089AD
:20275000828A83F0E4F5F07F001200BEF0A3C5F0F0C5F0181818E60886F07B007C80127040
:20277000E2700302278908E60886F01270A418F608A6F01270AD02285B78F7126FD3E6089F
:2027900086F05400C5F05480C5F045F070030227C2088601088602742D89828A83F0181896
:2027B00018E60886F054FFC5F0547FC5F018F608A6F078F9126FD3E60886F01270A418F6F4
:2027D00008A6F01270AD181818E60886F07B647C00127052F52485F02518E60886F07B6433
:2027F0007C0012704BF52B79087A0289828A83E0A3F5F0E0C5F05408C5F05400C5F045F0FF
:20281000601078F7126FD3E60886F07BE07C2E12710545F0702E79087A0289828A83E0A319
:20283000F5F0E0C5F05408C5F05400C5F01270BE45F0601078F7126FD3E60886F07B147CDD
:202850001E12710545F0700302289D7F001200BEE0A3F5F0E0C5F01270A47F001200BEF0A2
:20287000A3C5F0F0C5F01270AD78F9126FD3E60886F0C0E0C0F0742375F00CC0E0C0F01239
:202890006F661581158115811581022BC978FB126FD3E60886F05460C5F05400C5F045F033
:2028B0006003022A71E5248525F07B077C001270F5700302296778F9126FD3E60886F0C002
:2028D000E0C0F0742775F00CC0E0C0F0E5248525F0C0E0C0F0740375F000126F427FFA12DF
:2028F0006FDFE52B75F0007B0A7C001270F5700302293578F9126FD3E60886F02402C5F0B6
:202910003400C0F0C0E0742B75F00CC0E0C0F0E52B75F000C0E0C0F07403126F427FFA1239
:202930006FDF02296478F9126FD3E60886F02402C5F03400C0F0C0E0742F75F00CC0E0C0AE
:20295000F0E52B75F000C0E0C0F07403126F427FFA126FDF022A6EE5248525F07B637C0008
:2029700012710570030229A778F9126FD3E60886F0C0E0C0F0743275F00CC0E0C0F0E52491
:202990008525F0C0E0C0F0740375F000126F427FFA126FDF022A6EE52B75F0007B0A7C00B5
:2029B000127052F52AE52B75F0007B0A7C0012704B7B057C0012710E70030229D1E52A05C1
:2029D0002AE52A75F0007B097C0012710570030229F5E5248525F01270A4F52485F02512A0
:2029F00070ADE4F52A78F9126FD3E60886F0C0E0C0F0743575F00CC0E0C0F0E5248525F021
:202A10007B0A7C001270F56007743B75F00C8005743D75F00CC0E0C0F0E5248525F0C0E06D
:202A3000C0F0740475F000126F427FF8126FDF78F9126FD3E60886F02403C5F03400C0F076
:202A5000C0E0743E75F00CC0E0C0F0E52A75F000C0E0C0F07403126F427FFA126FDF022B4F
:202A7000C978FB126FD3E60886F05440C5F05400C5F045F07003022BC978F7126FD3E608B1
:202A900086F0C0E0C0F012043315811581745675F007C0E0C0F0740975F000C0E0C0F01221
:202AB0000B4A1581158115811581120646740975F000C0E0C0F01202151581158178F712F3
:202AD0006FD3F608A6F018E60886F07B0A7C00127052F52485F02518E60886F07B0A7C008F
:202AF00012704BF52BE5248525F07B647C001270F57003022B0DE52BF52A0229F5E52485DA
:202B100025F07BE77C031271057003022B9DE5248525F07BB87C0B127105705379087A0245
:202B300089828A83E0A3F5F0E0C5F05408C5F05400C5F01270BE45F0600CE5248525F07B57
:202B50009E7C0712710545F0702578F9126FD3E60886F0C39401C5F09400C5F0F9AAF08957
:202B7000828A83E01270057B2D126FFC1270E245F07003022B8902285B78F9126FD3E60830
:202B900086F01270AD18F608A6F01270A478F9126FD3E60886F0C0E0C0F0744175F00CC04F
:202BB000E0C0F0E5248525F0C0E0C0F0740375F000126F427FFA126FDF7F001200BEE0A338
:202BD000F5F0E0C5F07F020200D878F9126FD3E60886F054FFC5F05400C5F045F07003022C
:202BF0002D5118E60886F07B087C00127093F52B18E60886F054FFC5F05400C5F0F52CE504
:202C10009054FDF5901211E9E5904401F59078FB126FD3E67003022C3074E1F52E022C349B
:202C300074E2F52EE4F52AE52A75F0007B087C001270F57003022D26800CE52A052AE52E79
:202C50002404F52E80E1740175F000AB2A7C00127085F52DE52D552C7003022D23E52E7584
:202C7000F000C0E0C0F01211F81581158178FB126FD3E67003022CD774B175F000C0E0C0AE
:202C9000F01211F815811581E52E75F000C0E0C0F01211F815811581E52D552B7003022CAB
:202CB000C474C175F000C0E0C0F01211F815811581022CD4748E75F000C0E0C0F01211F83B
:202CD00015811581022D2374B875F000C0E0C0F01211F815811581E52E75F000C0E0C0F076
:202CF0001211F815811581E52D552B7003022D1374C875F000C0E0C0F01211F815811581FE
:202D1000022D23748775F000C0E0C0F01211F815811581022C4A1211E9E59054FEF5901278
:202D300011E9E5904402F590E52B54FF7003022D51741A75F000C0E0C0F012122C158115B5
:202D500081227FDE7EFF1200DA78F7126FD3E60886F0C0E0C0F07F001200CCE98AF0C0E023
:202D7000C0F0080808E60886F0C0E0C0F012273C7FFA126FDF7F201200BEF0A3C5F0F0C50D
:202D9000F078F9126FD3E60886F045F06003022DAB744475F00C18F608A6F074A375F00E39
:202DB000C0E0C0F0744975F00CC0E0C0F078F5126FD3E60886F0C0E0C0F07F001200CCE97A
:202DD0008AF0C0E0C0F0740475F000126F427FF8126FDF74A375F00EC0E0C0F01212581537
:202DF00081158178FB126FD3E60886F0F52885F02979207A00E754026003022E28E5B054D2
:202E1000046003022E28E5288529F04410C5F04410C5F0F52885F02978F7126FD3E6088634
:202E3000F07B007C801270E27003022E52E5288529F054F7C5F054F7C5F0F52885F029025A
:202E50002ED479207A00E754017003022EAEE5288529F05400C5F05408C5F045F070030251
:202E70002E99E5288529F04408C5F04400C5F0F52885F029E5288529F054FFC5F054F7C558
:202E9000F0F52885F029022EABE5288529F054F7C5F054FFC5F0F52885F029022ED4E5281D
:202EB0008529F05408C5F05400C5F045F07003022ED4E5288529F054FFC5F054F7C5F0F5F6
:202ED0002885F029E5288529F0C0E0C0F0740175F000C0E0C0F0122BDA1581158115811509
:202EF0008178F7126FD3E60886F07B007C801270EB7003022F25900EEDE0A3F5F0E0C0F0EA
:202F1000C0E0E4C0E0C0E0122BDA1581158115811581022F49900EEDE0A3F5F0E0C5F05418
:202F3000F3C5F054F3C0F0C0E0E4C0E0C0E0122BDA15811581158115817F201200BEE0A3BD
:202F5000F5F0E0C5F07F220200D878FB126FD3E60886F045F06003022F70E4F5F002315BB1
:202F70001219BAE4F5F0F52885F02978F9126FD3E60886F045F07003022F9774FFF5F0F5F2
:202F90002685F027022F9FE4F5F0F52685F027120F66C28EE5894420F589E58954EFF589B9
:202FB000E59054BFF590740AF52AA82A438701D8FB740BF52AE5B04420F5B0E5A04420447E
:202FD0000FF5A078FB126FD3E60886F045F07003023107E5B04408F5B0E5B054F7F5B0E441
:202FF000F58DE4F58BD28E438701E5A054DFF5A0A82A438701D8FBE5A04420440FF5A043DF
:203010008701C28EE580547F75F000F52485F025E58B75F0007B087C001270854524C5F07F
:203030004525C5F0F52485F025E5B054207003023054E5248525F02480C5F03400C5F0F5D2
:203050002485F02578F9126FD3E60886F07B017C001270E27003023087E5248525F0AB267D
:20307000AC271270F57003023084E5248525F0F52685F0270230F078F9126FD3E60886F028
:203090007B027C001270E270030230D5E5248525F0AB26AC271270F570030230B7E52485A1
:2030B00025F0F52685F027E5248525F0AB28AC2912710570030230D2E5248525F0F52885A5
:2030D000F0290230F0E5248525F0AB26AC2712710570030230F0E5248525F0F52685F027E7
:2030F00078FB126FD3E60886F01270AD18F608A6F01270A4022FD3E59044404480F590C28C
:203110008EE5A04420440FF5A0120F7912199678F9126FD3E60886F07B027C001270E270EF
:2031300003023156E5268527F0900C8FF0A3C5F0F0C5F0E5288529F0C39526C5F09527C5D5
:20315000F0F52685F027E5268527F0227FFC7EFF1200DA78FB126FD3E60886F0F52485F052
:2031700025E5248525F0900C9312714FC39BC5F09CC5F0F52485F025E5248525F0900C918F
:2031900012714F1270F570030231A2E475F0800232C8790A7A0289828A83E0A3F5F0E0C5A5
:2031B000F0F52885F029AB24AC251270F570030231E1E475F080F52685F027E5248525F093
:2031D000C39528C5F09529C5F0F52485F0250231FCE4F5F0F52685F027E5288529F0C395D2
:2031F00024C5F09525C5F0F52485F025E5248525F0C0E0C0F012043315811581740E75F075
:2032100000C0E0C0F0740975F000C0E0C0F0120B4A1581158115811581790C7A02E52885CA
:2032300029F089828A8312714FC39BC5F09CC0F0C0E0120433158115811207A6740975F066
:2032500000C0E0C0F07F001200CCE98AF0C0E0C0F0120B4A15811581158115817F001200AE
:20327000CCE98AF0C0E0C0F0741875F002C0E0C0F0740C75F003C0E0C0F0121BB37FFA12D9
:203290006FDF740975F000C0E0C0F012021515811581F52485F025E5248525F045F060035B
:2032B0000232BBE4F5F0F52685F027E5248525F04526C5F04527C5F07F040200D879087A53
:2032D0000289828A83E0A3F5F0E0C5F05402C5F05400C5F045F070030232F1E4F5F00233E8
:2032F000EB740175F000C0E0C0F07401C0E0C0F0122F5A1581158115811581790E7A02C02E
:20331000E0C0F0D0F0D0E089828A8312714F127105700302332E740175F0000233EB900CBF
:2033300097E0A3F5F0E0C5F01270BE45F07019E52F8530F0900C9712714FC39BC5F09CC5B9
:20335000F07B2C7C0112710545F070030233E8740275F000C0E0C0F0740AC0E0C0F0122FC2
:203370005A1581158115811581F52A79107A02C0E0C0F0D0F0D0E089828A8312714F12703B
:20339000FC70030233E8900C8FE0A3F5F0E0C5F0C3952AC5F09400C5F0900C91F0A3C5F074
:2033B000F0C5F0790C7A02900C91E0A3F5F0E0C5F089828A8312714FC39BC5F09CC5F0904F
:2033D0000C93F0A3C5F0F0C5F0E52F8530F0900C97F0A3C5F0F0C5F0E4F5F022740275F0B2
:2033F00000C0E0C0F07405C0E0C0F0122F5A1581158115811581F52A790E7A02900C8FE084
:20341000A3F5F0E0C5F089828A8312714F1270FC700302342CE475F08002345979127A02E3
:20343000E52A75F00089828A8312714F1270FC7003023446D206900C8FE0A3F5F0E0C0F0B6
:20345000C0E012315C158115812278F9126FD3E6F5060808E6F50308E6F50485033C850407
:203470003D7824438701D8FBE53C54DFF53C4387017D04438701DDFBDEF7E53C4428F53CBE
:20349000F5A04387012278F9126FD3E60886F045F060030234ACE4F5F00237CB1219BAE461
:2034B000F52AE52A75F0007B047C001270F570030235078006E52A052A80E7740175F00041
:2034D000AB2A7C0012708578FB126FD356C5F0E4C5F045F07003023504E52A75F000C333CC
:2034F000C5F033C5F079327A00126FF574FFF5F0F709A7F00234C5740875F00079327A0094
:20351000126FF5E4F5F0F709A7F0120F66C28EE5A0440FF5A0E590547FF590742FF53C746C
:20353000F0F53D780A438701D8FBD20E741775F002F51C85F01DE5B04408F5B078F9126F4C
:20355000D3E60886F0F52685F027E5B04420F5B0E5268527F045F0700302373FE4F52BE51F
:203570002B75F0007B047C001270F5700302372C8006E52B052B80E7E5268527F078F9120A
:203590006FD386030886041270EB600CE52B75F0007B017C001270EB45F070030235B20278
:2035B0003582740175F000AB2B7C0012708578FB126FD356C5F0E4C5F045F060030235D304
:2035D000023582E5B054EFF5B0E52B75F00090361E02700E742F75F0F0F52885F0290236E1
:2035F00032742775F0F0F52885F029023632743775F078F52885F029023632742775F0784F
:20361000F52885F029E5B04410F5B00236320B360300FE350200F1350100E435000000002E
:203630003236E4F58DE4F58BE5B054F7F5B0D28E741A75F000C0E0C0F0E5288529F0C0E0D5
:20365000C0F012345A1581158115811581C28EE580547F75F000F52485F025E5B054207099
:2036700003023686E5248525F04480C5F04400C5F0F52485F025E5B04408F5B0E58B75F056
:20369000007B087C001270854524C5F04525C5F0F52485F025E52B75F000C333C5F033C50C
:2036B000F079327A00126FF5E5248525F087030987041270F570030236E6E52B75F000C36E
:2036D00033C5F033C5F079327A00126FF5E5248525F0F709A7F0E52B75F0007B017C0012B6
:2036F00070E26019740875F00079327A00126FF5E5248525F0870309870412710545F07085
:2037100003023729740875F00079327A00126FF5E5248525F0F709A7F0023582E52685270E
:20373000F01270ADF52685F0271270A4023560E5B054F7F5B0C20EE59044404480F590C28D
:203750008EE5A04420440FF5A0120F7912199678FB126FD3E65401700302379FE4F5F07910
:20377000327A00126FF5C001C00279647A02D007D000C000C007E60886F089828A8312710E
:203790004F2BC5F03CC5F0D007D000F608A6F0740875F00079327A00126FF5C001C002744B
:2037B0000275F00079327A00126FF5D007D000E60886F0C397C5F00997C5F022744C75F041
:2037D00002C0E0C0F0740975F000C0E0C0F0120B4A1581158115811581740475F00079320E
:2037F0007A00126FF5E70987F0C0E0C0F0120433158115811207A6E4F5F079327A00126F6F
:20381000F5C001C002740275F00079327A00126FF5D007D000E60886F0C397C5F00997C030
:20383000F0C0E012043315811581120646120A8D120B37745475F002C0E0C0F0740975F0B7
:2038500000C0E0C0F0120B4A15811581158115811208BA745075F002C0E0C0F0740E75F013
:2038700000C0E0C0F0120B4A15811581158115811207A6E4F50D746075F002C0E0C0F07485
:203890000E75F000C0E0C0F0120B4A1581158115811581120646120B37745C75F002C0E00D
:2038B000C0F0740975F000C0E0C0F0120B4A15811581158115811208BA745875F002C0E0B0
:2038D000C0F0740E75F000C0E0C0F0120B4A1581158115811581120646120B37740475F0A3
:2038F00003C0E0C0F0740975F000C0E0C0F0120B4A15811581158115811207A6744675F096
:2039100007C0E0C0F0740E75F000C0E0C0F0120B4A1581158115811581120946120B0912B1
:203930000646120B37745475F002C0E0C0F0740975F000C0E0C0F0120B4A158115811581FD
:2039500015811208BA745075F002C0E0C0F0740E75F000C0E0C0F0120B4A15811581158112
:2039700015811207A6E50D6006E475F0808003E4F5F0F52685F027E4F50D740975F000C036
:20399000E0C0F0743075F002C0E0C0F0740875F003C0E0C0F0121BB37FFA126FDF7409754D
:2039B000F000C0E0C0F012021515811581F52485F025E5248525F045F060030239D6E4F58A
:2039D000F0F52685F027E5248525F04526C5F04527C5F022C20D79087A0289828A83E0A3C3
:2039F000F5F0E0C5F05401C5F05400C5F045F0601178FB126FD3E61270057B02126FFC1244
:203A100070EB45F07003023A1FE4F5F0023C50900C95E0A3F5F0E0C5F045F06003023A33AC
:203A3000023AF2740375F000C0E0C0F07402C0E0C0F01234961581158115811581E4F5F059
:203A500079327A00126FF5C001C002740275F00079327A00126FF5D007D000E60886F0C3F4
:203A700097C5F00997C5F0F52485F02579167A02C0E0C0F0D0F0D0E089828A8312714F121B
:203A900071057003023AAC78FB126FD3E66003023AA4D20DE5248525F0023C5079147A023C
:203AB000E5248525F089828A8312714F1270F5602A900C95E0A3F5F0E0C5F01270BE45F0C5
:203AD0007019E52F8530F0900C9512714FC39BC5F09CC5F07B2C7C0112710545F0700302D7
:203AF0003C4D740375F000C0E0C0F0740FC0E0C0F01234961581158115811581E4F5F079B8
:203B1000327A00126FF5C001C002740275F00079327A00126FF5D007D000E60886F0C39715
:203B3000C5F00997C5F0F52485F02579167A02C0E0C0F0D0F0D0E089828A8312714F127180
:203B5000057003023B6B78FB126FD3E66003023B63D20DE5248525F0023C5079147A02E587
:203B7000248525F089828A8312714F1271057003023B89E4F5F0023C50E4F5F079327A0087
:203B9000126FF5E70987F0C0E0C0F012043315811581120B3D740675F00079327A00126F94
:203BB000F5E70987F0C0E0C0F0120433158115811208BA744C75F002C0E0C0F0740E75F0A2
:203BD00000C0E0C0F0120B4A1581158115811581120646740475F00079327A00126FF5E709
:203BF0000987F0C0E0C0F0120433158115811207A6745875F002C0E0C0F0740E75F000C087
:203C1000E0C0F0120B4A15811581158115811208BA740975F000C0E0C0F0740475F003C09F
:203C3000E0C0F0120B4A1581158115811581E52F8530F0900C95F0A3C5F0F0C5F0E4F5F085
:203C50002279217A00E754206003023C77740375F000C0E0C0F07402C0E0C0F012349615C8
:203C700081158115811581C20DE4F5F079327A00126FF5C001C002740275F00079327A003B
:203C9000126FF5D007D000E60886F0C397C5F00997C5F079167A02C0E0C0F0D0F0D0E089DB
:203CB000828A8312714F1270F57003023CC5E475F080023D331237CCF52485F025E5248515
:203CD00025F07B007C801270E27003023CE5E475F080023D33740875F00079327A00126F8C
:203CF000F5C001C002740275F00079327A00126FF5D007D000E60886F0C397C5F00997C547
:203D1000F079667A02C0E0C0F0D0F0D0E089828A8312714F1270FC7003023D2ED206E5245F
:203D30008525F022E4F5F0900C95F0A3C5F0F0C5F0E4F5F0900C97F0A3C5F0F0C5F0740172
:203D500075F000C0E0C0F0123E0D1581158145F06003023D68023E0C740175F000C0E0C050
:203D7000F0123E0D15811581F52485F02545F0601E900C97E0A3F5F0E0C5F01270BE45F0AF
:203D9000600D900C95E0A3F5F0E0C5F01270BE45F07003023DD3740D75F007C0E0C0F0122F
:203DB000125815811581740375F000C0E0C0F01210F8158115817814438701D8FB121FEDA3
:203DD000023D68121FDDE475F080C0E0C0F0E4C0E0C0E079147A0389828A83E0A3F5F0E077
:203DF000C0F0C0E0122D527FFA126FDF740475F000C0E0C0F01210F8158115812278FB12DF
:203E10006FD3E6127005C0E0C0F01232CD15811581F52485F02545F07003023E37C200E5DD
:203E3000248525F0023E6478FB126FD3E6127005C0E0C0F01239E415811581F52485F0257E
:203E500045F07003023E61D200E5248525F0023E64E4F5F0227FFE7EFF1200DAE528852964
:203E7000F07F001200BEF0A3C5F0F0C5F078FB126FD3E60886F07B007C801270E27003028B
:203E90003EAF7F001200BEE0A3F5F0E0C5F0F52885F02978FB126FD3E60886F0024085E547
:203EB000288529F07F001200BEF0A3C5F0F0C5F078FB126FD3E60886F0F52885F029E528FD
:203ED0008529F054FFC5F0547FC5F0F52485F02579207A00E754017003023F2479147A03C0
:203EF00089828A83E0A3F5F0E0C5F05400C5F05408C5F045F06003023F0D023E92791A7ABE
:203F10000389828A83E0A3F5F0E0C5F0F52685F027023F5979147A0389828A83E0A3F5F09E
:203F3000E0C5F05408C5F05400C5F045F06003023F45023E9279187A0389828A83E0A3F534
:203F5000F0E0C5F0F52685F027E4F52AE5268527F05400C5F05480C5F045F07003023F747C
:203F7000E52A052AE5268527F054FFC5F0547FC5F0F52685F027E5288529F05400C5F054FD
:203F900080C5F045F07003024003E52A7003023FE6E5268527F0AB24AC2512710E700302F9
:203FB0003FC8E5268527F0C39524C5F09525C5F0F52885F029023FE3E5248525F0C39526A3
:203FD000C5F09527C5F04400C5F04480C5F0F52885F029024000E5248525F02526C5F03564
:203FF00027C5F04400C5F04480C5F0F52885F029024061E52A700302401FE5248525F0255A
:2040100026C5F03527C5F0F52885F029024061E5268527F0AB24AC25127105700302404E74
:20403000E5268527F0C39524C5F09525C5F04400C5F04480C5F0F52885F029024061E52450
:204050008525F0C39526C5F09527C5F0F52885F029E5288529F078FB126FD3F608A6F07FD2
:20407000001200BEE0A3F5F0E0C5F0F52885F02918E60886F07F020200D8E4900F04F078E2
:20409000FB126FD3E6540170030240C3E4F5F0900F00F0A3C5F0F0C5F0E6540470030240C6
:2040B000C0743775F007900F00F0A3C5F0F0C5F00240ED79147A0389828A83E0A3F5F0E0F4
:2040D000C5F04400C5F04402C0F0C0E0120CF215811581900F00F0A3C5F0F0C5F0C2097485
:2040F000FF75F07F900EFEF0A3C5F0F0C5F0121FDDC206900EEDE0A3F5F0E0C5F054F3C5DA
:20411000F054F3C5F0900EEDF0A3C5F0F0C5F079207A00E75401600302414F1233ECF5269B
:2041300085F027900EEDE0A3F5F0E0C5F0440CC5F04400C5F0900EEDF0A3C5F0F0C5F0795C
:20415000207A00E75401700302417F123C51F52685F027900EEDE0A3F5F0E0C5F04408C555
:20417000F04400C5F0900EEDF0A3C5F0F0C5F079147A0389828A83E0A3F5F0E0C5F044006B
:20419000C5F04402C5F0F52885F02978FB126FD3E654026003024208E5268527F0C0E0C0EB
:2041B000F0123E6515811581F52685F02779087A0289828A83E0A3F5F0E0C5F05404C5F048
:2041D0005400C5F045F06003024205E5268527F07B007C801270EB600DE5268527F05400F2
:2041F000C5F05480C5F045F07003024205E4F5F0F52685F02702421AE5288529F054F8C5E6
:20421000F054FFC5F0F52885F029E5288529F05404C5F05400C5F045F06010E5268527F0CE
:20423000C0E0C0F01221CC158115817003024255E5288529F04400C5F04404C5F0F52885A4
:20425000F029024267E5288529F054FFC5F054FBC5F0F52885F029D207E5268527F07B001D
:204270007C801270E27026E5268527F0C0E0C0F0900F00E0A3F5F0E0C0F0C0E0E52885294F
:20429000F0C0E0C0F0122D527FFA126FDF45F070030242CB900EFEE0A3F5F0E0C5F07BFF9A
:2042B0007C7F1270E270030242C8E475F080900EFEF0A3C5F0F0C5F002433F79207A00E740
:2042D00054407003024339E5268527F0C0E0C0F0900EFEE0A3F5F0E0C0F0C0E012208E1549
:2042F00081158115811581900EFEF0A3C5F0F0C5F079217A00E75402600302433974847543
:20431000F000C0E0C0F01210F815811581D20978FB126FD3E654017003024339900EFEE0BD
:20433000A3F5F0E0C5F0024612121FED024101121FDD79147A0389828A83E0A3F5F0E0C557
:20435000F0900EEFF0A3C5F0F0C5F0900EEFE0A3F5F0E0C0F0C0E0120CF215811581900FE3
:2043700000F0A3C5F0F0C5F079217A00E7540212700545F06011900EFEE0A3F5F0E0C5F029
:204390007B007C801270EB45F0700302456A79147A0389828A83E0A3F5F0E0C5F05402C596
:2043B000F05400C5F045F07003024567900EFEE0A3F5F0E0C5F054FFC5F0547FC0F0C0E0DA
:2043D00012043315811581900EFEE0A3F5F0E0C5F05400C5F05480C5F045F070030243F44C
:2043F00074FFF512741C75F003C0E0C0F0740975F000C0E0C0F0120B4A158115811581157B
:2044100081120946740975F000C0E0C0F0741C75F003C0E0C0F0120B4A15811581158115F2
:204430008179207A0389828A83E0A3F5F0E0C5F01270A489828A83F0A3C5F0F0C5F07922FA
:204450007A03C0E0C0F0D0F0D0E089828A8312714F1270E2700302454B79227A0389828A0F
:2044700083E0A3F5F0E0C0F0C0E0120433158115811207A6740975F000C0E0C0F012021582
:2044900015811581900EFEF0A3C5F0F0C5F0740075F00CC0E0C0F0741C75F003C0E0C0F0DA
:2044B000120B4A158115811581158179207A03E4F5F089828A83F0A3C5F0F0C5F0900EFEAD
:2044D000E0A3F5F0E0C0F0C0E01221CC15811581F52A7003024525E52A75F0007B017C009F
:2044F0001270E2700302450B748075F000C0E0C0F01210F81581158102451B748375F000D6
:20451000C0E0C0F01210F8158115817802438701D8FB024535748475F000C0E0C0F0121092
:20453000F8158115817801438701D8FBE4C0E0C0E01210F815811581024567900EEFE0A308
:20455000F5F0E0C5F04400C5F04402C5F0900EEFF0A3C5F0F0C5F00245C079147A03898247
:204570008A83E0A3F5F0E0C5F05402C5F05400C5F045F070030245A4900EEFE0A3F5F0E0A5
:20459000C5F04400C5F04402C5F0900EEFF0A3C5F0F0C5F0900EEFE0A3F5F0E0C5F044001A
:2045B000C5F04404C5F0900EEFF0A3C5F0F0C5F0900EFEE0A3F5F0E0C0F0C0E0900F00E00C
:2045D000A3F5F0E0C0F0C0E0900EEFE0A3F5F0E0C0F0C0E0122D527FFA126FDF79217A0070
:2045F000E754026003024608748775F000C0E0C0F01210F815811581900EFEE0A3F5F0E0E1
:20461000C5F02278FB126FD3E60886F0F52485F025E5248525F054FFC5F0547FC0F0C0E007
:2046300012043315811581E5248525F05400C5F05480C5F045F0700302465274FFF5120202
:204650004655E4F512227FFB7EFF1200DAE47F001200BEF0740075F00CC0E0C0F07410756E
:20467000F003C0E0C0F0120B4A1581158115811581748775F0067F031200BEF0A3C5F0F038
:20469000C5F0121FDDD20A7F031200BEE0A3F5F0E0C0F0C0E012125815811581E4C0E0C095
:2046B000E01210F815811581E52F8530F07F011200BEF0A3C5F0F0C5F0740175F000C0E054
:2046D000C0F0120D9815811581F5311270051270BE45F0601BE52F8530F07F011200BE127F
:2046F000714FC39BC5F09CC5F07B0A7C001270F545F0700302472A438701740175F000C08E
:20471000E0C0F0123E0D1581158145F0700302472402472A121FED0246C9E53170030248E6
:2047300014E4C0E0C0E0120D9815811581F531121FDDE5311270057BFC126FFC1270E270B5
:204750000302477A7F001200BEE0547F6003024774740375F000C0E0C0F01210F815811570
:20477000810246810249CC024801E5311270057BFB126FFC1270E270030248017F0012003A
:20479000BEE070030247EB7F001200BEE0548070030247C979147A0389828A83E0A3F5F0B2
:2047B000E0C5F054FFC5F054F7C5F089828A83F0A3C5F0F0C5F00247EB79147A0389828A74
:2047D00083E0A3F5F0E0C5F054F7C5F054FFC5F089828A83F0A3C5F0F0C5F0740675F0005D
:2047F000C0E0C0F01210F815811581E4F5F0024DE8740375F000C0E0C0F01210F815811522
:2048100081024681E52F8530F07F011200BE12714FC39BC5F09CC5F07B0A7C0012710E70FD
:20483000030248370246957F001200BEE060030248A879207A00E75401700302486E740095
:2048500075F00CC0E0C0F0740875F003C0E0C0F0120B4A158115811581158102488B74004B
:2048700075F00CC0E0C0F0740C75F003C0E0C0F0120B4A158115811581158179207A00E776
:20489000540170030248A57F001200BEE044807F001200BEF00248F97F001200BEE05480D9
:2048B00012700545F0600D79207A00E754011270051270BE45F070197F001200BEE05480E8
:2048D0001270051270BE45F0600779207A00E7540170030248F9740375F000C0E0C0F01222
:2048F00010F815811581024695121FDD740775F000C0E0C0F012408A15811581F52485F0C3
:2049100025E5248525F07B007C801270E27003024925024695E5248525F05400C5F05480A4
:20493000C5F045F070030249407401F52A024943E4F52AE5248525F054FFC5F0547FC0F02C
:20495000C0E012043315811581741075F003C0E0C0F0740975F000C0E0C0F0120B4A1581C7
:20497000158115811581E52A70030249831208BA024986120946740975F000C0E0C0F07469
:204990001075F003C0E0C0F0120B4A15811581158115817F001200BEE0047F001200BEF00E
:2049B000147828438701D8FB749175F0067F031200BEF0A3C5F0F0C5F00246957F00120078
:2049D000BEE0547F127005C0E0C0F012043315811581741075F003C0E0C0F0740975F000EC
:2049F000C0E0C0F0120B4A15811581158115811207A679207A00E754017003024A56791AE2
:204A10007A03C001C002740975F000C0E0C0F012021515811581D083D082F0A3C5F0F0C55D
:204A3000F079147A0389828A83E0A3F5F0E0C5F04400C5F04408C5F089828A83F0A3C5F0FD
:204A5000F0C5F0024A9B79187A03C001C002740975F000C0E0C0F012021515811581D0834F
:204A7000D082F0A3C5F0F0C5F079147A0389828A83E0A3F5F0E0C5F04408C5F04400C5F0CE
:204A900089828A83F0A3C5F0F0C5F078FB126FD3E61270057B02126FFC1270EB7003024AA7
:204AB000B9740175F000024DE8749A75F0067F031200BEF0A3C5F0F0C5F0121FDD7F0312C2
:204AD00000BEE0A3F5F0E0C0F0C0E012125815811581E4C0E0C0E01210F815811581E52F4A
:204AF0008530F07F011200BEF0A3C5F0F0C5F0740175F000C0E0C0F0120D9815811581F5C2
:204B1000311270051270BE45F0601BE52F8530F07F011200BE12714FC39BC5F09CC5F07B23
:204B30000A7C001270F545F07003024B60438701740175F000C0E0C0F0123E0D1581158195
:204B500045F07003024B5A024B60121FED024AFFE5317003024B92121FDDE5311270057B52
:204B7000FB126FFC1270E27003024B7F02478C740375F000C0E0C0F01210F81581158102C1
:204B90004ACDE52F8530F07F011200BE12714FC39BC5F09CC5F07B0A7C0012710E700302A8
:204BB0004BB5024ACD7F001200BEE0548012700545F0600D79207A00E75401127005127048
:204BD000BE45F070197F001200BEE054801270051270BE45F0600779207A00E75401700321
:204BF000024C06740375F000C0E0C0F01210F815811581024ACD121FDD740575F000C0E03A
:204C1000C0F012408A15811581F52485F025E5248525F07B007C801270E27003024C3202A6
:204C30004ACDE5248525F07F011200BEF0A3C5F0F0C5F0E5248525F0900EF1F0A3C5F0F003
:204C5000C5F0E4F5F0900EF3F0A3C5F0F0C5F0741475F01E900EF5F0A3C5F0F0C5F0791430
:204C70007A0389828A83E0A3F5F0E0C5F054F2C5F054FFC5F0900EF7F0A3C5F0F0C5F0E429
:204C9000900EF9F074A375F006900EFAF0A3C5F0F0C5F0122325F52685F027E5268527F0BE
:204CB0007B007C801270E27003024CBF02478CE5268527F0C0E0C0F01204331581158174D4
:204CD0000E75F000C0E0C0F0740975F000C0E0C0F0120B4A15811581158115817F0112007E
:204CF000BEE0A3F5F0E0C0F0C0E0120433158115811207A679207A00E754017003024D7B8E
:204D1000740975F000C0E0C0F0740875F003C0E0C0F0120B4A1581158115811581791A7A51
:204D30000389828A83E0A3F5F0E0C0F0C0E012461315811581120646740975F000C0E0C079
:204D5000F012021515811581F52685F02745F07003024D78791A7A03E5268527F089828A8C
:204D700083F0A3C5F0F0C5F0024DE3740975F000C0E0C0F0740C75F003C0E0C0F0120B4AB0
:204D9000158115811581158179187A0389828A83E0A3F5F0E0C0F0C0E01246131581158156
:204DB000120646740975F000C0E0C0F012021515811581F52685F02745F07003024DE379F4
:204DD000187A03E5268527F089828A83F0A3C5F0F0C5F0740175F0007F050200D878FB12C5
:204DF0006FD3E60886F02402C5F03400C0F0C0E0126F941581158178FB126FD326C5F008B3
:204E100036C5F02403C5F03400C5F0F52885F029E5288529F0227FFE7EFF1200DA78F912E1
:204E30006FD3E60886F00886030886041270E27003024E9C78F9126FD386010886028982EF
:204E50008A83E0A3F5F0E0C5F045F07003024E8D18E60886F07F001200BEF0A3C5F0F0C5EB
:204E7000F018E60886F0C0E0C0F0124DED1581158178F9126FD3F608A6F0024E447F001270
:204E900000BEE0A3F5F0E0C5F0024F1078FB126FD3E60886F07F001200BEF0A3C5F0F0C56F
:204EB000F07F001200BEE0A3F5F0E0C0F0C0E0124DED158115817F001200BEF0A3C5F0F00C
:204ED000C5F07F001200BEE0A3F5F0E0C5F078F9126FD386030886041270E27003024EF8C2
:204EF00008E60886F0024F107F001200BEE0A3F5F0E0C5F078FB126FD3F608A6F0024E9C42
:204F10007F020200D878FB126FD3E60886F0C0E0C0F012125815811581E52F8530F0241E08
:204F3000C5F03400C5F0F52885F02979217A00E754016007740275F0008005740575F00013
:204F5000C0E0C0F0120D9815811581F5316003024FD61269BA45F07003024FB9121FC590F1
:204F70000EEDE0A3F5F0E0C5F04401C5F04400C5F0900EEDF0A3C5F0F0C5F0900EEDE0A3B0
:204F9000F5F0E0C0F0C0E0E4C0E0C0E0122BDA1581158115811581E52F8530F0241EC5F0A9
:204FB0003400C5F0F52885F029121FED438701E52F8530F0AB28AC2912710E7003024FD3CB
:204FD000024FD6024F3BE5311270057B00126FFC1270EB700302500F900EEDE0A3F5F0E065
:204FF000C5F054FEC5F054FFC5F0900EEDF0A3C5F0F0C5F0121FDDE5311270050250120254
:205010004F15227FFE7EFF1200DAE4F5F07F001200BEF0A3C5F0F0C5F078F9126FD3E6085C
:2050300086F07B647C001270F5700302505718E60886F07F001200BEF0A3C5F0F0C5F0E460
:20505000F5F018F608A6F078F9126FD3E60886F0F52685F02778FB126FD3E60886F045F06F
:205070006007181818E60886F045F070030250A474A375F00EC0E0C0F078F9126FD3E608E2
:2050900086F0C0E0C0F0126F6615811581158115810250CB74A375F00E78F9126FD3860306
:2050B0000886041270EB70030250CBE4F5F079A37A0E126FF5E489828A83F078F9126FD3BD
:2050D000E60886F045F0700302517074A375F00EC0E0C0F0126F9415811581F52AE5268527
:2050F00027F0F52885F029A928AA2989828A83E012700545F06014A928AA2989828A83E066
:205110001270057B2C126FFC1270EB45F0700302515B8016E52A052AE5288529F01270A46C
:20513000F52885F0291270AD80BDE52A79A37A0E75F000126FF5C001C002A928AA29898278
:205150008A83E0D083D082F0025124E52A79A37A0E75F000126FF5E489828A83F00251E693
:2051700078FB126FD38601088602C001C0027F001200CCE98AF0C0E0C0F078FB126FD38661
:20519000820886831270321581158115811581F52885F029E5288529F045F060030251B857
:2051B00074FE75F0FF0254F774A375F00EAB28AC291270EB70030251E674A375F00EC0E047
:2051D000C0F0E5288529F0C0E0C0F0126F66158115811581158174A375F00EC0E0C0F012E9
:2051F0004F1515811581F531E5311270059054DC02700E7F001200BEE0A3F5F0E0C5F012AE
:2052100070A47F001200BEF0A3C5F0F0C5F01270AD78F9126FD3E60886F045F070030252DA
:205230009FE5268527F0F52885F029A928AA2989828A83E012700545F06014A928AA298964
:20525000828A83E01270057B2C126FFC1270EB45F07003025279E5288529F01270A4F52854
:2052700085F0291270AD02523BA928AA2989828A83E0600302528A02501AE5288529F024AA
:2052900001C5F03400C5F0F52685F0270252D878FB126FD38601088602C001C0027F00128A
:2052B00000CCE98AF0C0E0C0F078FB126FD38682088683127032158115811581158145F03E
:2052D00060030252D802501A0254F478F9126FD3E60886F045F0600302535C7F001200BEB8
:2052F000E0A3F5F0E0C5F01270AD7F001200BEF0A3C5F0F0C5F01270A4088601088602C031
:2053100001C0027F001200CCE98AF0C0E0C0F078FB126FD3868208868312703215811581EA
:205330001581158145F060030253597F001200BEE0A3F5F0E0C5F01270A47F001200BEF03A
:20535000A3C5F0F0C5F01270AD0254F4E5268527F078F9126FD386030886041270E2700369
:205370000253F4E5268527F0F52885F029A926AA2789828A83E070030253E7A926AA278902
:20539000828A83E01270057B2C126FFC1270E270030253D47F001200BEE0A3F5F0E0C5F097
:2053B0001270A47F001200BEF0A3C5F0F0C5F01270ADE5268527F02401C5F03400C5F0F5ED
:2053D0002885F029E5268527F01270A4F52685F0271270AD02537DE5288529F0F52685F037
:2053F0002702548EE5268527F0C39402C5F09400C5F0F52685F027E5268527F078F9126F44
:20541000D386030886041270EB6014A926AA2789828A83E01270057B2C126FFC1270EB45B8
:20543000F07003025449E5268527F01270ADF52685F0271270A40254077F001200BEE0A378
:20545000F5F0E0C5F01270AD7F001200BEF0A3C5F0F0C5F01270A4E5268527F078F9126F98
:20547000D386030886041270EB700302548EE5268527F01270A4F52685F0271270AD025461
:20549000F4740175F000C0E0C0F0120D981581158170030254B3121FED7801438701D8FB4A
:2054B0000254917F001200BEE0A3F5F0E0C5F00254F774FFF5F00254F7744375F000C0E0FB
:2054D000C0F01210F8158115810254F4C954FAFFC254FBFF9154FCFFDB52FFFF0352FEFFF9
:2054F0000000C9540250657F020200D87FFE7EFF1200DA78FB126FD3860108860289828A14
:2055100083E0A3F5F0E0C5F0F52485F025E5248525F07B637C001271057003025536E4F5EA
:20553000F0F52485F02578FB126FD3860108860289828A83E0A3F5F0E0C5F07B007C0012BC
:2055500070C27003025561746375F000F52485F025E5248525F09055E402700E741175F019
:20557000067F001200BEF0A3C5F0F0C5F00255F0741575F0067F001200BEF0A3C5F0F0C552
:20559000F00255F074A375F00E2410C5F03400C0F0C0E0744E75F00CC0E0C0F0E524852597
:2055B000F02401C5F03400C0F0C0E0740375F000126F427FFA126FDF74A375F00E2410C592
:2055D000F03400C5F07F001200BEF0A3C5F0F0C5F00255F0805563006C550000000094557D
:2055F00078FB126FD38601088602E5248525F089828A83F0A3C5F0F0C5F074A375F00EC0CB
:20561000E0C0F0741A75F006C0E0C0F07F001200BEE0A3F5F0E0C0F0C0E0740375F00012CC
:205630006F427FFA126FDF74A375F00E7F020200D879227A0378FB126FD3E675F0008982B6
:205650008A83F0A3C5F0F0C5F07B017C0012710570030256B979147A0389828A83E0A3F5A2
:20567000F0E0C5F04402C5F04400C5F089828A83F0A3C5F0F0C5F079207A03E4F5F08982B2
:205690008A83F0A3C5F0F0C5F0740075F00CC0E0C0F0741C75F003C0E0C0F0120B4A158186
:2056B0001581158115810256ED79227A03E4F5F089828A83F0A3C5F0F0C5F079147A03895A
:2056D000828A83E0A3F5F0E0C5F054FDC5F054FFC5F089828A83F0A3C5F0F0C5F022E531E3
:2056F0001270057BFF126FFC1270E27003025748E475F005900EE8F0A3C5F0F0C5F0900E45
:20571000E6F0A3C5F0F0C5F0900EE8E0A3F5F0E0C0F0C0E0900EE6E0A3F5F0E0C0F0C0E06C
:20573000124E261581158115811581900EE8F0A3C5F0F0C5F002578EE5311270057BFB12FC
:205750006FFC1270E27003025776749275F005900EE8F0A3C5F0F0C5F0900EE6F0A3C5F079
:20577000F0C5F002578EE475F005900EE8F0A3C5F0F0C5F0900EE6F0A3C5F0F0C5F0E490E7
:205790000EECF0900EECE060030259A4900EE8E0A3F5F0E0C5F02402C5F03400C5F0F524E3
:2057B00085F025A924AA2589828A83E01270057B65126FFC1270E2700302580674A375F014
:2057D0000EC0E0C0F0745175F00CC0E0C0F0741575F006C0E0C0F0E5248525F02401C5F014
:2057F0003400C0F0C0E0740475F000126F427FF8126FDF02582374A375F00EC0E0C0F0E562
:20581000248525F0C0E0C0F0126F66158115811581158174A375F00EC0E0C0F0124F1515C6
:20583000811581F531E53112700590598902700E900EE812715689828A83E0A3F5F0E0C508
:20585000F07BFF7CFF1270E27003025863E4F5F0025CAE900EE812715689828A83E0A3F5FB
:20587000F0E0C5F07B007C011270F57003025898900EE812715689828A83E0A3F5F0E0C53B
:20589000F0900EECF00259A1900EE812715689828A83E0A3F5F0E0C5F0900EE6F0A3C5F052
:2058B000F0C5F0900EE8F0A3C5F0F0C5F0025793900EE8E0A3F5F0E0C0F0C0E0124DED1555
:2058D000811581900EE8F0A3C5F0F0C5F0900EE812715689828A83E0A3F5F0E0C5F045F085
:2058F0006003025909900EE6E0A3F5F0E0C5F0900EE8F0A3C5F0F0C5F00259A1900EE8E07B
:20591000A3F5F0E0C0F0C0E0900EE6E0A3F5F0E0C0F0C0E0124E2615811581158115819035
:205930000EE8F0A3C5F0F0C5F00259A1900EE6E0A3F5F0E0C5F07B007C051270E270030222
:205950005958E4F5F0025CAEE475F005900EE8F0A3C5F0F0C5F0900EE6F0A3C5F0F0C5F07F
:205970000259A1122153744375F000C0E0C0F01210F8158115810257937359FAFF3C59FBA2
:20599000FF0C59FFFFC058FEFF4058FCFF00007659025793900EECE075F000905C8B02707A
:2059B0000E740B75F006C0E0C0F012125815811581740075F003C0E0C0F0E4C0E0C0E07423
:2059D0002C75F000C0E0C0F0126FB07FFA126FDF79147A0389828A83E0A3F5F0E0C5F04469
:2059F00080C5F04400C5F089828A83F0A3C5F0F0C5F0E4C0E0C0E0120CF115811581744051
:205A100075F000C0E0C0F01210F815811581025776025CAB74A375F00EC0E0C0F07456758A
:205A3000F00CC0E0C0F079067A0289828A83E0A3F5F0E0C0F0C0E0740375F000126F427F41
:205A5000FA126FDF74A375F00EC0E0C0F0124F1515811581025CAB74A375F00EC0E0C0F07D
:205A7000745975F00CC0E0C0F0742475F000C0E0C0F07403126F427FFA126FDF74A375F0AC
:205A90000EC0E0C0F0124F1515811581025CAB79087A0289828A83E0A3F5F0E0C5F0900E3D
:205AB000F1F0A3C5F0F0C5F0E4F5F0900EF3F0A3C5F0F0C5F074FF75F000900EF5F0A3C5EE
:205AD000F0F0C5F074FFF5F0900EF7F0A3C5F0F0C5F0E4900EF9F074CF75F007900EFAF0A5
:205AF000A3C5F0F0C5F0122325F52485F025E5248525F07B007C801270EB7003025B237999
:205B1000087A02E5248525F089828A83F0A3C5F0F0C5F0025CAB79067A0289828A83E0A3AA
:205B3000F5F0E0C5F0900EF1F0A3C5F0F0C5F0E4F5F0900EF3F0A3C5F0F0C5F074FFF5F0C0
:205B5000900EF5F0A3C5F0F0C5F074FFF5F0900EF7F0A3C5F0F0C5F0E4900EF9F074D375B4
:205B7000F007900EFAF0A3C5F0F0C5F0122325F52485F025E5248525F07B007C801270EB05
:205B90007003025BA979067A02E5248525F089828A83F0A3C5F0F0C5F0025CABE4C0E0C08C
:205BB000E0120D98158115816003025C16740175F000C0E0C0F01239E41581158174A3752A
:205BD000F00EC0E0C0F0745F75F00CC0E0C0F0740275F00079327A00126FF5E70987F0C036
:205BF000E0C0F0740375F000126F427FFA126FDF74A375F00EC0E0C0F0121258158115810B
:205C1000438701025BAC025CABE4C0E0C0E0120D98158115816003025C85740275F000C0AF
:205C3000E0C0F07405C0E0C0F0122F5A158115811581158174A375F00EC0E0C0F0746475E1
:205C5000F00CC0E0C0F0900C8FE0A3F5F0E0C0F0C0E0740375F000126F427FFA126FDF7439
:205C7000A375F00EC0E0C0F012125815811581438701025C19025CAB025776195C1600ACB5
:205C90005B1500265B14009F5A1300675A1200245A1100B15910000000885C02578E227802
:205CB000FB126FD3860108860289828A83E075F00090615A02700E799C7A0D742475F000AD
:205CD00089828A83F0A3C5F0F0C5F0799E7A0DE52F8530F089828A83F0A3C5F0F0C5F079DA
:205CF000A07A0D740475F00189828A83F0A3C5F0F0C5F079A27A0DC001C00279067A0289E1
:205D1000828A83E0A3F5F0E0C5F0D083D082F0A3C5F0F0C5F0126C0D79A47A0DC001C002A3
:205D300074A375F00ED083D082F0A3C5F0F0C5F0740575F000026181740275F000C0E0C03A
:205D5000F078F9126FD38601088602740475F000126FF5E4F5F0126FF589828A83E0A3F545
:205D7000F0E0C0F0C0E0122F5A1581158115811581F52A799C7A0D900C8FE0A3F5F0E0C50D
:205D9000F0C3952AC5F09400C5F089828A83F0A3C5F0F0C5F0799E7A0D900C8FE0A3F5F04D
:205DB000E0C5F089828A83F0A3C5F0F0C5F012315CF52485F025E5248525F0C0E0C0F0E410
:205DD000C0E0C0E0E4C0E0C0E0122D527FFA126FDF740275F00002618178FB126FD38601D8
:205DF000088602740475F000126FF5E98AF0F52885F029E5288529F02402C5F03400C5F023
:205E1000F9AAF089828A83E0A3F5F0E0C5F0F52485F025749C75F00DC0E0C0F0A928AA29A1
:205E300089828A83E0A3F5F0E0C0F0C0E0E5248525F0C333C5F033C0F0C0E01220377FFAEF
:205E5000126FDFE5248525F002618178FB126FD38601088602740475F000126FF57402752F
:205E7000F000126FF589828A83E0A3F5F0E0C5F07B017C00127085F52685F02778FB126FED
:205E9000D38601088602740475F000126FF5740275F000126FF589828A83E0A3F5F0E0C53F
:205EB000F05400C5F05480C5F045F07003025ED0E5268527F01270ADF52685F0271270A4C5
:205ED00078FB126FD38601088602740475F000126FF5E4F5F0126FF589828A83E0A3F5F0C2
:205EF000E0C0F0C0E078F9126FD38601088602740475F000126FF5740475F000126FF5E9F7
:205F10008AF0C0E0C0F0E5268527F0C0E0C0F01220377FFA126FDFE4F5F0026181E4F5F0F8
:205F3000900C95F0A3C5F0F0C5F079AC7A0DC001C002740175F000C0E0C0F01239E4158115
:205F50001581D083D082F0A3C5F0F0C5F0E4F52AE52A75F0007B057C001270F57003025F4B
:205F7000B58006E52A052A80E7799C7A0DE52A75F000C333C5F033C5F0126FF5C001C00295
:205F9000E52A75F000C333C5F033C5F079327A00126FF5E70987F0D083D082F0A3C5F0F00B
:205FB000C5F0025F73E52A240175F000026181799C7A0DE4F5F089828A83F0A3C5F0F0C551
:205FD000F0740175F000026181799C7A0D741575F00089828A83F0A3C5F0F0C5F0799E7AE3
:205FF0000D746875F00089828A83F0A3C5F0F0C5F074A275F00DC0E0C0F0740075F002C0CB
:20601000E0C0F0746875F000C0E0C0F01220377FFA126FDF79A07A0DC001C002740075F011
:2060300002C0E0C0F0743475F000C0E0C0F0120C6F1581158115811581D083D082F0A3C5BF
:20605000F0F0C5F0743775F00002618178FB126FD38601088602740475F000126FF57406FC
:2060700075F000126FF5E98AF0C0E0C0F0743475F000C0E0C0F0120C6F15811581158115C1
:206090008178FB126FD38601088602C0E0C0F0740475F000126FF5740475F000126FF5D0CB
:2060B000F0D0E089828A8312714F1270EB70030260D9799C7A0D740375F00089828A83F0AB
:2060D000A3C5F0F0C5F0026142740075F002C0E0C0F078F9126FD38601088602740475F02A
:2060F00000126FF5740675F000126FF5E98AF0C0E0C0F0746875F000C0E0C0F01220377F99
:20611000FA126FDF799C7A0DE4F5F089828A83F0A3C5F0F0C5F0740175F000026181799CD8
:206130007A0D740175F00089828A83F0A3C5F0F0C5F079997A0D89828A83E0440489828A7B
:2061500083F0740175F0000261815C608900D95F8800BF5F09002D5F04005B5E0300E95D40
:206170000200485D0100C75C000000002E61E4F5F022E4900F09F0121FDD126C0D74A37529
:20619000F00EC0E0C0F012125815811581E4C0E0C0E01210F815811581123D34121FDDE41A
:2061B000F5F0900F05F0A3C5F0F0C5F0E4F5F0900F07F0A3C5F0F0C5F0E475F080900EFE98
:2061D000F0A3C5F0F0C5F074F0F52D0266871269BA45F0700302623AE52F8530F0242CC504
:2061F000F03401C5F0900F05F0A3C5F0F0C5F0900EEDE0A3F5F0E0C5F04401C5F04400C599
:20621000F0900EEDF0A3C5F0F0C5F0900EEDE0A3F5F0E0C0F0C0E0E4C0E0C0E0122BDA1593
:2062300081158115811581121FC5121FED740175F000C0E0C0F0120D9815811581F5316064
:2062500003026380E52F8530F0900F0512714F127105700302637A900EEDE0A3F5F0E0C5A5
:20627000F054FEC5F054FFC5F0900EEDF0A3C5F0F0C5F0E4C0E0C0E0123E0D1581158145A5
:20629000F07003026363E4C0E0C0E012408A15811581900EFEF0A3C5F0F0C5F079147A0304
:2062B00089828A83E0A3F5F0E0C5F05401C5F05400C5F045F070030262E612201D7B0A7C64
:2062D000001270522402C5F03400C5F0900F07F0A3C5F0F0C5F0121FDD900EFEE0A3F5F071
:2062F000E0C5F07B007C801270EB603279147A0389828A83E0A3F5F0E0C5F05403C5F05404
:2063100000C5F07B027C001270E2601279207A0389828A83E0A3F5F0E0C5F01270BE45F049
:206330007003026363900EFEE0A3F5F0E0C0F0C0E074B275F007C0E0C0F079147A038982E7
:206350008A83E0A3F5F0E0C0F0C0E0122D527FFA126FDFE52F8530F02403C5F03400C5F0A0
:20637000900F05F0A3C5F0F0C5F04387010266D0E5311270057BFC126FFC1270E27003020F
:2063900063A0E4C0E0C0E0120D9815811581F531121FDDE53112700590666F02700E1221FA
:2063B00053742E75F005C0E0C0F012125815811581E4C0E0C0E0120D981581158174027584
:2063D000F000C0E0C0F01246561581158145F070030263FB743A75F006C0E0C0F0121258A6
:2063F00015811581781E438701D8FB02668779147A0389828A83E0A3F5F0E0C5F05480C586
:20641000F05400C5F045F0700302647F745A75F005C0E0C0F012125815811581E4C0E0C072
:20643000E0120D981581158179147A0389828A83E0A3F5F0E0C5F0541FC5F054FFC5F089B1
:20645000828A83F0A3C5F0F0C5F079147A0389828A83E0A3F5F0E0C5F04440C5F04400C54F
:20647000F089828A83F0A3C5F0F0C5F00264DF745375F005C0E0C0F012125815811581E4C5
:20649000C0E0C0E0120D981581158179147A0389828A83E0A3F5F0E0C5F0541FC5F054FF2F
:2064B000C5F089828A83F0A3C5F0F0C5F079147A0389828A83E0A3F5F0E0C5F04480C5F07A
:2064D0004400C5F089828A83F0A3C5F0F0C5F0026687740B75F006C0E0C0F0121258158173
:2064F0001581781E438701D8FB740075F003C0E0C0F0E4C0E0C0E0742C75F000C0E0C0F01D
:20651000126FB07FFA126FDF79147A0389828A83E0A3F5F0E0C5F04480C5F04400C5F08947
:20653000828A83F0A3C5F0F0C5F0E4C0E0C0E0120CF115811581744075F000C0E0C0F012F5
:2065500010F815811581026687746A75F00CC0E0C0F012125815811581740175F000C0E047
:20657000C0F0120D98158115817003026587438701121FED026569E4C0E0C0E0120D98156E
:20659000811581F531E5311270057BFE126FFC1270EB600DE5311270057BFF126FFC12702B
:2065B000EB45F070030265E6E53170030265CF740375F000C0E0C0F01210F815811581E4D6
:2065D000C0E0C0E0120D9815811581F531438701121FED02659574FFF5F0900E9FF0A3C590
:2065F000F0F0C5F074FF75F07F900EA1F0A3C5F0F0C5F0E5311270057BFE126FFC1270E27C
:206610006007740175F0008003E4F5F0C0E0C0F074FC75F054C0E0C0F01250131581158173
:2066300015811581F52AE52A75F0007B557C001270E2700CE52A75F0007B637C001270E22D
:2066500045F0700302665A026687E52A240175F000C0E0C0F01256411581158102668759CB
:2066700065FBFFE264FAFFFE63FFFFB163FEFFAE63FCFF00008766900EFEE0A3F5F0E0C05F
:20669000F0C0E079147A0389828A83E0A3F5F0E0C5F04400C5F04480C0F0C0E0120CF21509
:2066B000811581C0E0C0F079147A0389828A83E0A3F5F0E0C0F0C0E0122D527FFA126FDF3F
:2066D0000261DE227FFE7EFF1200DA121A977F001200BEF0A3C5F0F0C5F07BFF7CFF1270EB
:2066F000EB70030268357F001200BEE0A3F5F0E0C5F0F52A79207A00E7540460030267BF45
:20671000E52A75F0009067B302700E79207A00E7540812700545F0700E900E9CE075F000BC
:206730007B037C001270F545F0700302674FC203E4900E9CF0E4900E9DF0C2020266DB90FF
:206750000E9DE075F0007B007C001270EB7031900E9CE0C3940575F000C3C5F013C5F01306
:20677000C0E0C0F0740375F00079997A0C126FF5D0F0D0E089828A8312714B7C001270EB90
:2067900045F0700302679A02673EE4900E9DF0900E9CF0749975F00C026838D2020266DB27
:2067B0000267BFAB67DB001B67C0000000B06779207A00E7540470030267F5C202E52A75F0
:2067D000F0009067E902700E74C0F52A0267F574DBF52A0267F50266DBDF67DD00D867DC5B
:2067F000000000E667900E9DE0252A900E9DF0900E9CE075F0007BFF7C001270F570030246
:206810006830900E9CE004900E9CF01479997A0C75F000126FF5E52A89828A83F00268324E
:20683000D2030266DBE4F5F07F020200D87FFE7EFF1200DA78F9126FD386010886027403D3
:2068500075F000126FF578FB126FD3E6F52C89828A83F0E52C75F0007B017C00127085F50D
:206870002CE52C2404F52C1818E60886F07F001200BEF0A3C5F0F0C5F0E4F52A74C075F016
:2068900000C0E0C0F0121A4F15811581E52C152C70030269337F001200BEE0A3F5F0E0C532
:2068B000F01270A47F001200BEF0A3C5F0F0C5F01270ADF9AAF089828A83E0F52BE52A2568
:2068D0002BF52AE52B75F0007BC07C001270E270030268FB74DB75F000C0E0C0F0121A4F77
:2068F0001581158174DCF52B026920E52B75F0007BDB7C001270E2700302692074DB75F004
:2069100000C0E0C0F0121A4F1581158174DDF52BE52B75F000C0E0C0F0121A4F1581158193
:2069300002689CE52A127005FBACF0E475F001C39BC5F09CC5F0F52BE52B75F0007BC07C1A
:20695000001270E2700302697074DB75F000C0E0C0F0121A4F1581158174DCF52B0269955A
:20697000E52B75F0007BDB7C001270E2700302699574DB75F000C0E0C0F0121A4F158115BF
:206990008174DDF52BE52B75F000C0E0C0F0121A4F1581158174C075F000C0E0C0F0121A74
:2069B0004F158115817F020200D87FFD7EFF1200DAE47F021200BEF01266D47F001200BE4C
:2069D000F0A3C5F0F0C5F045F07003026B337F021200BEE0047F021200BEF0147F00120057
:2069F000BE127156740275F000126FF589828A83E075F000900E9E12714B7C001270E260F8
:206A100017799A7A0D89828A83E075F000900E9E12714B7C001270E245F07003026A567490
:206A30009875F00DC0E0C0F0799B7A0D89828A83E075F000C0E0C0F012683D1581158115AC
:206A50008115810269C879997A0DC001C0027F001200BE127156740175F000126FF589823D
:206A70008A83E0D083D082F07F001200BE127156740275F000126FF589828A83E0900E9ED7
:206A9000F079987A0DC001C0027F001200BE12715689828A83E0D083D082F07F001200BED7
:206AB000E0A3F5F0E0C0F0C0E0125CAF15811581F52A7F001200BE127156740175F00012B2
:206AD0006FF589828A83E054027003026AE10269C8799A7A0DC001C0027F001200BE127112
:206AF00056740275F000126FF589828A83E0D083D082F079997A0D89828A83E04401898271
:206B10008A83F0749875F00DC0E0C0F0E52A75F000C0E0C0F012683D1581158115811581C7
:206B30000269C87F021200BEE075F0007F030200D87FFE7EFF1200DA7480F5A8740875F0C8
:206B5000007F001200BEF0A3C5F0F0C5F07F001200BEE0A3F5F0E0C5F07B207C001270F50F
:206B70007003026BA480207F001200BEE0A3F5F0E0C5F01270A47F001200BEF0A3C5F0F0E8
:206B9000C5F01270AD80C67F001200BE127156E4F7026B77E59044404480F590E4F5F09039
:206BB0000EEDF0A3C5F0F0C5F0C205121996120FD974B4F51E74FFF5A0E5B04444F5B074E2
:206BD0000175F000C0E0C0F0E4C0E0C0F0E4C0E0C0E01218027FFA126FDFE4900E9CF07410
:206BF0000175F000900C95F0A3C5F0F0C5F0900C97F0A3C5F0F0C5F07F020200D8900032C4
:206C100079A37A0E7B107C00EB4C601CE493A3CAC583CAC9C582C9F0A3CAC583CAC9C582B8
:206C3000C91BBBFFE31C80E02222126B41126C0D74A375F00EC0E0C0F01212581581158138
:206C500074FFF5F0C0E0C0F0740175F000C0E0C0F0122BDA1581158115811581121FDDE4F1
:206C7000C0E0C0E01210F81581158179087A0289828A83E0A3F5F0E0C5F05401C5F054000E
:206C9000C5F045F06003026CCBE4F52CE52C75F0007B0C7C001270F57003026CC88006E555
:206CB0002C052C80E7740275F000C0E0C0F01239E415811581026CAF026CCE4387017401E1
:206CD00075F000C0E0C0F0120D98158115811270057B00126FFC1270EB7003026DD07401F9
:206CF00075F000C0E0C0F0120D98158115811270057B00126FFC1270EB7003026DD0438784
:206D10000112201D7B327C001271057003026DCDE4C0E0C0E0120D9815811581438701E4FD
:206D3000C0E0C0E01210F815811581740175F000C0E0C0F0120D98158115811270057B00AE
:206D5000126FFC1270EB7003026D61438701026D3B740175F000C0E0C0F0120D98158115F5
:206D7000816003026D8C1269BA45F07003026D83121FDD121FED438701026D61E4C0E0C04A
:206D9000E0120D9815811581F531E5311270057BFF126FFC1270E2700DE5311270057BFB72
:206DB000126FFC1270E245F07003026DCDE531127005C0E0C0F01256EE15811581026CEE33
:206DD00012618222126F1B868208868308E4FEFFE07006126F1BE4F022B42551A3E0B42D78
:206DF00005430780A3E0B4300343074024D0B40A00500BCE75F00AA42EFEA3E080EEE0B421
:206E10006413E60886F030F7084307201270B4A6F018F68003B4750543070A8021B478053D
:206E30004307108019B46F104307088011126F1BF0A3126F1BA38095B462624307027A0078
:206E5000C004C005C006C007AB0753031F7C00E60886F0127052A6F018F6EDD007D006D023
:206E700005D0042430B43A0040022407C0E00AE645F070CC126F1BA902EF30E505742DF098
:206E9000A30A126F24D0E0F0A3D9FA0808EF30E7A1EAC39E509C7420F0A30A80F4B4630DC3
:206EB000AA01126F1B126F24E6F0A380DEB47331C082C08386820886837A00E06004A30A9E
:206ED00080F98683188682126F1B126F24126F1BE0A3126F1B6004F0A380F2D005D0048072
:206EF000AAB4691B86017A00E76004090A80F9126F1B126F248601E76091F009A380F8F91B
:206F10007A01126F1B126F24E9809ECDC583CDCCC582CC22EE601A8FF020F715C002EAC339
:206F30009E500C742030F6027430F0A30A80EFD0022223F42581F8868208868308026DD4CE
:206F5000D2AF22C2AF2278F9126FD38682088683E0600DA380FA78F9126FD38682088683C5
:206F7000088601088602C9C582C9CAC583CAE0A3C9C582C9CAC583CAF06003A380E8E58230
:206F90008583F02278FB126FD38682088683E4F5F0FAE06009A30ABA00F805F080F4EA2207
:206FB00078F7126FD3868208868308860708088603088604EB4C600AEFF0A31BBBFFF51C1C
:206FD00080F222C82581C822C92581C97A0022D083D082CF2581F581CFC082C08322CF25E7
:206FF00081F581CF2229F9E5F03AFA227C00CB30E7011CCB2275F00030E70215F022FDE45E
:2070100093A3FEE493A3FF4E7009E493FE740193FF800BE493A3B5050BE493B5F0068F8332
:207030008E82E473A380D8FEEBA4FD8EF0ECA4FCEB8EF0A4C5F02C2DC5F0221270528EF006
:02705000ED222F
:20705200C002C001AAF0F97E007D007F11C3E933F9EA33FADF08F5F0E9D001D00222ED33F4
:20707200FDEE33FEC3ED9BF5F0EE9C40E0ADF0FED380DBBB000122C333C5F033C5F0DBF7FC
:2070920022BB000122C3C5F013C5F013DBF7221270A404700205F0221270AD14B4FF0215D7
:2070B200F0221270ADF4C5F0F4C5F02245F080231271154029801E12711540227017801E73
:2070D20012711540107017800C127115501080051271296009E4F5F02212712960F7E4F54A
:2070F200F0042212712940F680EB12712940EF70E480EB12712940DD70E480D9127129500F
:20711200DD80D2C39BC5F09C20E70720D207C345F02220D2F9D322C5F0C39C7003E5F09B87
:2071320022900F0AE0A360F8E0FFA3E0A3CF2582F582EF3583F58380EBFBE0CB22FCE0FB7C
:20715200A3E0CC22FAE0F9A3E0CA220000000048C34F813827C5A03ECCCCCE4220000010B5
:2071720027E80364000A00010080252575002D2D2D0025642E003025640025640025640034
:20719200257325642E002000002564002564002020202000257325730025640025732573F3
:1E71B2000025750031542025780046202575004E462025750043414D204D4F4445007F
:00000001FF
