:020000000144B9
:20003200542E452E4B2E4E2E4F432E4F2E4D2E000000E58775C7AA75C7555387FBF5F078F7
:20005200227400F608B83FFBE5F054105320EF422075813E75228075231090C78D79007A41
:200072000C7B627C02EB4C601CE493A3CAC583CAC9C582C9F0A3CAC583CAC9C582C91BBB67
:20009200FFE31C80E09010FAE4F012C1DB75C7AA75C75543C602E504F0A3E505F075C7AA16
:2000B20075C75553C6FD2212001B80FB7E00CF2522F582EE3523F583EF227E00CF2522F956
:2000D200EE3523FAEF227E00C5222FC522C5233EC5232274091204C7601D7A0B7420124DC3
:2000F200F6DAF97430124DF6742E124DF6740D124DF6740A024DF61209D8740475F00C12AE
:20011200097E1202B8400D751701744F124DF6120A2D80D9740875F00C12097E1202B85044
:200132000F700D7517027455124DF6120A2D80BD120A5B7A00742D550D4420C0E00A750D6B
:2001520000C3E5099481F4042418FB020170C3E50A13F50AE50B13F50BE50C13F50CDBEE90
:200172007B0A7C00E50B850AF012C68285F00AF50B8DF0E50C12C682F50CED2430C0E00A70
:20019200E50C70DCE50B70D8E50A70D4120A61C3E5099480FB4017EB6032C3E50C33F50CAC
:2001B200E50B33F50BE50A33F50A1B0201A9EB601BC3E50A13F50AE50B13F50BE50C13F5FC
:2001D2000C0BE4350C60E7F50C0201C0742EC0E00ABA0803020207120A5B7C00780F12041A
:2001F200CF7012120437E5F00C60027C002430C0E00ABA08E78A07C3740D9F2CF960077475
:2002120020124DF6D9F9C3E5819FFD04F9C3EF9CFFE709124DF61F7E00E7090EB42EFA19A1
:20023200191EE719124DF61FDEF8E709B42EFB19E709124DF6DFF9740D124DF6740A124D75
:20025200F68D81E4120A2D2278F912C603E60886F0C0E0C0F0740975F000C0E0C0F0120AEB
:200272006E158115811581158178FB12C603E60886F0C0E0C0F0740E75F000C0E0C0F0125B
:200292000A6E1581158115811581E50D12C635AB1212C62C12C71B70030202B4E4F5F002D2
:2002B20002B71202B822E509B50E15E50AB50F10E50BB5100BE50CB51106C3E4F5F00422CD
:2002D200E4F5F02278F912C603E60886F0C0E0C0F0740975F000C0E0C0F0120A6E158115BA
:2002F200811581158178FB12C603E60886F0C0E0C0F0740E75F000C0E0C0F0120A6E1581E6
:20031200158115811581E50D6003020330E5126007740175F0008003120343020342E5122E
:20033200600812034312C6EE8003E4F5F0020342221202B840057003740122E42278FB12CA
:20035200C603E60886F0C0E0C0F0740975F000C0E0C0F0120A6E1581158115811581C374C3
:20037200879509F8400EE50D700A08E50A03D8FD75F0002275F0012278FB12C603E60886F4
:20039200F0C0E0C0F0740975F000C0E0C0F0120A6E1581158115811581C3748F9509F8405B
:2003B200D30500E50B850AF0C3C5F013C5F013D8F7C0E0E50D6006E5F04480F5F0D0E0227A
:2003D20075F00122740075F00CC0E0C0F078F912C603E60886F0C0E0C0F0120A6E15811519
:2003F200811581158122740E75F000C0E0C0F01203D61581158178FB12C60386060886075F
:200412007810E5075480700FE506C333F506E50733F507D8EF800DE507F50FE506F510E8F0
:200432002480F50E22E50FF50AE510F50BE511F50CC3E51133F511E51033F510E50F33F5C7
:200452000FE433F5F0E51133F511E51033F510E50F33F50FE5F033F5F0E511250CF511E5F9
:2004720010350BF510E50F350AF50FE435F0F5F0E51133F511E51033F510E50F33F50FE584
:20049200F033F5F022E50D6007740175F0008003E4F5F02278FB12C603E60886F0C0E0C06D
:2004B200F0740975F000C0E0C0F0120A6E1581158115811581F875F000E6700E08E6700AFD
:2004D20008E6700608E670020422E42274091204C7701EE50A20E719C31509E5096014E5FB
:2004F2000C33F50CE50B33F50BE50A33F50A30E7E8C322D32278F912C603E60886F0C0E03D
:20051200C0F0740975F000C0E0C0F0120A6E158115811581158178FB12C603E60886F0C093
:20053200E0C0F0740E75F000C0E0C0F0120A6E158115811581158112056A740975F000C0DD
:20055200E0C0F0741375F000C0E0C0F0120A6E158115811581158122E5096004E50E700CF8
:20057200E4F50DF509F50AF50BF50C22E50D6512F50DE509250E30E70850177517010205BD
:2005920098400F751702E4F50DF509F50AF50BF50C222480F5091205E5ED20E70EEC33FC13
:2005B200EF33FFEE33FEED33FD1509EC33501574012FFF700F74012EFE7009E43DFD50047C
:2005D20013FD0509EFF50CEEF50BEDF50AE50960B2E422E511850CF0A4AFF0E510850CF0EB
:2005F200A42FFFE4E5F03400FEE511850BF0A42FE5F03EFFE43400FEE50F850CF0A42FFF74
:20061200E5F03EFEE43400FDE510850BF0A42FFFE5F03EFEED3400FDE511850AF0A42FFCE8
:20063200E5F03EFFED3400FEE50F850BF0A42FFFE5F03EFEE43400FDE510850AF0A42FFFC5
:20065200E5F03EFEED3400FDE50F850AF0A42EFEE5F03DFD2278F912C603E60886F0C0E095
:20067200C0F0740975F000C0E0C0F0120A6E158115811581158178FB12C603E60886F0C032
:20069200E0C0F0740E75F000C0E0C0F0120A6E15811581158115811206CA740975F000C01B
:2006B200E0C0F0741375F000C0E0C0F0120A6E158115811581158122E512650DF50DE50EFA
:2006D200700302058DE5097003020598C3E509950E500620E70602059520E7E62480F5091F
:2006F2001202BD500CC3E50A950F7002800302071CC3E50A13F50AE50B13F50BE50C13F58B
:200712000C0509E509700302058D12074BC0E012074BC0E012074BC0E012074B54F0C360E1
:2007320001D3E4D0E03400F50CD0E03400F50BD0E03400F50A1204DE22AA0AA90BA80C858C
:200752000AF0E50B7C00AB0F12C68230F00274FFFBF50A750B00750C001205E585020A856B
:20077200010B85000CC3E50C9FFFE50B9EFEE50A9DFD500D1BEF2510FFEE350FFEED340077
:20079200FD750C008F0B8E0AEB2278F912C603E60886F0C0E0C0F0740975F000C0E0C0F058
:2007B200120A6E158115811581158178FB12C603E60886F0C0E0C0F0740E75F000C0E0C0FC
:2007D200F0120A6E15811581158115811207E412086AE512F4F512740975F000C0E0C0F090
:2007F200741375F000C0E0C0F0120A6E15811581158115812278F912C603E60886F0C0E057
:20081200C0F0740975F000C0E0C0F0120A6E158115811581158178FB12C603E60886F0C090
:20083200E0C0F0740E75F000C0E0C0F0120A6E158115811581158112086A740975F000C0D7
:20085200E0C0F0741375F000C0E0C0F0120A6E158115811581158122E50D6512F5F0C3E5C0
:2008720009950EF940249418501E780F740A2402FC0208B3E50EF509E50FF50AE510F50B86
:20089200E511F50CE512F50DE422F404F9C3941850E2E50EF509E512F50D780A740F2402A9
:2008B200FCE665F0FD08E665F0FE08E665F0FFE95407FBE95418030303F9E9600AAF06AE23
:2008D20005ADF0190208CCEB6010E5F013ED13FDEE13FEEF13FF1B0208D9E5F013A804EFB4
:2008F2003618F50CEE3618F50BED36F50AE5F0701A5054E50A13F50AE50B13F50BE50C132E
:20091200F50C0509E509703F02058D4015E50DF4F50DE50CF404F50CE4950BF50BE4950A57
:20093200F50AE50A20E7207020D3E5099408403604F509E50BF50AE50CF50B7004E50A6088
:2009520025E4F50C020934E422E50914F5096019C3E50C33F50CE50B33F50BE50A33F50A91
:2009720030E7E6020959020598020595A983A882F58285F083E4F512E0330350037512FF2A
:20099200F5F0A3E033C5F033F50E6001D3E5F013F50FA3E0F510A3E0F5118983888222E571
:2009B200812404F8D0E0F6D0E018F6E50D33E50913C0E0E50A2313C0E0E50BC0E0E50CC054
:2009D200E00581058122E5812404F8D0E0F6D0E018F6E51233E50E13C0E0E50F2313C0E073
:2009F200E510C0E0E511C0E00581058122D0E0F583D0E0F582750D00D0E0F50CD0E0F50B5A
:200A1200D0E033F5F0D0E033F5095003750DFFC36001D3E5F013F50AE47322D0E0F583D0F8
:200A3200E0F582751200D0E0F511D0E0F510D0E033F5F0D0E033F50E50037512FFC36001B0
:200A5200D3E5F013F50FE473227809790E8004780E79097F05E6F70809DFFA2278F912C602
:200A720003E583C0E0E582C0E08607088606EE7043EFB40903020A8DB40E0D8F017D05E780
:200A920009C0E0DDFA020AF47505008F0109E733F5F019E733C0E050037505FFC36001D31C
:200AB200E5F013C0E00909E7C0E009E7C0E0EDC0E0020AF47505008E838F82A3E033F5F0AF
:200AD2008E838F82E033C0E050037505FFC36001D3E5F013C0E0A3A3E0C0E0A3E0C0E0ED0E
:200AF200C0E0088607088606EFB40903020B04B40E1AEF2404F9D0E0F7D0E019F7D0E0193F
:200B1200F7D0E019F7D0E019F7020B86E506B40023EF2403F9D0E0F5F0D0E0F7D0E019F7EC
:200B3200D0E0C5F033D0E013C5F0231319F7E5F019F78040EFF582850683A3A3A3D0E0F9A2
:200B5200D0E0F0E5828583F012C6DDF58285F083D0E0F0E58212C6DDF58285F083D0E0C9BC
:200B720033D0E013C92313F0E58212C6DDF58285F083E9F0D0E0F582D0E0F58375F000EF77
:200B9200227FFD7EFF1200DAE4F5F0F52485F02578FB12C603E60886F0F52685F027E4F57E
:200BB2002AE5268527F07B007C0012C7357003020C0BE52A75F000C333C5F033C5F078F949
:200BD20012C603860108860212C625E5248525F089828A8312C77F2BC5F03CC5F0F5248592
:200BF200F025E52A052AE5268527F012C6DDF52685F02712C6D4020BB3E5248525F07F03EC
:200C12000200D878FB12C603E60886F0F52485F025E5248525F045F0600CE5248525F07B21
:200C3200FF7CFF12C71B45F07003020C72A924AA2589828A83E0A3F5F0E0C5F0F52685F0CB
:200C520027A924AA25E4F5F089828A83F0A3C5F0F0C5F0E5268527F0F52485F025020C2366
:200C72002278FB12C603E6F52AE52A75F0007B1A7C0012C73E7003020C8F020D14E52A759A
:200C9200F0007B247C0012C66779207A0812C62589828A83E0A3F5F0E0C0F0C0E0120C15FD
:200CB20015811581E52A75F0007B247C0012C66779227A0812C62589828A83E0A3F5F0E0AE
:200CD200C0F0C0E0120C1515811581740075F008C0E0C0F0E52A75F0007B247C0012C66754
:200CF200D004D0032BC5F03CC0F0C0E0E4C0E0C0E0742475F000C0E0C0F012C4F17FFA120C
:200D1200C60F2278FB12C603E6F52AE52A75F0007B1E7C0012C66779187A1212C62589828A
:200D32008A83E0A3F5F0E0C0F0C0E0120C1515811581E52A75F0007B1E7C0012C667791A42
:200D52007A1212C62589828A83E0A3F5F0E0C0F0C0E0120C1515811581E52A75F0007B1EDC
:200D72007C0012C667791C7A1212C62589828A83E0A3F5F0E0C5F0F52885F029E5288529FD
:200D9200F045F0600CE5288529F07BFF7CFF12C71B45F07003020E13E4F52BE52B75F000D8
:200DB2007B037C0012C7257003020DFC8006E52B052B80E7E52B75F0007B0A7C0012C667C9
:200DD2002528C5F03529C5F0240AC5F03400C5F0F9AAF089828A83E0A3F5F0E0C0F0C0E0DD
:200DF200120C1515811581020DC0A928AA2989828A83E0A3F5F0E0C5F0F52885F029020D30
:200E12008E740075F012C0E0C0F0E52A75F0007B1E7C0012C667D004D0032BC5F03CC0F0BC
:200E3200C0E0E4C0E0C0E0741E75F000C0E0C0F012C4F17FFA12C60F22E4F5F0F52485F0F5
:200E520025E4F5F0F52685F027E5268527F07B167C0712C7257003020EBA8012E52685279C
:200E7200F012C6D4F52685F02712C6DD80DBE5268527F07B207C0012C66779007A1D12C618
:200E92002589828A83E0A3F5F0E0C5F045F07003020EB7E5248525F0240FC5F03400C5F023
:200EB200F52485F025020E6EE5248525F022740075F012C39401C5F09400C5F0F52485F05B
:200ED2002578FB12C603E67003020EF1740075F01DC39401C5F09400C5F0F52485F025E54F
:200EF200248525F07BFE7CFF12C7257003020F1BE5248525F012C6D4F52485F025F9AAF0FC
:200F1200E489828A83F0020EF1740075F008C39401C5F09400C5F0F52485F02574D075F03F
:200F32000BC39401C5F09400C5F0AB24AC2512C7357003020F61E5248525F012C6D4F52443
:200F520085F025F9AAF0E489828A83F0020F2E227FFB7EFF1200DAE52A7F001200BEF0E5EF
:200F7200288529F07F011200BEF0A3C5F0F0C5F0E4F5F07F031200BEF0A3C5F0F0C5F0E470
:200F9200F5F0F52885F029E5288529F07B167C0712C725700302107D8012E5288529F01291
:200FB200C6D4F52885F02912C6DD80DBE5288529F07B207C0012C66779007A1D12C6258923
:200FD200828A83E0A3F5F0E0C5F045F0600302107AE5288529F07B207C0012C66779007A5B
:200FF2001D12C62574FFF5F089828A83F0A3C5F0F0C5F0E4F52AE52A75F0007B0F7C0012D9
:20101200C72570030210558006E52A052A80E7E5288529F07B207C0012C66779027A1D12A8
:20103200C625E52A75F000C333C5F033C5F012C625E475F08089828A83F0A3C5F0F0C5F0E1
:2010520002101BE5288529F07B207C0012C66779007A1D12C625E98AF07F031200BEF0A3FB
:20107200C5F0F0C5F002107D020FAC7F001200BEE0F52A7F011200BEE0A3F5F0E0C5F0F528
:201092002885F0297F031200BEE0A3F5F0E0C5F07F050200D87FFC7EFF1200DA78F712C6A0
:2010B20003E60886F07B007C0012C72570030210C9E4F5F002129E78FB12C6038601088696
:2010D2000289828A83E0A3F5F0E0C5F07F001200BEF0A3C5F0F0C5F078F712C603E60886ED
:2010F200F07B0F7C0012C73E600C7F001200BEE0A3F5F0E0C5F045F0700302116A7F001263
:2011120000BE12C78689828A83E0A3F5F0E0C5F07BFF7CFF12C712700302113102116A7FF8
:20113200001200BE12C78689828A83E0A3F5F0E0C5F07F001200BEF0A3C5F0F0C5F078F7AE
:2011520012C603E60886F0C3940FC5F09400C5F018F608A6F00210EA7F001200BEE0A3F56B
:20117200F0E0C5F012C6EE45F0702C7F001200BE12C78689828A83E0A3F5F0E0C5F07BFF04
:201192007CFF12C712601078F712C603E60886F07B0F7C0012C73E45F0700302127878F9F7
:2011B20012C603E612C63512C6EE45F07012120F627F021200BEF0A3C5F0F0C5F012C6EE4B
:2011D20045F070030211DFE4F5F002129E7F001200BEE0A3F5F0E0C5F045F07003021214CC
:2011F2007F001200BE12C7867F021200BEE0A3F5F0E0C5F089828A83F0A3C5F0F0C5F002DA
:20121200123578FB12C60386010886027F021200BEE0A3F5F0E0C5F089828A83F0A3C5F062
:20123200F0C5F07F021200BEE0A3F5F0E0C5F07F001200BEF0A3C5F0F0C5F078F712C60323
:20125200E60886F07B0F7C0012C73E700302127818E60886F0C3940FC5F09400C5F018F60E
:2012720008A6F00210EA7F001200BE12C786740275F00012C62578F712C603E60886F0C3CB
:2012920033C5F033C5F012C625E98AF07F040200D8E4F5F022E4F5F02278F712C603E6F5B4
:2012B2002E08080808E60886F05402C5F05400C5F045F0600D18E60886F05400C5F05402D9
:2012D200C5F045F070030213357420F52E78F512C603E60886F0C0E0C0F0742275F007C0E0
:2012F200E0C0F0E52E75F000C0E0C0F079227A03C001C00279207A03D083D082E0A3F5F0C6
:20131200E0C5F089828A8312C77FC39BC5F09CC0F0C0E0740475F00012C4E37FF812C60FC3
:201332000213D079147A0389828A83E0A3F5F0E0C5F05401C5F05400C5F045F060030213D7
:2013520059E4F5F00214D5E4F5F078F512C603860108860212C625E52E244189828A83F0C9
:20137200E52E75F0007B247C0012C66779047A0812C62589828A83E060030213EB78F512B3
:20139200C603E60886F02401C5F03400C0F0C0E0742A75F007C0E0C0F0080808E60886F0DA
:2013B2007BE87C0312C67B2401C5F03400C0F0C0E0740375F00012C4E37FFA12C60F74041B
:2013D20075F00078F512C603860108860212C625E489828A83F00214B4E52E75F0007B246D
:2013F2007C0012C66779047A0812C62578F912C603E60886F089828A8312C77B7C0012C6B4
:201412007BF52685F027E5268527F045F0600302148278F512C603E60886F02401C5F034F7
:2014320000C0F0C0E0743075F007C0E0C0F0E52E75F0007B247C0012C66779047A0812C641
:201452002578F512C603E60886F089828A8312C77B7C0012C6822401C5F03400C0F0C0E009
:20147200740375F00012C4E37FFA12C60F0214B478F512C603E60886F0C0E0C0F07437757F
:20149200F007C0E0C0F0E5268527F02401C5F03400C0F0C0E0740375F00012C4E37FFA12CE
:2014B200C60F740575F00078F512C603860108860212C625E489828A83F078F512C603E6F1
:2014D2000886F0227FFE7EFF1200DA79147A0389828A83E0A3F5F0E0C5F05401C5F05400F7
:2014F200C5F045F0600302151D9010DDE0A3F5F0E0C5F0547FC5F0547FC5F09010DDF0A3BF
:20151200C5F0F0C5F0E4F5F00216C779287A0389828A83E0A3F5F0E0C5F0F52AE52A75F0F1
:20153200007B247C0012C667791C7A0812C62589828A83E0A3F5F0E0C5F0F52685F027E57A
:201552002A75F000C0E0C0F0E5268527F0C0E0C0F0740175F000C0E0C0F01212A37FFA1227
:20157200C60F7F001200BEF0A3C5F0F0C5F0E52A75F0007B247C0012C66779047A0812C6A3
:2015920025E5268527F089828A8312C77B7C0012C67BF52DE52A75F0007B247C0012C66742
:2015B20079047A0812C625E5268527F089828A8312C77B7C0012C682F52C9010DDE0A3F51E
:2015D200F0E0C5F0547FC5F0547FC5F09010DDF0A3C5F0F0C5F078FB12C603E612C6357B3E
:2015F2000112C62C12C70270030216010216C77F001200BEE0A3F5F0E0C5F045F0600302A8
:2016120016170216C77F001200BEE0A3F5F0E0C5F02408C5F03400C5F0F9AAF089828A83EB
:20163200E054FFF52EE52E60030216410216C7E52EE52D75F000AB2E7C0012C72570030242
:2016520016570216C778FB12C603E6700302166CE52C052CE4F52D021673E52EC39401F5CE
:201672002DE52A75F0007B247C0012C66779047A0812C625E52C75F00089828A8312C77B7F
:201692007C0012C667252DC5F03400C5F0F52685F027E52A75F0007B247C0012C667791C73
:2016B2007A0812C625E5268527F089828A83F0A3C5F0F0C5F07F020200D8E52A75F0007BA3
:2016D200247C0012C66779067A0812C625C001C00279227A0389828A83E0A3F5F0E0C5F06B
:2016F200D083D082F079147A0389828A83E0A3F5F0E0C5F05404C5F05400C5F045F0600376
:2017120002171802177AE52A75F0007B247C0012C66779087A0812C625C001C00279247A8B
:201732000389828A83E0A3F5F0E0C5F0D083D082F0A3C5F0F0C5F0E52A75F0007B247C005E
:2017520012C667790A7A0812C625C001C00279267A0389828A83E0A3F5F0E0C5F0D083D05F
:2017720082F0A3C5F0F0C5F0227FFE7EFF1200DA79147A0389828A83E0A3F5F0E0C5F0546D
:2017920001C5F05400C5F045F060030217A6E4F5F0021A3279287A0389828A83E0A3F5F06C
:2017B200E0C5F0F52AE52A75F0007B247C0012C667791C7A0812C62589828A83E0A3F5F001
:2017D200E0C0F0C0E0740175F000C0E0C0F0E52A7B247C0012C66779207A0812C625E98AA9
:2017F200F0C0E0C0F01210A77FFA12C60F7F001200BEF0A3C5F0F0C5F07F001200BEE0A360
:20181200F5F0E0C5F045F06003021867740375F000C0E0C0F012446315811581743F75F0FA
:2018320007C0E0C0F01287D61581158179147A0389828A83E0A3F5F0E0C5F054FEC5F0542A
:20185200FFC5F089828A83F0A3C5F0F0C5F0E475F001021A327F001200BE12C78678FB12F2
:20187200C603E60886F089828A83F0A3C5F0F0C5F0E52A75F0007B247C0012C66779007A63
:201892000812C62589828A83E0A3F5F0E0C5F07B007C0012C71270030218CEE52A75F0006B
:2018B2007B247C0012C66779147A0812C625E98AF0C0E0C0F012434915811581E52A75F0BF
:2018D200007B247C0012C667791C7A0812C62589828A83E0A3F5F0E0C5F012C6D489828A32
:2018F20083F0A3C5F0F0C5F012C6DD1216CCE52A75F0007B247C0012C667791C7A0812C600
:2019120025C001C002E52A75F0007B247C0012C66779007A0812C625D083D082E0A3F5F03A
:20193200E0C5F089828A8312C77F12C7357003021984E52A75F0007B247C0012C667790029
:201952007A0812C625C001C002E52A75F0007B247C0012C667791C7A0812C62589828A8379
:20197200E0A3F5F0E0C5F0D083D082F0A3C5F0F0C5F0740175F000C0E0C0F01214D615810A
:201992001581E52A75F0007B247C0012C66779047A0812C625C001C002E52A75F0007B243F
:2019B2007C0012C66779057A0812C625D083D082E075F00089828A8312C77B7C0012C6674C
:2019D200F52485F025E5248525F045F06025E52A75F0007B247C0012C667791C7A0812C628
:2019F2002589828A83E0A3F5F0E0C5F0AB24AC2512C73E45F07003021A2F740375F000C055
:201A1200E0C0F012446315811581741375F007C0E0C0F01287D61581158102183EE4F5F040
:201A32007F020200D874FFF5F022746275F00EC0E0C0F079287A0389828A83E0A3F5F0E0A8
:201A5200C0F0C0E079287A0389828A83E0A3F5F0E0C5F07B247C0012C667791C7A0812C6A8
:201A72002589828A83E0A3F5F0E0C0F0C0E078F512C603E60886F0C0E0C0F01212AB7FF83D
:201A920012C60F2278F912C603E60886F05400C5F05480C5F045F07003021AF208E60886B7
:201AB200F05400C5F05480C5F045F06003021AC8E4F5F0021B3978F912C603E60886F054F3
:201AD200FFC5F054FFC0F0C0E008E60886F054FFC5F054FFC5F0D004D00312C735021B3916
:201AF20078FB12C603E60886F05400C5F05480C5F045F07003021B12740175F000021B3989
:201B120078F912C603E60886F054FFC5F054FFC0F0C0E008E60886F054FFC5F054FFC5F0DC
:201B3200D004D00312C72522740875F00079327A0012C625E4F5F0F709A7F0E4F5F07932F5
:201B52007A0012C62574FF75F07FF709A7F0740275F00079327A0012C62574FF75F08FF7B3
:201B720009A7F0740075F00CC0E0C0F0740975F000C0E0C0F0120A6E15811581158115816A
:201B9200E4F5F0F52885F029E52C75F0007B247C0012C66779007A0812C625E5288529F03C
:201BB20089828A8312C77F12C7257003021D2E8012E5288529F012C6D4F52885F02912C669
:201BD200DD80C5E5288529F0C0E0C0F0E4C0E0C0E0E52C75F0007B247C0012C66779207ACF
:201BF2000812C625E98AF0C0E0C0F01210A77FFA12C60FF52485F025E5248525F045F06007
:201C120003021C19021D2EA924AA2589828A83E0A3F5F0E0C5F07B007C8012C712700302A3
:201C32001C37021BC312C517A924AA2589828A83E0A3F5F0E0C0F0C0E0740275F00079329F
:201C52007A0012C625E70987F0C0E0C0F0121A96158115811581158145F07003021C987458
:201C72000275F00079327A0012C625C001C002A924AA2589828A83E0A3F5F0E0C5F0D007BE
:201C9200D000F608A6F0E4F5F079327A0012C625E70987F0C0E0C0F0A924AA2589828A8378
:201CB200E0A3F5F0E0C0F0C0E0121A96158115811581158145F07003021CF2E4F5F0793234
:201CD2007A0012C625C001C002A924AA2589828A83E0A3F5F0E0C5F0D007D000F608A6F00C
:201CF20012C514A924AA2589828A83E0A3F5F0E0C0F0C0E0127ED41581158112086A74080B
:201D120075F00079327A0012C625E70987F012C6D419F709A7F012C6DD021BC3740875F0F1
:201D32000079327A0012C625E70987F07B017C0012C7357003021F72740875F00079327AF6
:201D52000012C625E70987F0C0E0C0F01203F8158115811206CA1209B1E50D6006E475F035
:201D7200808003E4F5F0F52685F027E4F50D740475F00079327A0012C625C001C0027409E9
:201D920075F000C0E0C0F012038A158115814526C5F04527C5F0D007D000F608A6F012091A
:201DB200FF740975F000C0E0C0F0749375F010C0E0C0F0120A6E15811581158115817400BE
:201DD20075F00CC0E0C0F0740975F000C0E0C0F0120A6E15811581158115811209B112C579
:201DF20017E4F5F0F52885F029E52C75F0007B247C0012C66779007A0812C625E5288529B3
:201E1200F089828A8312C77F12C7257003021F198012E5288529F012C6D4F52885F02912EF
:201E3200C6DD80C5E5288529F0C0E0C0F0E4C0E0C0E0E52C75F0007B247C0012C667792020
:201E52007A0812C625E98AF0C0E0C0F01210A77FFA12C60FF52485F025E5248525F045F08A
:201E72006003021E7A021F19A924AA2589828A83E0A3F5F0E0C5F07B007C8012C712700393
:201E9200021E98021E24A924AA2589828A83E0A3F5F0E0C0F0C0E0127ED415811581749351
:201EB20075F010C0E0C0F0740975F000C0E0C0F0120A6E15811581158115811207DE7409C3
:201ED20075F000C0E0C0F0740E75F000C0E0C0F0120A6E158115811581158112056A740924
:201EF20075F000C0E0C0F0740E75F000C0E0C0F0120A6E15811581158115811209FF1208CE
:201F12006A1209B1021E24740875F00079327A0012C625E70987F0C39401C5F09400C0F07A
:201F3200C0E01203F8158115811209FF1206CA125330740675F00079327A0012C625C00163
:201F5200C002740975F000C0E0C0F012038A15811581D007D000F608A6F012C514021F98D1
:201F7200740475F00079327A0012C625E4F5F0F709A7F0740675F00079327A0012C625E40B
:201F9200F5F0F709A7F022E4F52EE52E75F00078F912C60386037C0012C7257003021FE04F
:201FB2008006E52E052E80E2741E75F00CC0E0C0F078F912C603E675F000C0E0C0F0740231
:201FD200124E8C1581158115811581021FB42278FB12C603E60886F0C0E0C0F0749375F046
:201FF20010C0E0C0F079147A0389828A83E0A3F5F0E0C5F04400C5F04480C0F0C0E0125CD5
:20201200577FFA12C60F742175F00CC0E0C0F078F712C603E60886F0C0E0C0F0749375F037
:2020320010C0E0C0F0740375F000124E8C7FFA12C60F2278FB12C603E60886F0C0E0C0F0E2
:20205200740975F000C0E0C0F0120A6E15811581158115811200E5227FFB7EFF1200DAE579
:202072002D7F001200BEF0E52C7F011200BEF0740075F00CC0E0C0F0749375F010C0E0C080
:20209200F0120A6E1581158115811581740275F00079327A0012C625E70987F0C0E0C0F0A8
:2020B200127ED415811581740E75F000C0E0C0F0749375F0102404C5F03400C0F0C0E01258
:2020D2000A6E1581158115811581740E75F000C0E0C0F0740975F000C0E0C0F0120A6E1516
:2020F20081158115811581E4F5F079327A0012C625E70987F0C0E0C0F0127ED41581158159
:20211200740E75F000C0E0C0F0749375F010240CC5F03400C0F0C0E0120A6E1581158115C6
:202132008115811207DE1209B1E51F54017003022157747875F000C0E0C0F01203F8158129
:202152001581022167740A75F000C0E0C0F01203F8158115811206CAE51F5404700302210D
:2021720093749775F007C0E0C0F0740E75F000C0E0C0F0120A6E15811581158115811206C2
:20219200CA740975F000C0E0C0F0749375F0102408C5F03400C0F0C0E0120A6E158115819A
:2021B20015811581E51F5401700302221B741075F000C0E0C0F01203F81581158112056AE3
:2021D200749375F0102404C5F03400C0F0C0E0740E75F000C0E0C0F0120A6E15811581150E
:2021F20081158112086A740975F000C0E0C0F0749375F0102404C5F03400C0F0C0E0120A07
:202212006E15811581158115811209FFE51F5402700302223A740C75F000C0E0C0F0120357
:20223200F81581158102224A740675F000C0E0C0F01203F8158115811206CA740975F000CE
:20225200C0E0C0F0749375F0102410C5F03400C0F0C0E0120A6E15811581158115817409D4
:2022720075F000C0E0C0F012038A158115817F031200BEF0A3C5F0F0C5F07F031200BEE05B
:20229200A3F5F0E0C5F045F060030222B0740175F0007F031200BEF0A3C5F0F0C5F0749383
:2022B20075F0102408C5F03400C0F0C0E0740975F000C0E0C0F0120A6E158115811581159F
:2022D20081749375F0102404C5F03400C0F0C0E0740E75F000C0E0C0F0120A6E15811581A1
:2022F2001581158112086A740975F000C0E0C0F0749375F0102404C5F03400C0F0C0E012FB
:202312000A6E1581158115811581740475F00079327A0012C625E70987F0C0E0C0F0127E95
:20233200D415811581740E75F000C0E0C0F0740975F000C0E0C0F0120A6E158115811581D6
:202352001581E4F5F079327A0012C625E70987F0C0E0C0F0127ED415811581740E75F000BC
:20237200C0E0C0F0749375F0102418C5F03400C0F0C0E0120A6E158115811581158112070F
:20239200DE749375F0102408C5F03400C0F0C0E0740E75F000C0E0C0F0120A6E158115817F
:2023B200158115811206CA749375F007C0E0C0F0740E75F000C0E0C0F0120A6E158115814D
:2023D2001581158112086A740975F000C0E0C0F012038A15811581F52685F027E5268527D0
:2023F200F07F021200BEF0E4F52DE52D75F0007B027C0012C7257003022DDD8006E52D050A
:202412002D80E7E52D7003022635740875F00079327A0012C625E70987F0C0E0C0F0120365
:20243200F815811581749375F0102410C5F03400C0F0C0E0740975F000C0E0C0F0120A6EC1
:20245200158115811581158112056A740975F000C0E0C0F0740E75F000C0E0C0F0120A6E9E
:202472001581158115811581749375F0102400C5F03400C0F0C0E0740975F000C0E0C0F0E7
:20249200120A6E15811581158115811206CA749B75F007C0E0C0F0740E75F000C0E0C0F064
:2024B200120A6E158115811581158112056A749B75F007C0E0C0F0740E75F000C0E0C0F0A5
:2024D200120A6E158115811581158112056A740975F000C0E0C0F012038A15811581F5266F
:2024F20085F027E5268527F0C0E0C0F0749375F0102424C5F03400C0F0C0E079147A0389A7
:20251200828A83E0A3F5F0E0C5F04400C5F04480C5F04480C5F04400C5F054BFC5F054FF1E
:20253200C0F0C0E0125C577FFA12C60FE5268527F07B017C0012C6C3F52685F027E5268593
:2025520027F0C0E0C0F0749375F0102424C5F03400C5F0240AC5F03400C0F0C0E079147A32
:202572000389828A83E0A3F5F0E0C5F04400C5F04480C5F04480C5F04400C5F054BFC5F085
:2025920054FFC0F0C0E0125C577FFA12C60F742B75F00CC0E0C0F0749375F0102424C5F088
:2025B2003400C5F0240AC5F03400C0F0C0E0749375F0102424C5F03400C0F0C0E0740375D0
:2025D200F000124E8C7FFA12C60F741275F000C0E0C0F0742DC0E0C0F0121F99158115818B
:2025F20015811581744675F00CC0E0C0F0740175F000124E8C15811581E51F540170030262
:202612002635744875F00CC0E0C0F0740175F000124E8C15811581E4C0E0C0E0124DBA158C
:20263200811581E4F52E749375F0102418C5F03400C0F0C0E0749375F010240CC5F03400E4
:20265200C0F0C0E0120A6E1581158115811581022D92740075F00CC0E0C0F0749375F010C4
:202672002414C5F03400C0F0C0E0120A6E1581158115811581749375F010240CC5F0340060
:20269200C0F0C0E0740975F000C0E0C0F0120A6E1581158115811581740975F000C0E0C082
:2026B200F012038A15811581F52685F027E50D70030226D8E5268527F04400C5F04480C508
:2026D200F0F52685F027E4F5F0F52885F029E52C75F0007B247C0012C66779007A0812C61A
:2026F20025E5288529F089828A8312C77F12C72570030228F88012E5288529F012C6D4F517
:202712002885F02912C6DD80C5E5288529F0C0E0C0F0E4C0E0C0E0E52C75F0007B247C0037
:2027320012C66779207A0812C625E98AF0C0E0C0F01210A77FFA12C60FF52485F025E52498
:202752008525F045F0600302275F0228F8A924AA2589828A83E0A3F5F0E0C5F07B007C8063
:2027720012C712700302277D022709A924AA2589828A83E0A3F5F0E0C5F0F52485F025E5C8
:20279200248525F054FFC5F0547FC0F0C0E0E5268527F054FFC5F0547FC5F0FBACF0D0F0B0
:2027B200D0E0C39BC5F09CC0F0C0E012C51A158115817F031200BE12C77F12C7357003020E
:2027D20027D7022709E5248525F0C0E0C0F0127ED415811581749375F010240CC5F034009F
:2027F200C0F0C0E0740975F000C0E0C0F0120A6E15811581158115811207DEE4F50D74937F
:2028120075F0102410C5F03400C0F0C0E0740E75F000C0E0C0F0120A6E158115811581152C
:20283200811206CA749375F007C0E0C0F0740E75F000C0E0C0F0120A6E15811581158115C8
:2028520081120343F52AE52A75F0007B017C0012C712700302286C022709740975F000C03A
:20287200E0C0F0740E75F000C0E0C0F0120A6E1581158115811581E4F512749375F007C07F
:20289200E0C0F0740975F000C0E0C0F0120A6E15811581158115811207DE749375F01024EB
:2028B20014C5F03400C0F0C0E0740E75F000C0E0C0F0120A6E158115811581158112086A1C
:2028D200740975F000C0E0C0F0749375F0102414C5F03400C0F0C0E0120A6E1581158115FC
:2028F200811581022709E52D600302295B749375F0102414C5F03400C0F0C0E0749375F029
:20291200102400C5F03400C0F0C0E01202D6158115811581158145F070030229587493754F
:20293200F0102414C5F03400C0F0C0E0749375F0102400C5F03400C0F0C0E0120A6E15811B
:20295200158115811581022B6A749375F010240CC5F03400C0F0C0E0740975F000C0E0C0E5
:20297200F0120A6E1581158115811581E50D6006E475F0808003E4F5F0F52685F027E4F576
:202992000D740975F000C0E0C0F012038A158115814526C5F04527C5F0F52685F027E51F1F
:2029B200540112C63512C6EE45F07011E52E240475F0007B087C0012C67B12C6EE45F070CA
:2029D20003022A63E5268527F0C0E0C0F0749375F0102424C5F03400C0F0C0E079147A0355
:2029F20089828A83E0A3F5F0E0C5F04400C5F04480C0F0C0E0125C577FFA12C60F747CF599
:202A1200317F021200BEE075F000AB2E7C0012C7127003022A2C742BF531E51F5401600351
:202A3200022A63744B75F00CC0E0C0F0749375F0102424C5F03400C0F0C0E0E53112C63555
:202A5200C0E0C0F0740375F000124E8C7FFA12C60F749375F0102414C5F03400C0F0C0E0FF
:202A7200740975F000C0E0C0F0120A6E1581158115811581E51F54017003022AA274647549
:202A9200F000C0E0C0F01203F815811581022AB2741175F000C0E0C0F01203F8158115815A
:202AB20012056A749375F0102400C5F03400C0F0C0E0740E75F000C0E0C0F0120A6E158153
:202AD2001581158115811206CA740975F000C0E0C0F012038A15811581F52AE51F5401705B
:202AF20003022B26E52E75F0007B087C0012C67BF52B749375F0102430C5F03400C5F025F1
:202B12002BC5F03400C5F0F9AAF0E52A89828A83F0022B6AE4F52BE52B75F000AB2A7C00CF
:202B320012C7257003022B558006E52B052B80E7742075F000C0E0C0F0124DBA15811581D5
:202B5200022B3C745075F00CC0E0C0F0740175F000124E8C15811581E52E052EE52D75F0C6
:202B72000045F06017E52E75F0007B087C0012C67B12C6EE45F06004E51F54017003022D73
:202B920013745375F00CC0E0C0F0E52E75F0007B107C0012C67B45F0600F749375F0102472
:202BB20024C5F03400C5F08005745B75F00CC0E0C0F0E53112C635C0E0C0F0740375F000DD
:202BD200124E8C7FFA12C60FE4C0E0C0E0124DBA15811581E52E75F000F52485F025E4F52A
:202BF2002BE52B75F0007B847C0012C72C7003022CF78006E52B052B80E7E52B75F0007BEE
:202C1200107C0012C7256040E52B75F0007B027C0012C67B12C6EE45F0602D7F021200BEDE
:202C3200E075F000AB24AC2512C72C601BE5248525F0C39408C5F09400C5F07F021200BECC
:202C520012C77B7C0012C72545F07003022C86E5248525F07F021200BE12C77BC39BC5F0DD
:202C72009400C5F0FBACF0740175F00012C6B5F52A022C89E4F52AE4F52EE52E75F0007B28
:202C9200087C0012C7257003022CE48006E52E052E80E7749375F010252EC5F03400C5F07B
:202CB2002430C5F03400C5F0F9AAF089828A83E075F000AB2B7C0012C7127003022CE174ED
:202CD2008075F000AB2E7C0012C6C3452AF52A022C9FE52A75F000C0E0C0F0124DBA15813F
:202CF2001581022C06E5248525F0F52E746175F00CC0E0C0F0740175F000124E8C1581152B
:202D120081E52E75F000C0E0C0F01203F815811581749375F0102408C5F03400C0F0C0E03E
:202D3200740975F000C0E0C0F0120A6E158115811581158112056A749375F0102418C5F07F
:202D52003400C0F0C0E0740E75F000C0E0C0F0120A6E158115811581158112086A7409754E
:202D7200F000C0E0C0F0749375F010240CC5F03400C0F0C0E0120A6E15811581158115813A
:202D9200E52E75F0007BFF7C0012C71B6030749375F010240CC5F03400C0F0C0E0749375CE
:202DB200F0102404C5F03400C0F0C0E01202D615811581158115817B017C0012C71B45F03D
:202DD2007003022DDA02266402240FE51F54017003022DFB746375F00CC0E0C0F07401752C
:202DF200F000124E8C15811581746775F00CC0E0C0F0740175F000124E8C158115817F00AC
:202E12001200BEE0F52D7F011200BEE0F52C7F050200D878FB12C603860108860289828A25
:202E320083E0A3F5F0E0C5F0F52BE52B75F0007B047C0012C7357003022E50E4F52B78FBF8
:202E520012C603860108860289828A83E0A3F5F0E0C5F07B007C0012C6F27003022E75740C
:202E720004F52B78FB12C6038601088602E52B75F00089828A83F0A3C5F0F0C5F0E52B75B8
:202E9200F0007B047C0012C7127003022ED6749375F010C0E0C0F0747975F00CC0E0C0F057
:202EB200740875F00079327A0012C625E70987F0C0E0C0F0740375F00012C4E37FFA12C660
:202ED2000F022F86E52B75F000C333C5F033C5F079327A0012C625E70987F0C0E0C0F074C5
:202EF2009375F0102410C5F03400C0F0C0E079147A0389828A83E0A3F5F0E0C5F04400C523
:202F1200F04480C0F0C0E0125C577FFA12C60F78FB12C603860108860289828A83E0A3F581
:202F3200F0E0C5F0F52B749375F010C0E0C0F0748075F00CC0E0C0F0E52B75F000C333C529
:202F5200F033C5F079167A0C12C62589828A83E0A3F5F0E0C0F0C0E0749375F0102410C550
:202F7200F03400C0F0C0E0740475F00012C4E37FF812C60F749375F0102278FB12C603E605
:202F9200F52CF51F121B3AE4C0E0C0E0742575F02EC0E0C0F01288D415811581158115811D
:202FB200E4F5F0900E84F0A3C5F0F0C5F022E4F51F748675F00CC0E0C0F0E4C0E0C0E0121C
:202FD20088D41581158115811581F52AE52A75F0007BFF7C0012C7127003022FF20231628C
:202FF200E52A6003022FFFE51F4408F51F749775F00CC0E0C0F0E4C0E0C0E01288D41581C5
:20301200158115811581F52AE52A75F0007BFF7C0012C712700302302E023162E52A60038E
:203032000230EFE51F4420F51F74A875F00CC0E0C0F0E4C0E0C0E01288D4158115811581B0
:203052001581F52AE52A75F0007BFF7C0012C712700302306A023162E52A7003023077E5A0
:203072001F4401F51F74B675F00CC0E0C0F0E4C0E0C0E01288D41581158115811581F52AD2
:20309200E52A75F0007BFF7C0012C71270030230A6023162E52A70030230B3E51F4402F543
:2030B2001F74C475F00CC0E0C0F0E4C0E0C0E01288D41581158115811581F52AE52A75F069
:2030D200007BFF7C0012C71270030230E2023162E52A70030230EFE51F4404F51F74D07525
:2030F200F00CC0E0C0F0E4C0E0C0E01288D41581158115811581F52AE52A75F0007BFF7CFF
:203112000012C712700302311E023162E52A600302312BE51F4410F51F792A7A03E51F7584
:20313200F00089828A83F0A3C5F0F0C5F074A575F006C0E0C0F01245C315811581E4C0E0EA
:20315200C0E012446315811581781E438701D8FB227FFE7EFF1200DA74E175F00C7F001245
:2031720000BEF0A3C5F0F0C5F07F001200BEE0A3F5F0E0C0F0C0E01245C315811581E4F58C
:203192001FE51F75F0007B147C0012C72570030232098006E51F051F80E7740175F000C02D
:2031B200E0C0F0123EF31581158112C6357BFE12C62C12C7127003023203E4C0E0C0E012A9
:2031D20044631581158174EB75F00CC0E0C0F01287D615811581122FC07F001200BEE0A37C
:2031F200F5F0E0C0F0C0E01245C3158115810232094387010231A6792A7A0389828A83E069
:20321200A3F5F0E0C5F0F51F78FB12C603E67003023231E6F52CF52DE52C152C023238E494
:20323200F52C741AF52DE52C75F000AB2D7C0012C7257003023A428006E52C052C80E7784B
:20325200FB12C603E612C63512C6EE45F06021E52C75F0007B247C0012C66779007A08123A
:20327200C62589828A83E0A3F5F0E0C5F012C6EE45F0700302328C02324B741875F000C0DE
:20329200E0C0F0745FC0E0C0F0121F99158115811581158174F175F00CC0E0C0F074017537
:2032B200F000124E8C15811581741875F000C0E0C0F0745FC0E0C0F0121F99158115811585
:2032D20081158179087A0289828A83E0A3F5F0E0C5F05401C5F05400C5F045F070030232C4
:2032F200FA7401F52E02332279087A0289828A83E0A3F5F0E0C5F05402C5F05400C5F04568
:20331200F0700302331F7402F52E023322E4F52E740B75F00DC0E0C0F0741775F00DC0E00F
:20333200C0F0740275F000124E8C158115811581158179087A0289828A83E0A3F5F0E0C58A
:20335200F05401C5F05400C5F045F0700302337A741A75F00DC0E0C0F0740175F000124E77
:203372008C158115810233C579087A0289828A83E0A3F5F0E0C5F05402C5F05400C5F0451E
:20339200F070030233B0741C75F00DC0E0C0F0740175F000124E8C158115810233C5741E03
:2033B20075F00DC0E0C0F0740175F000124E8C15811581742175F00DC0E0C0F0740175F016
:2033D20000124E8C15811581742875F00DC0E0C0F079067A0289828A83E0A3F5F0E0C0F05A
:2033F200C0E0740275F000124E8C1581158115811581E52C75F0007B247C0012C66779149F
:203412007A0812C62589828A83E0A3F5F0E0C5F0F52485F0251242F8743375F00DC0E0C08E
:20343200F0749375F010C0E0C0F0740275F000124E8C1581158115811581E52C75F0007BAE
:20345200247C0012C66779167A0812C62589828A83E0A3F5F0E0C5F0F52485F0251243321E
:20347200743E75F00DC0E0C0F0749375F010C0E0C0F0E52C244175F000C0E0C0F0E52C7549
:20349200F0007B247C0012C667790C7A0812C625E98AF0C0E0C0F0740475F000124E8C7FD1
:2034B200F812C60F745D75F00DC0E0C0F0740175F000124E8C15811581741075F000C0E00D
:2034D200C0F0745FC0E0C0F0121F991581158115811581746575F00DC0E0C0F0740175F070
:2034F20000124E8C15811581741075F000C0E0C0F0745FC0E0C0F0121F99158115811581BA
:203512001581746E75F00DC0E0C0F0740175F000124E8C15811581121B3AE51F5408700333
:203532000236CB741875F000C0E0C0F0745FC0E0C0F0121F99158115811581158174717596
:20355200F00DC0E0C0F0740175F000124E8C15811581741875F000C0E0C0F0745FC0E0C0A6
:20357200F0121F991581158115811581747E75F00DC0E0C0F0E52C75F0007B247C0012C60A
:203592006779007A0812C62589828A83E0A3F5F0E0C0F0C0E079147A0389828A83E0A3F570
:2035B200F0E0C5F05440C5F05400C5F045F06007749475F00D8005749C75F00DC0E0C0F0B5
:2035D200740375F000124E8C7FFA12C60F740275F00079167A0C12C62589828A83E0A3F534
:2035F200F0E0C0F0C0E0740275F00079327A0012C625E70987F0C0E0C0F0121FE115811528
:203612008115811581E4F5F079167A0C12C62589828A83E0A3F5F0E0C0F0C0E0E4F5F0791E
:20363200327A0012C625E70987F0C0E0C0F0121FE11581158115811581740475F000791642
:203652007A0C12C62589828A83E0A3F5F0E0C0F0C0E0740475F00079327A0012C625E70936
:2036720087F0C0E0C0F0121FE11581158115811581740675F00079167A0C12C62589828A81
:2036920083E0A3F5F0E0C0F0C0E0740675F00079327A0012C625E70987F0C0E0C0F0121F14
:2036B200E11581158115811581740A75F000C0E0C0F0124DBA15811581E51F54207003025A
:2036D200374F741875F000C0E0C0F0745FC0E0C0F0121F99158115811581158174A175F052
:2036F2000DC0E0C0F0E51F5402600774B375F00D800574BA75F00DC0E0C0F0740275F000B1
:20371200124E8C1581158115811581741875F000C0E0C0F0745FC0E0C0F0121F991581157A
:20373200811581158174C175F00DC0E0C0F0740175F000124E8C1581158112206AE51F54ED
:2037520010600302375B02399A741875F000C0E0C0F0745FC0E0C0F0121F9915811581150C
:2037720081158174C375F00DC0E0C0F0740175F000124E8C15811581741875F000C0E0C0E4
:20379200F0745FC0E0C0F0121F99158115811581158174CA75F00DC0E0C0F0740175F00008
:2037B200124E8C15811581E4F5F0F52885F029E52C75F0007B247C0012C66779007A08127E
:2037D200C625E5288529F089828A8312C77F12C725700302399A8012E5288529F012C6D4A2
:2037F200F52885F02912C6DD80C5E5288529F0C0E0C0F0E4C0E0C0E0E52C75F0007B247C52
:203812000012C66779207A0812C625E98AF0C0E0C0F01210A77FFA12C60FF52485F025E5CB
:20383200248525F045F0600302384002399AA924AA2589828A83E0A3F5F0E0C0F0C0E07411
:203852009375F010C0E0C0F079147A0389828A83E0A3F5F0E0C5F04400C5F04480C0F0C0B2
:20387200E0125C577FFA12C60FE52C75F0007B247C0012C66779047A0812C62589828A834D
:20389200E0F52E70030238EA74CD75F00DC0E0C0F0E52C244175F000C0E0C0F0E528852993
:2038B200F0AB2E7C0012C6822401C5F03400C0F0C0E0E5288529F0AB2E7C0012C67B240181
:2038D200C5F03400C0F0C0E0740475F000124E8C7FF812C60F02392174D875F00DC0E0C0FC
:2038F200F0E52C244175F000C0E0C0F0E5288529F07BE87C0312C67B2401C5F03400C0F0FD
:20391200C0E0740375F000124E8C7FFA12C60F74DF75F00DC0E0C0F0749375F010C0E0C0DC
:20393200F0740275F000124E8C1581158115811581740175F000C0E0C0F0123EF31581154E
:203952008112C6357B0012C62C12C71B700302399712546E740675F000C0E0C0F012446353
:2039720015811581740175F000C0E0C0F0123EF315811581700302399443870112547E027D
:203992003976023A420237EAE52C75F0007B247C0012C66779187A0812C62589828A83E0ED
:2039B200A3F5F0E0C5F0F52485F0251242F874E375F00DC0E0C0F0749375F010C0E0C0F0F4
:2039D200740275F000124E8C1581158115811581E52C75F0007B247C0012C667791A7A08D1
:2039F20012C62589828A83E0A3F5F0E0C5F0F52485F02512433274EF75F00DC0E0C0F074D0
:203A12009375F010C0E0C0F0740275F000124E8C1581158115811581740E75F00EC0E0C0C8
:203A3200F0740175F000124E8C1581158102324B12546EE4F5F0900E84F0A3C5F0F0C5F067
:203A52007F020200D87FFC7EFF1200DA7F040200D879147A0389828A83E0A3F5F0E0C5F099
:203A72005401C5F05400C5F045F06003023AA8740575F000C0E0C0F01214D61581158174DB
:203A92000375F000C0E0C0F012446315811581E475F080023EF279287A0389828A83E0A3C3
:203AB200F5F0E0C5F0F52A78FB12C603E612C6357B0212C62C12C712700CE612C6357B03C1
:203AD20012C62C12C71245F0601EE52A75F0007B247C0012C66779057A0812C62589828AD2
:203AF20083E012C63512C6EE45F07003023B04023A81E52A75F0007B247C0012C66779048D
:203B12007A0812C62589828A83E0F52CF52DE52A75F0007B247C0012C667791C7A0812C61C
:203B32002589828A83E0A3F5F0E0C5F0F52485F025E5248525F0AB2C7C0012C682F52C789D
:203B5200FB12C603E612C6357B0412C62C12C7127003023B6A023E7E78FB12C603E612C638
:203B7200357B0212C62C12C712700CE612C6357B0312C62C12C71245F07003023C7F78FBDE
:203B920012C603E612C6357B0212C62C12C7127003023BADE52C052C023BB1E52C152CE515
:203BB2002C75F0007BFF7C0012C7127003023BE2E52A75F0007B247C0012C66779057A0821
:203BD20012C62589828A83E0C39401F52C023C0EE52A75F0007B247C0012C66779057A084B
:203BF20012C625E52C75F00089828A8312C77B7C0012C73E7003023C0EE4F52CE52A75F009
:203C1200007B247C0012C66779047A0812C625E52C75F00089828A8312C77B7C0012C6679F
:203C3200F52485F025E5248525F0C0E0C0F0740175F000C0E0C0F0E52A7B247C0012C66739
:203C520079207A0812C625E98AF0C0E0C0F01210A77FFA12C60FF52685F027E5268527F000
:203C720045F06003023C7C023A81023D7278FB12C603E67003023C9DE5248525F012C6D4A1
:203C9200F52485F02512C6DD023CADE5248525F012C6DDF52485F02512C6D4E52A75F00094
:203CB2007B247C0012C66779057A0812C625C001C002E52A75F0007B247C0012C6677904CD
:203CD2007A0812C625D083D082E075F00089828A8312C77B7C0012C667F52685F02745F056
:203CF2007003023D2EE5248525F07BFF7CFF12C7127003023D15E5268527F0F52485F0252E
:203D1200023D2EE5268527F0AB24AC2512C7257003023D2EE4F5F0F52485F025E5248525D0
:203D3200F0C0E0C0F0E4C0E0C0E0E52A75F0007B247C0012C66779207A0812C625E98AF0C4
:203D5200C0E0C0F01210A77FFA12C60FF52685F027E5268527F045F06003023D72023A8174
:203D7200E52A75F0007B247C0012C667791C7A0812C625E5248525F089828A83F0A3C5F04C
:203D9200F0C5F078FB12C603E612C635C0E0C0F01214D61581158178FB12C603E612C63572
:203DB2007B0212C62C12C71B600CE612C6357B0312C62C12C71B45F07003023EE3E52A7558
:203DD200F0007B247C0012C66779057A0812C62589828A83E075F00045F06068E52A75F0BC
:203DF200007B247C0012C667791C7A0812C625C001C002E52A75F0007B247C0012C6677979
:203E1200047A0812C625D083D082E0A3F5F0E0C5F089828A8312C77B7C0012C682C0E0C0C9
:203E3200F0E52A75F0007B247C0012C66779057A0812C625D0F0D0E089828A8312C77B7C5D
:203E52000012C73E45F07003023E7EE52A75F0007B247C0012C667791C7A0812C625E4F518
:203E7200F089828A83F0A3C5F0F0C5F079287A0389828A83E0A3F5F0E0C5F07B247C0012DB
:203E9200C667791C7A0812C62589828A83E0A3F5F0E0C0F0C0E0E4C0E0C0E0E52A75F00087
:203EB2007B247C0012C66779207A0812C625E98AF0C0E0C0F01210A77FFA12C60FF5268502
:203ED200F027E5268527F045F06003023EE3023A81A926AA2789828A83E0A3F5F0E0C5F0E5
:203EF20022E5A04407F5A078FB12C603E60886F0F52485F025E5A054076407F52EE52E60E3
:203F120003023F1EC208E4F5F002409E78FB12C603E60886F07B017C0012C7127003023F71
:203F320043E52E12C6357BFF12C62C12C66702409EE4F52CD20B79217A00E7540112C63530
:203F520045F0601078FB12C603E60886F07B017C0012C71B45F07003023F80740875F000C2
:203F7200C0E0C0F012446315811581023F90740175F000C0E0C0F012446315811581E52411
:203F92008525F07B017C0012C6B5F52485F025E5A054076407F52D6003023FB1024032E522
:203FB2002E540475F00045F0600CE52D75F000AB2E7C0012C71B45F07003023FFCE52C129B
:203FD200C63512C6EE45F06004E52D54037003023FFCD20B740275F000C0E0C0F01244639B
:203FF20015811581E52D452EF52C438701E52D75F00045F0601D78FB12C603E60886F045F2
:20401200F06010E5248525F012C6DDF52485F02512C6EE45F0700302402F024032023FA1EE
:20403200E52D700302403ED20802406679217A00E7540112C63545F0600978FB12C603E6B8
:204052000886F045F07003024064C208E4F5F002409EC208E52C6003024071E52EF52CE505
:204072002C54F7F52CE52C540175F00045F06004E52C54027003024091E52C54FEF52CE51C
:204092002C12C6357BFF12C62C12C6672278FB12C603E60886F012C6DD18F608A6F012C60B
:2040B200D445F070030240C043870102409F2212C51774C175F004F51C85F01DD20F12C5BB
:2040D200142212C51774B675F0EDF51C85F01DC20F12C51422740975F007F52F85F030C239
:2040F2008CC2A9E51C851DF07B087C0012C6C312C6E4F58CE51C851DF05400C5F05401C597
:20411200F012C6E4F58AE589F52AE52A54F0F52AE52A4401F52AE52AF58912C514D28CD248
:09413200A9221240E71240D42238
:07000B00C0D0C0E002413B40
:20413B00E51DF4F58CE51CF4F58A200F28C0F0E52F8530F02401C5F0340085F02FF53030B2
:20415B00010FE51E14F51E7008E5B04444F5B0C201D0F0800F300E0CE53D2323F53D54C0C6
:20417B00453CF5A0D0E0D0D03212C51778FB12C603E6FB79327C097D00ED0D0404838009B4
:20419B00000102040608090A0BF8C0C643C604BB0004E2F78002E7F2D0C609DCDC12C51411
:2041BB00E4F5F0900E84F0A3C5F0F0C5F053337F53347F53353F53373F53381F22E4F52AA2
:2041DB00E52A75F0007B057C0012C72570030242118006E52A052A80E7E52A75F000C333F9
:2041FB00C5F033C5F079327A0012C625E4F5F0F709A7F00241EEE4C0E0C0E01241841581C3
:20421B00158178FB12C603E675F0007B017C0012C7127003024299753A8C79157582937559
:20423B0083107B03E0C39430540FC4F5F0A3E0C39430540F45F0F719A3A3DBE87536011860
:20425B0018E6700302426E85153885143785133902427785153585143485133353337F5333
:20427B00347F53353F53373F53381F740175F000C0E0C0F0124184158115810242EA78F96A
:20429B0012C603E670030242B28538358537348539337C2F0242B47C2D78FB12C603E67016
:2042BB00030242C3EC4480FC79357582937583107B03E7C4540F2430F0A3E7540F2430F0EC
:2042DB00A3ECF0A319DBEB75829B758310E4F0E4F5F0900E84F0A3C5F0F0C5F022758293D0
:2042FB007583107C2FE524541F711FECF0A3E525711FECF0A3E52403C454072405449071B3
:04431B001FE4F02289
:20431F00F5F0C4540F2430F0A3E5F0540F2430F0A322227582937583107C3AE524711FEC5B
:20433F00F0A3E525711FE4F02222E4C0E0C0E0124184D0E0D0E078FB12C603E6F58208E625
:20435F00F583E539540FC394055407C423F5F0E538541F45F0F0A3E537543FF0A3E53554BA
:15437F003FF0A3E534F0E4E4F5F0900E84F0A3C5F0F0C5F02270
:07001B00C0D0C0E0024394D5
:20439400C0F0E51EC4F51EF5F0E5B054BB30F002440430F1024440F5B0D0F0E528F58BE50E
:2043B40029F58DD0E0D0D03212C517C2ABC28EE589540F4410F589E5288529F09010ECF047
:2043D400A3C5F0F0C5F0741A75F0F478FB12C603860308860412C682FBACF074FFF5F0C370
:2043F4009BC5F09CC5F0F52885F029E5288529F054FFC5F05400C5F0F58BE5288529F07BEB
:20441400087C0012C6C3F58DD28ED2AB12C51478F912C603E60886F012C6DD18F608A6F00E
:2044340012C6D47B007C0012C7027003024449438701024423C28EC2AB9010ECE0A3F5F003
:20445400E0C5F0F52885F029E5B04444F5B0221240C1124D2578FB12C603E60886F05480F7
:20447400C5F05400C5F045F07003024486C20B024488D20B78FB12C603E60886F0540FC5A4
:20449400F05400C5F018F608A6F07430F51EE5B0F51778FB12C603E6F5F0232325F024D0A3
:2044B400F582740BF583E0FFA3E0FEA3E0C0E0A3E0F50EA3E0200B206010E51E4402F51ED7
:2044D400E51754FBF5B0F517800EE51E4401F51EE51754BFF5B0F517EFC0E0E4C0E0EEC062
:2044F400E0E4C0E01243BCE517F5B01581158115811581E50E601A7832438701D8FBE4C0E1
:20451400E0E50EC0E0E4C0E01243BC1581158115811581E517F5B01240D4D20B79217A006F
:20453400E754087003024548E5B04444F5B0E4F51E02454E7407F51ED201C20B124D012224
:2045540078FFE5904404F59000209202D8FA2278FB12C6038606E59054EFF5907B08E50661
:2045740033F506E590400454F780024408F590004410F5900000000054EFF59000DBDF1235
:2045940045542278FB12C6038606E59054FDF590F5F0124554E5F04401F590E506C0E0C0AD
:2045B400F0124563D0F0D0E0E5F04402F590227FFB7EFF1200DA74017F021200BEF0E47F0F
:2045D400031200BEF0740175F000C0E0C0F0123EF3158115817F041200BEF079207A00E72E
:2045F40054807003024600C207024610742075F000C0E0C0F012459715811581741875F0A3
:2046140000C0E0C0F012459715811581E4C0E0C0E01245971581158178FB12C603E608861C
:20463400F07F001200BEF0A3C5F0F0C5F07F001200BE12C78689828A83E075F0007B017C37
:204654000012C71270030246837F001200BEE0A3F5F0E0C5F012C6D47F001200BEF0A3C57E
:20467400F0F0C5F012C6DD74017F031200BEF0E4C0E0C0E012459715811581741575F000F9
:20469400C0E0C0F012459715811581E59054FDF590124554E59054FEF590E5904401F5901B
:2046B40074E075F000C0E0C0F012456315811581E59054FEF590E4F52EE52E75F0007B09A8
:2046D4007C0012C725600D7F001200BE12C78689828A83E070030249DF8024E52E052E7F33
:2046F400001200BEE0A3F5F0E0C5F012C6D47F001200BEF0A3C5F0F0C5F012C6DD80BAE51D
:204714002E75F0007B027C0012C6B5F52D7F001200BE12C78689828A83E0F52BE52B5480A0
:2047340070030248FFE5904401F590E52D44E075F000C0E0C0F012456315811581E52B5435
:20475400207003024838E4F52CE52C75F0007B047C0012C7257003024825800AE52C052C0E
:20477400E52D052D80E37F001200BEE0A3F5F0E0C5F012C6D47F001200BEF0A3C5F0F0C53A
:20479400F012C6DDE52B54407003024803E52B541070030247E174027F031200BEF07F00B4
:2047B4001200BE12C78689828A83E044C075F000C0E0C0F012456315811581E52D44E07574
:2047D400F000C0E0C0F0124563158115817F001200BE12C78689828A83E0540F44B075F03D
:2047F40000C0E0C0F0124563158115810248227F001200BE12C78689828A83E0540F44D0E6
:2048140075F000C0E0C0F012456315811581024770E52B54407003024835E52DC39404F538
:204834002D0248E4E52B54407003024882E52B540FF52CE52C75F0007B027C0012C6B5F5A1
:204854002CE52C700302487374CF75F000C0E0C0F012456315811581E52C152C024855E523
:204874002E152E74027F031200BEF00248E4E52B541070030248E4E52B540F75F0007B0461
:204894007C0012C667F52DE52D44E075F000C0E0C0F0124563158115817F001200BEE0A384
:2048B400F5F0E0C5F012C6D47F001200BEF0A3C5F0F0C5F012C6DD7F001200BE12C7868996
:2048D400828A83E070030248E0024721E52E152EE52D44E075F000C0E0C0F01245631581BD
:2048F4001581E59054FEF5900246EFE52B75F0007B2E7C0012C7127003024985E52E60034D
:2049140002491DE4F52D02492EE52EC3940175F0007B047C0012C667F52DE5904401F59031
:20493400E52D240244E075F000C0E0C0F01245631581158174B875F000C0E0C0F0124563D1
:2049540015811581E52E75F0007B047C0012C667F52DE52D44E075F000C0E0C0F01245639E
:2049740015811581E59054FEF590E52E152E0246EFE52B75F0007B617C0012C73E600CE5E9
:204994002B75F0007B7A7C0012C72C45F070030249ACE52B54DFF52BE52E75F0007B087C84
:2049B4000012C71270030249C00249DFE52B547FF52BE52B4480F52BE52B75F000C0E0C084
:2049D400F0124563158115810246EFE5904402F5907F001200BE12C78689828A83E070035D
:2049F400024B1078FB12C603E60886F012C6D418F608A6F012C6DD78FB12C6038601088624
:204A14000289828A83E075F0007B2E7C0012C7127003024A3C18E60886F012C6D418F608DA
:204A3400A6F012C6DD024A0B78FB12C603860108860289828A83E06003024A53024B687F2D
:204A5400021200BEE07003024A65741EF52A024A697406F52A79217A00E754047003024A5B
:204A740083E52A75F0007B027C0012C6C3F52A152AE52A7003024ABA740175F000C0E0C077
:204A9400F0123EF31581158175F0007F041200BE12C77B7C0012C71B7003024AB4024B68FF
:204AB400438701024A83740175F000C0E0C0F0123EF31581158175F0007F041200BE12C71E
:204AD4007B7C0012C71B701E79217A00E7540412C63545F06010740175F000C0E0C0F01208
:204AF40073281581158145F07003024B06C20A024B68E47F021200BEF002462C7F03120032
:204B1400BEE075F0007B017C0012C7127003024B43740775F000C0E0C0F0E4C0E0C0F0E450
:204B3400C0E0C0E0124B6D7FFA12C60F024B687F031200BEE075F0007B027C0012C7127057
:204B540003024B68741A75F000C0E0C0F0124597158115817F050200D87FFE7EFF1200DAE8
:204B740078F712C603E60886F0904CA902C63EE59054C0F590740A75F000C0E0C0F0124055
:204B94009F15811581D292E5904420F590E59054FDF590124554E5904401F590744275F024
:204BB40000C0E0C0F012456315811581743075F000C0E0C0F012456315811581741575F07E
:204BD40000C0E0C0F012456315811581742075F000C0E0C0F012456315811581741175F072
:204BF40000C0E0C0F012456315811581E5904402F590024CB5E4C0E0C0E01245971581156B
:204C140081E5904401F590E59054FDF590124554E4F5F07F001200BEF0A3C5F0F0C5F07F46
:204C3400001200BEE0A3F5F0E0C5F07B207C0012C6F27003024C8080207F001200BEE0A3FF
:204C5400F5F0E0C5F012C6D47F001200BEF0A3C5F0F0C5F012C6DD80C674CF75F000C0E09B
:204C7400C0F012456315811581024C4DE5904402F590740175F000C0E0C0F012409F1581FE
:204C94001581741A75F000C0E0C0F012459715811581024CB5094C0700834B01000000B52A
:204CB4004C740175F000C0E0C0F012409F158115817F020200D8C28E78FB12C603860308C3
:204CD4008604749675F09812C68212C6E4C0E0E589540F4420F589D0E0F58DF58BC28BD2F5
:204CF4008E0000759840E5B04403F5B022C2AC900C14E0A3F5F0E0C0F0C0E0124CCA1581AE
:204D14001581E4F519F518E4F51BF51AD2ACD29C22E59854087003024D34438701024D25CB
:204D3400C29CC2ACE4F598C28EE5894450F589E58954DFF5892278FB12C603E60886F0F56A
:204D54002485F025A924AA2589828A83E07003024DB9A924AA2589828A83E012C6357B0A4C
:204D740012C62C12C7127003024D8F740D75F000C0E0C0F0124DBA15811581A924AA25893F
:204D9400828A83E012C635C0E0C0F0124DBA15811581E5248525F012C6D4F52485F02512DA
:204DB400C6DD024D582278FB12C603C001C002E6C0E0E51AF904B4FF027400B51B07000020
:204DD40000000080F6FAD0E0C083C0828982758300F08A1AD082D083209B02D299D002D014
:204DF4000122C0E0C0E0124DBAD0E0D0E022E519B5180574FFF5F022F8C082C0838882755B
:204E14008300E0D083D08208B8FF027800881975F00022E518C3951975F0002222E51AC33C
:074E3400951B75F00022221E
:07002300C0D0C0E0024E3B1B
:204E3B00C00030981CA818C083C0827583008882E599C298F0D082D08308B8FF027800883E
:204E5B0018309909C299E51BB51A09C29BD000D0E0D0D032F8C083C0827583008882E0D03C
:204E7B0082D083F59908B8FF027800881BD29B80DC23F42581F812C76312C37512C763C0D8
:204E9B0082C083124D4A15811581222278FC12C6038604188603188683188682E4FDFE126D
:204EBB004E02A9F0B9FF0A75C7AA75C755D2BF80EEB408028003B47F27ED4E60E21DBDFFC5
:204EDB00011E7408124DF67420124DF67408124DF68583F0E58212C6DD85F083F58280BF4B
:204EFB00124DF6F024F3600EA30DBD00010EED8EF012C6F270A9740A124DF6E4F0ED8EF0F1
:204F1B0022222278F712C603E60886F0C0E0C0F0747A75F00EC0E0C0F0120A6E15811581AB
:204F3B001581158178F912C603E60886F02404C5F03400C0F0C0E0747A75F00EC0E0C0F068
:204F5B001205071581158115811581749375F007C0E0C0F0740E75F000C0E0C0F0120A6E3C
:204F7B00158115811581158112086A740975F000C0E0C0F0747675F00EC0E0C0F0120A6ED1
:204F9B001581158115811581747A75F00EC0E0C0F0747A75F00EC0E0C0F012050715811573
:204FBB00811581158178F912C603E60886F0240CC5F03400C0F0C0E0740E75F000C0E0C0C9
:204FDB00F0120A6E158115811581158112056A747675F00EC0E0C0F0740E75F000C0E0C06F
:204FFB00F0120A6E158115811581158112086A740975F000C0E0C0F0747675F00EC0E0C051
:20501B00F0120A6E158115811581158178F912C603E60886F02414C5F03400C0F0C0E0740E
:20503B000075F00CC0E0C0F012025A15811581158115817B017C0012C71B70030250E478C1
:20505B00F912C603E60886F02414C5F03400C0F0C0E0740975F000C0E0C0F0120A6E15813A
:20507B00158115811581747A75F00EC0E0C0F0740E75F000C0E0C0F0120A6E1581158115A0
:20509B0081158112056A12056A12056A747675F00EC0E0C0F0740E75F000C0E0C0F0120A5B
:2050BB006E158115811581158112086A740975F000C0E0C0F0747675F00EC0E0C0F0120A90
:2050DB006E1581158115811581747A75F00EC0E0C0F078F712C603E60886F02408C5F0347B
:2050FB0000C0F0C0E01205071581158115811581740975F000C0E0C0F0747275F00EC0E0A4
:20511B00C0F0120A6E158115811581158178FB12C603E60886F0C0E0C0F0740075F00CC03B
:20513B00E0C0F012025A15811581158115817B017C0012C71B70030251B3747275F00EC080
:20515B00E0C0F0740975F000C0E0C0F0120A6E158115811581158178FB12C603E60886F0DE
:20517B00C0E0C0F0740E75F000C0E0C0F0120A6E158115811581158112056A740975F00048
:20519B00C0E0C0F0747275F00EC0E0C0F0120A6E1581158115811581747A75F00EC0E0C058
:2051BB00F0747A75F00EC0E0C0F0120507158115811581158178F912C603E60886F02410D9
:2051DB00C5F03400C0F0C0E0740E75F000C0E0C0F0120A6E158115811581158112056A746D
:2051FB000975F000C0E0C0F0746E75F00EC0E0C0F0120A6E158115811581158178FB12C604
:20521B0003E60886F0C0E0C0F0740075F00CC0E0C0F012025A15811581158115817B017CC9
:20523B000012C71B7003025288746E75F00EC0E0C0F0740975F000C0E0C0F0120A6E158119
:20525B0015811581158178FB12C603E60886F0C0E0C0F0740E75F000C0E0C0F0120A6E1599
:20527B008115811581158112056A0252A5746E75F00EC0E0C0F0740975F000C0E0C0F0126D
:20529B000A6E1581158115811581747275F00EC0E0C0F0740E75F000C0E0C0F0120A6E15A4
:2052BB008115811581158112086A78F912C603E60886F02400C5F03400C0F0C0E0740E7508
:2052DB00F000C0E0C0F0120A6E158115811581158112086A749B75F007C0E0C0F0740E754B
:2052FB00F000C0E0C0F0120A6E158115811581158112056A747675F00EC0E0C0F0740E754C
:20531B00F000C0E0C0F0120A6E15811581158115811206CA22740975F000C0E0C0F0740E98
:20533B0075F000C0E0C0F0120A6E1581158115811581740E75F000C0E0C0F0749375F01008
:20535B002418C5F03400C0F0C0E0120A6E1581158115811581749775F007C0E0C0F0740E92
:20537B0075F000C0E0C0F0120A6E15811581158115811206CA740975F000C0E0C0F0740EE5
:20539B0075F000C0E0C0F0120A6E1581158115811581E4F52AE52A75F0007B0A7C0012C70A
:2053BB002570030254388006E52A052A80E71209D8749375F0102418C5F03400C0F0C0E09D
:2053DB00740975F000C0E0C0F0120A6E15811581158115811206CA120A2D12086A7497756F
:2053FB00F007C0E0C0F0740E75F000C0E0C0F0120A6E15811581158115811206CA7409755E
:20541B00F000C0E0C0F0740E75F000C0E0C0F0120A6E15811581158115810253C3740E7509
:20543B00F000C0E0C0F0740975F000C0E0C0F0120A6E158115811581158122E52F8530F022
:20545B002408C5F03407C5F09010D4F0A3C5F0F0C5F022E52F8530F09010D4F0A3C5F0F078
:20547B00C5F022E52F8530F0C39408C5F09407C5F09010D412C77F12C73570030254AD7459
:20549B000275F000C0E0C0F0124463158115811255E422E52F8530F09010D412C77FC39B05
:2054BB00C5F09CC5F0C3C5F013C5F0132278FB12C603E60886F012C6DD18F608A6F012C66B
:2054DB00D445F0700302551E78F712C603E60886F012C6D418F608A6F012C6DDF9AAF0086A
:2054FB00E60886F012C6D418F608A6F012C6DDC001C002F9AAF089828A83E0D083D082F07D
:20551B000254C82278F912C603E60886F05400C5F05480C5F045F0700302559608E60886DD
:20553B00F05400C5F05480C5F045F07003025587181818E60886F07BFF7C7F12C7250856CB
:20555B00C5F00856C5F054FFC5F0547FC5F045F0700302557818E60886F00255E378F91228
:20557B00C603E60886F00255E302559378F912C603E60886F00255E30255E378FB12C6034D
:20559B00E60886F05400C5F05480C5F045F070030255B618E60886F00255E378FB12C60341
:2055BB00E60886F0181818860308860412C73570030255D718E60886F00255E378FB12C659
:2055DB0003E60886F00255E322740375F000C0E0C0F0E4C0E0C0F0E4C0E0C0E01245977FFC
:2055FB00FA12C60FE59044404480F590E5B0547FF5B0438701E5B04480F5B0438701E5B037
:20561B00547FF5B012C51775C7AA75C7557587022278FB12C603860108860289828A83E015
:20563B00A3F5F0E0C5F02278F912C603860108860208E60886F089828A83F0A3C5F0F0C52C
:20565B00F02279147A0389828A83E0A3F5F0E0C5F05404C5F05400C5F045F0600302568177
:20567B00E4F5F00256EA78FB12C603E60886F05400C5F05480C5F045F070030256A074FFAD
:20569B00F5F00256EA79247A0378FB12C603E60886F089828A8312C77F12C72570030256C3
:2056BB00C374FFF5F00256EA79267A0378FB12C603E60886F089828A8312C77F12C73570B6
:2056DB00030256E7740175F0000256EAE4F5F0227FFE7EFF1200DA78FB12C603E60886F0CE
:2056FB007BFF7CFF12C712700302571B78F712C603E60886F00826C5F00836C5F002583BAF
:20571B0078F912C603E60886F07B007C0012C6F2700302574B18E60886F07BFF7CFF12C69D
:20573B00677F001200BEF0A3C5F0F0C5F002576078F912C603E60886F07F001200BEF0A360
:20575B00C5F0F0C5F078FB12C603E60886F05440C5F05400C5F045F070030257AF78F7129F
:20577B00C603E60886F07B897C0112C73570030257AC7F001200BEE0A3F5F0E0C5F07B040F
:20579B007C0012C6677F001200BEF0A3C5F0F0C5F00257E378F712C603E60886F07BBC7C5A
:2057BB000212C73E70030257E37F001200BEE0A3F5F0E0C5F07B0A7C0012C6677F001200E9
:2057DB00BEF0A3C5F0F0C5F078F912C603E60886F07B007C0012C6F2700302581618181867
:2057FB00E60886F07F001200BE12C77FC39BC5F09CC5F018F608A6F002583278F712C6039D
:20581B00E60886F07F001200BE12C77F2BC5F03CC5F018F608A6F078F712C603E60886F037
:20583B007F020200D87FFA7EFF1200DAE52F8530F07F001200BEF0A3C5F0F0C5F07F021288
:20585B0000BEF0A3C5F0F0C5F09010E7E0A3F5F0E0C5F07BFF7CFF12C71270030258B87425
:20587B009375F010C0E0C0F0741175F00EC0E0C0F09010E1E0A3F5F0E0C0F0C0E074037568
:20589B00F00012C4E37FFA12C60F749375F010C0E0C0F01245C3158115810258E49010E113
:2058BB00E0A3F5F0E0C0F0C0E09010EAE0A3F5F0E0C0F0C0E09010E7E0A3F5F0E0C0F0C0D4
:2058DB00E012626D7FFA12C60F79217A00E754016007740275F0008005740575F000C0E0F7
:2058FB00C0F0123EF315811581F5316003025A0812BF4B45F0700302591812546E438701AB
:20591B009010E9E075F00045F0601BE52F8530F07F021200BE12C77FC39BC5F09CC5F07BAD
:20593B00057C0012C73545F070030259F1740175F000C0E0C0F01273281581158145F07021
:20595B00030259E0740175F000C0E0C0F01275A515811581F52485F025E5248525F07B009B
:20597B007C8012C71B601EE5248525F09010E312C77F12C73E600EE5248525F09010E51261
:20599B00C77F12C72545F070030259CDE5248525F09010E1F0A3C5F0F0C5F012546EE52FDF
:2059BB008530F07F021200BEF0A3C5F0F0C5F0025864748775F000C0E0C0F012446315812C
:2059DB001581025864E52F8530F07F021200BEF0A3C5F0F0C5F012547EE52F8530F07F0045
:2059FB001200BEF0A3C5F0F0C5F00258E412546EE52F8530F07F001200BE12C77FC39BC53A
:205A1B00F09CC5F07B1E7C0012C7357003025A3F746475F0007F041200BEF0A3C5F0F0C56C
:205A3B00F0025A84E52F8530F07F001200BE12C77FC39BC5F09CC5F07B0F7C0012C7357033
:205A5B0003025A73740A75F0007F041200BEF0A3C5F0F0C5F0025A84740175F0007F0412E7
:205A7B0000BEF0A3C5F0F0C5F0E53112C635905C3702C63E9010E1E0A3F5F0E0C5F0025C38
:205A9B00529010E5E0A3F5F0E0C5F07F041200BE12C77FC39BC5F09CC5F09010E112C77F2F
:205ABB0012C7257003025AEA9010E5E0A3F5F0E0C5F09010E1F0A3C5F0F0C5F0740375F048
:205ADB0000C0E0C0F012446315811581025C4F9010E1E0A3F5F0E0C0F0C0E07F041200BE5D
:205AFB00E0A3F5F0E0C0F0C0E09010E7E0A3F5F0E0C0F0C0E01256EB7FFA12C60F9010E1A0
:205B1B00F0A3C5F0F0C5F0025C4F9010E3E0A3F5F0E0C5F07F041200BE12C77F2BC5F03C89
:205B3B00C5F09010E112C77F12C73570219010E3E0A3F5F0E0C5F07F041200BE12C77F2BC7
:205B5B00C5F03CC5F09010E512C77F12C73545F07003025B97740375F000C0E0C0F012447B
:205B7B0063158115819010E3E0A3F5F0E0C5F09010E1F0A3C5F0F0C5F0025C4F9010E1E07F
:205B9B00A3F5F0E0C0F0C0E07F041200BEE0A3F5F0E0C5F012C6E4C0E0C0F09010E7E0A3CC
:205BBB00F5F0E0C0F0C0E01256EB7FFA12C60F9010E1F0A3C5F0F0C5F0025C4FE475F0801E
:205BDB00025C529010E1E0A3F5F0E0C5F09010E312C77F12C7127003025C0D9010E5E0A3D0
:205BFB00F5F0E0C5F09010E1F0A3C5F0F0C5F0025C219010E3E0A3F5F0E0C5F09010E1F032
:205C1B00A3C5F0F0C5F0025C4F740375F000C0E0C0F012446315811581025864DE5BFAFFBE
:205C3B00D75BFBFF255BFFFF9C5AFEFF8F5AFCFF0000245C0258647F060200D87FFE7EFF31
:205C5B001200DA78F912C6038601088602742089828A83F0E4F5F07F001200BEF0A3C5F0DE
:205C7B00F0C5F0181818E60886F07B007C8012C7127003025CA408E60886F012C6D418F6BB
:205C9B0008A6F012C6DD025D7678F712C603E60886F05400C5F05480C5F045F07003025C7B
:205CBB00DD088601088602742D89828A83F0181818E60886F054FFC5F0547FC5F018F608D2
:205CDB00A6F078F912C603E60886F012C6D418F608A6F012C6DD181818E60886F07B647C4F
:205CFB000012C682F52485F02518E60886F07B647C0012C67BF52B79087A0289828A83E03D
:205D1B00A3F5F0E0C5F05408C5F05400C5F045F0601078F712C603E60886F07BE07C2E12C7
:205D3B00C73545F0702E79087A0289828A83E0A3F5F0E0C5F05408C5F05400C5F012C6EE87
:205D5B0045F0601078F712C603E60886F07B147C1E12C73545F07003025DB87F001200BE90
:205D7B00E0A3F5F0E0C5F012C6D47F001200BEF0A3C5F0F0C5F012C6DD78F912C603E60834
:205D9B0086F0C0E0C0F0741475F00EC0E0C0F012C59C15811581158115810260E478FB1241
:205DBB00C603E60886F05460C5F05400C5F045F06003025F8CE5248525F07B077C0012C72A
:205DDB00257003025E8278F912C603E60886F0C0E0C0F0741875F00EC0E0C0F0E52485252C
:205DFB00F0C0E0C0F0740375F00012C4E37FFA12C60FE52B75F0007B0A7C0012C72570036C
:205E1B00025E5078F912C603E60886F02402C5F03400C0F0C0E0741C75F00EC0E0C0F0E570
:205E3B002B75F000C0E0C0F0740312C4E37FFA12C60F025E7F78F912C603E60886F0240222
:205E5B00C5F03400C0F0C0E0742075F00EC0E0C0F0E52B75F000C0E0C0F0740312C4E37F23
:205E7B00FA12C60F025F89E5248525F07B637C0012C7357003025EC278F912C603E60886DC
:205E9B00F0C0E0C0F0742375F00EC0E0C0F0E5248525F0C0E0C0F0740375F00012C4E37F46
:205EBB00FA12C60F025F89E52B75F0007B0A7C0012C682F52AE52B75F0007B0A7C0012C6BF
:205EDB007B7B057C0012C73E7003025EECE52A052AE52A75F0007B097C0012C73570030225
:205EFB005F10E5248525F012C6D4F52485F02512C6DDE4F52A78F912C603E60886F0C0E00E
:205F1B00C0F0742675F00EC0E0C0F0E5248525F07B0A7C0012C7256007742C75F00E8005B8
:205F3B00742E75F00EC0E0C0F0E5248525F0C0E0C0F0740475F00012C4E37FF812C60F7882
:205F5B00F912C603E60886F02403C5F03400C0F0C0E0742F75F00EC0E0C0F0E52A75F000B4
:205F7B00C0E0C0F0740312C4E37FFA12C60F0260E478FB12C603E60886F05440C5F0540091
:205F9B00C5F045F070030260E478F712C603E60886F0C0E0C0F01203F81581158174A7757C
:205FBB00F007C0E0C0F0740975F000C0E0C0F0120A6E158115811581158112056A740975F8
:205FDB00F000C0E0C0F012038A1581158178F712C603F608A6F018E60886F07B0A7C00122E
:205FFB00C682F52485F02518E60886F07B0A7C0012C67BF52BE5248525F07B647C0012C7C4
:20601B00257003026028E52BF52A025F10E5248525F07BE77C0312C73570030260B8E5247B
:20603B008525F07BB87C0B12C735705379087A0289828A83E0A3F5F0E0C5F05408C5F054A9
:20605B0000C5F012C6EE45F0600CE5248525F07B9E7C0712C73545F0702578F912C603E6C0
:20607B000886F0C39401C5F09400C5F0F9AAF089828A83E012C6357B2D12C62C12C71245BD
:20609B00F070030260A4025D7678F912C603E60886F012C6DD18F608A6F012C6D478F91267
:2060BB00C603E60886F0C0E0C0F0743275F00EC0E0C0F0E5248525F0C0E0C0F0740375F010
:2060DB000012C4E37FFA12C60F7F001200BEE0A3F5F0E0C5F07F020200D878F912C603E6B3
:2060FB000886F054FFC5F05400C5F045F0700302626C18E60886F07B087C0012C6C3F52B48
:20611B0018E60886F054FFC5F05400C5F0F52CE59054FDF590124554E5904401F59078FB0E
:20613B0012C603E6700302614B74E1F52E02614F74E2F52EE4F52AE52A75F0007B087C0049
:20615B0012C7257003026241800CE52A052AE52E2404F52E80E1740175F000AB2A7C001248
:20617B00C6B5F52DE52D552C700302623EE52E75F000C0E0C0F01245631581158178FB128C
:20619B00C603E670030261F274B175F000C0E0C0F012456315811581E52E75F000C0E0C0D5
:2061BB00F012456315811581E52D552B70030261DF74C175F000C0E0C0F012456315811558
:2061DB00810261EF748E75F000C0E0C0F01245631581158102623E74B875F000C0E0C0F0B1
:2061FB0012456315811581E52E75F000C0E0C0F012456315811581E52D552B700302622E59
:20621B0074C875F000C0E0C0F01245631581158102623E748775F000C0E0C0F0124563156B
:20623B00811581026165124554E59054FEF590124554E5904402F590E52B54FF7003026248
:20625B006C741A75F000C0E0C0F012459715811581227FDE7EFF1200DA78F712C603E6083A
:20627B0086F0C0E0C0F07F001200CCE98AF0C0E0C0F0080808E60886F0C0E0C0F0125C579C
:20629B007FFA12C60F7F201200BEF0A3C5F0F0C5F078F912C603E60886F045F0600302627B
:2062BB00C6743575F00E18F608A6F0749375F010C0E0C0F0743A75F00EC0E0C0F078F51279
:2062DB00C603E60886F0C0E0C0F07F001200CCE98AF0C0E0C0F0740475F00012C4E37FF809
:2062FB0012C60F749375F010C0E0C0F01245C31581158178FB12C603E60886F0F52885F046
:20631B002979207A00E754026003026343E5B054046003026343E5288529F04410C5F044EE
:20633B0010C5F0F52885F02978F712C603E60886F07B007C8012C712700302636DE52885DB
:20635B0029F054F7C5F054F7C5F0F52885F0290263EF79207A00E7540170030263C9E528FD
:20637B008529F05400C5F05408C5F045F070030263B4E5288529F04408C5F04400C5F0F5EF
:20639B002885F029E5288529F054FFC5F054F7C5F0F52885F0290263C6E5288529F054F78D
:2063BB00C5F054FFC5F0F52885F0290263EFE5288529F05408C5F05400C5F045F070030287
:2063DB0063EFE5288529F054FFC5F054F7C5F0F52885F029E5288529F0C0E0C0F0740175FD
:2063FB00F000C0E0C0F01260F5158115811581158178F712C603E60886F07B007C8012C785
:20641B001B70030264409010DDE0A3F5F0E0C0F0C0E0E4C0E0C0E01260F5158115811581CB
:20643B0015810264649010DDE0A3F5F0E0C5F054F3C5F054F3C0F0C0E0E4C0E0C0E012603E
:20645B00F515811581158115817F201200BEE0A3F5F0E0C5F07F220200D878FB12C603E6B9
:20647B000886F045F0600302648BE4F5F0026676124D25E4F5F0F52885F02978F912C603FF
:20649B00E60886F045F070030264B274FFF5F0F52685F0270264BAE4F5F0F52685F02712FC
:2064BB0040C1C28EE5894420F589E58954EFF589E59054BFF590740AF52AA82A438701D8D2
:2064DB00FB740BF52AE5B04420F5B0E5A04420440FF5A078FB12C603E60886F045F070033F
:2064FB00026622E5B04408F5B0E5B054F7F5B0E4F58DE4F58BD28E438701E5A054DFF5A0AA
:20651B00A82A438701D8FBE5A04420440FF5A0438701C28EE580547F75F000F52485F025B4
:20653B00E58B75F0007B087C0012C6B54524C5F04525C5F0F52485F025E5B0542070030271
:20655B00656FE5248525F02480C5F03400C5F0F52485F02578F912C603E60886F07B017C0C
:20657B000012C71270030265A2E5248525F0AB26AC2712C725700302659FE5248525F0F543
:20659B002685F02702660B78F912C603E60886F07B027C0012C71270030265F0E52485259A
:2065BB00F0AB26AC2712C72570030265D2E5248525F0F52685F027E5248525F0AB28AC29DD
:2065DB0012C73570030265EDE5248525F0F52885F02902660BE5248525F0AB26AC2712C7DA
:2065FB0035700302660BE5248525F0F52685F02778FB12C603E60886F012C6DD18F608A6E8
:20661B00F012C6D40264EEE59044404480F590C28EE5A04420440FF5A01240D4124D01780E
:20663B00F912C603E60886F07B027C0012C7127003026671E5268527F0900E7EF0A3C5F0CC
:20665B00F0C5F0E5288529F0C39526C5F09527C5F0F52685F027E5268527F0227FFC7EFFB3
:20667B001200DA78FB12C603E60886F0F52485F025E5248525F0900E8212C77FC39BC5F080
:20669B009CC5F0F52485F025E5248525F0900E8012C77F12C72570030266BDE475F0800261
:2066BB0067E3790A7A0289828A83E0A3F5F0E0C5F0F52885F029AB24AC2512C72570030293
:2066DB0066FCE475F080F52685F027E5248525F0C39528C5F09529C5F0F52485F025026756
:2066FB0017E4F5F0F52685F027E5288529F0C39524C5F09525C5F0F52485F025E524852537
:20671B00F0C0E0C0F01203F815811581740E75F000C0E0C0F0740975F000C0E0C0F0120A60
:20673B006E1581158115811581790C7A02E5288529F089828A8312C77FC39BC5F09CC0F0FD
:20675B00C0E01203F8158115811206CA740975F000C0E0C0F07F001200CCE98AF0C0E0C011
:20677B00F0120A6E15811581158115817F001200CCE98AF0C0E0C0F0741875F002C0E0C0C9
:20679B00F0740C75F003C0E0C0F0124F1E7FFA12C60F740975F000C0E0C0F012038A158170
:2067BB001581F52485F025E5248525F045F060030267D6E4F5F0F52685F027E5248525F0D8
:2067DB004526C5F04527C5F07F040200D879087A0289828A83E0A3F5F0E0C5F05402C5F0E3
:2067FB005400C5F045F0700302680CE4F5F0026906740175F000C0E0C0F07401C0E0C0F02E
:20681B001264751581158115811581790E7A02C0E0C0F0D0F0D0E089828A8312C77F12C70E
:20683B00357003026849740175F000026906900E86E0A3F5F0E0C5F012C6EE45F07019E50D
:20685B002F8530F0900E8612C77FC39BC5F09CC5F07B2C7C0112C73545F0700302690374AD
:20687B000275F000C0E0C0F0740AC0E0C0F01264751581158115811581F52A79107A02C051
:20689B00E0C0F0D0F0D0E089828A8312C77F12C72C7003026903900E7EE0A3F5F0E0C5F06E
:2068BB00C3952AC5F09400C5F0900E80F0A3C5F0F0C5F0790C7A02900E80E0A3F5F0E0C506
:2068DB00F089828A8312C77FC39BC5F09CC5F0900E82F0A3C5F0F0C5F0E52F8530F0900E75
:2068FB0086F0A3C5F0F0C5F0E4F5F022740275F000C0E0C0F07405C0E0C0F01264751581AA
:20691B00158115811581F52A790E7A02900E7EE0A3F5F0E0C5F089828A8312C77F12C72CEA
:20693B007003026947E475F08002697479127A02E52A75F00089828A8312C77F12C72C700F
:20695B0003026961D206900E7EE0A3F5F0E0C0F0C0E0126677158115812278F912C603E652
:20697B00F5060808E6F50308E6F50485033C85043D7824438701D8FBE53C54DFF53C438719
:20699B00017D04438701DDFBDEF7E53C4428F53CF5A04387012278F912C603E60886F045AD
:2069BB00F060030269C7E4F5F0026CE6124D25E4F52AE52A75F0007B047C0012C7257003B3
:2069DB00026A228006E52A052A80E7740175F000AB2A7C0012C6B578FB12C60356C5F0E4EE
:2069FB00C5F045F07003026A1FE52A75F000C333C5F033C5F079327A0012C62574FFF5F013
:206A1B00F709A7F00269E0740875F00079327A0012C625E4F5F0F709A7F01240C1C28EE5CE
:206A3B00A0440FF5A0E590547FF590742FF53C74F0F53D780A438701D8FBD20E741775F08C
:206A5B0002F51C85F01DE5B04408F5B078F912C603E60886F0F52685F027E5B04420F5B0EB
:206A7B00E5268527F045F07003026C5AE4F52BE52B75F0007B047C0012C7257003026C474A
:206A9B008006E52B052B80E7E5268527F078F912C603860308860412C71B600CE52B75F0CB
:206ABB00007B017C0012C71B45F07003026ACD026A9D740175F000AB2B7C0012C6B578FBB9
:206ADB0012C60356C5F0E4C5F045F06003026AEE026A9DE5B054EFF5B0E52B75F000906B34
:206AFB003902C63E742F75F0F0F52885F029026B4D742775F0F0F52885F029026B4D7437BF
:206B1B0075F078F52885F029026B4D742775F078F52885F029E5B04410F5B0026B4D266BFC
:206B3B000300196B02000C6B0100FF6A000000004D6BE4F58DE4F58BE5B054F7F5B0D28E69
:206B5B00741A75F000C0E0C0F0E5288529F0C0E0C0F01269751581158115811581C28EE55F
:206B7B0080547F75F000F52485F025E5B054207003026BA1E5248525F04480C5F04400C5E0
:206B9B00F0F52485F025E5B04408F5B0E58B75F0007B087C0012C6B54524C5F04525C5F013
:206BBB00F52485F025E52B75F000C333C5F033C5F079327A0012C625E5248525F0870309A7
:206BDB00870412C7257003026C01E52B75F000C333C5F033C5F079327A0012C625E5248577
:206BFB0025F0F709A7F0E52B75F0007B017C0012C7126019740875F00079327A0012C625FA
:206C1B00E5248525F0870309870412C73545F07003026C44740875F00079327A0012C6252D
:206C3B00E5248525F0F709A7F0026A9DE5268527F012C6DDF52685F02712C6D4026A7BE56B
:206C5B00B054F7F5B0C20EE59044404480F590C28EE5A04420440FF5A01240D4124D017848
:206C7B00FB12C603E654017003026CBAE4F5F079327A0012C625C001C00279647A02D007AF
:206C9B00D000C000C007E60886F089828A8312C77F2BC5F03CC5F0D007D000F608A6F0742E
:206CBB000875F00079327A0012C625C001C002740275F00079327A0012C625D007D000E61D
:206CDB000886F0C397C5F00997C5F022744C75F002C0E0C0F0740975F000C0E0C0F0120AD0
:206CFB006E1581158115811581740475F00079327A0012C625E70987F0C0E0C0F01203F8F0
:206D1B00158115811206CAE4F5F079327A0012C625C001C002740275F00079327A0012C604
:206D3B0025D007D000E60886F0C397C5F00997C0F0C0E01203F81581158112056A1209B183
:206D5B00120A5B745475F002C0E0C0F0740975F000C0E0C0F0120A6E15811581158115810E
:206D7B001207DE745075F002C0E0C0F0740E75F000C0E0C0F0120A6E15811581158115816D
:206D9B001206CAE4F50D746075F002C0E0C0F0740E75F000C0E0C0F0120A6E158115811583
:206DBB0081158112056A120A5B745C75F002C0E0C0F0740975F000C0E0C0F0120A6E1581D0
:206DDB001581158115811207DE745875F002C0E0C0F0740E75F000C0E0C0F0120A6E158105
:206DFB0015811581158112056A120A5B740475F003C0E0C0F0740975F000C0E0C0F0120A40
:206E1B006E15811581158115811206CA749375F007C0E0C0F0740E75F000C0E0C0F0120A99
:206E3B006E158115811581158112086A120A2D12056A120A5B745475F002C0E0C0F07409B0
:206E5B0075F000C0E0C0F0120A6E15811581158115811207DE745075F002C0E0C0F0740E8C
:206E7B0075F000C0E0C0F0120A6E15811581158115811206CAE50D6006E475F0808003E4F6
:206E9B00F5F0F52685F027E4F50D740975F000C0E0C0F0743075F002C0E0C0F0740875F0E7
:206EBB0003C0E0C0F0124F1E7FFA12C60F740975F000C0E0C0F012038A15811581F52485EA
:206EDB00F025E5248525F045F06003026EF1E4F5F0F52685F027E5248525F04526C5F0455E
:206EFB0027C5F022C20D79087A0289828A83E0A3F5F0E0C5F05401C5F05400C5F045F060F0
:206F1B001178FB12C603E612C6357B0212C62C12C71B45F07003026F3AE4F5F002716B9005
:206F3B000E84E0A3F5F0E0C5F045F06003026F4E02700D740375F000C0E0C0F07402C0E08F
:206F5B00C0F01269B11581158115811581E4F5F079327A0012C625C001C002740275F00099
:206F7B0079327A0012C625D007D000E60886F0C397C5F00997C5F0F52485F02579167A02A7
:206F9B00C0E0C0F0D0F0D0E089828A8312C77F12C7357003026FC778FB12C603E660030254
:206FBB006FBFD20DE5248525F002716B79147A02E5248525F089828A8312C77F12C72560AE
:206FDB002A900E84E0A3F5F0E0C5F012C6EE45F07019E52F8530F0900E8412C77FC39BC573
:206FFB00F09CC5F07B2C7C0112C73545F07003027168740375F000C0E0C0F0740FC0E0C071
:20701B00F01269B11581158115811581E4F5F079327A0012C625C001C002740275F000791F
:20703B00327A0012C625D007D000E60886F0C397C5F00997C5F0F52485F02579167A02C09F
:20705B00E0C0F0D0F0D0E089828A8312C77F12C735700302708678FB12C603E66003027023
:20707B007ED20DE5248525F002716B79147A02E5248525F089828A8312C77F12C73570037A
:20709B000270A4E4F5F002716BE4F5F079327A0012C625E70987F0C0E0C0F01203F81581D3
:2070BB001581120A61740675F00079327A0012C625E70987F0C0E0C0F01203F815811581B1
:2070DB001207DE744C75F002C0E0C0F0740E75F000C0E0C0F0120A6E15811581158115810E
:2070FB0012056A740475F00079327A0012C625E70987F0C0E0C0F01203F8158115811206ED
:20711B00CA745875F002C0E0C0F0740E75F000C0E0C0F0120A6E15811581158115811207D5
:20713B00DE740975F000C0E0C0F0740475F003C0E0C0F0120A6E1581158115811581E52FFE
:20715B008530F0900E84F0A3C5F0F0C5F0E4F5F02279217A00E754206003027192740375B2
:20717B00F000C0E0C0F07402C0E0C0F01269B11581158115811581C20DE4F5F079327A00AD
:20719B0012C625C001C002740275F00079327A0012C625D007D000E60886F0C397C5F00934
:2071BB0097C5F079167A02C0E0C0F0D0F0D0E089828A8312C77F12C72570030271E0E47510
:2071DB00F08002724E126CE7F52485F025E5248525F07B007C8012C7127003027200E47505
:2071FB00F08002724E740875F00079327A0012C625C001C002740275F00079327A0012C6E4
:20721B0025D007D000E60886F0C397C5F00997C5F079667A02C0E0C0F0D0F0D0E089828A0F
:20723B008312C77F12C72C7003027249D206E5248525F022E4F5F0900E84F0A3C5F0F0C59E
:20725B00F0E4F5F0900E86F0A3C5F0F0C5F0740175F000C0E0C0F01273281581158145F011
:20727B006003027283027327740175F000C0E0C0F012732815811581F52485F02545F060B2
:20729B001E900E86E0A3F5F0E0C5F012C6EE45F0600D900E84E0A3F5F0E0C5F012C6EE4502
:2072BB00F070030272EE747875F007C0E0C0F01245C315811581740375F000C0E0C0F012C2
:2072DB004463158115817814438701D8FB12547E02728312546EE475F080C0E0C0F0E4C02A
:2072FB00E0C0E079147A0389828A83E0A3F5F0E0C0F0C0E012626D7FFA12C60F740475F01B
:20731B0000C0E0C0F0124463158115812278FB12C603E612C635C0E0C0F01267E81581155E
:20733B0081F52485F02545F07003027352C200E5248525F002737F78FB12C603E612C635F5
:20735B00C0E0C0F0126EFF15811581F52485F02545F0700302737CD200E5248525F00273E1
:20737B007FE4F5F0227FFE7EFF1200DAE5288529F07F001200BEF0A3C5F0F0C5F078FB1236
:20739B00C603E60886F07B007C8012C71270030273CA7F001200BEE0A3F5F0E0C5F0F52828
:2073BB0085F02978FB12C603E60886F00275A0E5288529F07F001200BEF0A3C5F0F0C5F064
:2073DB0078FB12C603E60886F0F52885F029E5288529F054FFC5F0547FC5F0F52485F02537
:2073FB0079207A00E75401700302743F79147A0389828A83E0A3F5F0E0C5F05400C5F0547F
:20741B0008C5F045F060030274280273AD791A7A0389828A83E0A3F5F0E0C5F0F52685F087
:20743B002702747479147A0389828A83E0A3F5F0E0C5F05408C5F05400C5F045F06003024D
:20745B0074600273AD79187A0389828A83E0A3F5F0E0C5F0F52685F027E4F52AE526852787
:20747B00F05400C5F05480C5F045F0700302748FE52A052AE5268527F054FFC5F0547FC53D
:20749B00F0F52685F027E5288529F05400C5F05480C5F045F0700302751EE52A70030275B7
:2074BB0001E5268527F0AB24AC2512C73E70030274E3E5268527F0C39524C5F09525C5F03F
:2074DB00F52885F0290274FEE5248525F0C39526C5F09527C5F04400C5F04480C5F0F5288C
:2074FB0085F02902751BE5248525F02526C5F03527C5F04400C5F04480C5F0F52885F02960
:20751B0002757CE52A700302753AE5248525F02526C5F03527C5F0F52885F02902757CE5E3
:20753B00268527F0AB24AC2512C7357003027569E5268527F0C39524C5F09525C5F04400E2
:20755B00C5F04480C5F0F52885F02902757CE5248525F0C39526C5F09527C5F0F52885F05B
:20757B0029E5288529F078FB12C603F608A6F07F001200BEE0A3F5F0E0C5F0F52885F02933
:20759B0018E60886F07F020200D8E49010F4F078FB12C603E6540170030275DEE4F5F090E7
:2075BB0010F0F0A3C5F0F0C5F0E6540470030275DB748475F0079010F0F0A3C5F0F0C5F0DF
:2075DB0002760879147A0389828A83E0A3F5F0E0C5F04400C5F04402C0F0C0E0121A3C15E5
:2075FB008115819010F0F0A3C5F0F0C5F0C20974FF75F07F9010EEF0A3C5F0F0C5F01254D9
:20761B006EC2069010DDE0A3F5F0E0C5F054F3C5F054F3C5F09010DDF0A3C5F0F0C5F079C4
:20763B00207A00E75401600302766A126907F52685F0279010DDE0A3F5F0E0C5F0440CC54C
:20765B00F04400C5F09010DDF0A3C5F0F0C5F079207A00E75401700302769A12716CF526DE
:20767B0085F0279010DDE0A3F5F0E0C5F04408C5F04400C5F09010DDF0A3C5F0F0C5F079FC
:20769B00147A0389828A83E0A3F5F0E0C5F04400C5F04402C5F0F52885F02978FB12C6032C
:2076BB00E654026003027723E5268527F0C0E0C0F012738015811581F52685F02779087A9A
:2076DB000289828A83E0A3F5F0E0C5F05404C5F05400C5F045F06003027720E5268527F08A
:2076FB007B007C8012C71B600DE5268527F05400C5F05480C5F045F07003027720E4F5F054
:20771B00F52685F027027735E5288529F054F8C5F054FFC5F0F52885F029E5288529F0547B
:20773B0004C5F05400C5F045F06010E5268527F0C0E0C0F012565D15811581700302777083
:20775B00E5288529F04400C5F04404C5F0F52885F029027782E5288529F054FFC5F054FBB5
:20777B00C5F0F52885F029D207E5268527F07B007C8012C7127026E5268527F0C0E0C0F00F
:20779B009010F0E0A3F5F0E0C0F0C0E0E5288529F0C0E0C0F012626D7FFA12C60F45F070C5
:2077BB00030277E69010EEE0A3F5F0E0C5F07BFF7C7F12C71270030277E3E475F080901029
:2077DB00EEF0A3C5F0F0C5F00278D979207A00E7544070030278D3E5268527F0C0E0C0F01B
:2077FB009010EEE0A3F5F0E0C0F0C0E012551F15811581158115819010EEF0A3C5F0F0C5DF
:20781B00F079217A00E7540260030278D3E5288529F05404C5F05400C5F045F0602A90103C
:20783B00EEE0A3F5F0E0C0F0C0E012565D15811581F52A75F00045F0600E78FB12C603E65B
:20785B00540112C63512C6EE45F070030278A774019010F4F0E52A75F0007B017C0012C7DE
:20787B00127003027894748075F000C0E0C0F0124463158115810278A4748375F000C0E0B2
:20789B00C0F0124463158115810278B7748475F000C0E0C0F012446315811581D20978FB27
:2078BB0012C603E6540170030278D39010EEE0A3F5F0E0C5F0027D5C12547E02761C125493
:2078DB006E79147A0389828A83E0A3F5F0E0C5F09010DFF0A3C5F0F0C5F09010DFE0A3F59D
:2078FB00F0E0C0F0C0E0121A3C158115819010F0F0A3C5F0F0C5F079217A00E7540212C613
:20791B003545F060119010EEE0A3F5F0E0C5F07B007C8012C71B45F07003027CB479147A9A
:20793B000389828A83E0A3F5F0E0C5F05402C5F05400C5F045F07003027B8C9010EEE0A33E
:20795B00F5F0E0C5F054FFC5F0547FC0F0C0E01203F8158115819010EEE0A3F5F0E0C5F0A3
:20797B005400C5F05480C5F045F0700302798E74FFF51279207A0389828A83E0A3F5F0E0B9
:20799B00C5F045F060030279C174FFF5F090108FF0A3C5F0F0C5F074FF75F07F901091F057
:2079BB00A3C5F0F0C5F09010EEE0A3F5F0E0C5F090108F12C77F12C70270030279ED901047
:2079DB00EEE0A3F5F0E0C5F090108FF0A3C5F0F0C5F09010EEE0A3F5F0E0C5F090109112B7
:2079FB00C77F12C6F27003027A199010EEE0A3F5F0E0C5F0901091F0A3C5F0F0C5F0741C1B
:207A1B0075F003C0E0C0F0740975F000C0E0C0F0120A6E158115811581158112086A74097E
:207A3B0075F000C0E0C0F0741C75F003C0E0C0F0120A6E158115811581158179207A0389AD
:207A5B00828A83E0A3F5F0E0C5F012C6D489828A83F0A3C5F0F0C5F079227A03C0E0C0F066
:207A7B00D0F0D0E089828A8312C77F12C7127003027B7079227A0389828A83E0A3F5F0E048
:207A9B00C0F0C0E01203F8158115811206CA740975F000C0E0C0F012038A158115819010C3
:207ABB00EEF0A3C5F0F0C5F0740075F00CC0E0C0F0741C75F003C0E0C0F0120A6E1581151E
:207ADB00811581158179207A03E4F5F089828A83F0A3C5F0F0C5F09010EEE0A3F5F0E0C064
:207AFB00F0C0E012565D15811581F52A7003027B4AE52A75F0007B017C0012C712700302C5
:207B1B007B30748075F000C0E0C0F012446315811581027B40748375F000C0E0C0F0124452
:207B3B0063158115817802438701D8FB027B5A748475F000C0E0C0F01244631581158178A2
:207B5B0001438701D8FBE4C0E0C0E012446315811581027B8C9010DFE0A3F5F0E0C5F04499
:207B7B0000C5F04402C5F09010DFF0A3C5F0F0C5F09010EEE0A3F5F0E0C0F0C0E012565DE3
:207B9B001581158112C63545F060159010DFE0A3F5F0E0C5F05400C5F05402C5F012C6EE91
:207BBB0045F07003027BDE9010DFE0A3F5F0E0C5F04400C5F04404C5F09010DFF0A3C5F06E
:207BDB00F0C5F09010DFE0A3F5F0E0C5F05400C5F05402C5F045F06003027CB179147A0384
:207BFB009010DFE0A3F5F0E0C5F05400C5F05404C5F089828A8312C77F4BC5F04CC5F090D7
:207C1B0010DFF0A3C5F0F0C5F09010DFE0A3F5F0E0C0F0C0E0121A3C158115819010F0F042
:207C3B00A3C5F0F0C5F09010EEE0A3F5F0E0C0F0C0E012177B1581158179147A039010DFAD
:207C5B00E0A3F5F0E0C5F05400C5F05404C5F089828A8312C77F4BC5F04CC5F09010DF12F4
:207C7B00C77F12C71B7003027CB179147A0389828A83E0A3F5F0E0C5F09010DFF0A3C5F027
:207C9B00F0C0F0C0E0121A3C158115819010F0F0A3C5F0F0C5F0027D0A79147A0389828A50
:207CBB0083E0A3F5F0E0C5F05402C5F05400C5F045F07003027CEE9010DFE0A3F5F0E0C575
:207CDB00F04400C5F04402C5F09010DFF0A3C5F0F0C5F09010DFE0A3F5F0E0C5F04400C5B4
:207CFB00F04404C5F09010DFF0A3C5F0F0C5F09010EEE0A3F5F0E0C0F0C0E09010F0E0A3D7
:207D1B00F5F0E0C0F0C0E09010DFE0A3F5F0E0C0F0C0E012626D7FFA12C60F79217A00E7E0
:207D3B0054026003027D52748775F000C0E0C0F0124463158115819010EEE0A3F5F0E0C56E
:207D5B00F02278F912C603E60886F07BC87C0012C68218F608A6F018E60886F0252FC5F0FC
:207D7B003530C5F018F608A6F0C206E475F0809010EEF0A3C5F0F0C5F078F712C603E608DE
:207D9B0086F05402C5F05400C5F045F07003027E08E4C0E0C0E01267E81581158145F070B8
:207DBB0003027E08C20078FB12C603E675F000C0E0C0F01275A5158115819010EEF0A3C534
:207DDB00F0F0C5F079207A00E7544012C63545F060119010EEE0A3F5F0E0C5F07B007C80B0
:207DFB0012C71B45F07003027E08027E9678F712C603E60886F05401C5F05400C5F045F038
:207E1B007003027E7CE4C0E0C0E0126EFF1581158145F07003027E7CD20078FB12C603E65F
:207E3B0075F000C0E0C0F01275A5158115819010EEF0A3C5F0F0C5F079207A00E7544012FF
:207E5B00C63545F060119010EEE0A3F5F0E0C5F07B007C8012C71B45F07003027E7C027E4C
:207E7B0096438701E52F8530F078F912C603860308860412C7256003027D9479207A00E7F8
:207E9B00544012C63512C6EE45F0600D79217A00E7540212C63512C6EE45F07003027EC9A9
:207EBB00E475F0809010EEF0A3C5F0F0C5F09010EEE0A3F5F0E0C5F02278FB12C603E6087A
:207EDB0086F0F52485F025E5248525F054FFC5F0547FC0F0C0E01203F815811581E52485C9
:207EFB0025F05400C5F05480C5F045F07003027F1374FFF512027F16E4F512227FFB7EFF6F
:207F1B001200DAE47F001200BEF0740075F00CC0E0C0F0741075F003C0E0C0F0120A6E1527
:207F3B008115811581158174F275F0067F031200BEF0A3C5F0F0C5F012546ED20A7F03128F
:207F5B0000BEE0A3F5F0E0C0F0C0E01245C315811581E4C0E0C0E012446315811581E52F4D
:207F7B008530F07F011200BEF0A3C5F0F0C5F0740175F000C0E0C0F0123EF315811581F576
:207F9B003112C63512C6EE45F0601BE52F8530F07F011200BE12C77FC39BC5F09CC5F07BD2
:207FBB000A7C0012C72545F07003027FEB438701740175F000C0E0C0F01273281581158140
:207FDB0045F07003027FE5027FEB12547E027F8AE53170030280D5E4C0E0C0E0123EF315C1
:207FFB00811581F53112546EE53112C6357BFC12C62C12C712700302803B7F001200BEE06D
:20801B00547F6003028035740375F000C0E0C0F012446315811581027F4202828D0280C22F
:20803B00E53112C6357BFB12C62C12C71270030280C27F001200BEE070030280AC7F001285
:20805B0000BEE05480700302808A79147A0389828A83E0A3F5F0E0C5F054FFC5F054F7C5DD
:20807B00F089828A83F0A3C5F0F0C5F00280AC79147A0389828A83E0A3F5F0E0C5F054F758
:20809B00C5F054FFC5F089828A83F0A3C5F0F0C5F0740675F000C0E0C0F012446315811570
:2080BB0081E4F5F00286A9740375F000C0E0C0F012446315811581027F42E52F8530F07F1E
:2080DB00011200BE12C77FC39BC5F09CC5F07B0A7C0012C73E70030280F8027F567F00128B
:2080FB0000BEE0600302816979207A00E75401700302812F740075F00CC0E0C0F0740875DE
:20811B00F003C0E0C0F0120A6E158115811581158102814C740075F00CC0E0C0F0740C7526
:20813B00F003C0E0C0F0120A6E158115811581158179207A00E7540170030281667F0012C3
:20815B0000BEE044807F001200BEF00281BA7F001200BEE0548012C63545F0600D79207A61
:20817B0000E7540112C63512C6EE45F070197F001200BEE0548012C63512C6EE45F06007A5
:20819B0079207A00E7540170030281BA740375F000C0E0C0F012446315811581027F5612CB
:2081BB00546E740775F000C0E0C0F01275A515811581F52485F025E5248525F07B007C808D
:2081DB0012C71270030281E6027F56E5248525F05400C5F05480C5F045F070030282017410
:2081FB0001F52A028204E4F52AE5248525F054FFC5F0547FC0F0C0E01203F815811581743E
:20821B001075F003C0E0C0F0740975F000C0E0C0F0120A6E1581158115811581E52A7003E5
:20823B000282441207DE02824712086A740975F000C0E0C0F0741075F003C0E0C0F0120A8B
:20825B006E15811581158115817F001200BEE0047F001200BEF0147828438701D8FB74FC09
:20827B0075F0067F031200BEF0A3C5F0F0C5F0027F567F001200BEE0547F12C635C0E0C0F3
:20829B00F01203F815811581741075F003C0E0C0F0740975F000C0E0C0F0120A6E158115F7
:2082BB0081158115811206CA79207A00E754017003028317791A7A03C001C002740975F041
:2082DB0000C0E0C0F012038A15811581D083D082F0A3C5F0F0C5F079147A0389828A83E0D4
:2082FB00A3F5F0E0C5F04400C5F04408C5F089828A83F0A3C5F0F0C5F002835C79187A0358
:20831B00C001C002740975F000C0E0C0F012038A15811581D083D082F0A3C5F0F0C5F079B7
:20833B00147A0389828A83E0A3F5F0E0C5F04408C5F04400C5F089828A83F0A3C5F0F0C56D
:20835B00F078FB12C603E612C6357B0212C62C12C71B700302837A740175F0000286A9746B
:20837B000575F0077F031200BEF0A3C5F0F0C5F012546E7F031200BEE0A3F5F0E0C0F0C054
:20839B00E01245C315811581E4C0E0C0E012446315811581E52F8530F07F011200BEF0A3F7
:2083BB00C5F0F0C5F0740175F000C0E0C0F0123EF315811581F53112C63512C6EE45F06021
:2083DB001BE52F8530F07F011200BE12C77FC39BC5F09CC5F07B0A7C0012C72545F07003FB
:2083FB00028421438701740175F000C0E0C0F01273281581158145F0700302841B028421FD
:20841B0012547E0283C0E531700302845312546EE53112C6357BFB12C62C12C712700302E5
:20843B00844002804D740375F000C0E0C0F01244631581158102838EE52F8530F07F01121F
:20845B0000BE12C77FC39BC5F09CC5F07B0A7C0012C73E700302847602838E7F001200BE9E
:20847B00E0548012C63545F0600D79207A00E7540112C63512C6EE45F070197F001200BE4F
:20849B00E0548012C63512C6EE45F0600779207A00E7540170030284C7740375F000C0E013
:2084BB00C0F01244631581158102838E12546E740575F000C0E0C0F01275A515811581F5AA
:2084DB002485F025E5248525F07B007C8012C71270030284F302838EE5248525F07F01128A
:2084FB0000BEF0A3C5F0F0C5F0E5248525F09010E1F0A3C5F0F0C5F0E4F5F09010E3F0A3C6
:20851B00C5F0F0C5F0741475F01E9010E5F0A3C5F0F0C5F079147A0389828A83E0A3F5F0DF
:20853B00E0C5F054F2C5F054FFC5F09010E7F0A3C5F0F0C5F0E49010E9F0740E75F0079039
:20855B0010EAF0A3C5F0F0C5F0125840F52685F027E5268527F07B007C8012C7127003023A
:20857B00858002804DE5268527F0C0E0C0F01203F815811581740E75F000C0E0C0F0740928
:20859B0075F000C0E0C0F0120A6E15811581158115817F011200BEE0A3F5F0E0C0F0C0E041
:2085BB001203F8158115811206CA79207A00E75401700302863C740975F000C0E0C0F07459
:2085DB000875F003C0E0C0F0120A6E1581158115811581791A7A0389828A83E0A3F5F0E06E
:2085FB00C0F0C0E0127ED41581158112056A740975F000C0E0C0F012038A15811581F526E7
:20861B0085F02745F07003028639791A7A03E5268527F089828A83F0A3C5F0F0C5F00286F6
:20863B00A4740975F000C0E0C0F0740C75F003C0E0C0F0120A6E158115811581158179189E
:20865B007A0389828A83E0A3F5F0E0C0F0C0E0127ED41581158112056A740975F000C0E03F
:20867B00C0F012038A15811581F52685F02745F070030286A479187A03E5268527F0898219
:20869B008A83F0A3C5F0F0C5F0740175F0007F050200D878FB12C603E60886F02402C5F000
:2086BB003400C0F0C0E012C5CA1581158178FB12C60326C5F00836C5F02403C5F03400C55D
:2086DB00F0F52885F029E5288529F0227FFE7EFF1200DA78F912C603E60886F008860308D8
:2086FB00860412C712700302875D78F912C603860108860289828A83E0A3F5F0E0C5F045D4
:20871B00F0700302874E18E60886F07F001200BEF0A3C5F0F0C5F018E60886F0C0E0C0F080
:20873B001286AE1581158178F912C603F608A6F00287057F001200BEE0A3F5F0E0C5F002F0
:20875B0087D178FB12C603E60886F07F001200BEF0A3C5F0F0C5F07F001200BEE0A3F5F001
:20877B00E0C0F0C0E01286AE158115817F001200BEF0A3C5F0F0C5F07F001200BEE0A3F539
:20879B00F0E0C5F078F912C603860308860412C71270030287B908E60886F00287D17F00ED
:2087BB001200BEE0A3F5F0E0C5F078FB12C603F608A6F002875D7F020200D878FB12C60360
:2087DB00E60886F0C0E0C0F01245C315811581E52F8530F0241EC5F03400C5F0F52885F059
:2087FB002979217A00E754016007740275F0008005740575F000C0E0C0F0123EF315811502
:20881B0081F531600302889712BF4B45F0700302887A1254569010DDE0A3F5F0E0C5F044D0
:20883B0001C5F04400C5F09010DDF0A3C5F0F0C5F09010DDE0A3F5F0E0C0F0C0E0E4C0E06B
:20885B00C0E01260F51581158115811581E52F8530F0241EC5F03400C5F0F52885F0291238
:20887B00547E438701E52F8530F0AB28AC2912C73E70030288940288970287FCE53112C6A3
:20889B00357B0012C62C12C71B70030288D09010DDE0A3F5F0E0C5F054FEC5F054FFC5F0BF
:2088BB009010DDF0A3C5F0F0C5F012546EE53112C6350288D30287D6227FFE7EFF1200DA78
:2088DB00E4F5F07F001200BEF0A3C5F0F0C5F078F912C603E60886F0F52685F02778FB128C
:2088FB00C603E60886F045F06007181818E60886F045F07003028937749375F010C0E0C0A2
:20891B00F078F912C603E60886F0C0E0C0F012C59C158115811581158102895E749375F02C
:20893B001078F912C603860308860412C71B700302895EE4F5F079937A1012C625E489820A
:20895B008A83F078F912C603E60886F045F07003028A03749375F010C0E0C0F012C5CA1596
:20897B00811581F52AE5268527F0F52885F029A928AA2989828A83E012C63545F06014A949
:20899B0028AA2989828A83E012C6357B2C12C62C12C71B45F070030289EE8016E52A052A28
:2089BB00E5288529F012C6D4F52885F02912C6DD80BDE52A79937A1075F00012C625C001D0
:2089DB00C002A928AA2989828A83E0D083D082F00289B7E52A79937A1075F00012C625E45C
:2089FB0089828A83F0028A7978FB12C6038601088602C001C0027F001200CCE98AF0C0E007
:208A1B00C0F078FB12C603868208868312C6621581158115811581F52885F029E52885291C
:208A3B00F045F06003028A4B74FE75F0FF028D8A749375F010AB28AC2912C71B7003028AB6
:208A5B0079749375F010C0E0C0F0E5288529F0C0E0C0F012C59C15811581158115817493E9
:208A7B0075F010C0E0C0F01287D615811581F531E53112C635908D6F02C63E7F001200BE51
:208A9B00E0A3F5F0E0C5F012C6D47F001200BEF0A3C5F0F0C5F012C6DD78F912C603E608E7
:208ABB0086F045F07003028B32E5268527F0F52885F029A928AA2989828A83E012C635456E
:208ADB00F06014A928AA2989828A83E012C6357B2C12C62C12C71B45F07003028B0CE52881
:208AFB008529F012C6D4F52885F02912C6DD028ACEA928AA2989828A83E06003028B1D029C
:208B1B0088DBE5288529F02401C5F03400C5F0F52685F027028B6B78FB12C6038601088657
:208B3B0002C001C0027F001200CCE98AF0C0E0C0F078FB12C603868208868312C66215814E
:208B5B0015811581158145F06003028B6B0288DB028D8778F912C603E60886F045F06003E5
:208B7B00028BEF7F001200BEE0A3F5F0E0C5F012C6DD7F001200BEF0A3C5F0F0C5F012C649
:208B9B00D4088601088602C001C0027F001200CCE98AF0C0E0C0F078FB12C6038682088650
:208BBB008312C662158115811581158145F06003028BEC7F001200BEE0A3F5F0E0C5F01216
:208BDB00C6D47F001200BEF0A3C5F0F0C5F012C6DD028D87E5268527F078F912C60386035D
:208BFB0008860412C7127003028C87E5268527F0F52885F029A926AA2789828A83E07003E8
:208C1B00028C7AA926AA2789828A83E012C6357B2C12C62C12C7127003028C677F001200FD
:208C3B00BEE0A3F5F0E0C5F012C6D47F001200BEF0A3C5F0F0C5F012C6DDE5268527F024F6
:208C5B0001C5F03400C5F0F52885F029E5268527F012C6D4F52685F02712C6DD028C10E55D
:208C7B00288529F0F52685F027028D21E5268527F0C39402C5F09400C5F0F52685F027E512
:208C9B00268527F078F912C603860308860412C71B6014A926AA2789828A83E012C6357B08
:208CBB002C12C62C12C71B45F07003028CDCE5268527F012C6DDF52685F02712C6D4028C16
:208CDB009A7F001200BEE0A3F5F0E0C5F012C6DD7F001200BEF0A3C5F0F0C5F012C6D4E511
:208CFB00268527F078F912C603860308860412C71B7003028D21E5268527F012C6D4F526AB
:208D1B0085F02712C6DD028D87740175F000C0E0C0F0123EF3158115817003028D4612548A
:208D3B007E7801438701D8FB028D247F001200BEE0A3F5F0E0C5F0028D8A74FFF5F0028D84
:208D5B008A744375F000C0E0C0F012446315811581028D875C8DFAFF558DFBFF248DFCFF9D
:208D7B006E8BFFFF968AFEFF00005C8D0288F87F020200D8E4F52AE52A75F0007B087C0088
:208D9B0012C725600F78FB12C603860108860289828A83E07003028DF68006E52A052A80B2
:208DBB00D678F912C603E60886F0252AC5F03400C5F0F9AAF008E60886F012C6D418F60864
:208DDB00A6F012C6DDC001C002F9AAF089828A83E0547FD083D082F0028DB6E52A052A75BF
:208DFB00F00078F912C60326C5F00836C5F0F9AAF0181818E60886F0540FC5F05400C5F0EE
:208E1B004490C5F04400C5F089828A83F008E60886F0252AC5F03400C0F0C0E0743F75F0A1
:208E3B000EC0E0C0F0740675F000C0E0C0F01254C87FFA12C60F227FFE7EFF1200DA78FB81
:208E5B0012C603E654017003028E7E797F7A0689828A83E0F52D747475F006F52885F029C0
:208E7B00028E9379727A0689828A83E0F52D744275F006F52885F02978F712C603E6547F50
:208E9B00F52AE5288529F0C0E0C0F0E52A75F000C0E0C0F012C5E61581158115811581F5CF
:208EBB002485F025E5248525F045F06003028EDAA928AA2989828A83E012C635028F7D7805
:208EDB00F912C603E612C6357B0012C62C12C6F27003028F09E6F404FBE5248525F0C39B80
:208EFB00C5F09400C5F0F52485F025028F1FE5248525F078F912C60326C5F03400C5F0F54E
:208F1B002485F025E5248525F0AB28AC2912C7257003028F3DE5288529F0F52485F025028E
:208F3B008F71E5288529F0252DC5F03400C5F0AB24AC2512C72C7003028F71E5288529F0B6
:208F5B00252DC5F03400C5F0C39401C5F09400C5F0F52485F025A924AA2589828A83E01257
:208F7B00C6357F020200D87FE47EFF1200DAE4F5F07F161200BEF0A3C5F0F0C5F078F71218
:208F9B00C603E60886F0C0E0C0F012C5CA158115817F181200BEF0A3C5F0F0C5F0E52F857F
:208FBB0030F07F1A1200BEF0A3C5F0F0C5F078F912C603E60886F0F52B18181886010886F3
:208FDB000289828A83E012C6357B2012C62C12C71B7003029005080808E60886F04480C5CD
:208FFB00F04400C5F018F608A6F078FB12C603E60886F04440C5F04400C5F018F608A6F031
:20901B00E52B75F00078F912C603F608A6F018E60886F07B067C0012C702700302909C7F6C
:20903B00181200BEE0A3F5F0E0C5F018C396C5F00896C5F07B077C0012C702700302907861
:20905B0018E60886F0C39406C5F09400C5F07F161200BEF0A3C5F0F0C5F00290997F1812F8
:20907B0000BEE0A3F5F0E0C5F0C39408C5F09400C5F07F161200BEF0A3C5F0F0C5F00290D9
:20909B00ABE4F5F07F161200BEF0A3C5F0F0C5F078F912C603E60886F07F161200BE12C701
:2090BB007FC39BC5F09CC0F0C0E07F021200CCE98AF0C0E0C0F0181818E60886F07F1612B2
:2090DB0000BE12C77F2BC5F03CC0F0C0E0128D8F7FFA12C60F7F021200CCE98AF0C0E0C043
:2090FB00F01245C31581158179217A00E754016007740275F0008005740575F000C0E0C0CA
:20911B00F0123EF31581158112C6357F001200BEF0A3C5F0F0C5F045F060030291561254A5
:20913B007E12BF4B438701E52F8530F07F1A1200BEF0A3C5F0F0C5F002910378F712C603C0
:20915B00E60886F0F52685F02708E60886F0F52BE52F8530F07F1A1200BE12C77FC39BC5B0
:20917B00F09CC5F07B127C0012C6822401C5F03400C5F0F52CE52C75F0007B057C0012C701
:20919B003570030291C57405F52C7F1A1200BEE0A3F5F0E0C5F0245AC5F03400C5F07F1AFF
:2091BB001200BEF0A3C5F0F0C5F012546EE5268527F0252BC5F03400C5F0F9AAF089828A46
:2091DB0083E0F52A7F001200BEE0A3F5F0E0C5F090938B02C63EE52A75F000C0E0C0F0E549
:2091FB002CC0E0C0F078F712C603E60886F0C0E0C0F0128E527FFA12C60FF52A78FB12C61E
:20921B0003E60886F054BFC5F054FFC5F018F608A6F00293A3E52A75F000C0E0C0F0E52C43
:20923B00F40475F000C0E0C0F078F712C603E60886F0C0E0C0F0128E527FFA12C60FF52AF7
:20925B0078FB12C603E60886F054BFC5F054FFC5F018F608A6F00293A3E52B052BE52685BD
:20927B0027F0252BC5F03400C5F0F9AAF089828A83E054807003029298E52B052BE52B750B
:20929B00F0007F181200BE12C77F12C71270030292B574FC75F0FF0293BD78FB12C603E603
:2092BB000886F054C1C5F05400C5F045F07020E5268527F0252BC5F03400C5F0F9AAF089CC
:2092DB00828A83E012C6357B2012C62C12C71B45F070030292F402901B78FB12C603E6084B
:2092FB0086F04440C5F04400C5F018F608A6F00293A374FB75F0FF0293BDE52B75F0007BB2
:20931B00007C0012C735700302932DE52B152B02933D744375F000C0E0C0F0124463158196
:20933B001581E5268527F0252BC5F03400C5F0F9AAF089828A83E054807003029375E52BFB
:20935B0075F0007B007C0012C7357003029371E52B152B029375E52B052B02901B7443759C
:20937B00F000C0E0C0F01244631581158102901B1593FAFF0D93FBFF7492FCFF3092FFFF04
:20939B00F191FEFF00007893E5268527F0252BC5F03400C5F0F9AAF0E52A89828A83F002E7
:2093BB00901B7F1C0200D87FFE7EFF1200DA78FB12C603860108860289828A83E0A3F5F0A7
:2093DB00E0C5F0F52485F025E5248525F07B637C0012C73570030293FCE4F5F0F52485F0C4
:2093FB002578FB12C603860108860289828A83E0A3F5F0E0C5F07B007C0012C6F27003027D
:20941B009427746375F000F52485F025E5248525F09094AA02C63E748775F0067F00120019
:20943B00BEF0A3C5F0F0C5F00294B6748B75F0067F001200BEF0A3C5F0F0C5F00294B674B4
:20945B009375F0102410C5F03400C0F0C0E0744675F00EC0E0C0F0E5248525F02401C5F082
:20947B003400C0F0C0E0740375F00012C4E37FFA12C60F749375F0102410C5F03400C5F00A
:20949B007F001200BEF0A3C5F0F0C5F00294B6469463003294000000005A9478FB12C603EA
:2094BB008601088602E5248525F089828A83F0A3C5F0F0C5F0749375F010C0E0C0F0749002
:2094DB0075F006C0E0C0F07F001200BEE0A3F5F0E0C0F0C0E0740375F00012C4E37FFA12AF
:2094FB00C60F749375F0107F020200D879227A0378FB12C603E675F00089828A83F0A3C584
:20951B00F0F0C5F07B017C0012C735700302957F79147A0389828A83E0A3F5F0E0C5F044A9
:20953B0002C5F04400C5F089828A83F0A3C5F0F0C5F079207A03E4F5F089828A83F0A3C50C
:20955B00F0F0C5F0740075F00CC0E0C0F0741C75F003C0E0C0F0120A6E158115811581157D
:20957B00810295B379227A03E4F5F089828A83F0A3C5F0F0C5F079147A0389828A83E0A37A
:20959B00F5F0E0C5F054FDC5F054FFC5F089828A83F0A3C5F0F0C5F0227FFE7EFF1200DA1B
:2095BB0078FB12C603860108860289828A83E0A3F5F0E0C5F0F52485F0259010D3E05403B9
:2095DB0012C63512C6EE45F0601418860108860289828A83E0A3F5F0E0C5F012C6EE45F0B5
:2095FB00701C78FB12C603860108860289828A83E0A3F5F0E0C5F07B007C0012C6F245F054
:20961B00700302962D741B75F000F52485F02502966E78FB12C603860108860289828A83CD
:20963B00E0A3F5F0E0C5F07B1B7C0012C702700302966E9010D3E054037003029664E4F5BA
:20965B00F0F52485F02502966E740175F000F52485F02578FB12C6038601088602E52485C6
:20967B0025F089828A83F0A3C5F0F0C5F0E5248525F09097D902C63E9010D3E054017003F1
:20969B000296B2749775F0067F001200BEF0A3C5F0F0C5F00296E29010D3E054027003021B
:2096BB0096D1748775F0067F001200BEF0A3C5F0F0C5F00296E2749B75F0067F001200BE43
:2096DB00F0A3C5F0F0C5F00296F6748B75F0067F001200BEF0A3C5F0F0C5F0749375F010D2
:2096FB00C0E0C0F07F001200BEE0A3F5F0E0C0F0C0E012C59C15811581158115810297E5CF
:20971B00E5248525F012C6DDF52485F02512C6D4749375F010C0E0C0F074A075F006C0E08C
:20973B00C0F0E5248525F02441C5F03400C0F0C0E0E5248525F07B247C0012C66779007A2D
:20975B000812C62589828A83E0A3F5F0E0C5F045F06007742A75F0008005742075F000C0F7
:20977B00E0C0F0740475F00012C4E37FF812C60F9010D3E0540470030297D6749375F01041
:20979B00C0E0C0F0E5248525F07B247C0012C667790C7A0812C625E98AF0C0E0C0F012C5D3
:2097BB008C1581158115811581740875F00079937A1012C625E489828A83F00297E5E59651
:2097DB001B009396000000001B97749375F0107F020200D8E53112C6357BFF12C62C12C727
:2097FB00127003029849E475F0059010D8F0A3C5F0F0C5F09010D6F0A3C5F0F0C5F0901030
:20981B00D8E0A3F5F0E0C0F0C0E09010D6E0A3F5F0E0C0F0C0E01286E71581158115811559
:20983B00819010D8F0A3C5F0F0C5F002988FE53112C6357BFB12C62C12C7127003029877F2
:20985B00741075F0069010D8F0A3C5F0F0C5F09010D6F0A3C5F0F0C5F002988FE475F005BF
:20987B009010D8F0A3C5F0F0C5F09010D6F0A3C5F0F0C5F0E49010DCF09010DCE0600302F4
:20989B009AA59010D8E0A3F5F0E0C5F02402C5F03400C5F0F52485F025A924AA2589828A51
:2098BB0083E012C6357B6512C62C12C7127003029907749375F010C0E0C0F0744975F00E3D
:2098DB00C0E0C0F0748B75F006C0E0C0F0E5248525F02401C5F03400C0F0C0E0740475F085
:2098FB000012C4E37FF812C60F029924749375F010C0E0C0F0E5248525F0C0E0C0F012C5E1
:20991B009C1581158115811581749375F010C0E0C0F01287D615811581F531E53112C63588
:20993B00909A8A02C63E9010D812C78689828A83E0A3F5F0E0C5F07BFF7CFF12C712700313
:20995B00029964E4F5F002AA279010D812C78689828A83E0A3F5F0E0C5F07B007C0112C794
:20997B002570030299999010D812C78689828A83E0A3F5F0E0C5F09010DCF0029AA29010CA
:20999B00D812C78689828A83E0A3F5F0E0C5F09010D6F0A3C5F0F0C5F09010D8F0A3C5F03D
:2099BB00F0C5F00298949010D8E0A3F5F0E0C0F0C0E01286AE158115819010D8F0A3C5F077
:2099DB00F0C5F09010D812C78689828A83E0A3F5F0E0C5F045F06003029A0A9010D6E0A3A4
:2099FB00F5F0E0C5F09010D8F0A3C5F0F0C5F0029AA29010D8E0A3F5F0E0C0F0C0E090107F
:209A1B00D6E0A3F5F0E0C0F0C0E01286E715811581158115819010D8F0A3C5F0F0C5F0027F
:209A3B009AA29010D6E0A3F5F0E0C5F07B007C0512C7127003029A59E4F5F002AA27E47518
:209A5B00F0059010D8F0A3C5F0F0C5F09010D6F0A3C5F0F0C5F0029AA21255E4744375F089
:209A7B0000C0E0C0F012446315811581029894749AFAFF3D9AFBFF0D9AFFFFC199FEFF4153
:209A9B0099FCFF0000779A0298949010DCE075F00090A9BC02C63E9010DCE075F0007B10D0
:209ABB007C0012C7126007740175F0008005740275F0009010DCF09010DCE075F000C0E0B6
:209ADB00C0F0127F171581158145F07003029B1174A575F006C0E0C0F01245C31581158177
:209AFB00E4C0E0C0E012446315811581781E438701D8FB029A5302AA2479087A0289828ABD
:209B1B0083E0A3F5F0E0C5F05401C5F05400C5F045F07003029B3F74E275F007F52885F0BF
:209B3B0029029B7479087A0289828A83E0A3F5F0E0C5F05402C5F05400C5F045F070030200
:209B5B009B6A74D575F007F52885F029029B7474B875F007F52885F029E5288529F0C0E0C6
:209B7B00C0F0E4C0E0C0E01288D41581158115811581F52485F025E5248525F0909D320279
:209B9B00C63E79087A0289828A83E0A3F5F0E0C5F05401C5F05400C5F045F07003029BBE7E
:209BBB00029C3379147A0389828A83E0A3F5F0E0C5F054FFC5F054F7C5F089828A83F0A3E7
:209BDB00C5F0F0C5F0740075F00CC0E0C0F0740875F003C0E0C0F0120A6E1581158115815B
:209BFB001581791A7A03E4F5F089828A83F0A3C5F0F0C5F0029D4279087A0289828A83E000
:209C1B00A3F5F0E0C5F05403C5F05400C5F045F07003029C3302987779147A0389828A834B
:209C3B00E0A3F5F0E0C5F054F7C5F054FFC5F089828A83F0A3C5F0F0C5F0740075F00CC05A
:209C5B00E0C0F0740C75F003C0E0C0F0120A6E158115811581158179187A03E4F5F089825D
:209C7B008A83F0A3C5F0F0C5F0029D4279147A0389828A83E0A3F5F0E0C5F054FFC5F05473
:209C9B00F7C5F089828A83F0A3C5F0F0C5F0740075F00CC0E0C0F0740875F003C0E0C0F08F
:209CBB00120A6E1581158115811581791A7A03E4F5F089828A83F0A3C5F0F0C5F079147AC2
:209CDB000389828A83E0A3F5F0E0C5F054F7C5F054FFC5F089828A83F0A3C5F0F0C5F074D0
:209CFB000075F00CC0E0C0F0740C75F003C0E0C0F0120A6E158115811581158179187A0360
:209D1B00E4F5F089828A83F0A3C5F0F0C5F0029D42029D42029877879C0200129C01009D16
:209D3B009B000000002F9D029A5379147A0389828A83E0A3F5F0E0C5F05401C5F05400C570
:209D5B00F045F07003029D6C74069010D3F0029D7274049010D3F0E4C0E0C0E074B475F0CB
:209D7B0095C0E0C0F01288D41581158115811581F52AE52A75F0007BFF7C0012C712700C2D
:209D9B00E52A75F0007B1B7C0012C71245F07003029DB102AA2479147A0389828A83E0A3CA
:209DBB00F5F0E0C5F05401C5F05400C5F045F07003029E05E52A75F0007B007C0012C71258
:209DDB007003029E0579147A0389828A83E0A3F5F0E0C5F054FEC5F054FFC5F089828A830A
:209DFB00F0A3C5F0F0C5F0029A53E52A152A79287A03E52A75F00089828A83F0A3C5F0F03C
:209E1B00C5F079147A0389828A83E0A3F5F0E0C5F04401C5F04400C5F089828A83F0A3C5F0
:209E3B00F0F0C5F0E52A75F0007B247C0012C66779007A0812C62589828A83E0A3F5F0E04C
:209E5B00C5F012C6EE45F06029E52A75F0007B247C0012C667791E7A0812C62589828A83B2
:209E7B00E0A3F5F0E0C5F05401C5F05400C5F012C6EE45F07003029F5CE52A9010DCF0E5EC
:209E9B002A75F000C0E0C0F0120C7315811581E52A75F0007B247C0012C66779047A08122C
:209EBB00C625C001C002E52A75F0007B247C0012C66779057A0812C625E489828A83F0D092
:209EDB0083D082F079147A0389828A83E0A3F5F0E0C5F05404C5F05400C5F045F0700302C3
:209EFB009F31E52A75F0007B247C0012C66779087A0812C625E98AF0C0E0C0F0742475F0F9
:209F1B0003C0E0C0F0740475F000C0E0C0F01254C87FFA12C60FE52A75F0007B247C001277
:209F3B00C66779067A0812C625C001C00279227A0389828A83E0A3F5F0E0C5F0D083D08286
:209F5B00F0029A5374059010D3F0E4C0E0C0E074B475F095C0E0C0F01288D41581158115E6
:209F7B00811581F52AE52A75F0007BFF7C0012C712700CE52A75F0007B1B7C0012C7124509
:209F9B00F07003029FA402AA249010DCE075F00090A09902C63EE52A600302A0067481751A
:209FBB00F006C0E0C0F01245C315811581E49010DCF09010DCE075F0007B1A7C0012C725DA
:209FDB00700302A003800C9010DCE0049010DCF01480DF9010DCE075F000C0E0C0F0120C54
:209FFB007315811581029FE202A019E52AC3940175F000C0E0C0F0120C731581158102A0EE
:20A01B00A9E52A600302A06F120E4BF52485F025749375F010C0E0C0F074B875F006C0E0D8
:20A03B00C0F0E5248525F0C0E0C0F0744A75F06AC0E0C0F0740475F00012C4E37FF812C6A0
:20A05B000F749375F010C0E0C0F01287D61581158102A083E52A152AE52A75F000C0E0C028
:20A07B00F0122F8C1581158102A0A9E52A75F000C0E0C0F01231631581158102A0A986A08A
:20A09B000D001CA00C00B19F0B000000A9A0029A53122FC002AA2474049010D3F0E4C0E00D
:20A0BB00C0E074B475F095C0E0C0F01288D41581158115811581F52AE52A75F0007BFF7C24
:20A0DB000012C712700CE52A75F0007B1B7C0012C71245F0700302A0F702AA24E52A152A2E
:20A0FB00749375F010C0E0C0F0E52A75F0007B247C0012C667790C7A0812C625E98AF0C084
:20A11B00E0C0F012C59C1581158115811581749375F010C0E0C0F0749375F010C0E0C0F031
:20A13B0012C5CA15811581D004D0032BC5F03CC5F09010DAF0A3C5F0F0C5F0749375F010DC
:20A15B002407C5F03400C5F09010DA12C77F12C735700302A1989010DAE0A3F5F0E0C5F016
:20A17B0012C6D49010DAF0A3C5F0F0C5F012C6DDF9AAF0742089828A83F002A1569010DA5A
:20A19B0012C786E489828A83F0E52A9010DCF0749375F010C0E0C0F0E4C0E0C0E0E4C0E06A
:20A1BB00C0E0128F827FFA12C60FF531E53112C6357BFC12C62C12C712700302A20C9010EF
:20A1DB00DCE075F0007B247C0012C667790C7A0812C625E98AF0C0E0C0F0749375F010C0F6
:20A1FB00E0C0F012C59C158115811581158102A21C744675F000C0E0C0F012446315811556
:20A21B008102987774FFF5F090108FF0A3C5F0F0C5F074FF75F07F901091F0A3C5F0F0C598
:20A23B00F0E4C0E0C0E074C275F093C0E0C0F01288D41581158115811581F52AE52A75F018
:20A25B00007B557C0012C712700CE52A75F0007B637C0012C71245F0700302A27B0298779F
:20A27B00E52A240175F000C0E0C0F012950715811581029A5379147A0389828A83E0A3F577
:20A29B00F0E0C5F054FBC5F054FFC5F089828A83F0A3C5F0F0C5F002987779247A038982D7
:20A2BB008A83E0A3F5F0E0C5F07B007C0012C71B701679267A0389828A83E0A3F5F0E0C5C7
:20A2DB00F07B007C0012C71B45F0700302A30F79147A0389828A83E0A3F5F0E0C5F04404C5
:20A2FB00C5F04400C5F089828A83F0A3C5F0F0C5F0029A53744375F000C0E0C0F01244637C
:20A31B001581158102AA2479267A0389828A83E0A3F5F0E0C5F0F52885F029E5288529F08F
:20A33B0045F0600302A34F741475F01EF52885F02902A37B79247A03E5288529F089828A36
:20A35B008312C77F12C725700302A37B79247A0389828A83E0A3F5F0E0C5F0F52885F0298C
:20A37B0079247A0389828A83E0A3F5F0E0C5F0F52685F027E5268527F0AB28AC2912C7357F
:20A39B00700302A3AAE5288529F0F52685F027E5268527F09010E1F0A3C5F0F0C5F0E4F590
:20A3BB00F09010E3F0A3C5F0F0C5F0E5288529F09010E5F0A3C5F0F0C5F079147A038982F0
:20A3DB008A83E0A3F5F0E0C5F09010E7F0A3C5F0F0C5F074019010E9F074E875F00690108F
:20A3FB00EAF0A3C5F0F0C5F0125840F52485F025E5248525F07B007C8012C71B700302A4E7
:20A41B00BA79247A03E5248525F089828A83F0A3C5F0F0C5F079267A0389828A83E0A3F5F9
:20A43B00F0E0C5F045F0600302A46279267A03741475F01E89828A83F0A3C5F0F0C5F0E4CC
:20A45B009010DCF00299C179147A0389828A83E0A3F5F0E0C5F05404C5F05400C5F045F0AF
:20A47B00600302A488E49010DCF00299C179267A0389828A83E0A3F5F0E0C5F0AB24AC25B3
:20A49B0012C725700302A4B779267A03E5248525F089828A83F0A3C5F0F0C5F002A2B57442
:20A4BB004675F000C0E0C0F01244631581158102AA2479267A0389828A83E0A3F5F0E0C590
:20A4DB00F09010E1F0A3C5F0F0C5F079247A0389828A83E0A3F5F0E0C5F09010E3F0A3C5F9
:20A4FB00F0F0C5F0741475F01E9010E5F0A3C5F0F0C5F079147A0389828A83E0A3F5F0E0C5
:20A51B00C5F09010E7F0A3C5F0F0C5F074019010E9F074ED75F0069010EAF0A3C5F0F0C5B6
:20A53B00F0125840F52485F025E5248525F07B007C8012C71B700302A59B79267A03E524CB
:20A55B008525F089828A83F0A3C5F0F0C5F079247A0389828A83E0A3F5F0E0C5F0AB24AC97
:20A57B002512C735700302A59879247A03E5248525F089828A83F0A3C5F0F0C5F002A2B5C0
:20A59B00744675F000C0E0C0F01244631581158102AA2479147A0389828A83E0A3F5F0E012
:20A5BB00C5F0541FC5F054FFC5F089828A83F0A3C5F0F0C5F079147A0389828A83E0A3F5FC
:20A5DB00F0E0C5F04480C5F04400C5F089828A83F0A3C5F0F0C5F0029A5379147A03898260
:20A5FB008A83E0A3F5F0E0C5F0541FC5F054FFC5F089828A83F0A3C5F0F0C5F079147A03F7
:20A61B0089828A83E0A3F5F0E0C5F04440C5F04400C5F089828A83F0A3C5F0F0C5F0029A37
:20A63B00539010DCE075F0007B197C0012C7126007740175F0008003E4F5F0C0E0C0F0749F
:20A65B000275F000C0E0C0F01241D81581158115811581749375F010C0E0C0F0E4C0E0C095
:20A67B00E0740175F000C0E0C0F0128F827FFA12C60F7BFC7CFF12C712700302A6CB9010CF
:20A69B00DCE075F0007B197C0012C7126007740175F0008003E4F5F0C0E0C0F0740175F0CC
:20A6BB0000C0E0C0F01241D8158115811581158102AA24748175F006C0E0C0F01245C315FD
:20A6DB00811581740075F003C0E0C0F0E4C0E0C0E0742C75F000C0E0C0F012C4F17FFA1251
:20A6FB00C60F79147A0389828A83E0A3F5F0E0C5F04480C5F04400C5F089828A83F0A3C569
:20A71B00F0F0C5F0792A7A03741875F00089828A83F0A3C5F0F0C5F0E4C0E0C0E0120EC06F
:20A73B0015811581744075F000C0E0C0F01244631581158102987702AA24749375F010C067
:20A75B00E0C0F0744E75F00EC0E0C0F079067A0289828A83E0A3F5F0E0C0F0C0E074037532
:20A77B00F00012C4E37FFA12C60F749375F010C0E0C0F01287D61581158102AA2474937502
:20A79B00F010C0E0C0F0745175F00EC0E0C0F0742475F000C0E0C0F0740312C4E37FFA12BE
:20A7BB00C60F749375F010C0E0C0F01287D61581158102AA2479087A0289828A83E0A3F5E5
:20A7DB00F0E0C5F09010E1F0A3C5F0F0C5F0E4F5F09010E3F0A3C5F0F0C5F074FF75F0005A
:20A7FB009010E5F0A3C5F0F0C5F074FFF5F09010E7F0A3C5F0F0C5F0E49010E9F074AF750B
:20A81B00F0079010EAF0A3C5F0F0C5F0125840F52485F025E5248525F07B007C8012C71B44
:20A83B00700302A85479087A02E5248525F089828A83F0A3C5F0F0C5F002AA2479067A021C
:20A85B0089828A83E0A3F5F0E0C5F09010E1F0A3C5F0F0C5F0E4F5F09010E3F0A3C5F0F0D6
:20A87B00C5F074FFF5F09010E5F0A3C5F0F0C5F074FFF5F09010E7F0A3C5F0F0C5F0E490FE
:20A89B0010E9F074B375F0079010EAF0A3C5F0F0C5F0125840F52485F025E5248525F07B2F
:20A8BB00007C8012C71B700302A8DA79067A02E5248525F089828A83F0A3C5F0F0C5F002F1
:20A8DB00AA24E4C0E0C0E0123EF315811581600302A947740175F000C0E0C0F0126EFF15E9
:20A8FB00811581749375F010C0E0C0F0745775F00EC0E0C0F0740275F00079327A0012C6F4
:20A91B0025E70987F0C0E0C0F0740375F00012C4E37FFA12C60F749375F010C0E0C0F0126D
:20A93B0045C31581158143870102A8DD02AA24E4C0E0C0E0123EF315811581600302A9B64F
:20A95B00740275F000C0E0C0F07405C0E0C0F01264751581158115811581749375F010C069
:20A97B00E0C0F0745C75F00EC0E0C0F0900E7EE0A3F5F0E0C0F0C0E0740375F00012C4E350
:20A99B007FFA12C60F749375F010C0E0C0F01245C31581158143870102A94A02AA24029800
:20A9BB00774AA92200DDA8210057A82000D0A71F0098A71E0055A71D00CEA61C003CA61A93
:20A9DB00003CA61900F5A51800AEA51700CDA4160022A31500B5A2140090A213001FA21261
:20A9FB0000B2A00E00ACA01B005F9F0D005F9F0C005F9F0B00459D0A00149B1100B29A0F50
:20AA1B0000B29A10000000B9A902988F2278FB12C603860108860289828A83E075F00090C0
:20AA3B00B29402C63E798B7A0F742475F00089828A83F0A3C5F0F0C5F0798D7A0FE52F85F8
:20AA5B0030F089828A83F0A3C5F0F0C5F0798F7A0F740175F00289828A83F0A3C5F0F0C534
:20AA7B00F079917A0FC001C00279067A0289828A83E0A3F5F0E0C5F0D083D082F0A3C5F0B8
:20AA9B00F0C5F012C1AE79937A0FC001C002749375F010D083D082F0A3C5F0F0C5F07405D6
:20AABB0075F00002B2D7740275F000C0E0C0F078F912C6038601088602740475F00012C648
:20AADB0025E4F5F012C62589828A83E0A3F5F0E0C0F0C0E01264751581158115811581F588
:20AAFB002A798B7A0F900E7EE0A3F5F0E0C5F0C3952AC5F09400C5F089828A83F0A3C5F08B
:20AB1B00F0C5F0798D7A0F900E7EE0A3F5F0E0C5F089828A83F0A3C5F0F0C5F0126677F5E4
:20AB3B002485F025E5248525F0C0E0C0F0E4C0E0C0E0E4C0E0C0E012626D7FFA12C60F744C
:20AB5B000275F00002B2D778FB12C6038601088602740475F00012C625E98AF0F52885F0B4
:20AB7B0029E5288529F02402C5F03400C5F0F9AAF089828A83E0A3F5F0E0C5F0F52485F0EC
:20AB9B0025748B75F00FC0E0C0F0A928AA2989828A83E0A3F5F0E0C0F0C0E0E5248525F0BB
:20ABBB00C333C5F033C0F0C0E01254C87FFA12C60FE5248525F002B2D778FB12C6038601BB
:20ABDB00088602740475F00012C625740275F00012C62589828A83E0A3F5F0E0C5F07B0187
:20ABFB007C0012C6B5F52685F02778FB12C6038601088602740475F00012C625740275F060
:20AC1B000012C62589828A83E0A3F5F0E0C5F05400C5F05480C5F045F0700302AC49E526CB
:20AC3B008527F012C6DDF52685F02712C6D478FB12C6038601088602740475F00012C62506
:20AC5B00E4F5F012C62589828A83E0A3F5F0E0C0F0C0E078F912C603860108860274047513
:20AC7B00F00012C625740475F00012C625E98AF0C0E0C0F0E5268527F0C0E0C0F01254C81A
:20AC9B007FFA12C60FE4F5F002B2D7E4F5F0900E84F0A3C5F0F0C5F0799B7A0FC001C002ED
:20ACBB00740175F000C0E0C0F0126EFF15811581D083D082F0A3C5F0F0C5F0E4F52AE52A00
:20ACDB0075F0007B057C0012C725700302AD2E8006E52A052A80E7798B7A0FE52A75F0007E
:20ACFB00C333C5F033C5F012C625C001C002E52A75F000C333C5F033C5F079327A0012C622
:20AD1B0025E70987F0D083D082F0A3C5F0F0C5F002ACECE52A240175F00002B2D778FB12B7
:20AD3B00C6038601088602740475F00012C625E4F5F012C62589828A83E0A3F5F0E0C0F068
:20AD5B00C0E0120C7315811581E4F5F002B2D778FB12C6038601088602740475F00012C60D
:20AD7B0025E4F5F012C62589828A83E0A3F5F0E0C0F0C0E0120D1515811581E4F5F002B240
:20AD9B00D7798B7A0FC001C002120F62D083D082F0A3C5F0F0C5F0F52485F025E524852536
:20ADBB00F02402C5F03400C0F0C0E0E4C0E0C0E0741E75F000C0E0C0F012C4F17FFA12C6A6
:20ADDB000F02B28C798B7A0FE4F5F089828A83F0A3C5F0F0C5F0740175F00002B2D7798B45
:20ADFB007A0FC001C002120E4BD083D082F0A3C5F0F0C5F0798D7A0F744A75F06A89828A7E
:20AE1B0083F0A3C5F0F0C5F0740275F00002B2D7798B7A0F89828A83E0A3F5F0E0C5F0900F
:20AE3B00108EF0740175F00002B2D7798B7A0FE4F5F089828A83F0A3C5F0F0C5F0740175BF
:20AE5B00F000C0E0C0F0126EFF1581158145F0600302AE91798B7A0F89828A83E0A3F5F006
:20AE7B00E0C5F04401C5F04400C5F089828A83F0A3C5F0F0C5F0740175F000C0E0C0F012EE
:20AE9B0067E81581158145F0600302AECA798B7A0F89828A83E0A3F5F0E0C5F04402C5F06D
:20AEBB004400C5F089828A83F0A3C5F0F0C5F0740175F00002B2D778FB12C60386010886B1
:20AEDB0002740475F00012C625E4F5F012C62589828A83E0A3F5F0E0C0F0C0E078F912C6BC
:20AEFB00038601088602740475F00012C625740275F00012C62589828A83E0A3F5F0E0C04B
:20AF1B00F0C0E0E4C0E0C0E0127D5D7FFA12C60F7B007C8012C712700302AF51798B7A0FB2
:20AF3B00E4F5F089828A83F0A3C5F0F0C5F0740175F00002B2D7798D7A0F9010EEE0A3F52E
:20AF5B00F0E0C5F089828A83F0A3C5F0F0C5F079207A00E75401700302AFF17401F52A79DB
:20AF7B008F7A0FE52F8530F0900E8412C77FC39BC5F09CC5F089828A83F0A3C5F0F0C5F002
:20AF9B0079147A0389828A83E0A3F5F0E0C5F05400C5F05408C5F045F0700302AFBFE52A36
:20AFBB004404F52A740875F003C0E0C0F0740075F00CC0E0C0F012025A1581158115811561
:20AFDB00817B017C0012C71B700302AFEEE52A4408F52A02B0697402F52A798F7A0FE52F08
:20AFFB008530F0900E8612C77FC39BC5F09CC5F089828A83F0A3C5F0F0C5F079147A038919
:20B01B00828A83E0A3F5F0E0C5F05408C5F05400C5F045F0700302B03AE52A4404F52A74F1
:20B03B000C75F003C0E0C0F0740075F00CC0E0C0F012025A15811581158115817B017C003E
:20B05B0012C71B700302B069E52A4408F52A798B7A0FE52A75F00089828A83F0A3C5F0F088
:20B07B00C5F0740375F00002B2D7798B7A0F741575F00089828A83F0A3C5F0F0C5F0798D13
:20B09B007A0F746875F00089828A83F0A3C5F0F0C5F0749175F00FC0E0C0F0740075F00222
:20B0BB00C0E0C0F0746875F000C0E0C0F01254C87FFA12C60F798F7A0FC001C00274007509
:20B0DB00F002C0E0C0F0743475F000C0E0C0F0120B931581158115811581D083D082F0A376
:20B0FB00C5F0F0C5F0743775F00002B2D778FB12C6038601088602740475F00012C625E41D
:20B11B00F5F012C62589828A83E0A3F5F0E0C5F07B157C0012C71B700302B14E798B7A0F1C
:20B13B00740175F00089828A83F0A3C5F0F0C5F002B27C78FB12C603860108860274047593
:20B15B00F00012C625740275F00012C62589828A83E0A3F5F0E0C5F07B687C0012C71B7037
:20B17B000302B196798B7A0F740275F00089828A83F0A3C5F0F0C5F002B27C78FB12C6037D
:20B19B008601088602740475F00012C625740675F00012C625E98AF0C0E0C0F0743475F007
:20B1BB0000C0E0C0F0120B93158115811581158178FB12C6038601088602C0E0C0F07404EF
:20B1DB0075F00012C625740475F00012C625D0F0D0E089828A8312C77F12C71B700302B21D
:20B1FB0013798B7A0F740375F00089828A83F0A3C5F0F0C5F002B27C740075F002C0E0C048
:20B21B00F078F912C6038601088602740475F00012C625740675F00012C625E98AF0C0E007
:20B23B00C0F0746875F000C0E0C0F01254C87FFA12C60F798B7A0FE4F5F089828A83F0A323
:20B25B00C5F0F0C5F0740175F00002B2D7798B7A0F740175F00089828A83F0A3C5F0F0C598
:20B27B00F079887A0F89828A83E0440489828A83F0740175F00002B2D708B1890085B0888D
:20B29B0000D2AE820046AE81002BAE8A00F9AD0A00DFAD09009CAD08006AAD070038AD061A
:20B2BB0000A6AC0400D4AB030062AB0200C1AA010040AA0000000068B2E4F5F022C29C12C1
:20B2DB004E2745F0700A90108EE012C63512C6EE45F0700302B2F7D29C02B4AC798D7A0F9C
:20B2FB009010EEE0A3F5F0E0C5F089828A83F0A3C5F0F0C5F079207A00E75401700302B32C
:20B31B00977401F52A798F7A0FE52F8530F0900E8412C77FC39BC5F09CC5F089828A83F0B7
:20B33B00A3C5F0F0C5F079147A0389828A83E0A3F5F0E0C5F05400C5F05408C5F045F07017
:20B35B000302B365E52A4404F52A740875F003C0E0C0F0740075F00CC0E0C0F012025A1553
:20B37B00811581158115817B017C0012C71B700302B394E52A4408F52A02B40F7402F52AF3
:20B39B00798F7A0FE52F8530F0900E8612C77FC39BC5F09CC5F089828A83F0A3C5F0F0C553
:20B3BB00F079147A0389828A83E0A3F5F0E0C5F05408C5F05400C5F045F0700302B3E0E527
:20B3DB002A4404F52A740C75F003C0E0C0F0740075F00CC0E0C0F012025A15811581158124
:20B3FB0015817B017C0012C71B700302B40FE52A4408F52A90108EE01490108EF0047987BA
:20B41B007A0F748A89828A83F079887A0F748A89828A83F079897A0F90108EE089828A8341
:20B43B00F0798B7A0FE52A75F00089828A83F0A3C5F0F0C5F0748775F00FC0E0C0F07403C5
:20B45B0075F000C0E0C0F012BDCE1581158115811581124E3145F0600302B47D43870102FE
:20B47B00B46D748775F00FC0E0C0F0740375F000C0E0C0F012BDCE1581158115811581129E
:20B49B004E3145F0600302B4AA43870102B49AD29C22E49010F9F012546E12C1AE74937531
:20B4BB00F010C0E0C0F01245C315811581E4C0E0C0E01244631581158112724F12546EE447
:20B4DB00F5F09010F5F0A3C5F0F0C5F0E4F5F09010F7F0A3C5F0F0C5F0E475F0809010EE46
:20B4FB00F0A3C5F0F0C5F074F0F52D02BC1812BF4B45F0700302B59290108EE075F0007BED
:20B51B00007C0012C735700302B540E52F8530F0241EC5F03400C5F09010F5F0A3C5F0F0B6
:20B53B00C5F002B557E52F8530F0242CC5F03401C5F09010F5F0A3C5F0F0C5F09010DDE0A6
:20B55B00A3F5F0E0C5F04401C5F04400C5F09010DDF0A3C5F0F0C5F09010DDE0A3F5F0E091
:20B57B00C0F0C0E0E4C0E0C0E01260F5158115811581158112545612547E740175F000C043
:20B59B00E0C0F0123EF315811581F531600302B91AE52F8530F09010F512C77F12C735700F
:20B5BB000302B6F29010DDE0A3F5F0E0C5F054FEC5F054FFC5F09010DDF0A3C5F0F0C5F0D0
:20B5DB00E4C0E0C0E01273281581158145F0700302B6DBE4C0E0C0E01275A515811581900C
:20B5FB0010EEF0A3C5F0F0C5F079147A0389828A83E0A3F5F0E0C5F05401C5F05400C5F013
:20B61B0045F0700302B63E1254AE7B0A7C0012C6822402C5F03400C5F09010F7F0A3C5F05F
:20B63B00F0C5F090108EE075F0007B007C0012C73560119010EEE0A3F5F0E0C5F07B007CDF
:20B65B008012C71B45F0700302B66912B2D812546E79147A0389828A83E0A3F5F0E0C5F003
:20B67B005403C5F05400C5F07B027C0012C712604579167A0389828A83E0A3F5F0E0C5F0F0
:20B69B005401C5F05400C5F012C6EE45F0602779207A0389828A83E0A3F5F0E0C5F012C6F7
:20B6BB00EE45F06011901091E0A3F5F0E0C5F07BFF7C7F12C71B45F0700302B6DB02BA54F9
:20B6DB00E52F8530F02403C5F03400C5F09010F5F0A3C5F0F0C5F04387011254AE7B0A7C6F
:20B6FB000012C682F52E9010F7E0A3F5F0E0C5F045F0600EE52E75F0009010F712C77F1202
:20B71B00C73E45F0700302B76679287A0389828A83E0A3F5F0E0C5F0F52AE52A75F0007B01
:20B73B00247C0012C66779187A0812C625E98AF0C0E0C0F012434915811581E4F5F0901019
:20B75B00F7F0A3C5F0F0C5F002B509E52E75F000AB3E7C0012C71B700302B917E52E75F09C
:20B77B0000C3C5F013C5F0137B037C0012C67B90B90302C63E1212A7F52485F02545F07099
:20B79B000302B7F7D20AD207E5248525F0C0E0C0F01245C3158115819010DDE0A3F5F0E028
:20B7BB00C0F0C0E0E4C0E0C0E01260F5158115811581158179147A0389828A83E0A3F5F0B1
:20B7DB00E0C0F0C0E0740175F000C0E0C0F01260F5158115811581158102B91379147A035D
:20B7FB0089828A83E0A3F5F0E0C5F05403C5F05400C5F07B027C0012C712604579167A036F
:20B81B0089828A83E0A3F5F0E0C5F05401C5F05400C5F012C6EE45F0602779207A03898242
:20B83B008A83E0A3F5F0E0C5F012C6EE45F06011901091E0A3F5F0E0C5F07BFF7C7F12C7FB
:20B85B001B45F0700302B86602BA54D2079010EEE0A3F5F0E0C0F0C0E079147A0389828A3C
:20B87B0083E0A3F5F0E0C5F04400C5F04480C0F0C0E0121A3C15811581C0E0C0F09010DFBD
:20B89B00E0A3F5F0E0C0F0C0E012626D7FFA12C60F02B913E52E540275F000C0E0C0F0E4E4
:20B8BB00C0E0C0E01241D81581158115811581D207749375F010C0E0C0F01245C315811540
:20B8DB00819010DDE0A3F5F0E0C5F054F3C5F054F3C0F0C0E0E4C0E0C0E01260F515811589
:20B8FB00811581158102B913AFB80200F7B7010090B700000000F7B7E52EF53E02BC61E55B
:20B91B003112C6357BFC12C62C12C712700302B93DE4C0E0C0E0123EF315811581F5310242
:20B93B00B95F79217A00E754016007740275F0008005740575F000C0E0C0F0123EF31581B6
:20B95B001581F53112546E79147A0389828A83E0A3F5F0E0C5F05403C5F05400C5F07B028B
:20B97B007C0012C712603A79167A0389828A83E0A3F5F0E0C5F05401C5F05400C5F012C69F
:20B99B00EE45F0601CE53112C6357BFF12C62C12C712700DE53112C6357BFE12C62C12C76B
:20B9BB001245F0700302BB1979207A0389828A83E0A3F5F0E0C5F045F07011901091E0A347
:20B9DB00F5F0E0C5F07BFF7C7F12C71245F0700302BA01740375F000C0E0C0F01244631513
:20B9FB0081158102B509E53112C63590BB0D02C63E9010F9E075F0007B007C0012C71270A4
:20BA1B000302BA2874029010F9F002BA3D9010F9E0C3940175F0007B037C0012C67B901009
:20BA3B00F9F002BA549010F9E0240175F0007B037C0012C67B9010F9F09010F9E075F0003B
:20BA5B007B017C0012C712700302BA98901091E0A3F5F0E0C0F0C0E0748975F007C0E0C08F
:20BA7B00F079147A0389828A83E0A3F5F0E0C0F0C0E012626D7FFA12C60F02BB0A9010F960
:20BA9B00E075F0007B027C0012C712700302BADC90108FE0A3F5F0E0C0F0C0E0748E75F029
:20BABB0007C0E0C0F079147A0389828A83E0A3F5F0E0C0F0C0E012626D7FFA12C60F02BB5C
:20BADB000A9010EEE0A3F5F0E0C0F0C0E074F275F007C0E0C0F079147A0389828A83E0A354
:20BAFB00F5F0E0C0F0C0E012626D7FFA12C60F02B50940BAFEFF0CBAFFFF000019BBE53170
:20BB1B0012C63590BC0002C63E74FCF5319010F7E0A3F5F0E0C5F045F0700302BB78792803
:20BB3B007A0389828A83E0A3F5F0E0C5F0F52AE52A75F0007B247C0012C66779187A081246
:20BB5B00C625E98AF0C0E0C0F012434915811581E4F5F09010F7F0A3C5F0F0C5F0E53112ED
:20BB7B00C635C0E0C0F01297EF158115817404F52A02BBA7E4F52A02BBA77401F52A02BBE8
:20BB9B00A77402F52A02BBA77403F52AE52A75F000C0E0C0F0123A63158115819010EEF037
:20BBBB00A3C5F0F0C5F074FFF53E9010DDE0A3F5F0E0C5F054F3C5F054F3C5F09010DDF0E8
:20BBDB00A3C5F0F0C5F079147A0389828A83E0A3F5F0E0C5F09010DFF0A3C5F0F0C5F002C0
:20BBFB00B79002BC18A3BBFBFF9CBBFAFF95BBFEFF8FBBFFFF24BBFCFF000018BC9010EE94
:20BC1B00E0A3F5F0E0C0F0C0E079147A0389828A83E0A3F5F0E0C5F04400C5F04480C0F0E5
:20BC3B00C0E0121A3C15811581C0E0C0F079147A0389828A83E0A3F5F0E0C0F0C0E0126237
:20BC5B006D7FFA12C60F02B509227FFE7EFF1200DA124E027F001200BEF0A3C5F0F0C5F096
:20BC7B007BFF7CFF12C71B700302BDC67F001200BEE0A3F5F0E0C5F0F52A79207A00E7540F
:20BC9B0004600302BD50E52A75F00090BD4402C63E79207A00E7540812C63545F0700E9062
:20BCBB00108BE075F0007B037C0012C72545F0700302BCE0C203E490108BF0E490108CF087
:20BCDB00C20202BC6C90108CE075F0007B007C0012C71B703190108BE0C3940575F000C3CF
:20BCFB00C5F013C5F013C0E0C0F0740375F00079887A0E12C625D0F0D0E089828A8312C786
:20BD1B007B7C0012C71B45F0700302BD2B02BCCFE490108CF090108BF0748875F00E02BDB5
:20BD3B00C9D20202BC6C02BD503CBDDB00ACBCC000000041BD79207A00E75404700302BD94
:20BD5B0086C202E52A75F00090BD7A02C63E74C0F52A02BD8674DBF52A02BD8602BC6C7058
:20BD7B00BDDD0069BDDC00000077BD90108CE0252A90108CF090108BE075F0007BFF7C00FB
:20BD9B0012C725700302BDC190108BE00490108BF01479887A0E75F00012C625E52A898254
:20BDBB008A83F002BDC3D20302BC6CE4F5F07F020200D87FFE7EFF1200DA78F912C603860E
:20BDDB0001088602740375F00012C62578FB12C603E6F52C89828A83F0E52C75F0007B018F
:20BDFB007C0012C6B5F52CE52C2404F52C1818E60886F07F001200BEF0A3C5F0F0C5F0E4F0
:20BE1B00F52A74C075F000C0E0C0F0124DBA15811581E52C152C700302BEC47F001200BE22
:20BE3B00E0A3F5F0E0C5F012C6D47F001200BEF0A3C5F0F0C5F012C6DDF9AAF089828A83A2
:20BE5B00E0F52BE52A252BF52AE52B75F0007BC07C0012C712700302BE8C74DB75F000C0FF
:20BE7B00E0C0F0124DBA1581158174DCF52B02BEB1E52B75F0007BDB7C0012C7127003024A
:20BE9B00BEB174DB75F000C0E0C0F0124DBA1581158174DDF52BE52B75F000C0E0C0F01287
:20BEBB004DBA1581158102BE2DE52A12C635FBACF0E475F001C39BC5F09CC5F0F52BE52BB6
:20BEDB0075F0007BC07C0012C712700302BF0174DB75F000C0E0C0F0124DBA15811581744E
:20BEFB00DCF52B02BF26E52B75F0007BDB7C0012C712700302BF2674DB75F000C0E0C0F0B4
:20BF1B00124DBA1581158174DDF52BE52B75F000C0E0C0F0124DBA1581158174C075F000AD
:20BF3B00C0E0C0F0124DBA158115817F020200D87FFD7EFF1200DAE47F021200BEF012BC1E
:20BF5B00657F001200BEF0A3C5F0F0C5F045F0700302C0C47F021200BEE0047F021200BE71
:20BF7B00F0147F001200BE12C786740275F00012C62589828A83E075F00090108D12C77B3E
:20BF9B007C0012C712601779897A0F89828A83E075F00090108D12C77B7C0012C71245F0A3
:20BFBB00700302BFE7748775F00FC0E0C0F0798A7A0F89828A83E075F000C0E0C0F012BD84
:20BFDB00CE158115811581158102BF5979887A0FC001C0027F001200BE12C786740175F071
:20BFFB000012C62589828A83E0D083D082F07F001200BE12C786740275F00012C62589820B
:20C01B008A83E090108DF079877A0FC001C0027F001200BE12C78689828A83E0D083D082A4
:20C03B00F07F001200BEE0A3F5F0E0C0F0C0E012AA2815811581F52A7F001200BE12C78631
:20C05B00740175F00012C62589828A83E05402700302C07202BF5979897A0FC001C0027F52
:20C07B00001200BE12C786740275F00012C62589828A83E0D083D082F079887A0F89828AF2
:20C09B0083E0440189828A83F0748775F00FC0E0C0F0E52A75F000C0E0C0F012BDCE15811F
:20C0BB0015811581158102BF597F021200BEE075F0007F030200D87FFE7EFF1200DA7480BD
:20C0DB00F5A8740875F0007F001200BEF0A3C5F0F0C5F07F001200BEE0A3F5F0E0C5F07BC4
:20C0FB00207C0012C725700302C13580207F001200BEE0A3F5F0E0C5F012C6D47F001200F7
:20C11B00BEF0A3C5F0F0C5F012C6DD80C67F001200BE12C786E4F702C108E590444044804D
:20C13B00F590E4F5F09010DDF0A3C5F0F0C5F0C205124D0112413474B4F51E74FFF5A0E556
:20C15B00B04444F5B0740175F000C0E0C0F0E4C0E0C0F0E4C0E0C0E0124B6D7FFA12C60F3B
:20C17B00E490108BF0740175F000900E84F0A3C5F0F0C5F0900E86F0A3C5F0F0C5F0740235
:20C19B0075F000C0E0C0F0126EFF158115817F020200D890003279937A107B107C00EB4C33
:20C1BB00601CE493A3CAC583CAC9C582C9F0A3CAC583CAC9C582C91BBBFFE31C80E0222259
:20C1DB0012C0D212C1AE749375F010C0E0C0F01245C31581158174FFF5F0C0E0C0F07401F0
:20C1FB0075F000C0E0C0F01260F5158115811581158112546EE4C0E0C0E012446315811554
:20C21B008179087A0289828A83E0A3F5F0E0C5F05401C5F05400C5F045F0600302C26CE4B1
:20C23B00F52CE52C75F0007B0C7C0012C725700302C2698006E52C052C80E7740275F000A1
:20C25B00C0E0C0F0126EFF1581158102C25002C26F438701740175F000C0E0C0F0123EF349
:20C27B001581158112C6357B0012C62C12C71B700302C371740175F000C0E0C0F0123EF3E1
:20C29B001581158112C6357B0012C62C12C71B700302C3714387011254AE7B327C0012C74D
:20C2BB0035700302C36EE4C0E0C0E0123EF315811581438701E4C0E0C0E0124463158115A2
:20C2DB0081740175F000C0E0C0F0123EF31581158112C6357B0012C62C12C71B700302C371
:20C2FB000243870102C2DC740175F000C0E0C0F0123EF315811581600302C32D12BF4B4567
:20C31B00F0700302C32412546E12547E43870102C302E4C0E0C0E0123EF315811581F531B3
:20C33B00E53112C6357BFF12C62C12C712700DE53112C6357BFB12C62C12C71245F07003A9
:20C35B0002C36EE53112C635C0E0C0F01297EF1581158102C28F12B4AD2212C4BC868208CE
:20C37B00868308E4FEFFE0700612C4BCE4F022B42551A3E0B42D05430780A3E0B4300343C8
:20C39B00074024D0B40A00500BCE75F00AA42EFEA3E080EEE0B46413E60886F030F708434F
:20C3BB00072012C6E4A6F018F68003B4750543070A8021B478054307108019B46F10430794
:20C3DB0008801112C4BCF0A312C4BCA38095B462624307027A00C004C005C006C007AB0734
:20C3FB0053031F7C00E60886F012C682A6F018F6EDD007D006D005D0042430B43A00400208
:20C41B002407C0E00AE645F070CC12C4BCA902EF30E505742DF0A30A12C4C5D0E0F0A3D99A
:20C43B00FA0808EF30E7A1EAC39E509C7420F0A30A80F4B4630DAA0112C4BC12C4C5E6F082
:20C45B00A380DEB47331C082C08386820886837A00E06004A30A80F9868318868212C4BC2B
:20C47B0012C4C512C4BCE0A312C4BC6004F0A380F2D005D00480AAB4691B86017A00E760A3
:20C49B0004090A80F912C4BC12C4C58601E76091F009A380F8F97A0112C4BC12C4C5E98047
:20C4BB009ECDC583CDCCC582CC22EE601A8FF020F715C002EAC39E500C742030F602743004
:20C4DB00F0A30A80EFD0022223F42581F886820886830802C37578F712C6038682088683CE
:20C4FB0008860708088603088604EB4C600AEFF0A31BBBFFF51C80F222D2AF22C2AF227816
:20C51B00FB12C603E60886F030F73A02C6E478F912C6038603088604088605088606ED8EB0
:20C53B00F012C745401CED8EF02278F912C6038603088604088605088606ED8EF012C745D2
:20C55B0040E4EB8CF02278FB12C603860308860475F0FE74017F0012C725600575F001E4A6
:20C57B0022EF0FF5F0A412C72570F6EF1475F0002278F912C6038682088683E0600DA38034
:20C59B00FA78F912C6038682088683088601088602C9C582C9CAC583CAE0A3C9C582C9CA27
:20C5BB00C583CAF06003A380E8E5828583F02278FB12C6038682088683E4F5F0FAE06009FC
:20C5DB00A30ABA00F805F080F4EA2278F912C60386820886830886F0E0B5F0068583F0E521
:20C5FB008222A370F3F5F022C82581C822C92581C97A0022D083D082CF2581F581CFC082A2
:20C61B00C08322CF2581F581CF2229F9E5F03AFA227C00CB30E7011CCB2275F00030E7028B
:20C63B0015F022FDE493A3FEE493A3FF4E7009E493FE740193FF800BE493A3B5050BE49366
:20C65B00B5F0068F838E82E473A380D8FEEBA4FD8EF0ECA4FCEB8EF0A4C5F02C2DC5F0221A
:07C67B0012C6828EF0ED22D1
:20C68200C002C001AAF0F97E007D007F11C3E933F9EA33FADF08F5F0E9D001D00222ED336E
:20C6A200FDEE33FEC3ED9BF5F0EE9C40E0ADF0FED380DBBB000122C333C5F033C5F0DBF776
:20C6C20022BB000122C3C5F013C5F013DBF72212C6D404700205F02212C6DD14B4FF021545
:20C6E200F02212C6DDF4C5F0F4C5F02245F0802312C7454029801E12C74540227017801E5B
:20C7020012C74540107017800C12C7455010800512C7596009E4F5F02212C75960F7E4F5AB
:20C72200F0042212C75940F680EB12C75940EF70E480EB12C75940DD70E480D912C7595070
:20C74200DD80D2C39BC5F09C20E70720D207C345F02220D2F9D322C5F0C39C7003E5F09B01
:20C76200229010FAE0A360F8E0FFA3E0A3CF2582F582EF3583F58380EBFBE0CB22FCE0FB05
:20C78200A3E0CC22FAE0F9A3E0CA220000000048C34F813827C5A03ECCCCCE4220000080BF
:20C7A20025690C6D0C710C750C256300257320203A2025730A000A56616C75657C20202027
:20C7C2002020257320202025730A2D2D2D2D2D7C000A001B310025732563002A0A002573DE
:20C7E20025631B4B85002020202020000A001B3103000A004D696E004D6178004176670059
:20C8020044657600434E542025640025732025730050525420535441542C4E4F20535441F6
:20C8220054005052542044454E532C4E4F2044454E5300544558542C47524150484943538D
:20C8420000534D4F4F54482C434F55525345004E4F524D414C2C5749444500505254204487
:20C862004154412C4E4F204441544100015072696E74696E67005345545550000A20436F24
:20C882006174696E6720546869636B6E65737320446174610A000A0A4D6F64656C3A20258F
:20C8A20073004443004E004600464E002D3937374D0A0053657220233A2025750A00446119
:20C8C2007465203A2025730A0054696D65203A2025730A42617463683A2025630A4944203B
:20C8E20020203A2025730A0044657363203A20000A55736572203A20000A0A000A53746198
:20C90200746973746963730A000A23202020203A2025640A556E6974733A2025730A004D12
:20C922006963726F6E73004D696C73000A25732044656E7369747920506C6F740A00436FB5
:20C942007572736500536D6F6F7468000A000A446174610A000A0A00256325326420522516
:20C962006420002563253364200025730A000A44617465203A2025730A0054696D65203A9E
:20C982002025730A203C3C3C3C20202020454E44203E3E3E3E3E3E0A000A0A002575002DF3
:20C9A2002D2D0025642E0030256400256400256400257325642E0020000025640025640018
:20C9C20020202020002573257300F10008000000002564002573257300257500324320259F
:0DC9E200780046202575004E462025750082
:00000001FF
