:020000000144B9
:20003200542E452E4B2E4E2E4F432E4F2E4D2E000000E58775C7AA75C7555387FBF5F0E58A
:20005200C6540144E875C7AA75C75543C602F5C675C7AA75C75553C6FD78227400F608B8B9
:200072003FFBE5F054105320EF422075813E7522F075237F90699C79007A7C7B6E7C00EB11
:200092004C601CE493A3CAC583CAC9C582C9F0A3CAC583CAC9C582C91BBBFFE31C80E090AB
:2000B2007EFFE4F012647975C7AA75C75543C602E504F0A3E505F075C7AA75C75553C6FD89
:2000D2002212001B80FB7E00CF2522F582EE3523F583EF227E00CF2522F9EE3523FAEF228C
:2000F2007E00C5222FC522C5233EC5232278F9126812E60886F0C0E0C0F0740975F000C0F0
:20011200E0C0F0120B64158115811581158178FB126812E60886F0C0E0C0F0740E75F000CA
:20013200C0E0C0F0120B641581158115811581E50D126844AB1212683B12692A7003020147
:2001520059E4F5F002015C12015D22E509B50E15E50AB50F10E50BB5100BE50CB51106C3B1
:20017200E4F5F00422E4F5F02278F9126812E60886F0C0E0C0F0740975F000C0E0C0F0129E
:200192000B64158115811581158178FB126812E60886F0C0E0C0F0740E75F000C0E0C0F09C
:2001B200120B641581158115811581E50D60030201D5E5126007740175F00080031201E871
:2001D2000201E7E51260081201E81268FD8003E4F5F00201E72212015D400570037401223B
:2001F200E42278FB126812E60886F0C0E0C0F0740975F000C0E0C0F0120B64158115811540
:20021200811581C374879509F8400EE50D700A08E50A03D8FD75F0002275F0012278FB1244
:200232006812E60886F0C0E0C0F0740975F000C0E0C0F0120B641581158115811581C3743C
:200252008F9509F840D30500E50B850AF0C3C5F013C5F013D8F7C0E0E50D6006E5F044802D
:20027200F5F0D0E02275F00122740075F07CC0E0C0F078F9126812E60886F0C0E0C0F012C5
:200292000B6415811581158115812278FB126812E60886F07B2E7C0012692170030202BB0D
:2002B200E5084408F50802031BE5084401F508E508540470030202DAE50854086003020261
:2002D200D7050EE50E02031B78FB126812E60886F0C0E0C0F01204EC1581158145F0700386
:2002F20002030EE50854087003020307E5084404F50802030B050EE50E02031BE508540860
:20031200700302031B150EE50E227FFC7EFF1200F4E4F517F508740E75F000C0E0C0F012CC
:20033200027B15811581E4F5F07F001200D8F0A3C5F0F0C5F07F001200D8E0A3F5F0E0C56D
:20035200F07B057C00126901700302044580207F001200D8E0A3F5F0E0C5F01268E37F0083
:200372001200D8F0A3C5F0F0C5F01268EC80C67F001200D8E0A3F5F0E0C5F0C333C5F033A4
:20039200C5F079147A7C12683478FB126812E60886F089828A8312698E1268917F02120043
:2003B200D8F0A3C5F0F0C5F07F021200D8E0A3F5F0E0C5F045F0700C7F001200D8E0A3F56C
:2003D200F0E0C5F045F070030203FA7F021200D8E0A3F5F0E0C5F02430C5F03400C0F0C0CA
:2003F200E012029D158115817F001200D8E0A3F5F0E0C5F0C333C5F033C5F079147A7C12A0
:2004120068347F021200D8E0A3F5F0E0C5F089828A8312698E126876FBACF078FB1268121F
:20043200E60886F0C39BC5F09CC5F018F608A6F00203611205297F040200F2740E75F00032
:20045200C0E0C0F012027B1581158178FB12681286060886077810E5075480700FE506C3EA
:2004720033F506E50733F507D8EF800DE507F50FE506F510E82480F50E22E50FF50AE51054
:20049200F50BE511F50CC3E51133F511E51033F510E50F33F50FE433F5F0E51133F511E5F9
:2004B2001033F510E50F33F50FE5F033F5F0E511250CF511E510350BF510E50F350AF50F2C
:2004D200E435F0F5F0E51133F511E51033F510E50F33F50FE5F033F5F02278FB1268128601
:2004F20001120AA712048C701AE994302511F511E43510F510E4350FF50F4007120AF5E47B
:20051200F5F022E50AF50FE50BF510E50CF511120AF5E4F5F00422120AA7120B577409121D
:2005320005BD702FE509FA7498F5091205D4EA602230E710740C75F07C120A74EAF42401E4
:20055200FA02055E741075F07C120A741206601AEA70F9120B51120AF5E4E4F508740E7515
:20057200F000C0E0C0F0741375F000C0E0C0F0120B64158115811581158122E50D60077425
:200592000175F0008003E4F5F02278FB126812E60886F0C0E0C0F0740975F000C0E0C0F090
:2005B200120B641581158115811581F875F000E6700E08E6700A08E6700608E6700204223D
:2005D200E42274091205BD701EE50A20E719C31509E5096014E50C33F50CE50B33F50BE5A5
:2005F2000A33F50A30E7E8C322D32278F9126812E60886F0C0E0C0F0740975F000C0E0C0E1
:20061200F0120B64158115811581158178FB126812E60886F0C0E0C0F0740E75F000C0E0C5
:20063200C0F0120B641581158115811581120660740975F000C0E0C0F0741375F000C0E0E9
:20065200C0F0120B64158115811581158122E5096004E50E700CE4F50DF509F50AF50BF544
:200672000C22E50D6512F50DE509250E30E708501775170102068E400F751702E4F50DF54D
:2006920009F50AF50BF50C222480F5091206DBED20E70EEC33FCEF33FFEE33FEED33FD15F9
:2006B20009EC33501574012FFF700F74012EFE7009E43DFD500413FD0509EFF50CEEF50BF1
:2006D200EDF50AE50960B2E422E511850CF0A4AFF0E510850CF0A42FFFE4E5F03400FEE544
:2006F20011850BF0A42FE5F03EFFE43400FEE50F850CF0A42FFFE5F03EFEE43400FDE510FA
:20071200850BF0A42FFFE5F03EFEED3400FDE511850AF0A42FFCE5F03EFFED3400FEE50FDD
:20073200850BF0A42FFFE5F03EFEE43400FDE510850AF0A42FFFE5F03EFEED3400FDE50FC6
:20075200850AF0A42EFEE5F03DFD2278F9126812E60886F0C0E0C0F0740975F000C0E0C014
:20077200F0120B64158115811581158178FB126812E60886F0C0E0C0F0740E75F000C0E064
:20079200C0F0120B6415811581158115811207C0740975F000C0E0C0F0741375F000C0E027
:2007B200C0F0120B64158115811581158122E512650DF50DE50E7003020683E509700302BD
:2007D200068EC3E509950E500620E70602068B20E7E62480F509120162500CC3E50A950F73
:2007F20070028003020812C3E50A13F50AE50B13F50BE50C13F50C0509E509700302068310
:20081200120841C0E0120841C0E0120841C0E012084154F0C36001D3E4D0E03400F50CD0A6
:20083200E03400F50BD0E03400F50A1205D422AA0AA90BA80C850AF0E50B7C00AB0F126867
:200852009130F00274FFFBF50A750B00750C001206DB85020A85010B85000CC3E50C9FFF6D
:20087200E50B9EFEE50A9DFD500D1BEF2510FFEE350FFEED3400FD750C008F0B8E0AEB22A8
:2008920078F9126812E60886F0C0E0C0F0740975F000C0E0C0F0120B64158115811581150B
:2008B2008178FB126812E60886F0C0E0C0F0740E75F000C0E0C0F0120B6415811581158178
:2008D20015811208DA120960E512F4F512740975F000C0E0C0F0741375F000C0E0C0F0128F
:2008F2000B6415811581158115812278F9126812E60886F0C0E0C0F0740975F000C0E0C00A
:20091200F0120B64158115811581158178FB126812E60886F0C0E0C0F0740E75F000C0E0C2
:20093200C0F0120B641581158115811581120960740975F000C0E0C0F0741375F000C0E0E3
:20095200C0F0120B64158115811581158122E50D6512F5F0C3E509950EF940249418501EC1
:20097200780F740A2402FC0209A9E50EF509E50FF50AE510F50BE511F50CE512F50DE422BB
:20099200F404F9C3941850E2E50EF509E512F50D780A740F2402FCE665F0FD08E665F0FE29
:2009B20008E665F0FFE95407FBE95418030303F9E9600AAF06AE05ADF0190209C2EB6010B4
:2009D200E5F013ED13FDEE13FEEF13FF1B0209CFE5F013A804EF3618F50CEE3618F50BED30
:2009F20036F50AE5F0701A5054E50A13F50AE50B13F50BE50C13F50C0509E509703F0206F1
:200A1200834015E50DF4F50DE50CF404F50CE4950BF50BE4950AF50AE50A20E7207020D39B
:200A3200E5099408403604F509E50BF50AE50CF50B7004E50A6025E4F50C020A2AE422E5D4
:200A52000914F5096019C3E50C33F50CE50B33F50BE50A33F50A30E7E6020A4F02068E02D4
:200A7200068BA983A882F58285F083E4F512E0330350037512FFF5F0A3E033C5F033F50EAE
:200A92006001D3E5F013F50FA3E0F510A3E0F5118983888222E5812404F8D0E0F6D0E018E7
:200AB200F6E50D33E50913C0E0E50A2313C0E0E50BC0E0E50CC0E00581058122E5812404C6
:200AD200F8D0E0F6D0E018F6E51233E50E13C0E0E50F2313C0E0E510C0E0E511C0E005815D
:200AF200058122D0E0F583D0E0F582750D00D0E0F50CD0E0F50BD0E033F5F0D0E033F50961
:200B12005003750DFFC36001D3E5F013F50AE47322D0E0F583D0E0F582751200D0E0F5110C
:200B3200D0E0F510D0E033F5F0D0E033F50E50037512FFC36001D3E5F013F50FE473227893
:200B520009790E8004780E79097F05E6F70809DFFA2278F9126812E583C0E0E582C0E08668
:200B720007088606EE7043EFB40903020B83B40E0D8F017D05E709C0E0DDFA020BEA75052F
:200B9200008F0109E733F5F019E733C0E050037505FFC36001D3E5F013C0E00909E7C0E0F4
:200BB20009E7C0E0EDC0E0020BEA7505008E838F82A3E033F5F08E838F82E033C0E05003B0
:200BD2007505FFC36001D3E5F013C0E0A3A3E0C0E0A3E0C0E0EDC0E0088607088606EFB4C9
:200BF2000903020BFAB40E1AEF2404F9D0E0F7D0E019F7D0E019F7D0E019F7D0E019F7023B
:200C12000C7CE506B40023EF2403F9D0E0F5F0D0E0F7D0E019F7D0E0C5F033D0E013C5F05D
:200C3200231319F7E5F019F78040EFF582850683A3A3A3D0E0F9D0E0F0E5828583F0126838
:200C5200ECF58285F083D0E0F0E5821268ECF58285F083D0E0C933D0E013C92313F0E58286
:200C72001268ECF58285F083E9F0D0E0F582D0E0F58375F000EF227FFD7EFF1200F4E4F517
:200C9200F0F52485F02578FB126812E60886F0F52685F027E4F52AE5268527F07B007C00E4
:200CB2001269447003020D01E52A75F000C333C5F033C5F078F9126812860108860212684B
:200CD20034E5248525F089828A8312698E2BC5F03CC5F0F52485F025E52A052AE526852791
:200CF200F01268ECF52685F0271268E3020CA9E5248525F07F030200F22278FB126812E6A1
:200D12000886F05402C5F05400C5F045F0600D18E60886F05400C5F05402C5F045F0700355
:200D3200020DA27420F52E746E75F07CC0E0C0F074B775F076C0E0C0F0E52E75F000C0E0B8
:200D5200C0F079227A73C001C00279207A73D083D082E0A3F5F0E0C5F089828A8312698E7D
:200D7200C39BC5F09CC0F0C0E0740475F0001267817FF812681E740475F000796E7A7C12B0
:200D92006834E489828A83F0746E75F07C020DA5E4F5F0227FFC7EFF1200F47F040200F2E2
:200DB200E5A04407F5A078FB126812E60886F0F52485F025E5A054076407F52EE52E6003C2
:200DD200020DDDC208E4F5F0020F5D78FB126812E60886F07B017C001269217003020E0298
:200DF200E52E1268447BFF12683B126876020F5DE4F52CD20B79217A00E75401126844454E
:200E1200F0601078FB126812E60886F07B017C0012692A45F07003020E3F740875F000C0C8
:200E3200E0C0F012111215811581020E4F740175F000C0E0C0F012111215811581E5248537
:200E520025F07B017C001268C4F52485F025E5A054076407F52D6003020E70020EF1E52E1E
:200E7200540475F00045F0600CE52D75F000AB2E7C0012692A45F07003020EBBE52C126893
:200E9200441268FD45F06004E52D54037003020EBBD20B740275F000C0E0C0F012111215F3
:200EB200811581E52D452EF52C438701E52D75F00045F0601D78FB126812E60886F045F0D7
:200ED2006010E5248525F01268ECF52485F0251268FD45F07003020EEE020EF1020E60E561
:200EF2002D7003020EFDD208020F2579217A00E7540112684445F0600978FB126812E6088A
:200F120086F045F07003020F23C208E4F5F0020F5DC208E52C6003020F30E52EF52CE52CA8
:200F320054F7F52CE52C540175F00045F06004E52C54027003020F50E52C54FEF52CE52CFF
:200F52001268447BFF12683B1268762278FB126812E60886F01268EC18F608A6F01268E3AE
:200F720045F07003020F7F438701020F5E2212679274C175F004F51C85F01DD20F12678F96
:200F92002212679274B675F0EDF51C85F01DC20F12678F22740975F007F52F85F030C28CF8
:200FB200C2A9E51C851DF07B087C001268D21268F3F58CE51C851DF05400C5F05401C5F042
:200FD2001268F3F58AE589F52AE52A54F0F52AE52A4401F52AE52AF58912678FD28CD2A933
:080FF20022120FA6120F932238
:07000B00C0D0C0E0020FFAB3
:200FFA00E51DF4F58CE51CF4F58A200F28C0F0E52F8530F02401C5F0340085F02FF5303025
:20101A00010FE51E14F51E7008E5B04444F5B0C201D0F0800F300E0CE53D2323F53D54C038
:09103A00453CF5A0D0E0D0D03215
:07001B00C0D0C0E002104359
:20104300C0F0E51EC4F51EF5F0E5B054BB30F002440430F1024440F5B0D0F0E528F58BE592
:2010630029F58DD0E0D0D032126792C2ABC28EE589540F4410F589E5288529F0907EF1F03B
:20108300A3C5F0F0C5F0741A75F0F478FB1268128603088604126891FBACF074FFF5F0C392
:2010A3009BC5F09CC5F0F52885F029E5288529F054FFC5F05400C5F0F58BE5288529F07B6F
:2010C300087C001268D2F58DD28ED2AB12678F78F9126812E60886F01268EC18F608A6F063
:2010E3001268E37B007C0012691170030210F84387010210D2C28EC2AB907EF1E0A3F5F0BD
:20110300E0C5F0F52885F029E5B04444F5B022120F801219D478FB126812E60886F05480C1
:20112300C5F05400C5F045F07003021135C20B021137D20B78FB126812E60886F0540FC57F
:20114300F05400C5F018F608A6F07430F51EE5B0F51778FB126812E6F5F0232325F024D076
:20116300F582747BF583E0FFA3E0FEA3E0C0E0A3E0F50EA3E0200B206010E51E4402F51EEB
:20118300E51754FBF5B0F517800EE51E4401F51EE51754BFF5B0F517EFC0E0E4C0E0EEC0E6
:2011A300E0E4C0E012106BE517F5B01581158115811581E50E601A7832438701D8FBE4C0E9
:2011C300E0E50EC0E0E4C0E012106B1581158115811581E517F5B0120F93D20B79217A00EA
:2011E300E7540870030211F7E5B04444F5B0E4F51E0211FD7407F51ED201C20B1219B02238
:2012030078FFE5904404F59000209202D8FA2278FB1268128606E59054EFF5907B08E50634
:2012230033F506E590400454F780024408F590004410F5900000000054EFF59000DBDF12B9
:2012430012032278FB1268128606E59054FDF590F5F0121203E5F04401F590E506C0E0C088
:20126300F0121212D0F0D0E0E5F04402F590227FFB7EFF1200F474017F021200D8F0E47FE3
:20128300031200D8F0740175F000C0E0C0F0120DB2158115817F041200D8F079207A00E7F0
:2012A300548070030212AFC2070212BF742075F000C0E0C0F012124615811581741875F0B5
:2012C30000C0E0C0F012124615811581E4C0E0C0E01212461581158178FB126812E60886F8
:2012E300F07F001200D8F0A3C5F0F0C5F07F001200D812699589828A83E075F0007B017CD7
:201303000012692170030213327F001200D8E0A3F5F0E0C5F01268E37F001200D8F0A3C5F0
:20132300F0F0C5F01268EC74017F031200D8F0E4C0E0C0E012124615811581741575F00036
:20134300C0E0C0F012124615811581E59054FDF590121203E59054FEF590E5904401F590A7
:2013630074E075F000C0E0C0F012121215811581E59054FEF590E4F52EE52E75F0007B09B0
:201383007C00126934600D7F001200D812699589828A83E0700302168E8024E52E052E7FBF
:2013A300001200D8E0A3F5F0E0C5F01268E37F001200D8F0A3C5F0F0C5F01268EC80BAE50B
:2013C3002E75F0007B027C001268C4F52D7F001200D812699589828A83E0F52BE52B5480A9
:2013E30070030215AEE5904401F590E52D44E075F000C0E0C0F012121215811581E52B54C2
:201403002070030214E7E4F52CE52C75F0007B047C0012693470030214D4800AE52C052CEB
:20142300E52D052D80E37F001200D8E0A3F5F0E0C5F01268E37F001200D8F0A3C5F0F0C5D9
:20144300F01268ECE52B544070030214B2E52B5410700302149074027F031200D8F07F0076
:201463001200D812699589828A83E044C075F000C0E0C0F012121215811581E52D44E075B1
:20148300F000C0E0C0F0121212158115817F001200D812699589828A83E0540F44B075F07A
:2014A30000C0E0C0F0121212158115810214D17F001200D812699589828A83E0540F44D0A8
:2014C30075F000C0E0C0F01212121581158102141FE52B544070030214E4E52DC39404F54A
:2014E3002D021593E52B54407003021531E52B540FF52CE52C75F0007B027C001268C4F57D
:201503002CE52C700302152274CF75F000C0E0C0F012121215811581E52C152C021504E533
:201523002E152E74027F031200D8F0021593E52B54107003021593E52B540F75F0007B04D3
:201543007C00126876F52DE52D44E075F000C0E0C0F0121212158115817F001200D8E0A3C1
:20156300F5F0E0C5F01268E37F001200D8F0A3C5F0F0C5F01268EC7F001200D812699589D3
:20158300828A83E0700302158F0213D0E52E152EE52D44E075F000C0E0C0F01212121581CE
:2015A3001581E59054FEF59002139EE52B75F0007B2E7C001269217003021634E52E600328
:2015C3000215CCE4F52D0215DDE52EC3940175F0007B047C00126876F52DE5904401F5900F
:2015E300E52D240244E075F000C0E0C0F01212121581158174B875F000C0E0C0F01212125E
:2016030015811581E52E75F0007B047C00126876F52DE52D44E075F000C0E0C0F0121212F5
:2016230015811581E59054FEF590E52E152E02139EE52B75F0007B617C0012694D600CE540
:201643002B75F0007B7A7C0012693B45F0700302165BE52B54DFF52BE52E75F0007B087CDB
:2016630000126921700302166F02168EE52B547FF52BE52B4480F52BE52B75F000C0E0C05F
:20168300F01212121581158102139EE5904402F5907F001200D812699589828A83E070031E
:2016A3000217BF78FB126812E60886F01268E318F608A6F01268EC78FB1268128601088669
:2016C3000289828A83E075F0007B2E7C0012692170030216EB18E60886F01268E318F60882
:2016E300A6F01268EC0216BA78FB126812860108860289828A83E060030217020218177FDD
:20170300021200D8E07003021714741EF52A0217187406F52A79217A00E754047003021700
:2017230032E52A75F0007B027C001268D2F52A152AE52A7003021769740175F000C0E0C01F
:20174300F0120DB21581158175F0007F041200D812698A7C0012692A700302176302181781
:20176300438701021732740175F000C0E0C0F0120DB21581158175F0007F041200D81269DC
:201783008A7C0012692A701E79217A00E7540412684445F06010740175F000C0E0C0F0121B
:2017A30039271581158145F070030217B5C20A021817E47F021200D8F00212DB7F03120065
:2017C300D8E075F0007B017C0012692170030217F2740775F000C0E0C0F0E4C0E0C0F0E48F
:2017E300C0E0C0E012181C7FFA12681E0218177F031200D8E075F0007B027C001269217068
:2018030003021817741A75F000C0E0C0F0121246158115817F050200F27FFE7EFF1200F440
:2018230078F7126812E60886F090195802684DE59054C0F590740A75F000C0E0C0F0120F2C
:201843005E15811581D292E5904420F590E59054FDF590121203E5904401F590744275F06D
:2018630000C0E0C0F012121215811581743075F000C0E0C0F012121215811581741575F00A
:2018830000C0E0C0F012121215811581742075F000C0E0C0F012121215811581741175F0FE
:2018A30000C0E0C0F012121215811581E5904402F590021964E4C0E0C0E01212461581157B
:2018C30081E5904401F590E59054FDF590121203E4F5F07F001200D8F0A3C5F0F0C5F07F35
:2018E300001200D8E0A3F5F0E0C5F07B207C00126901700302192F80207F001200D8E0A322
:20190300F5F0E0C5F01268E37F001200D8F0A3C5F0F0C5F01268EC80C674CF75F000C0E0A3
:20192300C0F0121212158115810218FCE5904402F590740175F000C0E0C0F0120F5E1581FD
:201943001581741A75F000C0E0C0F012124615811581021964B81807003218010000006410
:2019630019740175F000C0E0C0F0120F5E158115817F020200F2C28E78FB12681286030821
:201983008604749675F0981268911268F3C0E0E589540F4420F589D0E0F58DF58BC28BD217
:2019A3008E0000759840E5B04403F5B022C2AC907C1EE0A3F5F0E0C0F0C0E012197915813C
:2019C3001581E4F519F518E4F51BF51AD2ACD29C22E598540870030219E34387010219D45A
:2019E300C29CC2ACE4F598C28EE5894450F589E58954DFF5892278FB126812E60886F0F53E
:201A03002485F025A924AA2589828A83E07003021A68A924AA2589828A83E01268447B0AA3
:201A230012683B1269217003021A3E740D75F000C0E0C0F0121A6915811581A924AA258969
:201A4300828A83E0126844C0E0C0F0121A6915811581E5248525F01268E3F52485F0251280
:201A630068EC021A072278FB126812C001C002E6C0E0E51AF904B4FF027400B51B070000C6
:201A830000000080F6FAD0E0C083C0828982758370F08A1AD082D083209B02D299D002D028
:201AA3000122C0E0C0E0121A69D0E0D0E022E519B5180574FFF5F022F8C082C08388827563
:201AC3008370E0D083D08208B8FF027800881975F00022E518C3951975F0002222E51AC351
:071AE300951B75F0002222A3
:07002300C0D0C0E0021AEAA0
:201AEA00C00030981CA818C083C0827583708882E599C298F0D082D08308B8FF0278008853
:201B0A0018309909C299E51BB51A09C29BD000D0E0D0D032F8C083C0827583708882E0D050
:201B2A0082D083F59908B8FF027800881BD29B80DC23F42581F8126972126613126972C0B9
:201B4A0082C0831219F915811581222278FC1268128604188603188683188682E4FDFE12C5
:201B6A001AB1A9F0B9FF0A75C7AA75C755D2BF80EEB408028003B47F27ED4E60E21DBDFFCE
:201B8A00011E7408121AA57420121AA57408121AA58583F0E5821268EC85F083F58280BFAA
:201BAA00121AA5F024F3600EA30DBD00010EED8EF012690170A9740A121AA5E4F0ED8EF0CB
:201BCA0022222278F7126812E60886F0C0E0C0F0748675F07CC0E0C0F0120B64158115810E
:201BEA001581158178F9126812E60886F02404C5F03400C0F0C0E0748675F07CC0E0C0F0C2
:201C0A001205FD1581158115811581742875F077C0E0C0F0740E75F000C0E0C0F0120B64CE
:201C2A001581158115811581120960740975F000C0E0C0F0748275F07CC0E0C0F0120B64ED
:201C4A001581158115811581748675F07CC0E0C0F0748675F07CC0E0C0F01205FD1581150D
:201C6A00811581158178F9126812E60886F0240CC5F03400C0F0C0E0740E75F000C0E0C09C
:201C8A00F0120B641581158115811581120660748275F07CC0E0C0F0740E75F000C0E0C08B
:201CAA00F0120B641581158115811581120960740975F000C0E0C0F0748275F07CC0E0C06D
:201CCA00F0120B64158115811581158178F9126812E60886F02414C5F03400C0F0C0E074EB
:201CEA000075F07CC0E0C0F01200FF15811581158115817B017C0012692A7003021D937806
:201D0A00F9126812E60886F02414C5F03400C0F0C0E0740975F000C0E0C0F0120B64158116
:201D2A00158115811581748675F07CC0E0C0F0740E75F000C0E0C0F0120B641581158115B3
:201D4A00811581120660120660120660748275F07CC0E0C0F0740E75F000C0E0C0F0120B7F
:201D6A00641581158115811581120960740975F000C0E0C0F0748275F07CC0E0C0F0120BAC
:201D8A00641581158115811581748675F07CC0E0C0F078F7126812E60886F02408C5F034DE
:201DAA0000C0F0C0E01205FD1581158115811581740975F000C0E0C0F0747E75F07CC0E0B8
:201DCA00C0F0120B64158115811581158178FB126812E60886F0C0E0C0F0740075F07CC0A8
:201DEA00E0C0F01200FF15811581158115817B017C0012692A7003021E62747E75F07CC0BB
:201E0A00E0C0F0740975F000C0E0C0F0120B64158115811581158178FB126812E60886F0BA
:201E2A00C0E0C0F0740E75F000C0E0C0F0120B641581158115811581120660740975F000DE
:201E4A00C0E0C0F0747E75F07CC0E0C0F0120B641581158115811581748675F07CC0E0C0F1
:201E6A00F0748675F07CC0E0C0F01205FD158115811581158178F9126812E60886F024103C
:201E8A00C5F03400C0F0C0E0740E75F000C0E0C0F0120B6415811581158115811206607403
:201EAA000975F000C0E0C0F0747A75F07CC0E0C0F0120B64158115811581158178FB126875
:201ECA0012E60886F0C0E0C0F0740075F07CC0E0C0F01200FF15811581158115817B017C2C
:201EEA000012692A7003021F37747A75F07CC0E0C0F0740975F000C0E0C0F0120B64158100
:201F0A0015811581158178FB126812E60886F0C0E0C0F0740E75F000C0E0C0F0120B641575
:201F2A0081158115811581120660021F54747A75F07CC0E0C0F0740975F000C0E0C0F01204
:201F4A000B641581158115811581747E75F07CC0E0C0F0740E75F000C0E0C0F0120B6415C0
:201F6A008115811581158112096078F9126812E60886F02400C5F03400C0F0C0E0740E75E4
:201F8A00F000C0E0C0F0120B641581158115811581120960742C75F077C0E0C0F0740E75E0
:201FAA00F000C0E0C0F0120B641581158115811581120660748275F07CC0E0C0F0740E7568
:201FCA00F000C0E0C0F0120B6415811581158115811207C022E52F8530F02408C5F034070E
:201FEA00C5F0907ED9F0A3C5F0F0C5F022E52F8530F0907ED9F0A3C5F0F0C5F022E52F85E4
:20200A0030F0C39408C5F09407C5F0907ED912698E1269447003022036740275F000C0E03D
:20202A00C0F01211121581158112216D22E52F8530F0907ED912698EC39BC5F09CC5F0C3F3
:20204A00C5F013C5F0132278FB126812E60886F01268EC18F608A6F01268E345F070030248
:20206A0020A778F7126812E60886F01268E318F608A6F01268ECF9AAF008E60886F0126848
:20208A00E318F608A6F01268ECC001C002F9AAF089828A83E0D083D082F00220512278F998
:2020AA00126812E60886F05400C5F05480C5F045F0700302211F08E60886F05400C5F054E1
:2020CA0080C5F045F07003022110181818E60886F07BFF7C7F1269340856C5F00856C5F0F0
:2020EA0054FFC5F0547FC5F045F0700302210118E60886F002216C78F9126812E60886F00E
:20210A0002216C02211C78F9126812E60886F002216C02216C78FB126812E60886F05400B1
:20212A00C5F05480C5F045F0700302213F18E60886F002216C78FB126812E60886F01818AF
:20214A00188603088604126944700302216018E60886F002216C78FB126812E60886F0021D
:20216A00216C22740375F000C0E0C0F0E4C0E0C0F0E4C0E0C0E01212467FFA12681EE59032
:20218A0044404480F590E5B0547FF5B0438701E5B04480F5B0438701E5B0547FF5B0126741
:2021AA009275C7AA75C7557587022278FB126812860108860289828A83E0A3F5F0E0C5F0C1
:2021CA002278F9126812860108860208E60886F089828A83F0A3C5F0F0C5F022E4F5F02241
:2021EA007FFE7EFF1200F478FB126812E60886F07BFF7CFF126921700302221A78F7126847
:20220A0012E60886F00826C5F00836C5F002233A78F9126812E60886F07B007C0012690135
:20222A00700302224A18E60886F07BFF7CFF1268767F001200D8F0A3C5F0F0C5F002225F79
:20224A0078F9126812E60886F07F001200D8F0A3C5F0F0C5F078FB126812E60886F05440C6
:20226A00C5F05400C5F045F070030222AE78F7126812E60886F07B897C0112694470030208
:20228A0022AB7F001200D8E0A3F5F0E0C5F07B047C001268767F001200D8F0A3C5F0F0C5B0
:2022AA00F00222E278F7126812E60886F07BBC7C0212694D70030222E27F001200D8E0A3DD
:2022CA00F5F0E0C5F07B0A7C001268767F001200D8F0A3C5F0F0C5F078F9126812E60886C2
:2022EA00F07B007C001269017003022315181818E60886F07F001200D812698EC39BC5F093
:20230A009CC5F018F608A6F002233178F7126812E60886F07F001200D812698E2BC5F03C73
:20232A00C5F018F608A6F078F7126812E60886F07F020200F27FFA7EFF1200F4E52F853099
:20234A00F07F001200D8F0A3C5F0F0C5F07F021200D8F0A3C5F0F0C5F0907EECE0A3F5F073
:20236A00E0C5F07BFF7CFF12692170030223B7749875F07EC0E0C0F0742075F07CC0E0C0CA
:20238A00F0907EE6E0A3F5F0E0C0F0C0E0740375F0001267817FFA12681E749875F07EC021
:2023AA00E0C0F0121272158115810223E3907EE6E0A3F5F0E0C0F0C0E0907EEFE0A3F5F0C8
:2023CA00E0C0F0C0E0907EECE0A3F5F0E0C0F0C0E0122D6C7FFA12681E79217A00E7540125
:2023EA006007740275F0008005740575F000C0E0C0F0120DB215811581F53160030225072A
:20240A001261F945F07003022417121FF7438701907EEEE075F00045F0601BE52F8530F0C4
:20242A007F021200D812698EC39BC5F09CC5F07B057C0012694445F070030224F074017557
:20244A00F000C0E0C0F01239271581158145F070030224DF740175F000C0E0C0F0123B7AF6
:20246A0015811581F52485F025E5248525F07B007C8012692A601EE5248525F0907EE8128B
:20248A00698E12694D600EE5248525F0907EEA12698E12693445F070030224CCE524852565
:2024AA00F0907EE6F0A3C5F0F0C5F0121FF7E52F8530F07F021200D8F0A3C5F0F0C5F00206
:2024CA002363748775F000C0E0C0F012111215811581022363E52F8530F07F021200D8F0BF
:2024EA00A3C5F0F0C5F0122007E52F8530F07F001200D8F0A3C5F0F0C5F00223E3121FF75D
:20250A00E52F8530F07F001200D812698EC39BC5F09CC5F07B1E7C00126944700302253E76
:20252A00746475F0007F041200D8F0A3C5F0F0C5F0022583E52F8530F07F001200D81269B3
:20254A008EC39BC5F09CC5F07B0F7C001269447003022572740A75F0007F041200D8F0A3CB
:20256A00C5F0F0C5F0022583740175F0007F041200D8F0A3C5F0F0C5F0E53112684490278E
:20258A003602684D907EE6E0A3F5F0E0C5F0022751907EEAE0A3F5F0E0C5F07F041200D877
:2025AA0012698EC39BC5F09CC5F0907EE612698E12693470030225E9907EEAE0A3F5F0E035
:2025CA00C5F0907EE6F0A3C5F0F0C5F0740375F000C0E0C0F01211121581158102274E90C7
:2025EA007EE6E0A3F5F0E0C0F0C0E07F041200D8E0A3F5F0E0C0F0C0E0907EECE0A3F5F06E
:20260A00E0C0F0C0E01221EA7FFA12681E907EE6F0A3C5F0F0C5F002274E907EE8E0A3F58C
:20262A00F0E0C5F07F041200D812698E2BC5F03CC5F0907EE612698E1269447021907EE881
:20264A00E0A3F5F0E0C5F07F041200D812698E2BC5F03CC5F0907EEA12698E12694445F037
:20266A007003022696740375F000C0E0C0F012111215811581907EE8E0A3F5F0E0C5F0900F
:20268A007EE6F0A3C5F0F0C5F002274E907EE6E0A3F5F0E0C0F0C0E07F041200D8E0A3F5F7
:2026AA00F0E0C5F01268F3C0E0C0F0907EECE0A3F5F0E0C0F0C0E01221EA7FFA12681E907E
:2026CA007EE6F0A3C5F0F0C5F002274EE475F080022751907EE6E0A3F5F0E0C5F0907EE8FE
:2026EA0012698E126921700302270C907EEAE0A3F5F0E0C5F0907EE6F0A3C5F0F0C5F002AB
:20270A002720907EE8E0A3F5F0E0C5F0907EE6F0A3C5F0F0C5F002274E740375F000C0E0A1
:20272A00C0F012111215811581022363DD26FAFFD626FBFF2426FFFF9B25FEFF8E25FCFF51
:20274A00000023270223637F060200F27FFE7EFF1200F478F91268128601088602742089F3
:20276A00828A83F0E4F5F07F001200D8F0A3C5F0F0C5F0181818E60886F07B007C80126913
:20278A002170030227A308E60886F01268E318F608A6F01268EC02287578F7126812E6086C
:2027AA0086F05400C5F05480C5F045F070030227DC088601088602742D89828A83F0181862
:2027CA0018E60886F054FFC5F0547FC5F018F608A6F078F9126812E60886F01268E318F66B
:2027EA0008A6F01268EC181818E60886F07B647C00126891F52485F02518E60886F07B64AB
:20280A007C0012688AF52B79087A7289828A83E0A3F5F0E0C5F05408C5F05400C5F045F03D
:20282A00601078F7126812E60886F07BE07C2E12694445F0702E79087A7289828A83E0A320
:20284A00F5F0E0C5F05408C5F05400C5F01268FD45F0601078F7126812E60886F07B147C54
:20286A001E12694445F070030228B77F001200D8E0A3F5F0E0C5F01268E37F001200D8F0CC
:20288A00A3C5F0F0C5F01268EC78F9126812E60886F0C0E0C0F0742375F07CC0E0C0F01240
:2028AA0067A51581158115811581022BE378FB126812E60886F05460C5F05400C5F045F090
:2028CA006003022A8BE5248525F07B077C00126934700302298178F9126812E60886F0C044
:2028EA00E0C0F0742775F07CC0E0C0F0E5248525F0C0E0C0F0740375F0001267817FFA121E
:20290A00681EE52B75F0007B0A7C00126934700302294F78F9126812E60886F02402C5F0D9
:20292A003400C0F0C0E0742B75F07CC0E0C0F0E52B75F000C0E0C0F074031267817FFA1278
:20294A00681E02297E78F9126812E60886F02402C5F03400C0F0C0E0742F75F07CC0E0C09A
:20296A00F0E52B75F000C0E0C0F074031267817FFA12681E022A88E5248525F07B637C0065
:20298A0012694470030229C178F9126812E60886F0C0E0C0F0743275F07CC0E0C0F0E5247E
:2029AA008525F0C0E0C0F0740375F0001267817FFA12681E022A88E52B75F0007B0A7C0012
:2029CA00126891F52AE52B75F0007B0A7C0012688A7B057C0012694D70030229EBE52A05E8
:2029EA002AE52A75F0007B097C001269447003022A0FE5248525F01268E3F52485F02512FD
:202A0A0068ECE4F52A78F9126812E60886F0C0E0C0F0743575F07CC0E0C0F0E5248525F027
:202A2A007B0A7C001269346007743B75F07C8005743D75F07CC0E0C0F0E5248525F0C0E03B
:202A4A00C0F0740475F0001267817FF812681E78F9126812E60886F02403C5F03400C0F0B5
:202A6A00C0E0743E75F07CC0E0C0F0E52A75F000C0E0C0F074031267817FFA12681E022B56
:202A8A00E378FB126812E60886F05440C5F05400C5F045F07003022BE378F7126812E608F3
:202AAA0086F0C0E0C0F012044D15811581743875F077C0E0C0F0740975F000C0E0C0F0129B
:202ACA000B641581158115811581120660740975F000C0E0C0F012022F1581158178F7128B
:202AEA006812F608A6F018E60886F07B0A7C00126891F52485F02518E60886F07B0A7C0006
:202B0A0012688AF52BE5248525F07B647C001269347003022B27E52BF52A022A0FE524851B
:202B2A0025F07BE77C031269447003022BB7E5248525F07BB87C0B126944705379087A7233
:202B4A0089828A83E0A3F5F0E0C5F05408C5F05400C5F01268FD45F0600CE5248525F07B06
:202B6A009E7C0712694445F0702578F9126812E60886F0C39401C5F09400C5F0F9AAF089CE
:202B8A00828A83E01268447B2D12683B12692145F07003022BA302287578F9126812E60803
:202BAA0086F01268EC18F608A6F01268E378F9126812E60886F0C0E0C0F0744175F07CC01F
:202BCA00E0C0F0E5248525F0C0E0C0F0740375F0001267817FFA12681E7F001200D8E0A395
:202BEA00F5F0E0C5F07F020200F278F9126812E60886F054FFC5F05400C5F045F0700302C0
:202C0A002D6B18E60886F07B087C001268D2F52B18E60886F054FFC5F05400C5F0F52CE598
:202C2A009054FDF590121203E5904401F59078FB126812E67003022C4A74E1F52E022C4EFA
:202C4A0074E2F52EE4F52AE52A75F0007B087C001269347003022D40800CE52A052AE52E0D
:202C6A002404F52E80E1740175F000AB2A7C001268C4F52DE52D552C7003022D3DE52E7519
:202C8A00F000C0E0C0F01212121581158178FB126812E67003022CF174B175F000C0E0C027
:202CAA00F012121215811581E52E75F000C0E0C0F012121215811581E52D552B7003022C5B
:202CCA00DE74C175F000C0E0C0F012121215811581022CEE748E75F000C0E0C0F0121212B7
:202CEA0015811581022D3D74B875F000C0E0C0F012121215811581E52E75F000C0E0C0F027
:202D0A0012121215811581E52D552B7003022D2D74C875F000C0E0C0F01212121581158193
:202D2A00022D3D748775F000C0E0C0F012121215811581022C64121203E59054FEF59012F4
:202D4A001203E5904402F590E52B54FF7003022D6B741A75F000C0E0C0F01212461581154C
:202D6A0081227FDE7EFF1200F478F7126812E60886F0C0E0C0F07F001200E6E98AF0C0E09D
:202D8A00C0F0080808E60886F0C0E0C0F01227567FFA12681E7F201200D8F0A3C5F0F0C587
:202DAA00F078F9126812E60886F045F06003022DC5744475F07C18F608A6F0749875F07EF8
:202DCA00C0E0C0F0744975F07CC0E0C0F078F5126812E60886F0C0E0C0F07F001200E6E99E
:202DEA008AF0C0E0C0F0740475F0001267817FF812681E749875F07EC0E0C0F0121272152F
:202E0A0081158178FB126812E60886F0F52885F02979207A00E754026003022E42E5B05465
:202E2A00046003022E42E5288529F04410C5F04410C5F0F52885F02978F7126812E60886C8
:202E4A00F07B007C801269217003022E6CE5288529F054F7C5F054F7C5F0F52885F02902EE
:202E6A002EEE79207A00E754017003022EC8E5288529F05400C5F05408C5F045F070030203
:202E8A002EB3E5288529F04408C5F04400C5F0F52885F029E5288529F054FFC5F054F7C524
:202EAA00F0F52885F029022EC5E5288529F054F7C5F054FFC5F0F52885F029022EEEE528CF
:202ECA008529F05408C5F05400C5F045F07003022EEEE5288529F054FFC5F054F7C5F0F5C2
:202EEA002885F029E5288529F0C0E0C0F0740175F000C0E0C0F0122BF415811581158115D5
:202F0A008178F7126812E60886F07B007C8012692A7003022F3F907EE2E0A3F5F0E0C0F0E0
:202F2A00C0E0E4C0E0C0E0122BF41581158115811581022F63907EE2E0A3F5F0E0C5F05465
:202F4A00F3C5F054F3C0F0C0E0E4C0E0C0E0122BF415811581158115817F201200D8E0A36F
:202F6A00F5F0E0C5F07F220200F278F9126812E6F5060808E6F50308E6F50485033C850438
:202F8A003D7824438701D8FBE53C54DFF53C4387017D04438701DDFBDEF7E53C4428F53CA9
:202FAA00F5A04387012278F9126812E60886F045F06003022FC6E4F5F00232E51219D4E4D0
:202FCA00F52AE52A75F0007B047C0012693470030230218006E52A052A80E7740175F000DF
:202FEA00AB2A7C001268C478FB12681256C5F0E4C5F045F0700302301EE52A75F000C33333
:20300A00C5F033C5F079327A0012683474FFF5F0F709A7F0022FDF740875F00079327A0031
:20302A00126834E4F5F0F709A7F0120F80C28EE5A0440FF5A0E590547FF590742FF53C7405
:20304A00F0F53D780A438701D8FBD20E741775F002F51C85F01DE5B04408F5B078F912683E
:20306A0012E60886F0F52685F027E5B04420F5B0E5268527F045F07003023259E4F52BE5B6
:20308A002B75F0007B047C0012693470030232468006E52B052B80E7E5268527F078F912A8
:2030AA006812860308860412692A600CE52B75F0007B017C0012692A45F070030230CC02A6
:2030CA00309C740175F000AB2B7C001268C478FB12681256C5F0E4C5F045F060030230ED56
:2030EA0002309CE5B054EFF5B0E52B75F00090313802684D742F75F0F0F52885F029023170
:20310A004C742775F0F0F52885F02902314C743775F078F52885F02902314C742775F078F5
:20312A00F52885F029E5B04410F5B002314C25310300183102000B310100FE3000000000AE
:20314A004C31E4F58DE4F58BE5B054F7F5B0D28E741A75F000C0E0C0F0E5288529F0C0E0AB
:20316A00C0F0122F741581158115811581C28EE580547F75F000F52485F025E5B05420706F
:20318A00030231A0E5248525F04480C5F04400C5F0F52485F025E5B04408F5B0E58B75F02C
:2031AA00007B087C001268C44524C5F04525C5F0F52485F025E52B75F000C333C5F033C5C0
:2031CA00F079327A00126834E5248525F087030987041269347003023200E52B75F000C3D3
:2031EA0033C5F033C5F079327A00126834E5248525F0F709A7F0E52B75F0007B017C001269
:20320A0069216019740875F00079327A00126834E5248525F0870309870412694445F070C8
:20322A0003023243740875F00079327A00126834E5248525F0F709A7F002309CE526852797
:20324A00F01268ECF52685F0271268E302307AE5B054F7F5B0C20EE59044404480F590C2F5
:20326A008EE5A04420440FF5A0120F931219B078FB126812E6540170030232B9E4F5F0797A
:20328A00327A00126834C001C00279647A72D007D000C000C007E60886F089828A83126959
:2032AA008E2BC5F03CC5F0D007D000F608A6F0740875F00079327A00126834C001C00274BF
:2032CA000275F00079327A00126834D007D000E60886F0C397C5F00997C5F022744C75F0F4
:2032EA0072C0E0C0F0740975F000C0E0C0F0120B641581158115811581740475F00079326F
:20330A007A00126834E70987F0C0E0C0F012044D158115811207C0E4F5F079327A001268F4
:20332A0034C001C002740275F00079327A00126834D007D000E60886F0C397C5F00997C0A4
:20334A00F0C0E012044D15811581120660120AA7120B51745475F072C0E0C0F0740975F0CA
:20336A0000C0E0C0F0120B6415811581158115811208D4745075F072C0E0C0F0740E75F05A
:20338A0000C0E0C0F0120B6415811581158115811207C0E4F50D746075F072C0E0C0F074CC
:2033AA000E75F000C0E0C0F0120B641581158115811581120660120B51745C75F072C0E03A
:2033CA00C0F0740975F000C0E0C0F0120B6415811581158115811208D4745875F072C0E0F7
:2033EA00C0F0740E75F000C0E0C0F0120B641581158115811581120660120B51740475F040
:20340A0073C0E0C0F0740975F000C0E0C0F0120B6415811581158115811207C0742875F0FA
:20342A0077C0E0C0F0740E75F000C0E0C0F0120B641581158115811581120960120B2312DE
:20344A000660120B51745475F072C0E0C0F0740975F000C0E0C0F0120B641581158115812A
:20346A0015811208D4745075F072C0E0C0F0740E75F000C0E0C0F0120B6415811581158159
:20348A0015811207C0E50D6006E475F0808003E4F5F0F52685F027E4F50D740975F000C007
:2034AA00E0C0F0743075F072C0E0C0F0740875F073C0E0C0F0121BCD7FFA12681E74097506
:2034CA00F000C0E0C0F012022F15811581F52485F025E5248525F045F060030234F0E4F546
:2034EA00F0F52685F027E5248525F04526C5F04527C5F022C20D79087A7289828A83E0A33E
:20350A00F5F0E0C5F05401C5F05400C5F045F0601178FB126812E61268447B0212683B1287
:20352A00692A45F07003023539E4F5F002376A907C8AE0A3F5F0E0C5F045F0600302354DBB
:20354A0002360C740375F000C0E0C0F07402C0E0C0F0122FB01581158115811581E4F5F019
:20356A0079327A00126834C001C002740275F00079327A00126834D007D000E60886F0C36F
:20358A0097C5F00997C5F0F52485F02579167A72C0E0C0F0D0F0D0E089828A8312698E125F
:2035AA00694470030235C678FB126812E660030235BED20DE5248525F002376A79147A7209
:2035CA00E5248525F089828A8312698E126934602A907C8AE0A3F5F0E0C5F01268FD45F0A5
:2035EA007019E52F8530F0907C8A12698EC39BC5F09CC5F07B2C7C0112694445F0700302EF
:20360A003767740375F000C0E0C0F0740FC0E0C0F0122FB01581158115811581E4F5F07978
:20362A00327A00126834C001C002740275F00079327A00126834D007D000E60886F0C39790
:20364A00C5F00997C5F0F52485F02579167A72C0E0C0F0D0F0D0E089828A8312698E1269CC
:20366A0044700302368578FB126812E6600302367DD20DE5248525F002376A79147A72E54C
:20368A00248525F089828A8312698E12694470030236A3E4F5F002376AE4F5F079327A00DA
:2036AA00126834E70987F0C0E0C0F012044D15811581120B57740675F00079327A0012681A
:2036CA0034E70987F0C0E0C0F012044D158115811208D4744C75F072C0E0C0F0740E75F0AA
:2036EA0000C0E0C0F0120B641581158115811581120660740475F00079327A00126834E788
:20370A000987F0C0E0C0F012044D158115811207C0745875F072C0E0C0F0740E75F000C0CD
:20372A00E0C0F0120B6415811581158115811208D4740975F000C0E0C0F0740475F073C0E6
:20374A00E0C0F0120B641581158115811581E52F8530F0907C8AF0A3C5F0F0C5F0E4F5F0F1
:20376A002279217A00E754206003023791740375F000C0E0C0F07402C0E0C0F0122FB01589
:20378A0081158115811581C20DE4F5F079327A00126834C001C002740275F00079327A00EE
:2037AA00126834D007D000E60886F0C397C5F00997C5F079167A72C0E0C0F0D0F0D0E0891E
:2037CA00828A8312698E12693470030237DFE475F08002384D1232E6F52485F025E5248552
:2037EA0025F07B007C8012692170030237FFE475F08002384D740875F00079327A0012681C
:20380A0034C001C002740275F00079327A00126834D007D000E60886F0C397C5F00997C5BA
:20382A00F079667A72C0E0C0F0D0F0D0E089828A8312698E12693B7003023848D206E52456
:20384A008525F022E4F5F0907C8AF0A3C5F0F0C5F0E4F5F0907C8CF0A3C5F0F0C5F0740193
:20386A0075F000C0E0C0F01239271581158145F06003023882023926740175F000C0E0C0FC
:20388A00F012392715811581F52485F02545F0601E907C8CE0A3F5F0E0C5F01268FD45F0E9
:2038AA00600D907C8AE0A3F5F0E0C5F01268FD45F070030238ED740D75F077C0E0C0F012F9
:2038CA00127215811581740375F000C0E0C0F0121112158115817814438701D8FB1220073E
:2038EA00023882121FF7E475F080C0E0C0F0E4C0E0C0E079147A7389828A83E0A3F5F0E0C3
:20390A00C0F0C0E0122D6C7FFA12681E740475F000C0E0C0F0121112158115812278FB125C
:20392A006812E6126844C0E0C0F01234FE15811581F52485F02545F07003023951D200E501
:20394A00248525F0023954E4F5F0227FFE7EFF1200F4E5288529F07F001200D8F0A3C5F0C9
:20396A00F0C5F078FB126812E60886F07B007C80126921700302399F7F001200D8E0A3F5F4
:20398A00F0E0C5F0F52885F02978FB126812E60886F0023B75E5288529F07F001200D8F0C4
:2039AA00A3C5F0F0C5F078FB126812E60886F0F52885F029E5288529F054FFC5F0547FC597
:2039CA00F0F52485F02579207A00E754017003023A1479147A7389828A83E0A3F5F0E0C589
:2039EA00F05400C5F05408C5F045F060030239FD023982791A7A7389828A83E0A3F5F0E046
:203A0A00C5F0F52685F027023A4979147A7389828A83E0A3F5F0E0C5F05408C5F05400C5F2
:203A2A00F045F06003023A3502398279187A7389828A83E0A3F5F0E0C5F0F52685F027E498
:203A4A00F52AE5268527F05400C5F05480C5F045F07003023A64E52A052AE5268527F05483
:203A6A00FFC5F0547FC5F0F52685F027E5288529F05400C5F05480C5F045F07003023AF335
:203A8A00E52A7003023AD6E5268527F0AB24AC2512694D7003023AB8E5268527F0C39524EF
:203AAA00C5F09525C5F0F52885F029023AD3E5248525F0C39526C5F09527C5F04400C5F0CE
:203ACA004480C5F0F52885F029023AF0E5248525F02526C5F03527C5F04400C5F04480C546
:203AEA00F0F52885F029023B51E52A7003023B0FE5248525F02526C5F03527C5F0F528855F
:203B0A00F029023B51E5268527F0AB24AC251269447003023B3EE5268527F0C39524C5F028
:203B2A009525C5F04400C5F04480C5F0F52885F029023B51E5248525F0C39526C5F09527BF
:203B4A00C5F0F52885F029E5288529F078FB126812F608A6F07F001200D8E0A3F5F0E0C537
:203B6A00F0F52885F02918E60886F07F020200F2E4907EF9F078FB126812E6540170030215
:203B8A003BB3E4F5F0907EF5F0A3C5F0F0C5F0E654047003023BB0741975F077907EF5F07A
:203BAA00A3C5F0F0C5F0023BDD79147A7389828A83E0A3F5F0E0C5F04400C5F04402C0F066
:203BCA00C0E0120D0C15811581907EF5F0A3C5F0F0C5F0C20974FF75F07F907EF3F0A3C579
:203BEA00F0F0C5F0121FF7C206907EE2E0A3F5F0E0C5F054F3C5F054F3C5F0907EE2F0A3CE
:203C0A00C5F0F0C5F012376BF52685F027907EE2E0A3F5F0E0C5F04408C5F04400C5F0905E
:203C2A007EE2F0A3C5F0F0C5F079147A7389828A83E0A3F5F0E0C5F04400C5F04402C5F0AA
:203C4A00F52885F02978FB126812E654026003023CBCE5268527F0C0E0C0F01239551581DA
:203C6A001581F52685F02779087A7289828A83E0A3F5F0E0C5F05404C5F05400C5F045F020
:203C8A006003023CB9E5268527F07B007C8012692A600DE5268527F05400C5F05480C5F057
:203CAA0045F07003023CB9E4F5F0F52685F027023CCEE5288529F054F8C5F054FFC5F0F526
:203CCA002885F029E5288529F05404C5F05400C5F045F06010E5268527F0C0E0C0F0122184
:203CEA00E6158115817003023D09E5288529F04400C5F04404C5F0F52885F029023D1BE552
:203D0A00288529F054FFC5F054FBC5F0F52885F029D207E5268527F07B007C801269217009
:203D2A0026E5268527F0C0E0C0F0907EF5E0A3F5F0E0C0F0C0E0E5288529F0C0E0C0F012B4
:203D4A002D6C7FFA12681E45F07003023D7F907EF3E0A3F5F0E0C5F07BFF7C7F12692170CA
:203D6A0003023D7CE475F080907EF3F0A3C5F0F0C5F0023DF379207A00E754407003023D52
:203D8A00EDE5268527F0C0E0C0F0907EF3E0A3F5F0E0C0F0C0E01220A815811581158115EB
:203DAA0081907EF3F0A3C5F0F0C5F079217A00E754026003023DED748475F000C0E0C0F0FD
:203DCA0012111215811581D20978FB126812E654017003023DED907EF3E0A3F5F0E0C5F0C6
:203DEA000240C6122007023BF1121FF779147A7389828A83E0A3F5F0E0C5F0907EE4F0A30E
:203E0A00C5F0F0C5F0907EE4E0A3F5F0E0C0F0C0E0120D0C15811581907EF5F0A3C5F0F022
:203E2A00C5F079217A00E7540212684445F06011907EF3E0A3F5F0E0C5F07B007C8012691E
:203E4A002A45F0700302401E79147A7389828A83E0A3F5F0E0C5F05402C5F05400C5F0453E
:203E6A00F0700302401B907EF3E0A3F5F0E0C5F054FFC5F0547FC0F0C0E012044D15811541
:203E8A0081907EF3E0A3F5F0E0C5F05400C5F05480C5F045F07003023EA874FFF512741C6D
:203EAA0075F073C0E0C0F0740975F000C0E0C0F0120B6415811581158115811209607409CD
:203ECA0075F000C0E0C0F0741C75F073C0E0C0F0120B64158115811581158179207A738983
:203EEA00828A83E0A3F5F0E0C5F01268E389828A83F0A3C5F0F0C5F079227A73C0E0C0F0F2
:203F0A00D0F0D0E089828A8312698E1269217003023FFF79227A7389828A83E0A3F5F0E0CF
:203F2A00C0F0C0E012044D158115811207C0740975F000C0E0C0F012022F15811581907E10
:203F4A00F3F0A3C5F0F0C5F0740075F07CC0E0C0F0741C75F073C0E0C0F0120B64158115EE
:203F6A00811581158179207A73E4F5F089828A83F0A3C5F0F0C5F0907EF3E0A3F5F0E0C02D
:203F8A00F0C0E01221E615811581F52A7003023FD9E52A75F0007B017C0012692170030219
:203FAA003FBF748075F000C0E0C0F012111215811581023FCF748375F000C0E0C0F0121110
:203FCA0012158115817802438701D8FB023FE9748475F000C0E0C0F01211121581158178D1
:203FEA0001438701D8FBE4C0E0C0E01211121581158102401B907EE4E0A3F5F0E0C5F04403
:20400A0000C5F04402C5F0907EE4F0A3C5F0F0C5F002407479147A7389828A83E0A3F5F057
:20402A00E0C5F05402C5F05400C5F045F07003024058907EE4E0A3F5F0E0C5F04400C5F0A3
:20404A004402C5F0907EE4F0A3C5F0F0C5F0907EE4E0A3F5F0E0C5F04400C5F04404C5F097
:20406A00907EE4F0A3C5F0F0C5F0907EF3E0A3F5F0E0C0F0C0E0907EF5E0A3F5F0E0C0F0C3
:20408A00C0E0907EE4E0A3F5F0E0C0F0C0E0122D6C7FFA12681E79217A00E754026003027A
:2040AA0040BC748775F000C0E0C0F012111215811581907EF3E0A3F5F0E0C5F02278FB1244
:2040CA006812E60886F0F52485F025E5248525F054FFC5F0547FC0F0C0E012044D15811569
:2040EA0081E5248525F05400C5F05480C5F045F0700302410674FFF512024109E4F512223C
:20410A007FFB7EFF1200F4E47F001200D8F0740075F07CC0E0C0F0741075F073C0E0C0F00A
:20412A00120B641581158115811581748775F0767F031200D8F0A3C5F0F0C5F0121FF7D273
:20414A000A7F031200D8E0A3F5F0E0C0F0C0E012127215811581E4C0E0C0E0121112158196
:20416A001581E52F8530F07F011200D8F0A3C5F0F0C5F0740175F000C0E0C0F0120DB2157F
:20418A00811581F5311268441268FD45F0601BE52F8530F07F011200D812698EC39BC5F0B4
:2041AA009CC5F07B0A7C0012693445F070030241DE438701740175F000C0E0C0F0123927C4
:2041CA001581158145F070030241D80241DE12200702417DE5317003024296E4C0E0C0E045
:2041EA00120DB215811581F531121FF7E5311268447BFC12683B126921700302422E7F006A
:20420A001200D8E0547F6003024228740375F000C0E0C0F0121112158115810241350243DE
:20422A00FA024283E5311268447BFB12683B12692170030242837F001200D8E070030242DE
:20424A006D79147A7389828A83E0A3F5F0E0C5F054FFC5F054F7C5F089828A83F0A3C5F0F0
:20426A00F0C5F0740675F000C0E0C0F012111215811581E4F5F00247C5740375F000C0E0AC
:20428A00C0F012111215811581024135E52F8530F07F011200D812698EC39BC5F09CC5F0FB
:2042AA007B0A7C0012694D70030242B90241497F001200D8E0600302432779207A00E754C9
:2042CA000170030242F0740075F07CC0E0C0F0740875F073C0E0C0F0120B64158115811521
:2042EA0081158102430D740075F07CC0E0C0F0740C75F073C0E0C0F0120B6415811581153C
:20430A0081158179207A00E7540170030243277F001200D8E044807F001200D8F0121FF7C0
:20432A00740775F000C0E0C0F0123B7A15811581F52485F025E5248525F07B007C80126908
:20434A00217003024353024149E5248525F05400C5F05480C5F045F0700302436E7401F5A1
:20436A002A024371E4F52AE5248525F054FFC5F0547FC0F0C0E012044D15811581741075FA
:20438A00F073C0E0C0F0740975F000C0E0C0F0120B641581158115811581E52A700302438E
:2043AA00B11208D40243B4120960740975F000C0E0C0F0741075F073C0E0C0F0120B64156C
:2043CA00811581158115817F001200D8E0047F001200D8F0147828438701D8FB749175F02E
:2043EA00767F031200D8F0A3C5F0F0C5F00241497F001200D8E0547F126844C0E0C0F0121C
:20440A00044D15811581741075F073C0E0C0F0740975F000C0E0C0F0120B64158115811575
:20442A008115811207C079207A00E754017003024484791A7A73C001C002740975F000C051
:20444A00E0C0F012022F15811581D083D082F0A3C5F0F0C5F079147A7389828A83E0A3F5B7
:20446A00F0E0C5F04400C5F04408C5F089828A83F0A3C5F0F0C5F00244C979187A73C00160
:20448A00C002740975F000C0E0C0F012022F15811581D083D082F0A3C5F0F0C5F079147A16
:2044AA007389828A83E0A3F5F0E0C5F04408C5F04400C5F089828A83F0A3C5F0F0C5F078F3
:2044CA00FB126812E61268447B0212683B12692A70030244E7740175F0000247C5749A75C5
:2044EA00F0767F031200D8F0A3C5F0F0C5F0121FF77F031200D8E0A3F5F0E0C0F0C0E012B5
:20450A00127215811581E4C0E0C0E012111215811581E52F8530F07F011200D8F0A3C5F0F1
:20452A00F0C5F0740175F000C0E0C0F0120DB215811581F5311268441268FD45F0601BE5B5
:20454A002F8530F07F011200D812698EC39BC5F09CC5F07B0A7C0012693445F07003024507
:20456A008E438701740175F000C0E0C0F01239271581158145F0700302458802458E122092
:20458A000702452DE53170030245C0121FF7E5311268447BFB12683B12692170030245ADDC
:2045AA00024240740375F000C0E0C0F0121112158115810244FBE52F8530F07F011200D87C
:2045CA0012698EC39BC5F09CC5F07B0A7C0012694D70030245E30244FB121FF7740575F0B7
:2045EA0000C0E0C0F0123B7A15811581F52485F025E5248525F07B007C8012692170030290
:20460A00460F0244FBE5248525F07F011200D8F0A3C5F0F0C5F0E5248525F0907EE6F0A3D6
:20462A00C5F0F0C5F0E4F5F0907EE8F0A3C5F0F0C5F0741475F01E907EEAF0A3C5F0F0C56A
:20464A00F079147A7389828A83E0A3F5F0E0C5F054F2C5F054FFC5F0907EECF0A3C5F0F09C
:20466A00C5F0E4907EEEF074A375F076907EEFF0A3C5F0F0C5F012233FF52685F027E52699
:20468A008527F07B007C80126921700302469C024240E5268527F0C0E0C0F012044D158196
:2046AA001581740E75F000C0E0C0F0740975F000C0E0C0F0120B6415811581158115817F99
:2046CA00011200D8E0A3F5F0E0C0F0C0E012044D158115811207C079207A00E75401700323
:2046EA00024758740975F000C0E0C0F0740875F073C0E0C0F0120B64158115811581158160
:20470A00791A7A7389828A83E0A3F5F0E0C0F0C0E01240C715811581120660740975F000C0
:20472A00C0E0C0F012022F15811581F52685F02745F07003024755791A7A73E5268527F08C
:20474A0089828A83F0A3C5F0F0C5F00247C0740975F000C0E0C0F0740C75F073C0E0C0F067
:20476A00120B64158115811581158179187A7389828A83E0A3F5F0E0C0F0C0E01240C715FA
:20478A00811581120660740975F000C0E0C0F012022F15811581F52685F02745F07003027E
:2047AA0047C079187A73E5268527F089828A83F0A3C5F0F0C5F0740175F0007F050200F26C
:2047CA0078FB126812E60886F02402C5F03400C0F0C0E01267D31581158178FB1268122670
:2047EA00C5F00836C5F02403C5F03400C5F0F52885F029E5288529F0227FFE7EFF1200F4BA
:20480A0078F9126812E60886F0088603088604126921700302487978F91268128601088626
:20482A000289828A83E0A3F5F0E0C5F045F0700302486A18E60886F07F001200D8F0A3C5BE
:20484A00F0F0C5F018E60886F0C0E0C0F01247CA1581158178F9126812F608A6F0024821A2
:20486A007F001200D8E0A3F5F0E0C5F00248ED78FB126812E60886F07F001200D8F0A3C56D
:20488A00F0F0C5F07F001200D8E0A3F5F0E0C0F0C0E01247CA158115817F001200D8F0A32D
:2048AA00C5F0F0C5F07F001200D8E0A3F5F0E0C5F078F91268128603088604126921700307
:2048CA000248D508E60886F00248ED7F001200D8E0A3F5F0E0C5F078FB126812F608A6F013
:2048EA000248797F020200F278FB126812E60886F0C0E0C0F012127215811581E52F853038
:20490A00F0241EC5F03400C5F0F52885F02979217A00E754016007740275F0008005740572
:20492A0075F000C0E0C0F0120DB215811581F53160030249B31261F945F07003024996122D
:20494A001FDF907EE2E0A3F5F0E0C5F04401C5F04400C5F0907EE2F0A3C5F0F0C5F0907E84
:20496A00E2E0A3F5F0E0C0F0C0E0E4C0E0C0E0122BF41581158115811581E52F8530F02429
:20498A001EC5F03400C5F0F52885F029122007438701E52F8530F0AB28AC2912694D7003F6
:2049AA000249B00249B3024918E5311268447B0012683B12692A70030249EC907EE2E0A3CB
:2049CA00F5F0E0C5F054FEC5F054FFC5F0907EE2F0A3C5F0F0C5F0121FF7E5311268440269
:2049EA0049EF0248F2227FFE7EFF1200F4E4F5F07F001200D8F0A3C5F0F0C5F078F912680D
:204A0A0012E60886F07B647C001269347003024A3418E60886F07F001200D8F0A3C5F0F0FC
:204A2A00C5F0E4F5F018F608A6F078F9126812E60886F0F52685F02778FB126812E60886B7
:204A4A00F045F06007181818E60886F045F07003024A81749875F07EC0E0C0F078F9126875
:204A6A0012E60886F0C0E0C0F01267A51581158115811581024AA8749875F07E78F9126822
:204A8A0012860308860412692A7003024AA8E4F5F079987A7E126834E489828A83F078F9F6
:204AAA00126812E60886F045F07003024B4D749875F07EC0E0C0F01267D315811581F52AE4
:204ACA00E5268527F0F52885F029A928AA2989828A83E012684445F06014A928AA298982B8
:204AEA008A83E01268447B2C12683B12692A45F07003024B388016E52A052AE5288529F054
:204B0A001268E3F52885F0291268EC80BDE52A79987A7E75F000126834C001C002A928AAA7
:204B2A002989828A83E0D083D082F0024B01E52A79987A7E75F000126834E489828A83F050
:204B4A00024BC378FB1268128601088602C001C0027F001200E6E98AF0C0E0C0F078FB12F3
:204B6A00681286820886831268711581158115811581F52885F029E5288529F045F0600357
:204B8A00024B9574FE75F0FF024ED4749875F07EAB28AC2912692A7003024BC3749875F0FF
:204BAA007EC0E0C0F0E5288529F0C0E0C0F01267A51581158115811581749875F07EC0E01D
:204BCA00C0F01248F215811581F531E531126844904EB902684D7F001200D8E0A3F5F0E0AA
:204BEA00C5F01268E37F001200D8F0A3C5F0F0C5F01268EC78F9126812E60886F045F070D7
:204C0A0003024C7CE5268527F0F52885F029A928AA2989828A83E012684445F06014A92887
:204C2A00AA2989828A83E01268447B2C12683B12692A45F07003024C56E5288529F012686F
:204C4A00E3F52885F0291268EC024C18A928AA2989828A83E06003024C670249F7E5288558
:204C6A0029F02401C5F03400C5F0F52685F027024CB578FB1268128601088602C001C002FB
:204C8A007F001200E6E98AF0C0E0C0F078FB12681286820886831268711581158115811506
:204CAA008145F06003024CB50249F7024ED178F9126812E60886F045F06003024D397F006B
:204CCA001200D8E0A3F5F0E0C5F01268EC7F001200D8F0A3C5F0F0C5F01268E30886010833
:204CEA008602C001C0027F001200E6E98AF0C0E0C0F078FB1268128682088683126871155D
:204D0A008115811581158145F06003024D367F001200D8E0A3F5F0E0C5F01268E37F0012D5
:204D2A0000D8F0A3C5F0F0C5F01268EC024ED1E5268527F078F912681286030886041269E3
:204D4A00217003024DD1E5268527F0F52885F029A926AA2789828A83E07003024DC4A92646
:204D6A00AA2789828A83E01268447B2C12683B1269217003024DB17F001200D8E0A3F5F066
:204D8A00E0C5F01268E37F001200D8F0A3C5F0F0C5F01268ECE5268527F02401C5F03400A6
:204DAA00C5F0F52885F029E5268527F01268E3F52685F0271268EC024D5AE5288529F0F50F
:204DCA002685F027024E6BE5268527F0C39402C5F09400C5F0F52685F027E5268527F07878
:204DEA00F9126812860308860412692A6014A926AA2789828A83E01268447B2C12683B122C
:204E0A00692A45F07003024E26E5268527F01268ECF52685F0271268E3024DE47F001200F2
:204E2A00D8E0A3F5F0E0C5F01268EC7F001200D8F0A3C5F0F0C5F01268E3E5268527F0785B
:204E4A00F9126812860308860412692A7003024E6BE5268527F01268E3F52685F0271268A0
:204E6A00EC024ED1740175F000C0E0C0F0120DB2158115817003024E901220077801438725
:204E8A0001D8FB024E6E7F001200D8E0A3F5F0E0C5F0024ED474FFF5F0024ED4744375F054
:204EAA0000C0E0C0F012111215811581024ED1A64EFAFF9F4EFBFF6E4EFCFFB84CFFFFE0A9
:204ECA004BFEFF0000A64E024A427F020200F27FFE7EFF1200F478FB126812860108860273
:204EEA0089828A83E0A3F5F0E0C5F0F52485F025E5248525F07B637C001269447003024F60
:204F0A0013E4F5F0F52485F02578FB126812860108860289828A83E0A3F5F0E0C5F07B0052
:204F2A007C001269017003024F3E746375F000F52485F025E5248525F0904FC102684D7410
:204F4A001175F0767F001200D8F0A3C5F0F0C5F0024FCD741575F0767F001200D8F0A3C5C2
:204F6A00F0F0C5F0024FCD749875F07E2410C5F03400C0F0C0E0744E75F07CC0E0C0F0E540
:204F8A00248525F02401C5F03400C0F0C0E0740375F0001267817FFA12681E749875F07E15
:204FAA002410C5F03400C5F07F001200D8F0A3C5F0F0C5F0024FCD5D4F6300494F000000FA
:204FCA0000714F78FB1268128601088602E5248525F089828A83F0A3C5F0F0C5F0749875C8
:204FEA00F07EC0E0C0F0741A75F076C0E0C0F07F001200D8E0A3F5F0E0C0F0C0E074037543
:20500A00F0001267817FFA12681E749875F07E7F020200F279227A7378FB126812E675F055
:20502A000089828A83F0A3C5F0F0C5F07B017C00126944700302509679147A7389828A83BD
:20504A00E0A3F5F0E0C5F04402C5F04400C5F089828A83F0A3C5F0F0C5F079207A73E4F5F1
:20506A00F089828A83F0A3C5F0F0C5F0740075F07CC0E0C0F0741C75F073C0E0C0F0120BB7
:20508A006415811581158115810250CA79227A73E4F5F089828A83F0A3C5F0F0C5F079144B
:2050AA007A7389828A83E0A3F5F0E0C5F054FDC5F054FFC5F089828A83F0A3C5F0F0C5F0D1
:2050CA0022E5311268447BFF12683B1269217003025125E475F075907EDDF0A3C5F0F0C574
:2050EA00F0907EDBF0A3C5F0F0C5F0907EDDE0A3F5F0E0C0F0C0E0907EDBE0A3F5F0E0C06C
:20510A00F0C0E01248031581158115811581907EDDF0A3C5F0F0C5F002516BE531126844D6
:20512A007BFB12683B1269217003025153749275F075907EDDF0A3C5F0F0C5F0907EDBF0F4
:20514A00A3C5F0F0C5F002516BE475F075907EDDF0A3C5F0F0C5F0907EDBF0A3C5F0F0C50E
:20516A00F0E4907EE1F0907EE1E06003025381907EDDE0A3F5F0E0C5F02402C5F03400C5AE
:20518A00F0F52485F025A924AA2589828A83E01268447B6512683B12692170030251E374C2
:2051AA009875F07EC0E0C0F0745175F07CC0E0C0F0741575F076C0E0C0F0E5248525F024A9
:2051CA0001C5F03400C0F0C0E0740475F0001267817FF812681E025200749875F07EC0E0C2
:2051EA00C0F0E5248525F0C0E0C0F01267A51581158115811581749875F07EC0E0C0F0123B
:20520A0048F215811581F531E53112684490536602684D907EDD12699589828A83E0A3F599
:20522A00F0E0C5F07BFF7CFF1269217003025240E4F5F0025618907EDD12699589828A83FB
:20524A00E0A3F5F0E0C5F07B007C011269347003025275907EDD12699589828A83E0A3F5D9
:20526A00F0E0C5F0907EE1F002537E907EDD12699589828A83E0A3F5F0E0C5F0907EDBF004
:20528A00A3C5F0F0C5F0907EDDF0A3C5F0F0C5F0025170907EDDE0A3F5F0E0C0F0C0E012D7
:2052AA0047CA15811581907EDDF0A3C5F0F0C5F0907EDD12699589828A83E0A3F5F0E0C5AF
:2052CA00F045F060030252E6907EDBE0A3F5F0E0C5F0907EDDF0A3C5F0F0C5F002537E90E1
:2052EA007EDDE0A3F5F0E0C0F0C0E0907EDBE0A3F5F0E0C0F0C0E012480315811581158111
:20530A001581907EDDF0A3C5F0F0C5F002537E907EDBE0A3F5F0E0C5F07B007C7512692154
:20532A007003025335E4F5F0025618E475F075907EDDF0A3C5F0F0C5F0907EDBF0A3C5F066
:20534A00F0C5F002537E12216D744375F000C0E0C0F0121112158115810251705053FAFFFF
:20536A001953FBFFE952FFFF9D52FEFF1D52FCFF00005353025170907EE1E075F0009055AC
:20538A00F902684D740B75F076C0E0C0F012127215811581740075F073C0E0C0F0E4C0E0C7
:2053AA00C0E0742C75F000C0E0C0F01267EF7FFA12681E79147A7389828A83E0A3F5F0E09B
:2053CA00C5F04480C5F04400C5F089828A83F0A3C5F0F0C5F0E4C0E0C0E0120D0B1581159E
:2053EA0081744075F000C0E0C0F012111215811581025153025615749875F07EC0E0C0F006
:20540A00745675F07CC0E0C0F079067A7289828A83E0A3F5F0E0C0F0C0E0740375F000127E
:20542A0067817FFA12681E749875F07EC0E0C0F01248F215811581025615749875F07EC096
:20544A00E0C0F0745975F07CC0E0C0F0742475F000C0E0C0F074031267817FFA12681E7471
:20546A009875F07EC0E0C0F01248F21581158102561579087A7289828A83E0A3F5F0E0C5E0
:20548A00F0907EE6F0A3C5F0F0C5F0E4F5F0907EE8F0A3C5F0F0C5F074FF75F000907EEAB5
:2054AA00F0A3C5F0F0C5F074FFF5F0907EECF0A3C5F0F0C5F0E4907EEEF0744075F07790C6
:2054CA007EEFF0A3C5F0F0C5F012233FF52485F025E5248525F07B007C8012692A7003020D
:2054EA00550079087A72E5248525F089828A83F0A3C5F0F0C5F002561579067A7289828ACB
:20550A0083E0A3F5F0E0C5F0907EE6F0A3C5F0F0C5F0E4F5F0907EE8F0A3C5F0F0C5F07400
:20552A00FFF5F0907EEAF0A3C5F0F0C5F074FFF5F0907EECF0A3C5F0F0C5F0E4907EEEF089
:20554A00744475F077907EEFF0A3C5F0F0C5F012233FF52485F025E5248525F07B007C8082
:20556A0012692A700302558679067A72E5248525F089828A83F0A3C5F0F0C5F0025615E4C8
:20558A00C0E0C0E0120DB21581158160030255F3740175F000C0E0C0F01234FE158115817D
:2055AA00749875F07EC0E0C0F0746075F07CC0E0C0F0740275F00079327A00126834E709FF
:2055CA0087F0C0E0C0F0740375F0001267817FFA12681E749875F07EC0E0C0F01212721529
:2055EA0081158143870102558902561502515389551500035514007C5413004454120001DF
:20560A005411008E5310000000F65502516B2278FB126812860108860289828A83E075F08C
:20562A00009059A102684D79917A7D742475F00089828A83F0A3C5F0F0C5F079937A7DE534
:20564A002F8530F089828A83F0A3C5F0F0C5F079957A7D740675F00189828A83F0A3C5F022
:20566A00F0C5F079977A7DC001C00279067A7289828A83E0A3F5F0E0C5F0D083D082F0A339
:20568A00C5F0F0C5F012644C79997A7DC001C002749875F07ED083D082F0A3C5F0F0C5F0D7
:2056AA00740575F0000259C078FB1268128601088602740475F000126834E98AF0F5288541
:2056CA00F029E5288529F02402C5F03400C5F0F9AAF089828A83E0A3F5F0E0C5F0F52485F2
:2056EA00F025749175F07DC0E0C0F0A928AA2989828A83E0A3F5F0E0C0F0C0E0E52485254D
:20570A00F0C333C5F033C0F0C0E01220517FFA12681EE5248525F00259C078FB126812868A
:20572A0001088602740475F000126834740275F00012683489828A83E0A3F5F0E0C5F07B2A
:20574A00017C001268C4F52685F02778FB1268128601088602740475F00012683474027541
:20576A00F00012683489828A83E0A3F5F0E0C5F05400C5F05480C5F045F07003025799E55B
:20578A00268527F01268ECF52685F0271268E378FB1268128601088602740475F000126856
:2057AA0034E4F5F012683489828A83E0A3F5F0E0C0F0C0E078F912681286010886027404F8
:2057CA0075F000126834740475F000126834E98AF0C0E0C0F0E5268527F0C0E0C0F0122045
:2057EA00517FFA12681EE4F5F00259C0E4F5F0907C8AF0A3C5F0F0C5F079A17A7DC001C07B
:20580A0002740175F000C0E0C0F01234FE15811581D083D082F0A3C5F0F0C5F0E4F52AE568
:20582A002A75F0007B057C00126934700302587E8006E52A052A80E779917A7DE52A75F039
:20584A0000C333C5F033C5F0126834C001C002E52A75F000C333C5F033C5F079327A00123C
:20586A006834E70987F0D083D082F0A3C5F0F0C5F002583CE52A240175F0000259C0799135
:20588A007A7DE475F07089828A83F0A3C5F0F0C5F0740175F0000259C078FB1268128601CE
:2058AA00088602740475F000126834740675F000126834E98AF0C0E0C0F0743475F000C0B6
:2058CA00E0C0F0120C89158115811581158178FB1268128601088602C0E0C0F0740475F0EC
:2058EA0000126834740475F000126834D0F0D0E089828A8312698E12692A700302592079C8
:20590A00917A7D740375F00089828A83F0A3C5F0F0C5F0025989740075F072C0E0C0F0781D
:20592A00F91268128601088602740475F000126834740675F000126834E98AF0C0E0C0F0F6
:20594A00746875F000C0E0C0F01220517FFA12681E79917A7DE4F5F089828A83F0A3C5F0EE
:20596A00F0C5F0740175F0000259C079917A7D740175F00089828A83F0A3C5F0F0C5F0792A
:20598A008E7A7D89828A83E0440489828A83F0740175F0000259C0A358890088580900F6D8
:2059AA0057040024570300B25602003156000000007559E4F5F022E4907EFEF0121FF712A0
:2059CA00644C749875F07EC0E0C0F012127215811581E4C0E0C0E01211121581158112383D
:2059EA004E121FF7E4F5F0907EFAF0A3C5F0F0C5F0E4F5F0907EFCF0A3C5F0F0C5F0E47550
:205A0A00F080907EF3F0A3C5F0F0C5F074F0F52D025EC61261F945F07003025A79E52F85F0
:205A2A0030F0242CC5F03401C5F0907EFAF0A3C5F0F0C5F0907EE2E0A3F5F0E0C5F0440126
:205A4A00C5F04400C5F0907EE2F0A3C5F0F0C5F0907EE2E0A3F5F0E0C0F0C0E0E4C0E0C0E5
:205A6A00E0122BF41581158115811581121FDF122007740175F000C0E0C0F0120DB21581D9
:205A8A001581F5316003025BBFE52F8530F0907EFA12698E1269447003025BB9907EE2E0DF
:205AAA00A3F5F0E0C5F054FEC5F054FFC5F0907EE2F0A3C5F0F0C5F0E4C0E0C0E01239273D
:205ACA001581158145F07003025BA2E4C0E0C0E0123B7A15811581907EF3F0A3C5F0F0C5D4
:205AEA00F079147A7389828A83E0A3F5F0E0C5F05401C5F05400C5F045F07003025B2512CE
:205B0A0020377B0A7C001268912402C5F03400C5F0907EFCF0A3C5F0F0C5F0121FF7907E27
:205B2A00F3E0A3F5F0E0C5F07B007C8012692A603279147A7389828A83E0A3F5F0E0C5F02E
:205B4A005403C5F05400C5F07B027C00126921601279207A7389828A83E0A3F5F0E0C5F084
:205B6A001268FD45F07003025BA2907EF3E0A3F5F0E0C0F0C0E074AD75F077C0E0C0F0799E
:205B8A00147A7389828A83E0A3F5F0E0C0F0C0E0122D6C7FFA12681EE52F8530F02403C5E9
:205BAA00F03400C5F0907EFAF0A3C5F0F0C5F0438701025F0FE5311268447BFC12683B12C0
:205BCA0069217003025BDFE4C0E0C0E0120DB215811581F531121FF7E531126844905EAEA3
:205BEA0002684D12216D742E75F075C0E0C0F012127215811581E4C0E0C0E0120DB215812B
:205C0A001581740275F000C0E0C0F012410A1581158145F07003025C3A743A75F076C0E0C7
:205C2A00C0F012127215811581781E438701D8FB025EC679147A7389828A83E0A3F5F0E0B4
:205C4A00C5F05480C5F05400C5F045F07003025CBE745A75F075C0E0C0F0121272158115F6
:205C6A0081E4C0E0C0E0120DB21581158179147A7389828A83E0A3F5F0E0C5F0541FC5F0C1
:205C8A0054FFC5F089828A83F0A3C5F0F0C5F079147A7389828A83E0A3F5F0E0C5F04440DA
:205CAA00C5F04400C5F089828A83F0A3C5F0F0C5F0025D1E745375F075C0E0C0F012127223
:205CCA0015811581E4C0E0C0E0120DB21581158179147A7389828A83E0A3F5F0E0C5F0548A
:205CEA001FC5F054FFC5F089828A83F0A3C5F0F0C5F079147A7389828A83E0A3F5F0E0C51A
:205D0A00F04480C5F04400C5F089828A83F0A3C5F0F0C5F0025EC6740B75F076C0E0C0F042
:205D2A0012127215811581781E438701D8FB740075F073C0E0C0F0E4C0E0C0E0742C75F09E
:205D4A0000C0E0C0F01267EF7FFA12681E79147A7389828A83E0A3F5F0E0C5F04480C5F068
:205D6A004400C5F089828A83F0A3C5F0F0C5F0E4C0E0C0E0120D0B15811581744075F00088
:205D8A00C0E0C0F012111215811581025EC6746575F07CC0E0C0F0121272158115817401E1
:205DAA0075F000C0E0C0F0120DB2158115817003025DC6438701122007025DA8E4C0E0C040
:205DCA00E0120DB215811581F531E5311268447BFE12683B12692A600DE5311268447BFF54
:205DEA0012683B12692A45F07003025E25E5317003025E0E740375F000C0E0C0F0121112BA
:205E0A0015811581E4C0E0C0E0120DB215811581F531438701122007025DD474FFF5F090E6
:205E2A007E94F0A3C5F0F0C5F074FF75F07F907E96F0A3C5F0F0C5F0E5311268447BFE1212
:205E4A00683B1269216007740175F0008003E4F5F0C0E0C0F074D975F04EC0E0C0F0124971
:205E6A00F01581158115811581F52AE52A75F0007B557C00126921700CE52A75F0007B6387
:205E8A007C0012692145F07003025E99025EC6E52A240175F000C0E0C0F012501E15811505
:205EAA0081025EC6985DFBFF215DFAFF3D5CFFFFF05BFEFFED5BFCFF0000C65E907EF3E0A4
:205ECA00A3F5F0E0C0F0C0E079147A7389828A83E0A3F5F0E0C5F04400C5F04480C0F0C044
:205EEA00E0120D0C15811581C0E0C0F079147A7389828A83E0A3F5F0E0C0F0C0E0122D6C3C
:205F0A007FFA12681E025A1D227FFE7EFF1200F4121AB17F001200D8F0A3C5F0F0C5F07B1D
:205F2A00FF7CFF12692A70030260747F001200D8E0A3F5F0E0C5F0F52A79207A00E7540418
:205F4A006003025FFEE52A75F000905FF202684D79207A00E7540812684445F0700E907E94
:205F6A0091E075F0007B037C0012693445F07003025F8EC203E4907E91F0E4907E92F0C293
:205F8A0002025F1A907E92E075F0007B007C0012692A7031907E91E0C3940575F000C3C590
:205FAA00F013C5F013C0E0C0F0740375F000798E7A7C126834D0F0D0E089828A8312698AA8
:205FCA007C0012692A45F07003025FD9025F7DE4907E92F0907E91F0748E75F07C02607717
:205FEA00D202025F1A025FFEEA5FDB005A5FC0000000EF5F79207A00E754047003026034A3
:20600A00C202E52A75F00090602802684D74C0F52A02603474DBF52A026034025F1A1E6089
:20602A00DD001760DC0000002560907E92E0252A907E92F0907E91E075F0007BFF7C001256
:20604A006934700302606F907E91E004907E91F014798E7A7C75F000126834E52A89828A7B
:20606A0083F0026071D203025F1AE4F5F07F020200F27FFE7EFF1200F478F91268128601BE
:20608A00088602740375F00012683478FB126812E6F52C89828A83F0E52C75F0007B017C60
:2060AA00001268C4F52CE52C2404F52C1818E60886F07F001200D8F0A3C5F0F0C5F0E4F55A
:2060CA002A74C075F000C0E0C0F0121A6915811581E52C152C70030261727F001200D8E0FF
:2060EA00A3F5F0E0C5F01268E37F001200D8F0A3C5F0F0C5F01268ECF9AAF089828A83E0D5
:20610A00F52BE52A252BF52AE52B75F0007BC07C00126921700302613A74DB75F000C0E0AB
:20612A00C0F0121A691581158174DCF52B02615FE52B75F0007BDB7C0012692170030261F9
:20614A005F74DB75F000C0E0C0F0121A691581158174DDF52BE52B75F000C0E0C0F0121AAF
:20616A0069158115810260DBE52A126844FBACF0E475F001C39BC5F09CC5F0F52BE52B758C
:20618A00F0007BC07C0012692170030261AF74DB75F000C0E0C0F0121A691581158174DC18
:2061AA00F52B0261D4E52B75F0007BDB7C0012692170030261D474DB75F000C0E0C0F012DB
:2061CA001A691581158174DDF52BE52B75F000C0E0C0F0121A691581158174C075F000C0B6
:2061EA00E0C0F0121A69158115817F020200F27FFD7EFF1200F4E47F021200D8F0125F130D
:20620A007F001200D8F0A3C5F0F0C5F045F070030263727F021200D8E0047F021200D8F0F5
:20622A00147F001200D8126995740275F00012683489828A83E075F000907E9312698A7CBF
:20624A00001269216017798F7A7D89828A83E075F000907E9312698A7C0012692145F07062
:20626A0003026295748D75F07DC0E0C0F079907A7D89828A83E075F000C0E0C0F012607C4A
:20628A001581158115811581026207798E7A7DC001C0027F001200D8126995740175F0005D
:2062AA0012683489828A83E0D083D082F07F001200D8126995740275F00012683489828A02
:2062CA0083E0907E93F0798D7A7DC001C0027F001200D812699589828A83E0D083D082F03A
:2062EA007F001200D8E0A3F5F0E0C0F0C0E012561915811581F52A7F001200D812699574DA
:20630A000175F00012683489828A83E054027003026320026207798F7A7DC001C0027F00AD
:20632A001200D8126995740275F00012683489828A83E0D083D082F0798E7A7D89828A832D
:20634A00E0440189828A83F0748D75F07DC0E0C0F0E52A75F000C0E0C0F012607C15811576
:20636A0081158115810262077F021200D8E075F0007F030200F27FFE7EFF1200F47480F5EC
:20638A00A8740875F0007F001200D8F0A3C5F0F0C5F07F001200D8E0A3F5F0E0C5F07B2013
:2063AA007C0012693470030263E380207F001200D8E0A3F5F0E0C5F01268E37F001200D821
:2063CA00F0A3C5F0F0C5F01268EC80C67F001200D8126995E4F70263B6E59044404480F5F9
:2063EA0090E4F5F0907EE2F0A3C5F0F0C5F0C2051219B0120FF374B4F51E74FFF5A0E5B0CF
:20640A004444F5B0740175F000C0E0C0F0E4C0E0C0F0E4C0E0C0E012181C7FFA12681EE488
:20642A00907E91F0740175F000907C8AF0A3C5F0F0C5F0907C8CF0A3C5F0F0C5F07F02025E
:20644A0000F290003279987A7E7B107C00EB4C601CE493A3CAC583CAC9C582C9F0A3CAC5CA
:20646A0083CAC9C582C91BBBFFE31C80E0222212638012644C749875F07EC0E0C0F012125A
:20648A00721581158174FFF5F0C0E0C0F0740175F000C0E0C0F0122BF4158115811581157A
:2064AA0081121FF7E4C0E0C0E01211121581158179087A7289828A83E0A3F5F0E0C5F054CE
:2064CA0001C5F05400C5F045F0600302650AE4F52CE52C75F0007B0C7C0012693470030248
:2064EA0065078006E52C052C80E7740275F000C0E0C0F01234FE158115810264EE02650D94
:20650A00438701740175F000C0E0C0F0120DB2158115811268447B0012683B12692A700379
:20652A0002660F740175F000C0E0C0F0120DB2158115811268447B0012683B12692A7003AD
:20654A0002660F4387011220377B327C00126944700302660CE4C0E0C0E0120DB215811517
:20656A0081438701E4C0E0C0E012111215811581740175F000C0E0C0F0120DB21581158119
:20658A001268447B0012683B12692A70030265A043870102657A740175F000C0E0C0F012FC
:2065AA000DB21581158160030265CB1261F945F070030265C2121FF7122007438701026581
:2065CA00A0E4C0E0C0E0120DB215811581F531E5311268447BFF12683B126921700DE53198
:2065EA001268447BFB12683B12692145F0700302660CE531126844C0E0C0F01250CB158109
:20660A00158102652D1259C12212675A868208868308E4FEFFE0700612675AE4F022B4252B
:20662A0051A3E0B42D05430780A3E0B4300343074024D0B40A00500BCE75F00AA42EFEA31B
:20664A00E080EEE0B46413E60886F030F7084307201268F3A6F018F68003B4750543070AC4
:20666A008021B478054307108019B46F10430708801112675AF0A312675AA38095B46262CC
:20668A004307027A00C004C005C006C007AB0753031F7C00E60886F0126891A6F018F6ED71
:2066AA00D007D006D005D0042430B43A0040022407C0E00AE645F070CC12675AA902EF302D
:2066CA00E505742DF0A30A126763D0E0F0A3D9FA0808EF30E7A1EAC39E509C7420F0A30A77
:2066EA0080F4B4630DAA0112675A126763E6F0A380DEB47331C082C08386820886837A0057
:20670A00E06004A30A80F9868318868212675A12676312675AE0A312675A6004F0A380F29B
:20672A00D005D00480AAB4691B86017A00E76004090A80F912675A1267638601E76091F06E
:20674A0009A380F8F97A0112675A126763E9809ECDC583CDCCC582CC22EE601A8FF020F700
:20676A0015C002EAC39E500C742030F6027430F0A30A80EFD0022223F42581F886820886E6
:20678A008308026613D2AF22C2AF2278F91268128682088683E0600DA380FA78F912681236
:2067AA008682088683088601088602C9C582C9CAC583CAE0A3C9C582C9CAC583CAF0600357
:2067CA00A380E8E5828583F02278FB1268128682088683E4F5F0FAE06009A30ABA00F8059B
:2067EA00F080F4EA2278F7126812868208868308860708088603088604EB4C600AEFF0A328
:20680A001BBBFFF51C80F222C82581C822C92581C97A0022D083D082CF2581F581CFC08227
:20682A00C08322CF2581F581CF2229F9E5F03AFA227C00CB30E7011CCB2275F00030E702DA
:20684A0015F022FDE493A3FEE493A3FF4E7009E493FE740193FF800BE493A3B5050BE493B5
:20686A00B5F0068F838E82E473A380D8FEEBA4FD8EF0ECA4FCEB8EF0A4C5F02C2DC5F02269
:07688A001268918EF0ED226F
:20689100C002C001AAF0F97E007D007F11C3E933F9EA33FADF08F5F0E9D001D00222ED33BD
:2068B100FDEE33FEC3ED9BF5F0EE9C40E0ADF0FED380DBBB000122C333C5F033C5F0DBF7C5
:2068D10022BB000122C3C5F013C5F013DBF7221268E304700205F0221268EC14B4FF021532
:2068F100F0221268ECF4C5F0F4C5F02245F080231269544029801E12695440227017801E97
:2069110012695440107017800C126954501080051269686009E4F5F02212696860F7E4F536
:20693100F0042212696840F680EB12696840EF70E480EB12696840DD70E480D912696850FB
:20695100DD80D2C39BC5F09C20E70720D207C345F02220D2F9D322C5F0C39C7003E5F09B50
:2069710022907EFFE0A360F8E0FFA3E0A3CF2582F582EF3583F58380EBFBE0CB22FCE0FBE1
:20699100A3E0CC22FAE0F9A3E0CA220000000048C34F813827C5A03ECCCCCE42200000107E
:2069B10027E80364000A00010080252575002D2D2D0025642E0030256400256400256400FD
:2069D100257325642E002000002564002564002020202000257325730025640025732573BC
:1969F1000025750031544620257800462025750043414D204D4F44450055
:00000001FF
