:020000000132CB
:200032007581107508007509779012D879007A707BC87C01EB4C601CE493A3CAC583CAC927
:20005200C582C9F0A3CAC583CAC9C582C91BBBFFE31C80E0907211E4F012102812001B8024
:20007200FBC82581C822C92581C97A0022D083D082CF2581F581CFC082C08322CF2581F5D7
:2000920081CF22FBE0CB22FCE0FBA3E0CC22FAE0F9A3E0CA2229F9E5F03AFA227C00CB30C6
:2000B200E7011CCB2275F00030E70215F022FDE493A3FEE493A3FF4E7009E493FE74019326
:2000D200FF800BE493A3B5050BE493B5F0068F838E82E473A380D8FEEBA4FD8EF0ECA4FC7B
:2000F200EB8EF0A4C5F02C2DC5F02231038EF0ED22C002C001AAF0F97E007D007F11C3E9EE
:2001120033F9EA33FADF08F5F0E9D001D00222ED33FDEE33FEC3ED9BF5F0EE9C40E0ADF05D
:20013200FED380DBBB000122C333C5F033C5F0DBF722BB000122C3C5F013C5F013DBF722F7
:20015200240280022401C5F03400C5F022C394028003C39401C5F09400C5F0223164F4C55E
:20017200F0F4C5F02245F07022042231C64024801A31C6401E7014801A31C6400E70148014
:200192000A31C6500E800431DA6008E4F5F02231DA60F8E4F5F0042231DA40F780ED31DA00
:2001B20040F170E780ED31DA40E170E780DD31DA50E180D7C39BC5F09C20E70720D207C34C
:2001D20045F02220D2F9D322C5F0C39C7003E5F09B22907211E0A360EEE0FFA3E0A3CF25E0
:2001F20082F582EF3583F58380EB7E00CF2508F582EE3509F583EF227E00CF2508F9EE352E
:1102120009FAEF227E00C5082FC508C5093EC5092284
:07000B00C0D0C0E002022397
:20022300E50DF4F58CE50CF4F58AD0E0D0D032AE0EAC0FAB107D048006000000000000EC49
:200243002323FC54C04BF5A0438701DDECDEE6D2A5227FFA7EFF12021878FB120073E6086C
:2002630086F012017745F0700A181818E60886F012017745F0700302028474FFF5F0020408
:200283006F78F9120073E60886F07B0A7C0012017D700C18E60886F07B707C1712018B45A8
:2002A300F070030202B074FFF5F002046F74A675F0C278F912007386030886041201037F70
:2002C300001201FCF0A3C5F0F0C5F0744675F070C0E0C0F018E60886F0C0E0C0F07F0012E3
:2002E30001FCE0A3F5F0E0C0F0C0E0740375F00012103E7FFA12007F740575F000C0E0C0E2
:20030300F012047415811581120520E50C850DF07F041201FCF0A3C5F0F0C5F078FB120086
:2003230073E60886F0F50E120532E590547FF590C28E743275F000C0E0C0F01204741581FF
:2003430015817F001201FCE0A3F5F0E0C5F0F50C85F00DE5A0442FF5A0E4F5F07F0012010E
:20036300FCF0A3C5F0F0C5F07F001201FCE0A3F5F0E0C5F07B037C001201AA702302046056
:200383007F001201FCE0A3F5F0E0C5F01201567F001201FCF0A3C5F0F0C5F012016480C82C
:2003A3007F001201FCE0A3F5F0E0C5F09003D60200C0740FF51074F0F50F0203E67407F539
:2003C3001074F0F50F0203E67417F5107478F50F0203E6CB030200C0030100B50300000000
:2003E30000E603E5B04408F5B0E4F58DE4F58BE5B054F7F5B0D28E120232C28EE5A0442F4E
:20040300F5A0E580547F7F021201FCF020B5030204237F021201FCE044807F021201FCF0D7
:200423007F001201FCE0A3F5F0E0C5F0C333C5F033C5F079C87A711200A7E58B75F0007B66
:20044300087C001201367F021201FC1200954B89828A83F0A3C5F0F0C5F0020383E5904404
:2004630080F5901205321204FFE4F5F07F0602021678FB120073E60886F012016418F608C5
:20048300A6F012015645F07003020498E5874401F587020474227FFF7EFF120218C28CC214
:2004A300ABE50C850DF07B087C0012014412016EF58CE50C850DF05400C5F05401C5F0122B
:2004C300016EF58AE5897F001201FCF07F001201FCE054F07F001201FCF07F001201FCE0A1
:2004E30044017F001201FCF07F001201FCE0F58912104FD28CD2A97F01020216907008E07E
:20050300A3F5F0E0C0F0C0E0121055158115811204999071D0E044019071D0F0227451F53B
:20052300891204999071D0E054FE9071D0F022121052745675F002F50C85F00D02104F12FF
:200543001052749875F0E9F50C85F00D02104F7FFE7EFF120218E5904480F590E4F5F0F556
:200563000A85F00B12053274FFF5A01204991204FF7F020202167FFC7EFF120218E4F5F051
:200583007F021201FCF0A3C5F0F0C5F0741075F0007F001201FCF0A3C5F0F0C5F07F0012E6
:2005A30001FCE0A3F5F0E0C5F0C39401C5F09400C5F0FBACF0740175F00012013678F912AB
:2005C300007356C5F00856C5F045F070287F001201FCE0A3F5F0E0C5F0C39401C5F094008E
:2005E300C5F0FBACF0740175F0001201360856C5F00856C5F045F0700302062578F912000B
:2006030073E60886F07B017C0012014418F608A6F008E60886F07B017C0012014418F60834
:20062300A6F07F001201FCE0A3F5F0E0C5F01201647F001201FCF0A3C5F0F0C5F01201563B
:2006430045F070030206CF7F021201FCE0A3F5F0E0C5F07B017C001201367F021201FCF0CA
:20066300A3C5F0F0C5F078F9120073E60886F00886030886041201C070030206B77F021265
:2006830001FCE0A3F5F0E0C5F04401C5F04400C5F07F021201FCF0A3C5F0F0C5F0181818A5
:2006A300E60886F008C396C5F00896C5F0181818F608A6F078F9120073E60886F07B017C3C
:2006C3000012013618F608A6F00206257F021201FCE0A3F5F0E0C5F07F040202167FFE7ED0
:2006E300FF120218746375F0007F001201FCF0A3C5F0F0C5F078FB120073E60886F0900722
:20070300570200C0E58075F0007F001201FCF0A3C5F0F0C5F002076BE59075F0007F001299
:2007230001FCF0A3C5F0F0C5F002076BE5A075F0007F001201FCF0A3C5F0F0C5F002076B7F
:20074300E5B075F0007F001201FCF0A3C5F0F0C5F002076B430703002F0702001B07010005
:200763000707000000006B077F001201FCE0A3F5F0E0C5F07F020202167FFB7EFF120218AD
:20078300E47F031201FCF078FB120073E60886F0C0E0C0F01206E0158115817F021201FC91
:2007A300F0745575F070C0E0C0F078F9120073E60886F0C0E0C0F07F021201FCE07F0412A9
:2007C30001FCF075F000C0E0C0F0740375F00012103E7FFA12007FE4F5F07F001201FCF0E7
:2007E300A3C5F0F0C5F07F001201FCE0A3F5F0E0C5F07BF07C4F1201AA70230208597F0006
:200803001201FCE0A3F5F0E0C5F01201567F001201FCF0A3C5F0F0C5F012016480C878FBB3
:20082300120073E60886F0C0E0C0F01206E0158115817F031201FCF07F031201FCE075F001
:20084300007F021201FC1200957C001201A160030208590208017F001201FCE0A3F5F0E087
:20086300C5F07BF07CFF1201997003020889746375F070C0E0C0F0740175F00012103E15DD
:200883008115810208B5746C75F070C0E0C0F07F031201FCE07F041201FCF075F000C0E082
:2008A300C0F0740275F00012103E15811581158115817F050202167FAE7EFF1202187414F6
:2008C30075F0007F4E1201FCF0A3C5F0F0C5F074FA75F0007F501201FCF0A3C5F0F0C5F049
:2008E300120532747075F070C0E0C0F0907000E0A3F5F0E0C0F0C0E0740275F00012103ED0
:200903001581158115811581747475F070C0E0C0F0740175F00012103E158115817F001278
:20092300020AE98AF0C0E0C0F0744075F000C0E0C0F012107815811581158115817F4012C9
:2009430001FCF07F401201FCE07003020FD3740175F0007F0012020A1200A7E98AF07F434D
:200963001201FCF0A3C5F0F0C5F07F0012020AE98AF0C0E0C0F0743D75F000C0E0C0F012B0
:2009830010D915811581158115817F451201FCF0A3C5F0F0C5F07F451201FCE0A3F5F0E038
:2009A300C5F045F070030209CA7F451201FCE0A3F5F0E0C5F01201567F451201FCF0A3C59E
:2009C300F0F0C5F01201647F431201FC1200A089828A83E01200B745F060187F431201FC46
:2009E3001200A089828A83E01200B77B201200AE12019945F07003020A1E7F431201FCE0F7
:200A0300A3F5F0E0C5F01201567F431201FCF0A3C5F0F0C5F01201640209CA7F431201FC72
:200A23001200A089828A83E01200B712017745F060227F401201FCE01200B77B011200AE4C
:200A430012018B600F7F451201FCE0A3F5F0E0C5F012017745F07003020A76747775F07042
:200A6300C0E0C0F0740175F00012103E1581158102090BE4F5F07F0012020A1200A789827D
:200A83008A83E075F0009010000200C07F451201FCE0A3F5F0E0C5F045F06003020ACD74EA
:200AA3008775F070C0E0C0F0E5807F471201FCF075F000C0E0C0F0740275F00012103E1558
:200AC30081158115811581020B4E7F451201FC1200A089828A83E01200B77B211200AE12C1
:200AE30001997003020AF9E4C0E0C0E012077C15811581020B4E7F451201FCE0A3F5F0E086
:200B0300C0F0C0E01210F615811581F580748E75F070C0E0C0F07F451201FCE0A3F5F0E087
:200B2300C0F0C0E01210F615811581C0E0C0F0E5807F471201FCF075F000C0E0C0F0740378
:200B430075F00012103E7FFA12007F0210207F451201FCE0A3F5F0E0C5F045F06003020B1C
:200B63008F74A775F070C0E0C0F0E5907F471201FCF075F000C0E0C0F0740275F0001210B7
:200B83003E1581158115811581020C147F451201FC1200A089828A83E01200B77B211200A6
:200BA300AE1201997003020BBF740175F000C0E0C0F012077C15811581020C147F451201B5
:200BC300FCE0A3F5F0E0C0F0C0E01210F615811581F59074AE75F070C0E0C0F07F45120197
:200BE300FCE0A3F5F0E0C0F0C0E01210F615811581C0E0C0F0E5907F471201FCF075F0002B
:200C0300C0E0C0F0740375F00012103E7FFA12007F0210207F451201FCE0A3F5F0E0C5F039
:200C230045F06003020C5574C775F070C0E0C0F0E5A07F471201FCF075F000C0E0C0F074E3
:200C43000275F00012103E1581158115811581020CDA7F451201FC1200A089828A83E012FB
:200C630000B77B211200AE1201997003020C85740275F000C0E0C0F012077C1581158102BE
:200C83000CDA7F451201FCE0A3F5F0E0C0F0C0E01210F615811581F5A074CE75F070C0E070
:200CA300C0F07F451201FCE0A3F5F0E0C0F0C0E01210F615811581C0E0C0F0E5A07F471225
:200CC30001FCF075F000C0E0C0F0740375F00012103E7FFA12007F0210207F451201FCE044
:200CE300A3F5F0E0C5F045F06003020D1B74E775F070C0E0C0F0E5B07F471201FCF075F0D3
:200D030000C0E0C0F0740275F00012103E1581158115811581020DA07F451201FC1200A0B9
:200D230089828A83E01200B77B211200AE1201997003020D4B740375F000C0E0C0F01207D5
:200D43007C15811581020DA07F451201FCE0A3F5F0E0C0F0C0E01210F615811581F5B07471
:200D6300EE75F070C0E0C0F07F451201FCE0A3F5F0E0C0F0C0E01210F615811581C0E0C04E
:200D8300F0E5B07F471201FCF075F000C0E0C0F0740375F00012103E7FFA12007F021020D9
:200DA300740575F000C0E0C0F0120474158115817F501201FCE0A3F5F0E0C0F0C0E07F4E09
:200DC3001201FCE0A3F5F0E0C0F0C0E012025515811581158115817F4A1201FCF0A3C5F088
:200DE300F0C5F07F4A1201FCE0A3F5F0E0C5F045F07003020E11740775F071C0E0C0F07498
:200E03000175F00012103E15811581021020E4F5F07F411201FCF0A3C5F0F0C5F07F411254
:200E230001FCE0A3F5F0E0C5F07B037C001201AA7023020EBF7F411201FCE0A3F5F0E0C5C0
:200E4300F01201567F411201FCF0A3C5F0F0C5F012016480C8741E75F071C0E0C0F07F4143
:200E63001201FCE0A3F5F0E0C5F0C333C5F033C5F079027A701200A789828A83E0A3F5F032
:200E8300E0C0F0C0E07F411201FCE0A3F5F0E0C5F0C333C5F033C5F079C87A711200A78952
:200EA300828A83E0A3F5F0E0C0F0C0E0740375F00012103E7FFA12007F020E380210207FC9
:200EC300431201FCE0A3F5F0E0C5F045F07003020EF67F431201FCE0A3F5F0E0C0F0C0E0A9
:200EE3001210F6158115817F4E1201FCF0A3C5F0F0C5F0742575F071C0E0C0F07F4E120143
:200F0300FCE0A3F5F0E0C0F0C0E0740275F00012103E15811581158115810210207F4312A1
:200F230001FCE0A3F5F0E0C5F045F07003020F547F431201FCE0A3F5F0E0C0F0C0E012101C
:200F4300F6158115817F501201FCF0A3C5F0F0C5F0743675F071C0E0C0F07F501201FCE013
:200F6300A3F5F0E0C0F0C0E0740275F00012103E15811581158115817F501201FCE0A3F5CD
:200F8300F0E0C5F07B0A7C001201AA70137F501201FCE0A3F5F0E0C5F07B707C171201B864
:200FA30045F07003020FD0743E75F071C0E0C0F0740175F00012103E15811581746475F02A
:200FC300007F501201FCF0A3C5F0F0C5F0021020745D75F071C0E0C0F0740175F00012101E
:200FE3003E15811581748E75F071C0E0C0F0740175F00012103E15811581021020200F662F
:2010030000C20E7200A30D7800DD0C3300170C3200510B31008F0A30000000D30F02090BA4
:201023007F5202021612055274EE75F002C0E0C0F0120474158115810208BA23F42581F811
:201043001201E412116A1201E4021139D2AF22C2AF2278FB1200738603088604740075F0A4
:201063004B12010312016E758920F58DF58B7588497598522278FC12007386041886031868
:201083008683188682E4FDFE12115AB408028003B47F27ED4E60F11DBDFF011E740812110A
:2010A30048742012114874081211488583F0E58212016485F083F58280CE121148F024F3FA
:2010C300600EA30DBD00010EED8EF012017D70B8E4F0ED8EF02278F9120073868208868390
:2010E3000886F0E0B5F0068583F0E58222A370F3F5F02278FB1200738682088683E4FBFC6A
:20110300FFE0A3B42D030FE0A3C39430B40A005012FA740A75F0001200E92AFBE5F0340027
:20112300FC80E4EB8CF0DF0302016E2278FB1200738682088683E0602D121148A380F778F5
:20114300FB120073E63099FDC299F599B40A17740D80F2E430980C3098FDC298E599B40D99
:2011630002740A75F000221212B1868208868308E4FEFFE070061212B1E4F022B42551A3A0
:20118300E0B42D05430780A3E0B4300343074024D0B40A00500BCE75F00AA42EFEA3E080AB
:2011A300EEE0B46413E60886F030F70843072012016EA6F018F68003B4750543070A80216B
:2011C300B478054307108019B46F1043070880111212B1F0A31212B1A38095B4626243071B
:2011E300027A00C004C005C006C007AB0753031F7C00E60886F0120103A6F018F6EDD007D5
:20120300D006D005D0042430B43A0040022407C0E00AE645F070CC1212B1A902EF30E50513
:20122300742DF0A30A1212BAD0E0F0A3D9FA0808EF30E7A1EAC39E509C7420F0A30A80F4E6
:20124300B4630DAA011212B11212BAE6F0A380DEB47331C082C08386820886837A00E06082
:2012630004A30A80F986831886821212B11212BA1212B1E0A31212B16004F0A380F2D005FA
:20128300D00480AAB4691B86017A00E76004090A80F91212B11212BA8601E76091F009A38F
:2012A30080F8F97A011212B11212BAE9809ECDC583CDCCC582CC22EE601A8FF020F715C0CF
:2012C30002EAC39E500C742030F6027430F0A30A80EFD002220A70307035703C70802543AF
:2012E3006F7079726967687420313939332C393420284329204D75726B576F726B732C2011
:20130300496E632E005A65726F0041637475616C005265666572656E6365006374696D65E7
:2013230020257520782025750A00502564203D202575202E2E2E200074696D656F75740AC9
:201343000025750A0025730A003E2000453A6172672072657175697265640A0050303D25C0
:20136300750A0050302073657420746F2025752C20657175616C732025750A0050313D25C4
:20138300750A0050312073657420746F2025752C20657175616C732025750A0050323D25A2
:2013A300750A0050322073657420746F2025752C20657175616C732025750A0050333D2580
:2013C300750A0050332073657420746F2025752C20657175616C732025750A00636F756C91
:2013E300646E27742074616B652072656164696E670A0025732025750A004379636C656305
:201403006F756E74203D2025640A004350533D25640A00696E76616C6964206370732C20A4
:2014230063686F6F7365203130202D20363030300A00782074616B652072656164696E6733
:201443000A72207365742072656164696E672074696D650A6620667265710A7120717569B0
:20146300740A0052656164206F722053657420706F7274732E2E2E0A30205B3D76616C5DAE
:1D1483000A31205B3D76616C5D0A32205B3D76616C5D0A33205B3D76616C5D0A0086
:00000001FF
