:020000000132CB
:200032007581107508007509779012F579007A707BD17C01EB4C601CE493A3CAC583CAC901
:20005200C582C9F0A3CAC583CAC9C582C91BBBFFE31C80E090721EE4F012104512001B80FA
:20007200FBC82581C822C92581C97A0022D083D082CF2581F581CFC082C08322CF2581F5D7
:2000920081CF22FBE0CB22FCE0FBA3E0CC22FAE0F9A3E0CA2229F9E5F03AFA227C00CB30C6
:2000B200E7011CCB2275F00030E70215F022FDE493A3FEE493A3FF4E7009E493FE74019326
:2000D200FF800BE493A3B5050BE493B5F0068F838E82E473A380D8FEEBA4FD8EF0ECA4FC7B
:2000F200EB8EF0A4C5F02C2DC5F02231038EF0ED22C002C001AAF0F97E007D007F11C3E9EE
:2001120033F9EA33FADF08F5F0E9D001D00222ED33FDEE33FEC3ED9BF5F0EE9C40E0ADF05D
:20013200FED380DBBB000122C333C5F033C5F0DBF722BB000122C3C5F013C5F013DBF722F7
:20015200240280022401C5F03400C5F022C394028003C39401C5F09400C5F0223164F4C55E
:20017200F0F4C5F02245F07022042231C64024801A31C6401E7014801A31C6400E70148014
:200192000A31C6500E800431DA6008E4F5F02231DA60F8E4F5F0042231DA40F780ED31DA00
:2001B20040F170E780ED31DA40E170E780DD31DA50E180D7C39BC5F09C20E70720D207C34C
:2001D20045F02220D2F9D322C5F0C39C7003E5F09B2290721EE0A360EEE0FFA3E0A3CF25D3
:2001F20082F582EF3583F58380EB7E00CF2508F582EE3509F583EF227E00CF2508F9EE352E
:1102120009FAEF227E00C5082FC508C5093EC5092284
:07000B00C0D0C0E002022397
:20022300E50DF4F58CE50CF4F58AD0E0D0D032AE0EAC0FAB107D048006000000000000EC49
:200243002323FC54C04BF5A0438701DDECDEE630A0E3D2A5227FFA7EFF12021878FB12001A
:2002630073E60886F012017745F0700A181818E60886F012017745F0700302028774FFF59A
:20028300F002048C78F9120073E60886F07B0A7C0012017D700C18E60886F07B707C171266
:2002A300018B45F070030202B374FFF5F002048C74A675F0C278F912007386030886041202
:2002C30001037F001201FCF0A3C5F0F0C5F0744F75F070C0E0C0F018E60886F0C0E0C0F0E8
:2002E3007F001201FCE0A3F5F0E0C0F0C0E0740375F00012105B7FFA12007F740575F00094
:20030300C0E0C0F01204911581158112053DE50C850DF07F041201FCF0A3C5F0F0C5F078F9
:20032300FB120073E60886F0F50E12054FE590547FF590C28E743275F000C0E0C0F01204DF
:2003430091158115817F001201FCE0A3F5F0E0C5F0F50C85F00DE5A0442FF5A0E4F5F07FFA
:20036300001201FCF0A3C5F0F0C5F07F001201FCE0A3F5F0E0C5F07B057C001201AA7023A7
:2003830002047D7F001201FCE0A3F5F0E0C5F01201567F001201FCF0A3C5F0F0C5F0120155
:2003A3006480C87F001201FCE0A3F5F0E0C5F09003EF0200C0740DF51074F0F50F020407C4
:2003C3007405F51074F0F50F0204077415F5107478F50F0204077407F51074F0F50F0204AE
:2003E300077417F5107478F50F020407E4030400D9030300CE030200C3030100B803000047
:200403000000070474FFF5B0E4F58DE4F58B74F7F5B0D28E120232C28EE5A0442FF5A0E574
:2004230080547F7F021201FCF020B5030204407F021201FCE044807F021201FCF07F001283
:2004430001FCE0A3F5F0E0C5F0C333C5F033C5F079D17A711200A7E58B75F0007B087C004A
:200463001201367F021201FC1200954B89828A83F0A3C5F0F0C5F0020386E5904480F59060
:2004830012054F12051CE4F5F07F0602021678FB120073E60886F012016418F608A6F012C7
:2004A300015645F070030204B5E5874401F587020491227FFF7EFF120218C28CC2ABE50CC6
:2004C300850DF07B087C0012014412016EF58CE50C850DF05400C5F05401C5F012016EF543
:2004E3008AE5897F001201FCF07F001201FCE054F07F001201FCF07F001201FCE044017F21
:20050300001201FCF07F001201FCE0F58912106CD28CD2A97F0102021690700CE0A3F5F078
:20052300E0C0F0C0E0121072158115811204B69071DDE044019071DDF0227451F5891204B0
:20054300B69071DDE054FE9071DDF02212106F745675F002F50C85F00D02106C12106F741A
:200563009875F0E9F50C85F00D02106C7FFE7EFF120218E5904480F590E4F5F0F50A85F070
:200583000B12054F74FFF5A01204B612051C7F020202167FFC7EFF120218E4F5F07F0212C5
:2005A30001FCF0A3C5F0F0C5F0741075F0007F001201FCF0A3C5F0F0C5F07F001201FCE07C
:2005C300A3F5F0E0C5F0C39401C5F09400C5F0FBACF0740175F00012013678F9120073569F
:2005E300C5F00856C5F045F070287F001201FCE0A3F5F0E0C5F0C39401C5F09400C5F0FB87
:20060300ACF0740175F0001201360856C5F00856C5F045F0700302064278F9120073E6081C
:2006230086F07B017C0012014418F608A6F008E60886F07B017C0012014418F608A6F07F60
:20064300001201FCE0A3F5F0E0C5F01201647F001201FCF0A3C5F0F0C5F012015645F0708B
:20066300030206EC7F021201FCE0A3F5F0E0C5F07B017C001201367F021201FCF0A3C5F0DA
:20068300F0C5F078F9120073E60886F00886030886041201C070030206D47F021201FCE0A3
:2006A300A3F5F0E0C5F04401C5F04400C5F07F021201FCF0A3C5F0F0C5F0181818E60886EE
:2006C300F008C396C5F00896C5F0181818F608A6F078F9120073E60886F07B017C0012017D
:2006E3003618F608A6F00206427F021201FCE0A3F5F0E0C5F07F040202167FFE7EFF120293
:2007030018746375F0007F001201FCF0A3C5F0F0C5F078FB120073E60886F090077402009E
:20072300C0E58075F0007F001201FCF0A3C5F0F0C5F0020788E59075F0007F001201FCF0C8
:20074300A3C5F0F0C5F0020788E5A075F0007F001201FCF0A3C5F0F0C5F0020788E5B07508
:20076300F0007F001201FCF0A3C5F0F0C5F0020788600703004C0702003807010024070050
:2007830000000088077F001201FCE0A3F5F0E0C5F07F020202167FFB7EFF120218E47F0318
:2007A3001201FCF078FB120073E60886F0C0E0C0F01206FD158115817F021201FCF0745EF8
:2007C30075F070C0E0C0F078F9120073E60886F0C0E0C0F07F021201FCE07F041201FCF055
:2007E30075F000C0E0C0F0740375F00012105B7FFA12007FE4F5F07F001201FCF0A3C5F03F
:20080300F0C5F07F001201FCE0A3F5F0E0C5F07BF07C4F1201AA70230208767F001201FC11
:20082300E0A3F5F0E0C5F01201567F001201FCF0A3C5F0F0C5F012016480C878FB1200731D
:20084300E60886F0C0E0C0F01206FD158115817F031201FCF07F031201FCE075F0007F02C8
:200863001201FC1200957C001201A1600302087602081E7F001201FCE0A3F5F0E0C5F07B7E
:20088300F07CFF12019970030208A6746C75F070C0E0C0F0740175F00012105B1581158193
:2008A3000208D2747575F070C0E0C0F07F031201FCE07F041201FCF075F000C0E0C0F0742F
:2008C3000275F00012105B15811581158115817F050202167FAE7EFF120218741475F00078
:2008E3007F4E1201FCF0A3C5F0F0C5F074FA75F0007F501201FCF0A3C5F0F0C5F012054F28
:20090300747975F070C0E0C0F0907000E0A3F5F0E0C0F0C0E0740275F00012105B15811527
:200923008115811581747D75F070C0E0C0F0740175F00012105B158115817F0012020AE9E8
:200943008AF0C0E0C0F0744075F000C0E0C0F012109515811581158115817F401201FCF094
:200963007F401201FCE07003020FF0740175F0007F0012020A1200A7E98AF07F431201FCEE
:20098300F0A3C5F0F0C5F07F0012020AE98AF0C0E0C0F0743D75F000C0E0C0F01210F61584
:2009A300811581158115817F451201FCF0A3C5F0F0C5F07F451201FCE0A3F5F0E0C5F0451C
:2009C300F070030209E77F451201FCE0A3F5F0E0C5F01201567F451201FCF0A3C5F0F0C5B6
:2009E300F01201647F431201FC1200A089828A83E01200B745F060187F431201FC1200A019
:200A030089828A83E01200B77B201200AE12019945F07003020A3B7F431201FCE0A3F5F0E3
:200A2300E0C5F01201567F431201FCF0A3C5F0F0C5F01201640209E77F431201FC1200A00B
:200A430089828A83E01200B712017745F060227F401201FCE01200B77B011200AE12018B40
:200A6300600F7F451201FCE0A3F5F0E0C5F012017745F07003020A93748075F070C0E0C03A
:200A8300F0740175F00012105B15811581020928E4F5F07F0012020A1200A789828A83E096
:200AA30075F00090101D0200C07F451201FCE0A3F5F0E0C5F045F06003020AEA749075F088
:200AC30070C0E0C0F0E5807F471201FCF075F000C0E0C0F0740275F00012105B15811581F0
:200AE30015811581020B6B7F451201FC1200A089828A83E01200B77B211200AE1201997091
:200B030003020B16E4C0E0C0E012079915811581020B6B7F451201FCE0A3F5F0E0C0F0C0A7
:200B2300E012111315811581F580749775F070C0E0C0F07F451201FCE0A3F5F0E0C0F0C040
:200B4300E012111315811581C0E0C0F0E5807F471201FCF075F000C0E0C0F0740375F00045
:200B630012105B7FFA12007F02103D7F451201FCE0A3F5F0E0C5F045F06003020BAC74B057
:200B830075F070C0E0C0F0E5907F471201FCF075F000C0E0C0F0740275F00012105B158150
:200BA300158115811581020C317F451201FC1200A089828A83E01200B77B211200AE12017C
:200BC300997003020BDC740175F000C0E0C0F012079915811581020C317F451201FCE0A380
:200BE300F5F0E0C0F0C0E012111315811581F59074B775F070C0E0C0F07F451201FCE0A350
:200C0300F5F0E0C0F0C0E012111315811581C0E0C0F0E5907F471201FCF075F000C0E0C00B
:200C2300F0740375F00012105B7FFA12007F02103D7F451201FCE0A3F5F0E0C5F045F060AA
:200C430003020C7274D075F070C0E0C0F0E5A07F471201FCF075F000C0E0C0F0740275F0CB
:200C63000012105B1581158115811581020CF77F451201FC1200A089828A83E01200B77BD6
:200C8300211200AE1201997003020CA2740275F000C0E0C0F012079915811581020CF77F14
:200CA300451201FCE0A3F5F0E0C0F0C0E012111315811581F5A074D775F070C0E0C0F07F5F
:200CC300451201FCE0A3F5F0E0C0F0C0E012111315811581C0E0C0F0E5A07F471201FCF029
:200CE30075F000C0E0C0F0740375F00012105B7FFA12007F02103D7F451201FCE0A3F5F04F
:200D0300E0C5F045F06003020D3874F075F070C0E0C0F0E5B07F471201FCF075F000C0E074
:200D2300C0F0740275F00012105B1581158115811581020DBD7F451201FC1200A089828A6A
:200D430083E01200B77B211200AE1201997003020D68740375F000C0E0C0F01207991581FE
:200D63001581020DBD7F451201FCE0A3F5F0E0C0F0C0E012111315811581F5B074F775F0CC
:200D830070C0E0C0F07F451201FCE0A3F5F0E0C0F0C0E012111315811581C0E0C0F0E5B0DE
:200DA3007F471201FCF075F000C0E0C0F0740375F00012105B7FFA12007F02103D74057516
:200DC300F000C0E0C0F0120491158115817F501201FCE0A3F5F0E0C0F0C0E07F4E1201FCAB
:200DE300E0A3F5F0E0C0F0C0E012025815811581158115817F4A1201FCF0A3C5F0F0C5F0CF
:200E03007F4A1201FCE0A3F5F0E0C5F045F07003020E2E741075F071C0E0C0F0740175F090
:200E23000012105B1581158102103DE4F5F07F411201FCF0A3C5F0F0C5F07F411201FCE083
:200E4300A3F5F0E0C5F07B057C001201AA7023020EDC7F411201FCE0A3F5F0E0C5F012015B
:200E6300567F411201FCF0A3C5F0F0C5F012016480C8742775F071C0E0C0F07F411201FC0E
:200E8300E0A3F5F0E0C5F0C333C5F033C5F079027A701200A789828A83E0A3F5F0E0C0F091
:200EA300C0E07F411201FCE0A3F5F0E0C5F0C333C5F033C5F079D17A711200A789828A832A
:200EC300E0A3F5F0E0C0F0C0E0740375F00012105B7FFA12007F020E5502103D7F4312018B
:200EE300FCE0A3F5F0E0C5F045F07003020F137F431201FCE0A3F5F0E0C0F0C0E01211138B
:200F0300158115817F4E1201FCF0A3C5F0F0C5F0742E75F071C0E0C0F07F4E1201FCE0A3B2
:200F2300F5F0E0C0F0C0E0740275F00012105B158115811581158102103D7F431201FCE0E9
:200F4300A3F5F0E0C5F045F07003020F717F431201FCE0A3F5F0E0C0F0C0E0121113158112
:200F630015817F501201FCF0A3C5F0F0C5F0743F75F071C0E0C0F07F501201FCE0A3F5F0EE
:200F8300E0C0F0C0E0740275F00012105B15811581158115817F501201FCE0A3F5F0E0C583
:200FA300F07B0A7C001201AA70137F501201FCE0A3F5F0E0C5F07B707C171201B845F07034
:200FC30003020FED744775F071C0E0C0F0740175F00012105B15811581746475F0007F509D
:200FE3001201FCF0A3C5F0F0C5F002103D746675F071C0E0C0F0740175F00012105B1581B6
:201003001581749775F071C0E0C0F0740175F00012105B1581158102103D3D0F6600DF0E95
:201023007200C00D7800FA0C3300340C32006E0B3100AC0A30000000F00F0209287F5202B6
:20104300021612056F74EE75F002C0E0C0F0120491158115810208D723F42581F81201E476
:201063001211871201E4021156D2AF22C2AF2278FB1200738603088604740075F04B1201E3
:201083000312016E758920F58DF58B7588497598522278FC12007386041886031886831885
:2010A3008682E4FDFE121177B408028003B47F27ED4E60F11DBDFF011E74081211657420F5
:2010C30012116574081211658583F0E58212016485F083F58280CE121165F024F3600EA34E
:2010E3000DBD00010EED8EF012017D70B8E4F0ED8EF02278F912007386820886830886F003
:20110300E0B5F0068583F0E58222A370F3F5F02278FB1200738682088683E4FBFCFFE0A345
:20112300B42D030FE0A3C39430B40A005012FA740A75F0001200E92AFBE5F03400FC80E429
:20114300EB8CF0DF0302016E2278FB1200738682088683E0602D121165A380F778FB12000B
:2011630073E63099FDC299F599B40A17740D80F2E430980C3098FDC298E599B40D02740A06
:2011830075F000221212CE868208868308E4FEFFE070061212CEE4F022B42551A3E0B42D05
:2011A30005430780A3E0B4300343074024D0B40A00500BCE75F00AA42EFEA3E080EEE0B4CA
:2011C3006413E60886F030F70843072012016EA6F018F68003B4750543070A8021B478059C
:2011E3004307108019B46F1043070880111212CEF0A31212CEA38095B462624307027A0076
:20120300C004C005C006C007AB0753031F7C00E60886F0120103A6F018F6EDD007D006D08A
:2012230005D0042430B43A0040022407C0E00AE645F070CC1212CEA902EF30E505742DF0EB
:20124300A30A1212D7D0E0F0A3D9FA0808EF30E7A1EAC39E509C7420F0A30A80F4B4630D16
:20126300AA011212CE1212D7E6F0A380DEB47331C082C08386820886837A00E06004A30A9B
:2012830080F986831886821212CE1212D71212CEE0A31212CE6004F0A380F2D005D00480C3
:2012A300AAB4691B86017A00E76004090A80F91212CE1212D78601E76091F009A380F8F918
:2012C3007A011212CE1212D7E9809ECDC583CDCCC582CC22EE601A8FF020F715C002EAC337
:2012E3009E500C742030F6027430F0A30A80EFD002220E7034703970407045704A70802502
:20130300436F7079726967687420313939332C393420284329204D75726B576F726B732CCD
:2013230020496E632E005A65726F0041637475616C0052656631005265663200526566335B
:20134300006374696D6520257520782025750A00502564203D202575202E2E2E20007469CB
:201363006D656F75740A0025750A0025730A003E2000453A61726720726571756972656458
:201383000A0050303D25750A0050302073657420746F2025752C20657175616C73202575A5
:2013A3000A0050313D25750A0050312073657420746F2025752C20657175616C7320257583
:2013C3000A0050323D25750A0050322073657420746F2025752C20657175616C7320257561
:2013E3000A0050333D25750A0050332073657420746F2025752C20657175616C732025753F
:201403000A00636F756C646E27742074616B652072656164696E670A0025732025750A007A
:201423004379636C65636F756E74203D2025640A004350533D25640A00696E76616C6964E3
:20144300206370732C2063686F6F7365203130202D20363030300A00782074616B652072C9
:20146300656164696E670A72207365742072656164696E672074696D650A66206672657112
:201483000A7120717569740A0052656164206F722053657420706F7274732E2E2E0A3020DC
:2014A3005B3D76616C5D0A31205B3D76616C5D0A32205B3D76616C5D0A33205B3D76616C92
:0314C3005D0A00BF
:00000001FF
