:020000000144B9
:20003200542E452E4B2E4E2E4F432E4F2E4D2E000000E58775C7AA75C7555387FBF5F078F7
:20005200227400F608B83FFBE5F054105320EF422075813E75228075231090C78C79007A42
:200072000C7B5E7C02EB4C601CE493A3CAC583CAC9C582C9F0A3CAC583CAC9C582C91BBB6B
:20009200FFE31C80E09010F6E4F012C1DA75C7AA75C75543C602E504F0A3E505F075C7AA1B
:2000B20075C75553C6FD2212001B80FB7E00CF2522F582EE3523F583EF227E00CF2522F956
:2000D200EE3523FAEF227E00C5222FC522C5233EC5232274091204C7601D7A0B7420124DC3
:2000F200F6DAF97430124DF6742E124DF6740D124DF6740A024DF61209D8740475F00C12AE
:20011200097E1202B8400D751701744F124DF6120A2D80D9740875F00C12097E1202B85044
:200132000F700D7517027455124DF6120A2D80BD120A5B7A00742D550D4420C0E00A750D6B
:2001520000C3E5099481F4042418FB020170C3E50A13F50AE50B13F50BE50C13F50CDBEE90
:200172007B0A7C00E50B850AF012C68185F00AF50B8DF0E50C12C681F50CED2430C0E00A72
:20019200E50C70DCE50B70D8E50A70D4120A61C3E5099480FB4017EB6032C3E50C33F50CAC
:2001B200E50B33F50BE50A33F50A1B0201A9EB601BC3E50A13F50AE50B13F50BE50C13F5FC
:2001D2000C0BE4350C60E7F50C0201C0742EC0E00ABA0803020207120A5B7C00780F12041A
:2001F200CF7012120437E5F00C60027C002430C0E00ABA08E78A07C3740D9F2CF960077475
:2002120020124DF6D9F9C3E5819FFD04F9C3EF9CFFE709124DF61F7E00E7090EB42EFA19A1
:20023200191EE719124DF61FDEF8E709B42EFB19E709124DF6DFF9740D124DF6740A124D75
:20025200F68D81E4120A2D2278F912C602E60886F0C0E0C0F0740975F000C0E0C0F0120AEC
:200272006E158115811581158178FB12C602E60886F0C0E0C0F0740E75F000C0E0C0F0125C
:200292000A6E1581158115811581E50D12C634AB1212C62B12C71A70030202B4E4F5F002D5
:2002B20002B71202B822E509B50E15E50AB50F10E50BB5100BE50CB51106C3E4F5F00422CD
:2002D200E4F5F02278F912C602E60886F0C0E0C0F0740975F000C0E0C0F0120A6E158115BB
:2002F200811581158178FB12C602E60886F0C0E0C0F0740E75F000C0E0C0F0120A6E1581E7
:20031200158115811581E50D6003020330E5126007740175F0008003120343020342E5122E
:20033200600812034312C6ED8003E4F5F0020342221202B840057003740122E42278FB12CB
:20035200C602E60886F0C0E0C0F0740975F000C0E0C0F0120A6E1581158115811581C374C4
:20037200879509F8400EE50D700A08E50A03D8FD75F0002275F0012278FB12C602E60886F5
:20039200F0C0E0C0F0740975F000C0E0C0F0120A6E1581158115811581C3748F9509F8405B
:2003B200D30500E50B850AF0C3C5F013C5F013D8F7C0E0E50D6006E5F04480F5F0D0E0227A
:2003D20075F00122740075F00CC0E0C0F078F912C602E60886F0C0E0C0F0120A6E1581151A
:2003F200811581158122740E75F000C0E0C0F01203D61581158178FB12C602860608860760
:200412007810E5075480700FE506C333F506E50733F507D8EF800DE507F50FE506F510E8F0
:200432002480F50E22E50FF50AE510F50BE511F50CC3E51133F511E51033F510E50F33F5C7
:200452000FE433F5F0E51133F511E51033F510E50F33F50FE5F033F5F0E511250CF511E5F9
:2004720010350BF510E50F350AF50FE435F0F5F0E51133F511E51033F510E50F33F50FE584
:20049200F033F5F022E50D6007740175F0008003E4F5F02278FB12C602E60886F0C0E0C06E
:2004B200F0740975F000C0E0C0F0120A6E1581158115811581F875F000E6700E08E6700AFD
:2004D20008E6700608E670020422E42274091204C7701EE50A20E719C31509E5096014E5FB
:2004F2000C33F50CE50B33F50BE50A33F50A30E7E8C322D32278F912C602E60886F0C0E03E
:20051200C0F0740975F000C0E0C0F0120A6E158115811581158178FB12C602E60886F0C094
:20053200E0C0F0740E75F000C0E0C0F0120A6E158115811581158112056A740975F000C0DD
:20055200E0C0F0741375F000C0E0C0F0120A6E158115811581158122E5096004E50E700CF8
:20057200E4F50DF509F50AF50BF50C22E50D6512F50DE509250E30E70850177517010205BD
:2005920098400F751702E4F50DF509F50AF50BF50C222480F5091205E5ED20E70EEC33FC13
:2005B200EF33FFEE33FEED33FD1509EC33501574012FFF700F74012EFE7009E43DFD50047C
:2005D20013FD0509EFF50CEEF50BEDF50AE50960B2E422E511850CF0A4AFF0E510850CF0EB
:2005F200A42FFFE4E5F03400FEE511850BF0A42FE5F03EFFE43400FEE50F850CF0A42FFF74
:20061200E5F03EFEE43400FDE510850BF0A42FFFE5F03EFEED3400FDE511850AF0A42FFCE8
:20063200E5F03EFFED3400FEE50F850BF0A42FFFE5F03EFEE43400FDE510850AF0A42FFFC5
:20065200E5F03EFEED3400FDE50F850AF0A42EFEE5F03DFD2278F912C602E60886F0C0E096
:20067200C0F0740975F000C0E0C0F0120A6E158115811581158178FB12C602E60886F0C033
:20069200E0C0F0740E75F000C0E0C0F0120A6E15811581158115811206CA740975F000C01B
:2006B200E0C0F0741375F000C0E0C0F0120A6E158115811581158122E512650DF50DE50EFA
:2006D200700302058DE5097003020598C3E509950E500620E70602059520E7E62480F5091F
:2006F2001202BD500CC3E50A950F7002800302071CC3E50A13F50AE50B13F50BE50C13F58B
:200712000C0509E509700302058D12074BC0E012074BC0E012074BC0E012074B54F0C360E1
:2007320001D3E4D0E03400F50CD0E03400F50BD0E03400F50A1204DE22AA0AA90BA80C858C
:200752000AF0E50B7C00AB0F12C68130F00274FFFBF50A750B00750C001205E585020A856C
:20077200010B85000CC3E50C9FFFE50B9EFEE50A9DFD500D1BEF2510FFEE350FFEED340077
:20079200FD750C008F0B8E0AEB2278F912C602E60886F0C0E0C0F0740975F000C0E0C0F059
:2007B200120A6E158115811581158178FB12C602E60886F0C0E0C0F0740E75F000C0E0C0FD
:2007D200F0120A6E15811581158115811207E412086AE512F4F512740975F000C0E0C0F090
:2007F200741375F000C0E0C0F0120A6E15811581158115812278F912C602E60886F0C0E058
:20081200C0F0740975F000C0E0C0F0120A6E158115811581158178FB12C602E60886F0C091
:20083200E0C0F0740E75F000C0E0C0F0120A6E158115811581158112086A740975F000C0D7
:20085200E0C0F0741375F000C0E0C0F0120A6E158115811581158122E50D6512F5F0C3E5C0
:2008720009950EF940249418501E780F740A2402FC0208B3E50EF509E50FF50AE510F50B86
:20089200E511F50CE512F50DE422F404F9C3941850E2E50EF509E512F50D780A740F2402A9
:2008B200FCE665F0FD08E665F0FE08E665F0FFE95407FBE95418030303F9E9600AAF06AE23
:2008D20005ADF0190208CCEB6010E5F013ED13FDEE13FEEF13FF1B0208D9E5F013A804EFB4
:2008F2003618F50CEE3618F50BED36F50AE5F0701A5054E50A13F50AE50B13F50BE50C132E
:20091200F50C0509E509703F02058D4015E50DF4F50DE50CF404F50CE4950BF50BE4950A57
:20093200F50AE50A20E7207020D3E5099408403604F509E50BF50AE50CF50B7004E50A6088
:2009520025E4F50C020934E422E50914F5096019C3E50C33F50CE50B33F50BE50A33F50A91
:2009720030E7E6020959020598020595A983A882F58285F083E4F512E0330350037512FF2A
:20099200F5F0A3E033C5F033F50E6001D3E5F013F50FA3E0F510A3E0F5118983888222E571
:2009B200812404F8D0E0F6D0E018F6E50D33E50913C0E0E50A2313C0E0E50BC0E0E50CC054
:2009D200E00581058122E5812404F8D0E0F6D0E018F6E51233E50E13C0E0E50F2313C0E073
:2009F200E510C0E0E511C0E00581058122D0E0F583D0E0F582750D00D0E0F50CD0E0F50B5A
:200A1200D0E033F5F0D0E033F5095003750DFFC36001D3E5F013F50AE47322D0E0F583D0F8
:200A3200E0F582751200D0E0F511D0E0F510D0E033F5F0D0E033F50E50037512FFC36001B0
:200A5200D3E5F013F50FE473227809790E8004780E79097F05E6F70809DFFA2278F912C602
:200A720002E583C0E0E582C0E08607088606EE7043EFB40903020A8DB40E0D8F017D05E781
:200A920009C0E0DDFA020AF47505008F0109E733F5F019E733C0E050037505FFC36001D31C
:200AB200E5F013C0E00909E7C0E009E7C0E0EDC0E0020AF47505008E838F82A3E033F5F0AF
:200AD2008E838F82E033C0E050037505FFC36001D3E5F013C0E0A3A3E0C0E0A3E0C0E0ED0E
:200AF200C0E0088607088606EFB40903020B04B40E1AEF2404F9D0E0F7D0E019F7D0E0193F
:200B1200F7D0E019F7D0E019F7020B86E506B40023EF2403F9D0E0F5F0D0E0F7D0E019F7EC
:200B3200D0E0C5F033D0E013C5F0231319F7E5F019F78040EFF582850683A3A3A3D0E0F9A2
:200B5200D0E0F0E5828583F012C6DCF58285F083D0E0F0E58212C6DCF58285F083D0E0C9BE
:200B720033D0E013C92313F0E58212C6DCF58285F083E9F0D0E0F582D0E0F58375F000EF78
:200B9200227FFD7EFF1200DAE4F5F0F52485F02578FB12C602E60886F0F52685F027E4F57F
:200BB2002AE5268527F07B007C0012C7347003020C0BE52A75F000C333C5F033C5F078F94A
:200BD20012C602860108860212C624E5248525F089828A8312C77E2BC5F03CC5F0F5248595
:200BF200F025E52A052AE5268527F012C6DCF52685F02712C6D3020BB3E5248525F07F03EE
:200C12000200D878FB12C602E60886F0F52485F025E5248525F045F0600CE5248525F07B22
:200C3200FF7CFF12C71A45F07003020C72A924AA2589828A83E0A3F5F0E0C5F0F52685F0CC
:200C520027A924AA25E4F5F089828A83F0A3C5F0F0C5F0E5268527F0F52485F025020C2366
:200C72002278FB12C602E6F52AE52A75F0007B1A7C0012C73D7003020C8F020D14E52A759C
:200C9200F0007B247C0012C66679207A0812C62489828A83E0A3F5F0E0C0F0C0E0120C15FF
:200CB20015811581E52A75F0007B247C0012C66679227A0812C62489828A83E0A3F5F0E0B0
:200CD200C0F0C0E0120C1515811581740075F008C0E0C0F0E52A75F0007B247C0012C66655
:200CF200D004D0032BC5F03CC0F0C0E0E4C0E0C0E0742475F000C0E0C0F012C4F07FFA120D
:200D1200C60E2278FB12C602E6F52AE52A75F0007B1E7C0012C66679187A1212C62489828E
:200D32008A83E0A3F5F0E0C0F0C0E0120C1515811581E52A75F0007B1E7C0012C666791A43
:200D52007A1212C62489828A83E0A3F5F0E0C0F0C0E0120C1515811581E52A75F0007B1EDD
:200D72007C0012C666791C7A1212C62489828A83E0A3F5F0E0C5F0F52885F029E5288529FF
:200D9200F045F0600CE5288529F07BFF7CFF12C71A45F07003020E13E4F52BE52B75F000D9
:200DB2007B037C0012C7247003020DFC8006E52B052B80E7E52B75F0007B0A7C0012C666CB
:200DD2002528C5F03529C5F0240AC5F03400C5F0F9AAF089828A83E0A3F5F0E0C0F0C0E0DD
:200DF200120C1515811581020DC0A928AA2989828A83E0A3F5F0E0C5F0F52885F029020D30
:200E12008E740075F012C0E0C0F0E52A75F0007B1E7C0012C666D004D0032BC5F03CC0F0BD
:200E3200C0E0E4C0E0C0E0741E75F000C0E0C0F012C4F07FFA12C60E22E4F5F0F52485F0F7
:200E520025E4F5F0F52685F027E5268527F07B167C0712C7247003020EBA8012E52685279D
:200E7200F012C6D3F52685F02712C6DC80DBE5268527F07B207C0012C66679007A1D12C61B
:200E92002489828A83E0A3F5F0E0C5F045F07003020EB7E5248525F0240FC5F03400C5F024
:200EB200F52485F025020E6EE5248525F022740075F012C39401C5F09400C5F0F52485F05B
:200ED2002578FB12C602E67003020EF1740075F01DC39401C5F09400C5F0F52485F025E550
:200EF200248525F07BFE7CFF12C7247003020F1BE5248525F012C6D3F52485F025F9AAF0FE
:200F1200E489828A83F0020EF1740075F008C39401C5F09400C5F0F52485F02574D075F03F
:200F32000BC39401C5F09400C5F0AB24AC2512C7347003020F61E5248525F012C6D3F52445
:200F520085F025F9AAF0E489828A83F0020F2E227FFB7EFF1200DAE52A7F001200BEF0E5EF
:200F7200288529F07F011200BEF0A3C5F0F0C5F0E4F5F07F031200BEF0A3C5F0F0C5F0E470
:200F9200F5F0F52885F029E5288529F07B167C0712C724700302107D8012E5288529F01292
:200FB200C6D3F52885F02912C6DC80DBE5288529F07B207C0012C66679007A1D12C6248927
:200FD200828A83E0A3F5F0E0C5F045F0600302107AE5288529F07B207C0012C66679007A5C
:200FF2001D12C62474FFF5F089828A83F0A3C5F0F0C5F0E4F52AE52A75F0007B0F7C0012DA
:20101200C72470030210558006E52A052A80E7E5288529F07B207C0012C66679027A1D12AA
:20103200C624E52A75F000C333C5F033C5F012C624E475F08089828A83F0A3C5F0F0C5F0E3
:2010520002101BE5288529F07B207C0012C66679007A1D12C624E98AF07F031200BEF0A3FD
:20107200C5F0F0C5F002107D020FAC7F001200BEE0F52A7F011200BEE0A3F5F0E0C5F0F528
:201092002885F0297F031200BEE0A3F5F0E0C5F07F050200D87FFC7EFF1200DA78F712C6A0
:2010B20002E60886F07B007C0012C72470030210C9E4F5F002129E78FB12C6028601088699
:2010D2000289828A83E0A3F5F0E0C5F07F001200BEF0A3C5F0F0C5F078F712C602E60886EE
:2010F200F07B0F7C0012C73D600C7F001200BEE0A3F5F0E0C5F045F0700302116A7F001264
:2011120000BE12C78589828A83E0A3F5F0E0C5F07BFF7CFF12C711700302113102116A7FFA
:20113200001200BE12C78589828A83E0A3F5F0E0C5F07F001200BEF0A3C5F0F0C5F078F7AF
:2011520012C602E60886F0C3940FC5F09400C5F018F608A6F00210EA7F001200BEE0A3F56C
:20117200F0E0C5F012C6ED45F0702C7F001200BE12C78589828A83E0A3F5F0E0C5F07BFF06
:201192007CFF12C711601078F712C602E60886F07B0F7C0012C73D45F0700302127878F9FA
:2011B20012C602E612C63412C6ED45F07012120F627F021200BEF0A3C5F0F0C5F012C6ED4F
:2011D20045F070030211DFE4F5F002129E7F001200BEE0A3F5F0E0C5F045F07003021214CC
:2011F2007F001200BE12C7857F021200BEE0A3F5F0E0C5F089828A83F0A3C5F0F0C5F002DB
:20121200123578FB12C60286010886027F021200BEE0A3F5F0E0C5F089828A83F0A3C5F063
:20123200F0C5F07F021200BEE0A3F5F0E0C5F07F001200BEF0A3C5F0F0C5F078F712C60224
:20125200E60886F07B0F7C0012C73D700302127818E60886F0C3940FC5F09400C5F018F60F
:2012720008A6F00210EA7F001200BE12C785740275F00012C62478F712C602E60886F0C3CE
:2012920033C5F033C5F012C624E98AF07F040200D8E4F5F022E4F5F02278F712C602E6F5B6
:2012B2002E08080808E60886F05402C5F05400C5F045F0600D18E60886F05400C5F05402D9
:2012D200C5F045F070030213357420F52E78F512C602E60886F0C0E0C0F0742275F007C0E1
:2012F200E0C0F0E52E75F000C0E0C0F079227A03C001C00279207A03D083D082E0A3F5F0C6
:20131200E0C5F089828A8312C77EC39BC5F09CC0F0C0E0740475F00012C4E27FF812C60EC6
:201332000213D079147A0389828A83E0A3F5F0E0C5F05401C5F05400C5F045F060030213D7
:2013520059E4F5F00214D5E4F5F078F512C602860108860212C624E52E244189828A83F0CB
:20137200E52E75F0007B247C0012C66679047A0812C62489828A83E060030213EB78F512B5
:20139200C602E60886F02401C5F03400C0F0C0E0742A75F007C0E0C0F0080808E60886F0DB
:2013B2007BE87C0312C67A2401C5F03400C0F0C0E0740375F00012C4E27FFA12C60E74041E
:2013D20075F00078F512C602860108860212C624E489828A83F00214B4E52E75F0007B246F
:2013F2007C0012C66679047A0812C62478F912C602E60886F089828A8312C77A7C0012C6B8
:201412007AF52685F027E5268527F045F0600302148278F512C602E60886F02401C5F034F9
:2014320000C0F0C0E0743075F007C0E0C0F0E52E75F0007B247C0012C66679047A0812C642
:201452002478F512C602E60886F089828A8312C77A7C0012C6812401C5F03400C0F0C0E00D
:20147200740375F00012C4E27FFA12C60E0214B478F512C602E60886F0C0E0C0F074377582
:20149200F007C0E0C0F0E5268527F02401C5F03400C0F0C0E0740375F00012C4E27FFA12CF
:2014B200C60E740575F00078F512C602860108860212C624E489828A83F078F512C602E6F5
:2014D2000886F0227FFE7EFF1200DA79147A0389828A83E0A3F5F0E0C5F05401C5F05400F7
:2014F200C5F045F0600302151D9010D9E0A3F5F0E0C5F0547FC5F0547FC5F09010D9F0A3C7
:20151200C5F0F0C5F0E4F5F00216C779287A0389828A83E0A3F5F0E0C5F0F52AE52A75F0F1
:20153200007B247C0012C666791C7A0812C62489828A83E0A3F5F0E0C5F0F52685F027E57C
:201552002A75F000C0E0C0F0E5268527F0C0E0C0F0740175F000C0E0C0F01212A37FFA1227
:20157200C60E7F001200BEF0A3C5F0F0C5F0E52A75F0007B247C0012C66679047A0812C6A5
:2015920024E5268527F089828A8312C77A7C0012C67AF52DE52A75F0007B247C0012C66646
:2015B20079047A0812C624E5268527F089828A8312C77A7C0012C681F52C9010D9E0A3F525
:2015D200F0E0C5F0547FC5F0547FC5F09010D9F0A3C5F0F0C5F078FB12C602E612C6347B44
:2015F2000112C62B12C70170030216010216C77F001200BEE0A3F5F0E0C5F045F0600302AA
:2016120016170216C77F001200BEE0A3F5F0E0C5F02408C5F03400C5F0F9AAF089828A83EB
:20163200E054FFF52EE52E60030216410216C7E52EE52D75F000AB2E7C0012C72470030243
:2016520016570216C778FB12C602E6700302166CE52C052CE4F52D021673E52EC39401F5CF
:201672002DE52A75F0007B247C0012C66679047A0812C624E52C75F00089828A8312C77A82
:201692007C0012C666252DC5F03400C5F0F52685F027E52A75F0007B247C0012C666791C75
:2016B2007A0812C624E5268527F089828A83F0A3C5F0F0C5F07F020200D8E52A75F0007BA4
:2016D200247C0012C66679067A0812C624C001C00279227A0389828A83E0A3F5F0E0C5F06D
:2016F200D083D082F079147A0389828A83E0A3F5F0E0C5F05404C5F05400C5F045F0600376
:2017120002171802177AE52A75F0007B247C0012C66679087A0812C624C001C00279247A8D
:201732000389828A83E0A3F5F0E0C5F0D083D082F0A3C5F0F0C5F0E52A75F0007B247C005E
:2017520012C666790A7A0812C624C001C00279267A0389828A83E0A3F5F0E0C5F0D083D061
:2017720082F0A3C5F0F0C5F0227FFE7EFF1200DA79147A0389828A83E0A3F5F0E0C5F0546D
:2017920001C5F05400C5F045F060030217A6E4F5F0021A3279287A0389828A83E0A3F5F06C
:2017B200E0C5F0F52AE52A75F0007B247C0012C666791C7A0812C62489828A83E0A3F5F003
:2017D200E0C0F0C0E0740175F000C0E0C0F0E52A7B247C0012C66679207A0812C624E98AAB
:2017F200F0C0E0C0F01210A77FFA12C60E7F001200BEF0A3C5F0F0C5F07F001200BEE0A361
:20181200F5F0E0C5F045F06003021867740375F000C0E0C0F012446315811581743F75F0FA
:2018320007C0E0C0F01287D61581158179147A0389828A83E0A3F5F0E0C5F054FEC5F0542A
:20185200FFC5F089828A83F0A3C5F0F0C5F0E475F001021A327F001200BE12C78578FB12F3
:20187200C602E60886F089828A83F0A3C5F0F0C5F0E52A75F0007B247C0012C66679007A65
:201892000812C62489828A83E0A3F5F0E0C5F07B007C0012C71170030218CEE52A75F0006D
:2018B2007B247C0012C66679147A0812C624E98AF0C0E0C0F012434915811581E52A75F0C1
:2018D200007B247C0012C666791C7A0812C62489828A83E0A3F5F0E0C5F012C6D389828A35
:2018F20083F0A3C5F0F0C5F012C6DC1216CCE52A75F0007B247C0012C666791C7A0812C602
:2019120024C001C002E52A75F0007B247C0012C66679007A0812C624D083D082E0A3F5F03D
:20193200E0C5F089828A8312C77E12C7347003021984E52A75F0007B247C0012C66679002C
:201952007A0812C624C001C002E52A75F0007B247C0012C666791C7A0812C62489828A837C
:20197200E0A3F5F0E0C5F0D083D082F0A3C5F0F0C5F0740175F000C0E0C0F01214D615810A
:201992001581E52A75F0007B247C0012C66679047A0812C624C001C002E52A75F0007B2441
:2019B2007C0012C66679057A0812C624D083D082E075F00089828A8312C77A7C0012C66650
:2019D200F52485F025E5248525F045F06025E52A75F0007B247C0012C666791C7A0812C629
:2019F2002489828A83E0A3F5F0E0C5F0AB24AC2512C73D45F07003021A2F740375F000C057
:201A1200E0C0F012446315811581741375F007C0E0C0F01287D61581158102183EE4F5F040
:201A32007F020200D874FFF5F022745E75F00EC0E0C0F079287A0389828A83E0A3F5F0E0AC
:201A5200C0F0C0E079287A0389828A83E0A3F5F0E0C5F07B247C0012C666791C7A0812C6A9
:201A72002489828A83E0A3F5F0E0C0F0C0E078F512C602E60886F0C0E0C0F01212AB7FF83F
:201A920012C60E2278F912C602E60886F05400C5F05480C5F045F07003021AF208E60886B9
:201AB200F05400C5F05480C5F045F06003021AC8E4F5F0021B3978F912C602E60886F054F4
:201AD200FFC5F054FFC0F0C0E008E60886F054FFC5F054FFC5F0D004D00312C734021B3917
:201AF20078FB12C602E60886F05400C5F05480C5F045F07003021B12740175F000021B398A
:201B120078F912C602E60886F054FFC5F054FFC0F0C0E008E60886F054FFC5F054FFC5F0DD
:201B3200D004D00312C72422740875F00079327A0012C624E4F5F0F709A7F0E4F5F07932F7
:201B52007A0012C62474FF75F07FF709A7F0740275F00079327A0012C62474FF75F08FF7B5
:201B720009A7F0740075F00CC0E0C0F0740975F000C0E0C0F0120A6E15811581158115816A
:201B9200E4F5F0F52885F029E52C75F0007B247C0012C66679007A0812C624E5288529F03E
:201BB20089828A8312C77E12C7247003021D2E8012E5288529F012C6D3F52885F02912C66C
:201BD200DC80C5E5288529F0C0E0C0F0E4C0E0C0E0E52C75F0007B247C0012C66679207AD1
:201BF2000812C624E98AF0C0E0C0F01210A77FFA12C60EF52485F025E5248525F045F06009
:201C120003021C19021D2EA924AA2589828A83E0A3F5F0E0C5F07B007C8012C711700302A4
:201C32001C37021BC312C516A924AA2589828A83E0A3F5F0E0C0F0C0E0740275F0007932A0
:201C52007A0012C624E70987F0C0E0C0F0121A96158115811581158145F07003021C987459
:201C72000275F00079327A0012C624C001C002A924AA2589828A83E0A3F5F0E0C5F0D007BF
:201C9200D000F608A6F0E4F5F079327A0012C624E70987F0C0E0C0F0A924AA2589828A8379
:201CB200E0A3F5F0E0C0F0C0E0121A96158115811581158145F07003021CF2E4F5F0793234
:201CD2007A0012C624C001C002A924AA2589828A83E0A3F5F0E0C5F0D007D000F608A6F00D
:201CF20012C513A924AA2589828A83E0A3F5F0E0C0F0C0E0127ED41581158112086A74080C
:201D120075F00079327A0012C624E70987F012C6D319F709A7F012C6DC021BC3740875F0F4
:201D32000079327A0012C624E70987F07B017C0012C7347003021F72740875F00079327AF8
:201D52000012C624E70987F0C0E0C0F01203F8158115811206CA1209B1E50D6006E475F036
:201D7200808003E4F5F0F52685F027E4F50D740475F00079327A0012C624C001C0027409EA
:201D920075F000C0E0C0F012038A158115814526C5F04527C5F0D007D000F608A6F012091A
:201DB200FF740975F000C0E0C0F0748F75F010C0E0C0F0120A6E15811581158115817400C2
:201DD20075F00CC0E0C0F0740975F000C0E0C0F0120A6E15811581158115811209B112C579
:201DF20016E4F5F0F52885F029E52C75F0007B247C0012C66679007A0812C624E5288529B6
:201E1200F089828A8312C77E12C7247003021F198012E5288529F012C6D3F52885F02912F2
:201E3200C6DC80C5E5288529F0C0E0C0F0E4C0E0C0E0E52C75F0007B247C0012C666792022
:201E52007A0812C624E98AF0C0E0C0F01210A77FFA12C60EF52485F025E5248525F045F08C
:201E72006003021E7A021F19A924AA2589828A83E0A3F5F0E0C5F07B007C8012C711700394
:201E9200021E98021E24A924AA2589828A83E0A3F5F0E0C0F0C0E0127ED415811581748F55
:201EB20075F010C0E0C0F0740975F000C0E0C0F0120A6E15811581158115811207DE7409C3
:201ED20075F000C0E0C0F0740E75F000C0E0C0F0120A6E158115811581158112056A740924
:201EF20075F000C0E0C0F0740E75F000C0E0C0F0120A6E15811581158115811209FF1208CE
:201F12006A1209B1021E24740875F00079327A0012C624E70987F0C39401C5F09400C0F07B
:201F3200C0E01203F8158115811209FF1206CA125330740675F00079327A0012C624C00164
:201F5200C002740975F000C0E0C0F012038A15811581D007D000F608A6F012C513021F98D2
:201F7200740475F00079327A0012C624E4F5F0F709A7F0740675F00079327A0012C624E40D
:201F9200F5F0F709A7F022E4F52EE52E75F00078F912C60286037C0012C7247003021FE051
:201FB2008006E52E052E80E2741E75F00CC0E0C0F078F912C602E675F000C0E0C0F0740232
:201FD200124E8C1581158115811581021FB42278FB12C602E60886F0C0E0C0F0748F75F04B
:201FF20010C0E0C0F079147A0389828A83E0A3F5F0E0C5F04400C5F04480C0F0C0E0125CD5
:20201200577FFA12C60E742175F00CC0E0C0F078F712C602E60886F0C0E0C0F0748F75F03D
:2020320010C0E0C0F0740375F000124E8C7FFA12C60E2278FB12C602E60886F0C0E0C0F0E4
:20205200740975F000C0E0C0F0120A6E15811581158115811200E5227FFB7EFF1200DAE579
:202072002D7F001200BEF0E52C7F011200BEF0740075F00CC0E0C0F0748F75F010C0E0C084
:20209200F0120A6E1581158115811581740275F00079327A0012C624E70987F0C0E0C0F0A9
:2020B200127ED415811581740E75F000C0E0C0F0748F75F0102404C5F03400C0F0C0E0125C
:2020D2000A6E1581158115811581740E75F000C0E0C0F0740975F000C0E0C0F0120A6E1516
:2020F20081158115811581E4F5F079327A0012C624E70987F0C0E0C0F0127ED4158115815A
:20211200740E75F000C0E0C0F0748F75F010240CC5F03400C0F0C0E0120A6E1581158115CA
:202132008115811207DE1209B1E51F54017003022157747875F000C0E0C0F01203F8158129
:202152001581022167740A75F000C0E0C0F01203F8158115811206CAE51F5404700302210D
:2021720093749775F007C0E0C0F0740E75F000C0E0C0F0120A6E15811581158115811206C2
:20219200CA740975F000C0E0C0F0748F75F0102408C5F03400C0F0C0E0120A6E158115819E
:2021B20015811581E51F5401700302221B741075F000C0E0C0F01203F81581158112056AE3
:2021D200748F75F0102404C5F03400C0F0C0E0740E75F000C0E0C0F0120A6E158115811512
:2021F20081158112086A740975F000C0E0C0F0748F75F0102404C5F03400C0F0C0E0120A0B
:202212006E15811581158115811209FFE51F5402700302223A740C75F000C0E0C0F0120357
:20223200F81581158102224A740675F000C0E0C0F01203F8158115811206CA740975F000CE
:20225200C0E0C0F0748F75F0102410C5F03400C0F0C0E0120A6E15811581158115817409D8
:2022720075F000C0E0C0F012038A158115817F031200BEF0A3C5F0F0C5F07F031200BEE05B
:20229200A3F5F0E0C5F045F060030222B0740175F0007F031200BEF0A3C5F0F0C5F0748F87
:2022B20075F0102408C5F03400C0F0C0E0740975F000C0E0C0F0120A6E158115811581159F
:2022D20081748F75F0102404C5F03400C0F0C0E0740E75F000C0E0C0F0120A6E15811581A5
:2022F2001581158112086A740975F000C0E0C0F0748F75F0102404C5F03400C0F0C0E012FF
:202312000A6E1581158115811581740475F00079327A0012C624E70987F0C0E0C0F0127E96
:20233200D415811581740E75F000C0E0C0F0740975F000C0E0C0F0120A6E158115811581D6
:202352001581E4F5F079327A0012C624E70987F0C0E0C0F0127ED415811581740E75F000BD
:20237200C0E0C0F0748F75F0102418C5F03400C0F0C0E0120A6E1581158115811581120713
:20239200DE748F75F0102408C5F03400C0F0C0E0740E75F000C0E0C0F0120A6E1581158183
:2023B200158115811206CA749375F007C0E0C0F0740E75F000C0E0C0F0120A6E158115814D
:2023D2001581158112086A740975F000C0E0C0F012038A15811581F52685F027E5268527D0
:2023F200F07F021200BEF0E4F52DE52D75F0007B027C0012C7247003022DDD8006E52D050B
:202412002D80E7E52D7003022635740875F00079327A0012C624E70987F0C0E0C0F0120366
:20243200F815811581748F75F0102410C5F03400C0F0C0E0740975F000C0E0C0F0120A6EC5
:20245200158115811581158112056A740975F000C0E0C0F0740E75F000C0E0C0F0120A6E9E
:202472001581158115811581748F75F0102400C5F03400C0F0C0E0740975F000C0E0C0F0EB
:20249200120A6E15811581158115811206CA749B75F007C0E0C0F0740E75F000C0E0C0F064
:2024B200120A6E158115811581158112056A749B75F007C0E0C0F0740E75F000C0E0C0F0A5
:2024D200120A6E158115811581158112056A740975F000C0E0C0F012038A15811581F5266F
:2024F20085F027E5268527F0C0E0C0F0748F75F0102424C5F03400C0F0C0E079147A0389AB
:20251200828A83E0A3F5F0E0C5F04400C5F04480C5F04480C5F04400C5F054BFC5F054FF1E
:20253200C0F0C0E0125C577FFA12C60EE5268527F07B017C0012C6C2F52685F027E5268595
:2025520027F0C0E0C0F0748F75F0102424C5F03400C5F0240AC5F03400C0F0C0E079147A36
:202572000389828A83E0A3F5F0E0C5F04400C5F04480C5F04480C5F04400C5F054BFC5F085
:2025920054FFC0F0C0E0125C577FFA12C60E742B75F00CC0E0C0F0748F75F0102424C5F08D
:2025B2003400C5F0240AC5F03400C0F0C0E0748F75F0102424C5F03400C0F0C0E0740375D4
:2025D200F000124E8C7FFA12C60E741275F000C0E0C0F0742DC0E0C0F0121F99158115818C
:2025F20015811581744675F00CC0E0C0F0740175F000124E8C15811581E51F540170030262
:202612002635744875F00CC0E0C0F0740175F000124E8C15811581E4C0E0C0E0124DBA158C
:20263200811581E4F52E748F75F0102418C5F03400C0F0C0E0748F75F010240CC5F03400EC
:20265200C0F0C0E0120A6E1581158115811581022D92740075F00CC0E0C0F0748F75F010C8
:202672002414C5F03400C0F0C0E0120A6E1581158115811581748F75F010240CC5F0340064
:20269200C0F0C0E0740975F000C0E0C0F0120A6E1581158115811581740975F000C0E0C082
:2026B200F012038A15811581F52685F027E50D70030226D8E5268527F04400C5F04480C508
:2026D200F0F52685F027E4F5F0F52885F029E52C75F0007B247C0012C66679007A0812C61B
:2026F20024E5288529F089828A8312C77E12C72470030228F88012E5288529F012C6D3F51B
:202712002885F02912C6DC80C5E5288529F0C0E0C0F0E4C0E0C0E0E52C75F0007B247C0038
:2027320012C66679207A0812C624E98AF0C0E0C0F01210A77FFA12C60EF52485F025E5249B
:202752008525F045F0600302275F0228F8A924AA2589828A83E0A3F5F0E0C5F07B007C8063
:2027720012C711700302277D022709A924AA2589828A83E0A3F5F0E0C5F0F52485F025E5C9
:20279200248525F054FFC5F0547FC0F0C0E0E5268527F054FFC5F0547FC5F0FBACF0D0F0B0
:2027B200D0E0C39BC5F09CC0F0C0E012C519158115817F031200BE12C77E12C73470030211
:2027D20027D7022709E5248525F0C0E0C0F0127ED415811581748F75F010240CC5F03400A3
:2027F200C0F0C0E0740975F000C0E0C0F0120A6E15811581158115811207DEE4F50D748F83
:2028120075F0102410C5F03400C0F0C0E0740E75F000C0E0C0F0120A6E158115811581152C
:20283200811206CA749375F007C0E0C0F0740E75F000C0E0C0F0120A6E15811581158115C8
:2028520081120343F52AE52A75F0007B017C0012C711700302286C022709740975F000C03B
:20287200E0C0F0740E75F000C0E0C0F0120A6E1581158115811581E4F512749375F007C07F
:20289200E0C0F0740975F000C0E0C0F0120A6E15811581158115811207DE748F75F01024EF
:2028B20014C5F03400C0F0C0E0740E75F000C0E0C0F0120A6E158115811581158112086A1C
:2028D200740975F000C0E0C0F0748F75F0102414C5F03400C0F0C0E0120A6E158115811500
:2028F200811581022709E52D600302295B748F75F0102414C5F03400C0F0C0E0748F75F031
:20291200102400C5F03400C0F0C0E01202D6158115811581158145F07003022958748F7553
:20293200F0102414C5F03400C0F0C0E0748F75F0102400C5F03400C0F0C0E0120A6E15811F
:20295200158115811581022B6A748F75F010240CC5F03400C0F0C0E0740975F000C0E0C0E9
:20297200F0120A6E1581158115811581E50D6006E475F0808003E4F5F0F52685F027E4F576
:202992000D740975F000C0E0C0F012038A158115814526C5F04527C5F0F52685F027E51F1F
:2029B200540112C63412C6ED45F07011E52E240475F0007B087C0012C67A12C6ED45F070CE
:2029D20003022A63E5268527F0C0E0C0F0748F75F0102424C5F03400C0F0C0E079147A0359
:2029F20089828A83E0A3F5F0E0C5F04400C5F04480C0F0C0E0125C577FFA12C60E747CF59A
:202A1200317F021200BEE075F000AB2E7C0012C7117003022A2C742BF531E51F5401600352
:202A3200022A63744B75F00CC0E0C0F0748F75F0102424C5F03400C0F0C0E0E53112C6345A
:202A5200C0E0C0F0740375F000124E8C7FFA12C60E748F75F0102414C5F03400C0F0C0E004
:202A7200740975F000C0E0C0F0120A6E1581158115811581E51F54017003022AA274647549
:202A9200F000C0E0C0F01203F815811581022AB2741175F000C0E0C0F01203F8158115815A
:202AB20012056A748F75F0102400C5F03400C0F0C0E0740E75F000C0E0C0F0120A6E158157
:202AD2001581158115811206CA740975F000C0E0C0F012038A15811581F52AE51F5401705B
:202AF20003022B26E52E75F0007B087C0012C67AF52B748F75F0102430C5F03400C5F025F6
:202B12002BC5F03400C5F0F9AAF0E52A89828A83F0022B6AE4F52BE52B75F000AB2A7C00CF
:202B320012C7247003022B558006E52B052B80E7742075F000C0E0C0F0124DBA15811581D6
:202B5200022B3C745075F00CC0E0C0F0740175F000124E8C15811581E52E052EE52D75F0C6
:202B72000045F06017E52E75F0007B087C0012C67A12C6ED45F06004E51F54017003022D75
:202B920013745375F00CC0E0C0F0E52E75F0007B107C0012C67A45F0600F748F75F0102477
:202BB20024C5F03400C5F08005745B75F00CC0E0C0F0E53112C634C0E0C0F0740375F000DE
:202BD200124E8C7FFA12C60EE4C0E0C0E0124DBA15811581E52E75F000F52485F025E4F52B
:202BF2002BE52B75F0007B847C0012C72B7003022CF78006E52B052B80E7E52B75F0007BEF
:202C1200107C0012C7246040E52B75F0007B027C0012C67A12C6ED45F0602D7F021200BEE1
:202C3200E075F000AB24AC2512C72B601BE5248525F0C39408C5F09400C5F07F021200BECD
:202C520012C77A7C0012C72445F07003022C86E5248525F07F021200BE12C77AC39BC5F0E0
:202C72009400C5F0FBACF0740175F00012C6B4F52A022C89E4F52AE4F52EE52E75F0007B29
:202C9200087C0012C7247003022CE48006E52E052E80E7748F75F010252EC5F03400C5F080
:202CB2002430C5F03400C5F0F9AAF089828A83E075F000AB2B7C0012C7117003022CE174EE
:202CD2008075F000AB2E7C0012C6C2452AF52A022C9FE52A75F000C0E0C0F0124DBA158140
:202CF2001581022C06E5248525F0F52E746175F00CC0E0C0F0740175F000124E8C1581152B
:202D120081E52E75F000C0E0C0F01203F815811581748F75F0102408C5F03400C0F0C0E042
:202D3200740975F000C0E0C0F0120A6E158115811581158112056A748F75F0102418C5F083
:202D52003400C0F0C0E0740E75F000C0E0C0F0120A6E158115811581158112086A7409754E
:202D7200F000C0E0C0F0748F75F010240CC5F03400C0F0C0E0120A6E15811581158115813E
:202D9200E52E75F0007BFF7C0012C71A6030748F75F010240CC5F03400C0F0C0E0748F75D7
:202DB200F0102404C5F03400C0F0C0E01202D615811581158115817B017C0012C71A45F03E
:202DD2007003022DDA02266402240FE51F54017003022DFB746375F00CC0E0C0F07401752C
:202DF200F000124E8C15811581746775F00CC0E0C0F0740175F000124E8C158115817F00AC
:202E12001200BEE0F52D7F011200BEE0F52C7F050200D878FB12C602860108860289828A26
:202E320083E0A3F5F0E0C5F0F52BE52B75F0007B047C0012C7347003022E50E4F52B78FBF9
:202E520012C602860108860289828A83E0A3F5F0E0C5F07B007C0012C6F17003022E75740E
:202E720004F52B78FB12C6028601088602E52B75F00089828A83F0A3C5F0F0C5F0E52B75B9
:202E9200F0007B047C0012C7117003022ED6748F75F010C0E0C0F0747975F00CC0E0C0F05C
:202EB200740875F00079327A0012C624E70987F0C0E0C0F0740375F00012C4E27FFA12C662
:202ED2000E022F86E52B75F000C333C5F033C5F079327A0012C624E70987F0C0E0C0F074C7
:202EF2008F75F0102410C5F03400C0F0C0E079147A0389828A83E0A3F5F0E0C5F04400C527
:202F1200F04480C0F0C0E0125C577FFA12C60E78FB12C602860108860289828A83E0A3F583
:202F3200F0E0C5F0F52B748F75F010C0E0C0F0748075F00CC0E0C0F0E52B75F000C333C52D
:202F5200F033C5F079167A0C12C62489828A83E0A3F5F0E0C0F0C0E0748F75F0102410C555
:202F7200F03400C0F0C0E0740475F00012C4E27FF812C60E748F75F0102278FB12C602E60C
:202F9200F52CF51F121B3AE4C0E0C0E0742575F02EC0E0C0F01288D415811581158115811D
:202FB200E4F5F0900E80F0A3C5F0F0C5F022E4F51F748675F00CC0E0C0F0E4C0E0C0E01220
:202FD20088D41581158115811581F52AE52A75F0007BFF7C0012C7117003022FF20231628D
:202FF200E52A6003022FFFE51F4408F51F749775F00CC0E0C0F0E4C0E0C0E01288D41581C5
:20301200158115811581F52AE52A75F0007BFF7C0012C711700302302E023162E52A60038F
:203032000230EFE51F4420F51F74A875F00CC0E0C0F0E4C0E0C0E01288D4158115811581B0
:203052001581F52AE52A75F0007BFF7C0012C711700302306A023162E52A7003023077E5A1
:203072001F4401F51F74B675F00CC0E0C0F0E4C0E0C0E01288D41581158115811581F52AD2
:20309200E52A75F0007BFF7C0012C71170030230A6023162E52A70030230B3E51F4402F544
:2030B2001F74C475F00CC0E0C0F0E4C0E0C0E01288D41581158115811581F52AE52A75F069
:2030D200007BFF7C0012C71170030230E2023162E52A70030230EFE51F4404F51F74D07526
:2030F200F00CC0E0C0F0E4C0E0C0E01288D41581158115811581F52AE52A75F0007BFF7CFF
:203112000012C711700302311E023162E52A600302312BE51F4410F51F792A7A03E51F7585
:20313200F00089828A83F0A3C5F0F0C5F074A575F006C0E0C0F01245C315811581E4C0E0EA
:20315200C0E012446315811581781E438701D8FB227FFE7EFF1200DA74E175F00C7F001245
:2031720000BEF0A3C5F0F0C5F07F001200BEE0A3F5F0E0C0F0C0E01245C315811581E4F58C
:203192001FE51F75F0007B147C0012C72470030232098006E51F051F80E7740175F000C02E
:2031B200E0C0F0123EF31581158112C6347BFE12C62B12C7117003023203E4C0E0C0E012AC
:2031D20044631581158174EB75F00CC0E0C0F01287D615811581122FC07F001200BEE0A37C
:2031F200F5F0E0C0F0C0E01245C3158115810232094387010231A6792A7A0389828A83E069
:20321200A3F5F0E0C5F0F51F78FB12C602E67003023231E6F52CF52DE52C152C023238E495
:20323200F52C741AF52DE52C75F000AB2D7C0012C7247003023A428006E52C052C80E7784C
:20325200FB12C602E612C63412C6ED45F06021E52C75F0007B247C0012C66679007A08123E
:20327200C62489828A83E0A3F5F0E0C5F012C6ED45F0700302328C02324B741875F000C0E0
:20329200E0C0F0745FC0E0C0F0121F99158115811581158174F175F00CC0E0C0F074017537
:2032B200F000124E8C15811581741875F000C0E0C0F0745FC0E0C0F0121F99158115811585
:2032D20081158179087A0289828A83E0A3F5F0E0C5F05401C5F05400C5F045F070030232C4
:2032F200FA7401F52E02332279087A0289828A83E0A3F5F0E0C5F05402C5F05400C5F04568
:20331200F0700302331F7402F52E023322E4F52E740B75F00DC0E0C0F0741775F00DC0E00F
:20333200C0F0740275F000124E8C158115811581158179087A0289828A83E0A3F5F0E0C58A
:20335200F05401C5F05400C5F045F0700302337A741D75F00DC0E0C0F0740175F000124E74
:203372008C158115810233C579087A0289828A83E0A3F5F0E0C5F05402C5F05400C5F0451E
:20339200F070030233B0741F75F00DC0E0C0F0740175F000124E8C158115810233C57421FD
:2033B20075F00DC0E0C0F0740175F000124E8C15811581742375F00DC0E0C0F0740175F014
:2033D20000124E8C15811581742575F00DC0E0C0F079067A0289828A83E0A3F5F0E0C0F05D
:2033F200C0E0740275F000124E8C1581158115811581E52C75F0007B247C0012C6667914A0
:203412007A0812C62489828A83E0A3F5F0E0C5F0F52485F0251242F8743075F00DC0E0C092
:20343200F0748F75F010C0E0C0F0740275F000124E8C1581158115811581E52C75F0007BB2
:20345200247C0012C66679167A0812C62489828A83E0A3F5F0E0C5F0F52485F02512433220
:20347200743B75F00DC0E0C0F0748F75F010C0E0C0F0E52C244175F000C0E0C0F0E52C7550
:20349200F0007B247C0012C666790C7A0812C624E98AF0C0E0C0F0740475F000124E8C7FD3
:2034B200F812C60E745A75F00DC0E0C0F0740175F000124E8C15811581741075F000C0E011
:2034D200C0F0745FC0E0C0F0121F991581158115811581746275F00DC0E0C0F0740175F073
:2034F20000124E8C15811581741075F000C0E0C0F0745FC0E0C0F0121F99158115811581BA
:203512001581746B75F00DC0E0C0F0740175F000124E8C15811581121B3AE51F5408700336
:203532000236CB741875F000C0E0C0F0745FC0E0C0F0121F991581158115811581746E7599
:20355200F00DC0E0C0F0740175F000124E8C15811581741875F000C0E0C0F0745FC0E0C0A6
:20357200F0121F991581158115811581747B75F00DC0E0C0F0E52C75F0007B247C0012C60D
:203592006679007A0812C62489828A83E0A3F5F0E0C0F0C0E079147A0389828A83E0A3F572
:2035B200F0E0C5F05440C5F05400C5F045F06007749175F00D8005749975F00DC0E0C0F0BB
:2035D200740375F000124E8C7FFA12C60E740275F00079167A0C12C62489828A83E0A3F536
:2035F200F0E0C0F0C0E0740275F00079327A0012C624E70987F0C0E0C0F0121FE115811529
:203612008115811581E4F5F079167A0C12C62489828A83E0A3F5F0E0C0F0C0E0E4F5F0791F
:20363200327A0012C624E70987F0C0E0C0F0121FE11581158115811581740475F000791643
:203652007A0C12C62489828A83E0A3F5F0E0C0F0C0E0740475F00079327A0012C624E70938
:2036720087F0C0E0C0F0121FE11581158115811581740675F00079167A0C12C62489828A82
:2036920083E0A3F5F0E0C0F0C0E0740675F00079327A0012C624E70987F0C0E0C0F0121F15
:2036B200E11581158115811581740A75F000C0E0C0F0124DBA15811581E51F54207003025A
:2036D200374F741875F000C0E0C0F0745FC0E0C0F0121F991581158115811581749E75F055
:2036F2000DC0E0C0F0E51F5402600774B075F00D800574B775F00DC0E0C0F0740275F000B7
:20371200124E8C1581158115811581741875F000C0E0C0F0745FC0E0C0F0121F991581157A
:20373200811581158174BE75F00DC0E0C0F0740175F000124E8C1581158112206AE51F54F0
:2037520010600302375B02399A741875F000C0E0C0F0745FC0E0C0F0121F9915811581150C
:2037720081158174C075F00DC0E0C0F0740175F000124E8C15811581741875F000C0E0C0E7
:20379200F0745FC0E0C0F0121F99158115811581158174C775F00DC0E0C0F0740175F0000B
:2037B200124E8C15811581E4F5F0F52885F029E52C75F0007B247C0012C66679007A08127F
:2037D200C624E5288529F089828A8312C77E12C724700302399A8012E5288529F012C6D3A6
:2037F200F52885F02912C6DC80C5E5288529F0C0E0C0F0E4C0E0C0E0E52C75F0007B247C53
:203812000012C66679207A0812C624E98AF0C0E0C0F01210A77FFA12C60EF52485F025E5CE
:20383200248525F045F0600302384002399AA924AA2589828A83E0A3F5F0E0C0F0C0E07411
:203852008F75F010C0E0C0F079147A0389828A83E0A3F5F0E0C5F04400C5F04480C0F0C0B6
:20387200E0125C577FFA12C60EE52C75F0007B247C0012C66679047A0812C62489828A8350
:20389200E0F52E70030238EA74CA75F00DC0E0C0F0E52C244175F000C0E0C0F0E528852996
:2038B200F0AB2E7C0012C6812401C5F03400C0F0C0E0E5288529F0AB2E7C0012C67A240183
:2038D200C5F03400C0F0C0E0740475F000124E8C7FF812C60E02392174D575F00DC0E0C000
:2038F200F0E52C244175F000C0E0C0F0E5288529F07BE87C0312C67A2401C5F03400C0F0FE
:20391200C0E0740375F000124E8C7FFA12C60E74DC75F00DC0E0C0F0748F75F010C0E0C0E4
:20393200F0740275F000124E8C1581158115811581740175F000C0E0C0F0123EF31581154E
:203952008112C6347B0012C62B12C71A700302399712546E740675F000C0E0C0F012446356
:2039720015811581740175F000C0E0C0F0123EF315811581700302399443870112547E027D
:203992003976023A420237EAE52C75F0007B247C0012C66679187A0812C62489828A83E0EF
:2039B200A3F5F0E0C5F0F52485F0251242F874E075F00DC0E0C0F0748F75F010C0E0C0F0FB
:2039D200740275F000124E8C1581158115811581E52C75F0007B247C0012C666791A7A08D2
:2039F20012C62489828A83E0A3F5F0E0C5F0F52485F02512433274EC75F00DC0E0C0F074D4
:203A12008F75F010C0E0C0F0740275F000124E8C1581158115811581740B75F00EC0E0C0CF
:203A3200F0740175F000124E8C1581158102324B12546EE4F5F0900E80F0A3C5F0F0C5F06B
:203A52007F020200D87FFC7EFF1200DA7F040200D879147A0389828A83E0A3F5F0E0C5F099
:203A72005401C5F05400C5F045F06003023AA8740575F000C0E0C0F01214D61581158174DB
:203A92000375F000C0E0C0F012446315811581E475F080023EF279287A0389828A83E0A3C3
:203AB200F5F0E0C5F0F52A78FB12C602E612C6347B0212C62B12C711700CE612C6347B03C6
:203AD20012C62B12C71145F0601EE52A75F0007B247C0012C66679057A0812C62489828AD6
:203AF20083E012C63412C6ED45F07003023B04023A81E52A75F0007B247C0012C666790490
:203B12007A0812C62489828A83E0F52CF52DE52A75F0007B247C0012C666791C7A0812C61E
:203B32002489828A83E0A3F5F0E0C5F0F52485F025E5248525F0AB2C7C0012C681F52C789F
:203B5200FB12C602E612C6347B0412C62B12C7117003023B6A023E7E78FB12C602E612C63D
:203B7200347B0212C62B12C711700CE612C6347B0312C62B12C71145F07003023C7F78FBE4
:203B920012C602E612C6347B0212C62B12C7117003023BADE52C052C023BB1E52C152CE519
:203BB2002C75F0007BFF7C0012C7117003023BE2E52A75F0007B247C0012C66679057A0823
:203BD20012C62489828A83E0C39401F52C023C0EE52A75F0007B247C0012C66679057A084D
:203BF20012C624E52C75F00089828A8312C77A7C0012C73D7003023C0EE4F52CE52A75F00C
:203C1200007B247C0012C66679047A0812C624E52C75F00089828A8312C77A7C0012C666A3
:203C3200F52485F025E5248525F0C0E0C0F0740175F000C0E0C0F0E52A7B247C0012C6663A
:203C520079207A0812C624E98AF0C0E0C0F01210A77FFA12C60EF52685F027E5268527F002
:203C720045F06003023C7C023A81023D7278FB12C602E67003023C9DE5248525F012C6D3A3
:203C9200F52485F02512C6DC023CADE5248525F012C6DCF52485F02512C6D3E52A75F00097
:203CB2007B247C0012C66679057A0812C624C001C002E52A75F0007B247C0012C6667904D0
:203CD2007A0812C624D083D082E075F00089828A8312C77A7C0012C666F52685F02745F059
:203CF2007003023D2EE5248525F07BFF7CFF12C7117003023D15E5268527F0F52485F0252F
:203D1200023D2EE5268527F0AB24AC2512C7247003023D2EE4F5F0F52485F025E5248525D1
:203D3200F0C0E0C0F0E4C0E0C0E0E52A75F0007B247C0012C66679207A0812C624E98AF0C6
:203D5200C0E0C0F01210A77FFA12C60EF52685F027E5268527F045F06003023D72023A8175
:203D7200E52A75F0007B247C0012C666791C7A0812C624E5248525F089828A83F0A3C5F04E
:203D9200F0C5F078FB12C602E612C634C0E0C0F01214D61581158178FB12C602E612C63476
:203DB2007B0212C62B12C71A600CE612C6347B0312C62B12C71A45F07003023EE3E52A755D
:203DD200F0007B247C0012C66679057A0812C62489828A83E075F00045F06068E52A75F0BE
:203DF200007B247C0012C666791C7A0812C624C001C002E52A75F0007B247C0012C666797C
:203E1200047A0812C624D083D082E0A3F5F0E0C5F089828A8312C77A7C0012C681C0E0C0CC
:203E3200F0E52A75F0007B247C0012C66679057A0812C624D0F0D0E089828A8312C77A7C60
:203E52000012C73D45F07003023E7EE52A75F0007B247C0012C666791C7A0812C624E4F51B
:203E7200F089828A83F0A3C5F0F0C5F079287A0389828A83E0A3F5F0E0C5F07B247C0012DB
:203E9200C666791C7A0812C62489828A83E0A3F5F0E0C0F0C0E0E4C0E0C0E0E52A75F00089
:203EB2007B247C0012C66679207A0812C624E98AF0C0E0C0F01210A77FFA12C60EF5268505
:203ED200F027E5268527F045F06003023EE3023A81A926AA2789828A83E0A3F5F0E0C5F0E5
:203EF20022E5A04407F5A078FB12C602E60886F0F52485F025E5A054076407F52EE52E60E4
:203F120003023F1EC208E4F5F002409E78FB12C602E60886F07B017C0012C7117003023F73
:203F320043E52E12C6347BFF12C62B12C66602409EE4F52CD20B79217A00E7540112C63434
:203F520045F0601078FB12C602E60886F07B017C0012C71A45F07003023F80740875F000C4
:203F7200C0E0C0F012446315811581023F90740175F000C0E0C0F012446315811581E52411
:203F92008525F07B017C0012C6B4F52485F025E5A054076407F52D6003023FB1024032E523
:203FB2002E540475F00045F0600CE52D75F000AB2E7C0012C71A45F07003023FFCE52C129C
:203FD200C63412C6ED45F06004E52D54037003023FFCD20B740275F000C0E0C0F01244639D
:203FF20015811581E52D452EF52C438701E52D75F00045F0601D78FB12C602E60886F045F3
:20401200F06010E5248525F012C6DCF52485F02512C6ED45F0700302402F024032023FA1F0
:20403200E52D700302403ED20802406679217A00E7540112C63445F0600978FB12C602E6BA
:204052000886F045F07003024064C208E4F5F002409EC208E52C6003024071E52EF52CE505
:204072002C54F7F52CE52C540175F00045F06004E52C54027003024091E52C54FEF52CE51C
:204092002C12C6347BFF12C62B12C6662278FB12C602E60886F012C6DC18F608A6F012C610
:2040B200D345F070030240C043870102409F2212C51674C175F004F51C85F01DD20F12C5BD
:2040D200132212C51674B675F0EDF51C85F01DC20F12C51322740975F007F52F85F030C23C
:2040F2008CC2A9E51C851DF07B087C0012C6C212C6E3F58CE51C851DF05400C5F05401C599
:20411200F012C6E3F58AE589F52AE52A54F0F52AE52A4401F52AE52AF58912C513D28CD24A
:09413200A9221240E71240D42238
:07000B00C0D0C0E002413B40
:20413B00E51DF4F58CE51CF4F58A200F28C0F0E52F8530F02401C5F0340085F02FF53030B2
:20415B00010FE51E14F51E7008E5B04444F5B0C201D0F0800F300E0CE53D2323F53D54C0C6
:20417B00453CF5A0D0E0D0D03212C51678FB12C602E6FB79327C097D00ED0D0404838009B6
:20419B00000102040608090A0BF8C0C643C604BB0004E2F78002E7F2D0C609DCDC12C51312
:2041BB00E4F5F0900E80F0A3C5F0F0C5F053337F53347F53353F53373F53381F22E4F52AA6
:2041DB00E52A75F0007B057C0012C72470030242118006E52A052A80E7E52A75F000C333FA
:2041FB00C5F033C5F079327A0012C624E4F5F0F709A7F00241EEE4C0E0C0E01241841581C4
:20421B00158178FB12C602E675F0007B017C0012C7117003024299753A8C791575828F755F
:20423B0083107B03E0C39430540FC4F5F0A3E0C39430540F45F0F719A3A3DBE87536011860
:20425B0018E6700302426E85153885143785133902427785153585143485133353337F5333
:20427B00347F53353F53373F53381F740175F000C0E0C0F0124184158115810242EA78F96A
:20429B0012C602E670030242B28538358537348539337C2F0242B47C2D78FB12C602E67018
:2042BB00030242C3EC4480FC793575828F7583107B03E7C4540F2430F0A3E7540F2430F0F0
:2042DB00A3ECF0A319DBEB758297758310E4F0E4F5F0900E80F0A3C5F0F0C5F02275828FDC
:2042FB007583107C2FE524541F711FECF0A3E525711FECF0A3E52403C454072405449071B3
:04431B001FE4F02289
:20431F00F5F0C4540F2430F0A3E5F0540F2430F0A3222275828F7583107C3AE524711FEC5F
:20433F00F0A3E525711FE4F02222E4C0E0C0E0124184D0E0D0E078FB12C602E6F58208E626
:20435F00F583E539540FC394055407C423F5F0E538541F45F0F0A3E537543FF0A3E53554BA
:15437F003FF0A3E534F0E4E4F5F0900E80F0A3C5F0F0C5F02274
:07001B00C0D0C0E0024394D5
:20439400C0F0E51EC4F51EF5F0E5B054BB30F002440430F1024440F5B0D0F0E528F58BE50E
:2043B40029F58DD0E0D0D03212C516C2ABC28EE589540F4410F589E5288529F09010E8F04C
:2043D400A3C5F0F0C5F0741A75F0F478FB12C602860308860412C681FBACF074FFF5F0C372
:2043F4009BC5F09CC5F0F52885F029E5288529F054FFC5F05400C5F0F58BE5288529F07BEB
:20441400087C0012C6C2F58DD28ED2AB12C51378F912C602E60886F012C6DC18F608A6F012
:2044340012C6D37B007C0012C7017003024449438701024423C28EC2AB9010E8E0A3F5F009
:20445400E0C5F0F52885F029E5B04444F5B0221240C1124D2578FB12C602E60886F05480F8
:20447400C5F05400C5F045F07003024486C20B024488D20B78FB12C602E60886F0540FC5A5
:20449400F05400C5F018F608A6F07430F51EE5B0F51778FB12C602E6F5F0232325F024D0A4
:2044B400F582740BF583E0FFA3E0FEA3E0C0E0A3E0F50EA3E0200B206010E51E4402F51ED7
:2044D400E51754FBF5B0F517800EE51E4401F51EE51754BFF5B0F517EFC0E0E4C0E0EEC062
:2044F400E0E4C0E01243BCE517F5B01581158115811581E50E601A7832438701D8FBE4C0E1
:20451400E0E50EC0E0E4C0E01243BC1581158115811581E517F5B01240D4D20B79217A006F
:20453400E754087003024548E5B04444F5B0E4F51E02454E7407F51ED201C20B124D012224
:2045540078FFE5904404F59000209202D8FA2278FB12C6028606E59054EFF5907B08E50662
:2045740033F506E590400454F780024408F590004410F5900000000054EFF59000DBDF1235
:2045940045542278FB12C6028606E59054FDF590F5F0124554E5F04401F590E506C0E0C0AE
:2045B400F0124563D0F0D0E0E5F04402F590227FFB7EFF1200DA74017F021200BEF0E47F0F
:2045D400031200BEF0740175F000C0E0C0F0123EF3158115817F041200BEF079207A00E72E
:2045F40054807003024600C207024610742075F000C0E0C0F012459715811581741875F0A3
:2046140000C0E0C0F012459715811581E4C0E0C0E01245971581158178FB12C602E608861D
:20463400F07F001200BEF0A3C5F0F0C5F07F001200BE12C78589828A83E075F0007B017C38
:204654000012C71170030246837F001200BEE0A3F5F0E0C5F012C6D37F001200BEF0A3C580
:20467400F0F0C5F012C6DC74017F031200BEF0E4C0E0C0E012459715811581741575F000FA
:20469400C0E0C0F012459715811581E59054FDF590124554E59054FEF590E5904401F5901B
:2046B40074E075F000C0E0C0F012456315811581E59054FEF590E4F52EE52E75F0007B09A8
:2046D4007C0012C724600D7F001200BE12C78589828A83E070030249DF8024E52E052E7F35
:2046F400001200BEE0A3F5F0E0C5F012C6D37F001200BEF0A3C5F0F0C5F012C6DC80BAE51F
:204714002E75F0007B027C0012C6B4F52D7F001200BE12C78589828A83E0F52BE52B5480A2
:2047340070030248FFE5904401F590E52D44E075F000C0E0C0F012456315811581E52B5435
:20475400207003024838E4F52CE52C75F0007B047C0012C7247003024825800AE52C052C0F
:20477400E52D052D80E37F001200BEE0A3F5F0E0C5F012C6D37F001200BEF0A3C5F0F0C53B
:20479400F012C6DCE52B54407003024803E52B541070030247E174027F031200BEF07F00B5
:2047B4001200BE12C78589828A83E044C075F000C0E0C0F012456315811581E52D44E07575
:2047D400F000C0E0C0F0124563158115817F001200BE12C78589828A83E0540F44B075F03E
:2047F40000C0E0C0F0124563158115810248227F001200BE12C78589828A83E0540F44D0E7
:2048140075F000C0E0C0F012456315811581024770E52B54407003024835E52DC39404F538
:204834002D0248E4E52B54407003024882E52B540FF52CE52C75F0007B027C0012C6B4F5A2
:204854002CE52C700302487374CF75F000C0E0C0F012456315811581E52C152C024855E523
:204874002E152E74027F031200BEF00248E4E52B541070030248E4E52B540F75F0007B0461
:204894007C0012C666F52DE52D44E075F000C0E0C0F0124563158115817F001200BEE0A385
:2048B400F5F0E0C5F012C6D37F001200BEF0A3C5F0F0C5F012C6DC7F001200BE12C7858999
:2048D400828A83E070030248E0024721E52E152EE52D44E075F000C0E0C0F01245631581BD
:2048F4001581E59054FEF5900246EFE52B75F0007B2E7C0012C7117003024985E52E60034E
:2049140002491DE4F52D02492EE52EC3940175F0007B047C0012C666F52DE5904401F59032
:20493400E52D240244E075F000C0E0C0F01245631581158174B875F000C0E0C0F0124563D1
:2049540015811581E52E75F0007B047C0012C666F52DE52D44E075F000C0E0C0F01245639F
:2049740015811581E59054FEF590E52E152E0246EFE52B75F0007B617C0012C73D600CE5EA
:204994002B75F0007B7A7C0012C72B45F070030249ACE52B54DFF52BE52E75F0007B087C85
:2049B4000012C71170030249C00249DFE52B547FF52BE52B4480F52BE52B75F000C0E0C085
:2049D400F0124563158115810246EFE5904402F5907F001200BE12C78589828A83E070035E
:2049F400024B1078FB12C602E60886F012C6D318F608A6F012C6DC78FB12C6028601088628
:204A14000289828A83E075F0007B2E7C0012C7117003024A3C18E60886F012C6D318F608DC
:204A3400A6F012C6DC024A0B78FB12C602860108860289828A83E06003024A53024B687F2F
:204A5400021200BEE07003024A65741EF52A024A697406F52A79217A00E754047003024A5B
:204A740083E52A75F0007B027C0012C6C2F52A152AE52A7003024ABA740175F000C0E0C078
:204A9400F0123EF31581158175F0007F041200BE12C77A7C0012C71A7003024AB4024B6801
:204AB400438701024A83740175F000C0E0C0F0123EF31581158175F0007F041200BE12C71E
:204AD4007A7C0012C71A701E79217A00E7540412C63445F06010740175F000C0E0C0F0120B
:204AF40073281581158145F07003024B06C20A024B68E47F021200BEF002462C7F03120032
:204B1400BEE075F0007B017C0012C7117003024B43740775F000C0E0C0F0E4C0E0C0F0E451
:204B3400C0E0C0E0124B6D7FFA12C60E024B687F031200BEE075F0007B027C0012C7117059
:204B540003024B68741A75F000C0E0C0F0124597158115817F050200D87FFE7EFF1200DAE8
:204B740078F712C602E60886F0904CA902C63DE59054C0F590740A75F000C0E0C0F0124057
:204B94009F15811581D292E5904420F590E59054FDF590124554E5904401F590744275F024
:204BB40000C0E0C0F012456315811581743075F000C0E0C0F012456315811581741575F07E
:204BD40000C0E0C0F012456315811581742075F000C0E0C0F012456315811581741175F072
:204BF40000C0E0C0F012456315811581E5904402F590024CB5E4C0E0C0E01245971581156B
:204C140081E5904401F590E59054FDF590124554E4F5F07F001200BEF0A3C5F0F0C5F07F46
:204C3400001200BEE0A3F5F0E0C5F07B207C0012C6F17003024C8080207F001200BEE0A300
:204C5400F5F0E0C5F012C6D37F001200BEF0A3C5F0F0C5F012C6DC80C674CF75F000C0E09D
:204C7400C0F012456315811581024C4DE5904402F590740175F000C0E0C0F012409F1581FE
:204C94001581741A75F000C0E0C0F012459715811581024CB5094C0700834B01000000B52A
:204CB4004C740175F000C0E0C0F012409F158115817F020200D8C28E78FB12C602860308C4
:204CD4008604749675F09812C68112C6E3C0E0E589540F4420F589D0E0F58DF58BC28BD2F7
:204CF4008E0000759840E5B04403F5B022C2AC900C14E0A3F5F0E0C0F0C0E0124CCA1581AE
:204D14001581E4F519F518E4F51BF51AD2ACD29C22E59854087003024D34438701024D25CB
:204D3400C29CC2ACE4F598C28EE5894450F589E58954DFF5892278FB12C602E60886F0F56B
:204D54002485F025A924AA2589828A83E07003024DB9A924AA2589828A83E012C6347B0A4D
:204D740012C62B12C7117003024D8F740D75F000C0E0C0F0124DBA15811581A924AA258941
:204D9400828A83E012C634C0E0C0F0124DBA15811581E5248525F012C6D3F52485F02512DC
:204DB400C6DC024D582278FB12C602C001C002E6C0E0E51AF904B4FF027400B51B07000022
:204DD40000000080F6FAD0E0C083C0828982758300F08A1AD082D083209B02D299D002D014
:204DF4000122C0E0C0E0124DBAD0E0D0E022E519B5180574FFF5F022F8C082C0838882755B
:204E14008300E0D083D08208B8FF027800881975F00022E518C3951975F0002222E51AC33C
:074E3400951B75F00022221E
:07002300C0D0C0E0024E3B1B
:204E3B00C00030981CA818C083C0827583008882E599C298F0D082D08308B8FF027800883E
:204E5B0018309909C299E51BB51A09C29BD000D0E0D0D032F8C083C0827583008882E0D03C
:204E7B0082D083F59908B8FF027800881BD29B80DC23F42581F812C76212C37412C762C0DB
:204E9B0082C083124D4A15811581222278FC12C6028604188603188683188682E4FDFE126E
:204EBB004E02A9F0B9FF0A75C7AA75C755D2BF80EEB408028003B47F27ED4E60E21DBDFFC5
:204EDB00011E7408124DF67420124DF67408124DF68583F0E58212C6DC85F083F58280BF4C
:204EFB00124DF6F024F3600EA30DBD00010EED8EF012C6F170A9740A124DF6E4F0ED8EF0F2
:204F1B0022222278F712C602E60886F0C0E0C0F0747675F00EC0E0C0F0120A6E15811581B0
:204F3B001581158178F912C602E60886F02404C5F03400C0F0C0E0747675F00EC0E0C0F06D
:204F5B001205071581158115811581749375F007C0E0C0F0740E75F000C0E0C0F0120A6E3C
:204F7B00158115811581158112086A740975F000C0E0C0F0747275F00EC0E0C0F0120A6ED5
:204F9B001581158115811581747675F00EC0E0C0F0747675F00EC0E0C0F01205071581157B
:204FBB00811581158178F912C602E60886F0240CC5F03400C0F0C0E0740E75F000C0E0C0CA
:204FDB00F0120A6E158115811581158112056A747275F00EC0E0C0F0740E75F000C0E0C073
:204FFB00F0120A6E158115811581158112086A740975F000C0E0C0F0747275F00EC0E0C055
:20501B00F0120A6E158115811581158178F912C602E60886F02414C5F03400C0F0C0E0740F
:20503B000075F00CC0E0C0F012025A15811581158115817B017C0012C71A70030250E478C2
:20505B00F912C602E60886F02414C5F03400C0F0C0E0740975F000C0E0C0F0120A6E15813B
:20507B00158115811581747675F00EC0E0C0F0740E75F000C0E0C0F0120A6E1581158115A4
:20509B0081158112056A12056A12056A747275F00EC0E0C0F0740E75F000C0E0C0F0120A5F
:2050BB006E158115811581158112086A740975F000C0E0C0F0747275F00EC0E0C0F0120A94
:2050DB006E1581158115811581747675F00EC0E0C0F078F712C602E60886F02408C5F03480
:2050FB0000C0F0C0E01205071581158115811581740975F000C0E0C0F0746E75F00EC0E0A8
:20511B00C0F0120A6E158115811581158178FB12C602E60886F0C0E0C0F0740075F00CC03C
:20513B00E0C0F012025A15811581158115817B017C0012C71A70030251B3746E75F00EC085
:20515B00E0C0F0740975F000C0E0C0F0120A6E158115811581158178FB12C602E60886F0DF
:20517B00C0E0C0F0740E75F000C0E0C0F0120A6E158115811581158112056A740975F00048
:20519B00C0E0C0F0746E75F00EC0E0C0F0120A6E1581158115811581747675F00EC0E0C060
:2051BB00F0747675F00EC0E0C0F0120507158115811581158178F912C602E60886F02410DE
:2051DB00C5F03400C0F0C0E0740E75F000C0E0C0F0120A6E158115811581158112056A746D
:2051FB000975F000C0E0C0F0746A75F00EC0E0C0F0120A6E158115811581158178FB12C608
:20521B0002E60886F0C0E0C0F0740075F00CC0E0C0F012025A15811581158115817B017CCA
:20523B000012C71A7003025288746A75F00EC0E0C0F0740975F000C0E0C0F0120A6E15811E
:20525B0015811581158178FB12C602E60886F0C0E0C0F0740E75F000C0E0C0F0120A6E159A
:20527B008115811581158112056A0252A5746A75F00EC0E0C0F0740975F000C0E0C0F01271
:20529B000A6E1581158115811581746E75F00EC0E0C0F0740E75F000C0E0C0F0120A6E15A8
:2052BB008115811581158112086A78F912C602E60886F02400C5F03400C0F0C0E0740E7509
:2052DB00F000C0E0C0F0120A6E158115811581158112086A749B75F007C0E0C0F0740E754B
:2052FB00F000C0E0C0F0120A6E158115811581158112056A747275F00EC0E0C0F0740E7550
:20531B00F000C0E0C0F0120A6E15811581158115811206CA22740975F000C0E0C0F0740E98
:20533B0075F000C0E0C0F0120A6E1581158115811581740E75F000C0E0C0F0748F75F0100C
:20535B002418C5F03400C0F0C0E0120A6E1581158115811581749775F007C0E0C0F0740E92
:20537B0075F000C0E0C0F0120A6E15811581158115811206CA740975F000C0E0C0F0740EE5
:20539B0075F000C0E0C0F0120A6E1581158115811581E4F52AE52A75F0007B0A7C0012C70A
:2053BB002470030254388006E52A052A80E71209D8748F75F0102418C5F03400C0F0C0E0A2
:2053DB00740975F000C0E0C0F0120A6E15811581158115811206CA120A2D12086A7497756F
:2053FB00F007C0E0C0F0740E75F000C0E0C0F0120A6E15811581158115811206CA7409755E
:20541B00F000C0E0C0F0740E75F000C0E0C0F0120A6E15811581158115810253C3740E7509
:20543B00F000C0E0C0F0740975F000C0E0C0F0120A6E158115811581158122E52F8530F022
:20545B002408C5F03407C5F09010D0F0A3C5F0F0C5F022E52F8530F09010D0F0A3C5F0F080
:20547B00C5F022E52F8530F0C39408C5F09407C5F09010D012C77E12C73470030254AD745F
:20549B000275F000C0E0C0F0124463158115811255E422E52F8530F09010D012C77EC39B0A
:2054BB00C5F09CC5F0C3C5F013C5F0132278FB12C602E60886F012C6DC18F608A6F012C66D
:2054DB00D345F0700302551E78F712C602E60886F012C6D318F608A6F012C6DCF9AAF0086E
:2054FB00E60886F012C6D318F608A6F012C6DCC001C002F9AAF089828A83E0D083D082F07F
:20551B000254C82278F912C602E60886F05400C5F05480C5F045F0700302559608E60886DE
:20553B00F05400C5F05480C5F045F07003025587181818E60886F07BFF7C7F12C7240856CC
:20555B00C5F00856C5F054FFC5F0547FC5F045F0700302557818E60886F00255E378F91228
:20557B00C602E60886F00255E302559378F912C602E60886F00255E30255E378FB12C60250
:20559B00E60886F05400C5F05480C5F045F070030255B618E60886F00255E378FB12C60242
:2055BB00E60886F0181818860308860412C73470030255D718E60886F00255E378FB12C65A
:2055DB0002E60886F00255E322740375F000C0E0C0F0E4C0E0C0F0E4C0E0C0E01245977FFD
:2055FB00FA12C60EE59044404480F590E5B0547FF5B0438701E5B04480F5B0438701E5B038
:20561B00547FF5B012C51675C7AA75C7557587022278FB12C602860108860289828A83E017
:20563B00A3F5F0E0C5F02278F912C602860108860208E60886F089828A83F0A3C5F0F0C52D
:20565B00F02279147A0389828A83E0A3F5F0E0C5F05404C5F05400C5F045F0600302568177
:20567B00E4F5F00256EA78FB12C602E60886F05400C5F05480C5F045F070030256A074FFAE
:20569B00F5F00256EA79247A0378FB12C602E60886F089828A8312C77E12C72470030256C6
:2056BB00C374FFF5F00256EA79267A0378FB12C602E60886F089828A8312C77E12C73470B9
:2056DB00030256E7740175F0000256EAE4F5F0227FFE7EFF1200DA78FB12C602E60886F0CF
:2056FB007BFF7CFF12C711700302571B78F712C602E60886F00826C5F00836C5F002583BB1
:20571B0078F912C602E60886F07B007C0012C6F1700302574B18E60886F07BFF7CFF12C69F
:20573B00667F001200BEF0A3C5F0F0C5F002576078F912C602E60886F07F001200BEF0A362
:20575B00C5F0F0C5F078FB12C602E60886F05440C5F05400C5F045F070030257AF78F712A0
:20577B00C602E60886F07B897C0112C73470030257AC7F001200BEE0A3F5F0E0C5F07B0411
:20579B007C0012C6667F001200BEF0A3C5F0F0C5F00257E378F712C602E60886F07BBC7C5C
:2057BB000212C73D70030257E37F001200BEE0A3F5F0E0C5F07B0A7C0012C6667F001200EB
:2057DB00BEF0A3C5F0F0C5F078F912C602E60886F07B007C0012C6F1700302581618181869
:2057FB00E60886F07F001200BE12C77EC39BC5F09CC5F018F608A6F002583278F712C6029F
:20581B00E60886F07F001200BE12C77E2BC5F03CC5F018F608A6F078F712C602E60886F039
:20583B007F020200D87FFA7EFF1200DAE52F8530F07F001200BEF0A3C5F0F0C5F07F021288
:20585B0000BEF0A3C5F0F0C5F09010E3E0A3F5F0E0C5F07BFF7CFF12C71170030258B8742A
:20587B008F75F010C0E0C0F0740E75F00EC0E0C0F09010DDE0A3F5F0E0C0F0C0E074037573
:20589B00F00012C4E27FFA12C60E748F75F010C0E0C0F01245C3158115810258E49010DD1D
:2058BB00E0A3F5F0E0C0F0C0E09010E6E0A3F5F0E0C0F0C0E09010E3E0A3F5F0E0C0F0C0DC
:2058DB00E012626D7FFA12C60E79217A00E754016007740275F0008005740575F000C0E0F8
:2058FB00C0F0123EF315811581F5316003025A0812BF4A45F0700302591812546E438701AC
:20591B009010E5E075F00045F0601BE52F8530F07F021200BE12C77EC39BC5F09CC5F07BB2
:20593B00057C0012C73445F070030259F1740175F000C0E0C0F01273281581158145F07022
:20595B00030259E0740175F000C0E0C0F01275A515811581F52485F025E5248525F07B009B
:20597B007C8012C71A601EE5248525F09010DF12C77E12C73D600EE5248525F09010E1126C
:20599B00C77E12C72445F070030259CDE5248525F09010DDF0A3C5F0F0C5F012546EE52FE5
:2059BB008530F07F021200BEF0A3C5F0F0C5F0025864748775F000C0E0C0F012446315812C
:2059DB001581025864E52F8530F07F021200BEF0A3C5F0F0C5F012547EE52F8530F07F0045
:2059FB001200BEF0A3C5F0F0C5F00258E412546EE52F8530F07F001200BE12C77EC39BC53B
:205A1B00F09CC5F07B1E7C0012C7347003025A3F746475F0007F041200BEF0A3C5F0F0C56D
:205A3B00F0025A84E52F8530F07F001200BE12C77EC39BC5F09CC5F07B0F7C0012C7347035
:205A5B0003025A73740A75F0007F041200BEF0A3C5F0F0C5F0025A84740175F0007F0412E7
:205A7B0000BEF0A3C5F0F0C5F0E53112C634905C3702C63D9010DDE0A3F5F0E0C5F0025C3E
:205A9B00529010E1E0A3F5F0E0C5F07F041200BE12C77EC39BC5F09CC5F09010DD12C77E39
:205ABB0012C7247003025AEA9010E1E0A3F5F0E0C5F09010DDF0A3C5F0F0C5F0740375F051
:205ADB0000C0E0C0F012446315811581025C4F9010DDE0A3F5F0E0C0F0C0E07F041200BE61
:205AFB00E0A3F5F0E0C0F0C0E09010E3E0A3F5F0E0C0F0C0E01256EB7FFA12C60E9010DDA9
:205B1B00F0A3C5F0F0C5F0025C4F9010DFE0A3F5F0E0C5F07F041200BE12C77E2BC5F03C8E
:205B3B00C5F09010DD12C77E12C73470219010DFE0A3F5F0E0C5F07F041200BE12C77E2BD2
:205B5B00C5F03CC5F09010E112C77E12C73445F07003025B97740375F000C0E0C0F0124481
:205B7B0063158115819010DFE0A3F5F0E0C5F09010DDF0A3C5F0F0C5F0025C4F9010DDE08B
:205B9B00A3F5F0E0C0F0C0E07F041200BEE0A3F5F0E0C5F012C6E3C0E0C0F09010E3E0A3D1
:205BBB00F5F0E0C0F0C0E01256EB7FFA12C60E9010DDF0A3C5F0F0C5F0025C4FE475F08023
:205BDB00025C529010DDE0A3F5F0E0C5F09010DF12C77E12C7117003025C0D9010E1E0A3DE
:205BFB00F5F0E0C5F09010DDF0A3C5F0F0C5F0025C219010DFE0A3F5F0E0C5F09010DDF03E
:205C1B00A3C5F0F0C5F0025C4F740375F000C0E0C0F012446315811581025864DE5BFAFFBE
:205C3B00D75BFBFF255BFFFF9C5AFEFF8F5AFCFF0000245C0258647F060200D87FFE7EFF31
:205C5B001200DA78F912C6028601088602742089828A83F0E4F5F07F001200BEF0A3C5F0DF
:205C7B00F0C5F0181818E60886F07B007C8012C7117003025CA408E60886F012C6D318F6BD
:205C9B0008A6F012C6DC025D7678F712C602E60886F05400C5F05480C5F045F07003025C7D
:205CBB00DD088601088602742D89828A83F0181818E60886F054FFC5F0547FC5F018F608D2
:205CDB00A6F078F912C602E60886F012C6D318F608A6F012C6DC181818E60886F07B647C52
:205CFB000012C681F52485F02518E60886F07B647C0012C67AF52B79087A0289828A83E03F
:205D1B00A3F5F0E0C5F05408C5F05400C5F045F0601078F712C602E60886F07BE07C2E12C8
:205D3B00C73445F0702E79087A0289828A83E0A3F5F0E0C5F05408C5F05400C5F012C6ED89
:205D5B0045F0601078F712C602E60886F07B147C1E12C73445F07003025DB87F001200BE92
:205D7B00E0A3F5F0E0C5F012C6D37F001200BEF0A3C5F0F0C5F012C6DC78F912C602E60837
:205D9B0086F0C0E0C0F0741175F00EC0E0C0F012C59B15811581158115810260E478FB1245
:205DBB00C602E60886F05460C5F05400C5F045F06003025F8CE5248525F07B077C0012C72B
:205DDB00247003025E8278F912C602E60886F0C0E0C0F0741575F00EC0E0C0F0E524852531
:205DFB00F0C0E0C0F0740375F00012C4E27FFA12C60EE52B75F0007B0A7C0012C72470036F
:205E1B00025E5078F912C602E60886F02402C5F03400C0F0C0E0741975F00EC0E0C0F0E574
:205E3B002B75F000C0E0C0F0740312C4E27FFA12C60E025E7F78F912C602E60886F0240225
:205E5B00C5F03400C0F0C0E0741D75F00EC0E0C0F0E52B75F000C0E0C0F0740312C4E27F27
:205E7B00FA12C60E025F89E5248525F07B637C0012C7347003025EC278F912C602E60886DF
:205E9B00F0C0E0C0F0742075F00EC0E0C0F0E5248525F0C0E0C0F0740375F00012C4E27F4A
:205EBB00FA12C60E025F89E52B75F0007B0A7C0012C681F52AE52B75F0007B0A7C0012C6C1
:205EDB007A7B057C0012C73D7003025EECE52A052AE52A75F0007B097C0012C73470030228
:205EFB005F10E5248525F012C6D3F52485F02512C6DCE4F52A78F912C602E60886F0C0E011
:205F1B00C0F0742375F00EC0E0C0F0E5248525F07B0A7C0012C7246007742975F00E8005BF
:205F3B00742B75F00EC0E0C0F0E5248525F0C0E0C0F0740475F00012C4E27FF812C60E7887
:205F5B00F912C602E60886F02403C5F03400C0F0C0E0742C75F00EC0E0C0F0E52A75F000B8
:205F7B00C0E0C0F0740312C4E27FFA12C60E0260E478FB12C602E60886F05440C5F0540094
:205F9B00C5F045F070030260E478F712C602E60886F0C0E0C0F01203F81581158174A7757D
:205FBB00F007C0E0C0F0740975F000C0E0C0F0120A6E158115811581158112056A740975F8
:205FDB00F000C0E0C0F012038A1581158178F712C602F608A6F018E60886F07B0A7C00122F
:205FFB00C681F52485F02518E60886F07B0A7C0012C67AF52BE5248525F07B647C0012C7C6
:20601B00247003026028E52BF52A025F10E5248525F07BE77C0312C73470030260B8E5247D
:20603B008525F07BB87C0B12C734705379087A0289828A83E0A3F5F0E0C5F05408C5F054AA
:20605B0000C5F012C6ED45F0600CE5248525F07B9E7C0712C73445F0702578F912C602E6C3
:20607B000886F0C39401C5F09400C5F0F9AAF089828A83E012C6347B2D12C62B12C71145C0
:20609B00F070030260A4025D7678F912C602E60886F012C6DC18F608A6F012C6D378F9126A
:2060BB00C602E60886F0C0E0C0F0742F75F00EC0E0C0F0E5248525F0C0E0C0F0740375F014
:2060DB000012C4E27FFA12C60E7F001200BEE0A3F5F0E0C5F07F020200D878F912C602E6B6
:2060FB000886F054FFC5F05400C5F045F0700302626C18E60886F07B087C0012C6C2F52B49
:20611B0018E60886F054FFC5F05400C5F0F52CE59054FDF590124554E5904401F59078FB0E
:20613B0012C602E6700302614B74E1F52E02614F74E2F52EE4F52AE52A75F0007B087C004A
:20615B0012C7247003026241800CE52A052AE52E2404F52E80E1740175F000AB2A7C001249
:20617B00C6B4F52DE52D552C700302623EE52E75F000C0E0C0F01245631581158178FB128D
:20619B00C602E670030261F274B175F000C0E0C0F012456315811581E52E75F000C0E0C0D6
:2061BB00F012456315811581E52D552B70030261DF74C175F000C0E0C0F012456315811558
:2061DB00810261EF748E75F000C0E0C0F01245631581158102623E74B875F000C0E0C0F0B1
:2061FB0012456315811581E52E75F000C0E0C0F012456315811581E52D552B700302622E59
:20621B0074C875F000C0E0C0F01245631581158102623E748775F000C0E0C0F0124563156B
:20623B00811581026165124554E59054FEF590124554E5904402F590E52B54FF7003026248
:20625B006C741A75F000C0E0C0F012459715811581227FDE7EFF1200DA78F712C602E6083B
:20627B0086F0C0E0C0F07F001200CCE98AF0C0E0C0F0080808E60886F0C0E0C0F0125C579C
:20629B007FFA12C60E7F201200BEF0A3C5F0F0C5F078F912C602E60886F045F0600302627D
:2062BB00C6743275F00E18F608A6F0748F75F010C0E0C0F0743775F00EC0E0C0F078F51283
:2062DB00C602E60886F0C0E0C0F07F001200CCE98AF0C0E0C0F0740475F00012C4E27FF80B
:2062FB0012C60E748F75F010C0E0C0F01245C31581158178FB12C602E60886F0F52885F04C
:20631B002979207A00E754026003026343E5B054046003026343E5288529F04410C5F044EE
:20633B0010C5F0F52885F02978F712C602E60886F07B007C8012C711700302636DE52885DD
:20635B0029F054F7C5F054F7C5F0F52885F0290263EF79207A00E7540170030263C9E528FD
:20637B008529F05400C5F05408C5F045F070030263B4E5288529F04408C5F04400C5F0F5EF
:20639B002885F029E5288529F054FFC5F054F7C5F0F52885F0290263C6E5288529F054F78D
:2063BB00C5F054FFC5F0F52885F0290263EFE5288529F05408C5F05400C5F045F070030287
:2063DB0063EFE5288529F054FFC5F054F7C5F0F52885F029E5288529F0C0E0C0F0740175FD
:2063FB00F000C0E0C0F01260F5158115811581158178F712C602E60886F07B007C8012C786
:20641B001A70030264409010D9E0A3F5F0E0C0F0C0E0E4C0E0C0E01260F5158115811581D0
:20643B0015810264649010D9E0A3F5F0E0C5F054F3C5F054F3C0F0C0E0E4C0E0C0E0126042
:20645B00F515811581158115817F201200BEE0A3F5F0E0C5F07F220200D878FB12C602E6BA
:20647B000886F045F0600302648BE4F5F0026676124D25E4F5F0F52885F02978F912C60200
:20649B00E60886F045F070030264B274FFF5F0F52685F0270264BAE4F5F0F52685F02712FC
:2064BB0040C1C28EE5894420F589E58954EFF589E59054BFF590740AF52AA82A438701D8D2
:2064DB00FB740BF52AE5B04420F5B0E5A04420440FF5A078FB12C602E60886F045F0700340
:2064FB00026622E5B04408F5B0E5B054F7F5B0E4F58DE4F58BD28E438701E5A054DFF5A0AA
:20651B00A82A438701D8FBE5A04420440FF5A0438701C28EE580547F75F000F52485F025B4
:20653B00E58B75F0007B087C0012C6B44524C5F04525C5F0F52485F025E5B0542070030272
:20655B00656FE5248525F02480C5F03400C5F0F52485F02578F912C602E60886F07B017C0D
:20657B000012C71170030265A2E5248525F0AB26AC2712C724700302659FE5248525F0F545
:20659B002685F02702660B78F912C602E60886F07B027C0012C71170030265F0E52485259C
:2065BB00F0AB26AC2712C72470030265D2E5248525F0F52685F027E5248525F0AB28AC29DE
:2065DB0012C73470030265EDE5248525F0F52885F02902660BE5248525F0AB26AC2712C7DB
:2065FB0034700302660BE5248525F0F52685F02778FB12C602E60886F012C6DC18F608A6EB
:20661B00F012C6D30264EEE59044404480F590C28EE5A04420440FF5A01240D4124D01780F
:20663B00F912C602E60886F07B027C0012C7117003026671E5268527F0900E7AF0A3C5F0D2
:20665B00F0C5F0E5288529F0C39526C5F09527C5F0F52685F027E5268527F0227FFC7EFFB3
:20667B001200DA78FB12C602E60886F0F52485F025E5248525F0900E7E12C77EC39BC5F086
:20669B009CC5F0F52485F025E5248525F0900E7C12C77E12C72470030266BDE475F0800267
:2066BB0067E3790A7A0289828A83E0A3F5F0E0C5F0F52885F029AB24AC2512C72470030294
:2066DB0066FCE475F080F52685F027E5248525F0C39528C5F09529C5F0F52485F025026756
:2066FB0017E4F5F0F52685F027E5288529F0C39524C5F09525C5F0F52485F025E524852537
:20671B00F0C0E0C0F01203F815811581740E75F000C0E0C0F0740975F000C0E0C0F0120A60
:20673B006E1581158115811581790C7A02E5288529F089828A8312C77EC39BC5F09CC0F0FE
:20675B00C0E01203F8158115811206CA740975F000C0E0C0F07F001200CCE98AF0C0E0C011
:20677B00F0120A6E15811581158115817F001200CCE98AF0C0E0C0F0741875F002C0E0C0C9
:20679B00F0740C75F003C0E0C0F0124F1E7FFA12C60E740975F000C0E0C0F012038A158171
:2067BB001581F52485F025E5248525F045F060030267D6E4F5F0F52685F027E5248525F0D8
:2067DB004526C5F04527C5F07F040200D879087A0289828A83E0A3F5F0E0C5F05402C5F0E3
:2067FB005400C5F045F0700302680CE4F5F0026906740175F000C0E0C0F07401C0E0C0F02E
:20681B001264751581158115811581790E7A02C0E0C0F0D0F0D0E089828A8312C77E12C70F
:20683B00347003026849740175F000026906900E82E0A3F5F0E0C5F012C6ED45F07019E513
:20685B002F8530F0900E8212C77EC39BC5F09CC5F07B2C7C0112C73445F0700302690374B3
:20687B000275F000C0E0C0F0740AC0E0C0F01264751581158115811581F52A79107A02C051
:20689B00E0C0F0D0F0D0E089828A8312C77E12C72B7003026903900E7AE0A3F5F0E0C5F074
:2068BB00C3952AC5F09400C5F0900E7CF0A3C5F0F0C5F0790C7A02900E7CE0A3F5F0E0C50E
:2068DB00F089828A8312C77EC39BC5F09CC5F0900E7EF0A3C5F0F0C5F0E52F8530F0900E7A
:2068FB0082F0A3C5F0F0C5F0E4F5F022740275F000C0E0C0F07405C0E0C0F01264751581AE
:20691B00158115811581F52A790E7A02900E7AE0A3F5F0E0C5F089828A8312C77E12C72BF0
:20693B007003026947E475F08002697479127A02E52A75F00089828A8312C77E12C72B7011
:20695B0003026961D206900E7AE0A3F5F0E0C0F0C0E0126677158115812278F912C602E657
:20697B00F5060808E6F50308E6F50485033C85043D7824438701D8FBE53C54DFF53C438719
:20699B00017D04438701DDFBDEF7E53C4428F53CF5A04387012278F912C602E60886F045AE
:2069BB00F060030269C7E4F5F0026CE6124D25E4F52AE52A75F0007B047C0012C7247003B4
:2069DB00026A228006E52A052A80E7740175F000AB2A7C0012C6B478FB12C60256C5F0E4F0
:2069FB00C5F045F07003026A1FE52A75F000C333C5F033C5F079327A0012C62474FFF5F014
:206A1B00F709A7F00269E0740875F00079327A0012C624E4F5F0F709A7F01240C1C28EE5CF
:206A3B00A0440FF5A0E590547FF590742FF53C74F0F53D780A438701D8FBD20E741775F08C
:206A5B0002F51C85F01DE5B04408F5B078F912C602E60886F0F52685F027E5B04420F5B0EC
:206A7B00E5268527F045F07003026C5AE4F52BE52B75F0007B047C0012C7247003026C474B
:206A9B008006E52B052B80E7E5268527F078F912C602860308860412C71A600CE52B75F0CD
:206ABB00007B017C0012C71A45F07003026ACD026A9D740175F000AB2B7C0012C6B478FBBB
:206ADB0012C60256C5F0E4C5F045F06003026AEE026A9DE5B054EFF5B0E52B75F000906B35
:206AFB003902C63D742F75F0F0F52885F029026B4D742775F0F0F52885F029026B4D7437C0
:206B1B0075F078F52885F029026B4D742775F078F52885F029E5B04410F5B0026B4D266BFC
:206B3B000300196B02000C6B0100FF6A000000004D6BE4F58DE4F58BE5B054F7F5B0D28E69
:206B5B00741A75F000C0E0C0F0E5288529F0C0E0C0F01269751581158115811581C28EE55F
:206B7B0080547F75F000F52485F025E5B054207003026BA1E5248525F04480C5F04400C5E0
:206B9B00F0F52485F025E5B04408F5B0E58B75F0007B087C0012C6B44524C5F04525C5F014
:206BBB00F52485F025E52B75F000C333C5F033C5F079327A0012C624E5248525F0870309A8
:206BDB00870412C7247003026C01E52B75F000C333C5F033C5F079327A0012C624E5248579
:206BFB0025F0F709A7F0E52B75F0007B017C0012C7116019740875F00079327A0012C624FC
:206C1B00E5248525F0870309870412C73445F07003026C44740875F00079327A0012C6242F
:206C3B00E5248525F0F709A7F0026A9DE5268527F012C6DCF52685F02712C6D3026A7BE56D
:206C5B00B054F7F5B0C20EE59044404480F590C28EE5A04420440FF5A01240D4124D017848
:206C7B00FB12C602E654017003026CBAE4F5F079327A0012C624C001C00279647A02D007B1
:206C9B00D000C000C007E60886F089828A8312C77E2BC5F03CC5F0D007D000F608A6F0742F
:206CBB000875F00079327A0012C624C001C002740275F00079327A0012C624D007D000E61F
:206CDB000886F0C397C5F00997C5F022744C75F002C0E0C0F0740975F000C0E0C0F0120AD0
:206CFB006E1581158115811581740475F00079327A0012C624E70987F0C0E0C0F01203F8F1
:206D1B00158115811206CAE4F5F079327A0012C624C001C002740275F00079327A0012C605
:206D3B0024D007D000E60886F0C397C5F00997C0F0C0E01203F81581158112056A1209B184
:206D5B00120A5B745475F002C0E0C0F0740975F000C0E0C0F0120A6E15811581158115810E
:206D7B001207DE745075F002C0E0C0F0740E75F000C0E0C0F0120A6E15811581158115816D
:206D9B001206CAE4F50D746075F002C0E0C0F0740E75F000C0E0C0F0120A6E158115811583
:206DBB0081158112056A120A5B745C75F002C0E0C0F0740975F000C0E0C0F0120A6E1581D0
:206DDB001581158115811207DE745875F002C0E0C0F0740E75F000C0E0C0F0120A6E158105
:206DFB0015811581158112056A120A5B740475F003C0E0C0F0740975F000C0E0C0F0120A40
:206E1B006E15811581158115811206CA749375F007C0E0C0F0740E75F000C0E0C0F0120A99
:206E3B006E158115811581158112086A120A2D12056A120A5B745475F002C0E0C0F07409B0
:206E5B0075F000C0E0C0F0120A6E15811581158115811207DE745075F002C0E0C0F0740E8C
:206E7B0075F000C0E0C0F0120A6E15811581158115811206CAE50D6006E475F0808003E4F6
:206E9B00F5F0F52685F027E4F50D740975F000C0E0C0F0743075F002C0E0C0F0740875F0E7
:206EBB0003C0E0C0F0124F1E7FFA12C60E740975F000C0E0C0F012038A15811581F52485EB
:206EDB00F025E5248525F045F06003026EF1E4F5F0F52685F027E5248525F04526C5F0455E
:206EFB0027C5F022C20D79087A0289828A83E0A3F5F0E0C5F05401C5F05400C5F045F060F0
:206F1B001178FB12C602E612C6347B0212C62B12C71A45F07003026F3AE4F5F002716B9009
:206F3B000E80E0A3F5F0E0C5F045F06003026F4E02700D740375F000C0E0C0F07402C0E093
:206F5B00C0F01269B11581158115811581E4F5F079327A0012C624C001C002740275F0009A
:206F7B0079327A0012C624D007D000E60886F0C397C5F00997C5F0F52485F02579167A02A8
:206F9B00C0E0C0F0D0F0D0E089828A8312C77E12C7347003026FC778FB12C602E660030257
:206FBB006FBFD20DE5248525F002716B79147A02E5248525F089828A8312C77E12C72460B0
:206FDB002A900E80E0A3F5F0E0C5F012C6ED45F07019E52F8530F0900E8012C77EC39BC57D
:206FFB00F09CC5F07B2C7C0112C73445F07003027168740375F000C0E0C0F0740FC0E0C072
:20701B00F01269B11581158115811581E4F5F079327A0012C624C001C002740275F0007920
:20703B00327A0012C624D007D000E60886F0C397C5F00997C5F0F52485F02579167A02C0A0
:20705B00E0C0F0D0F0D0E089828A8312C77E12C734700302708678FB12C602E66003027026
:20707B007ED20DE5248525F002716B79147A02E5248525F089828A8312C77E12C73470037C
:20709B000270A4E4F5F002716BE4F5F079327A0012C624E70987F0C0E0C0F01203F81581D4
:2070BB001581120A61740675F00079327A0012C624E70987F0C0E0C0F01203F815811581B2
:2070DB001207DE744C75F002C0E0C0F0740E75F000C0E0C0F0120A6E15811581158115810E
:2070FB0012056A740475F00079327A0012C624E70987F0C0E0C0F01203F8158115811206EE
:20711B00CA745875F002C0E0C0F0740E75F000C0E0C0F0120A6E15811581158115811207D5
:20713B00DE740975F000C0E0C0F0740475F003C0E0C0F0120A6E1581158115811581E52FFE
:20715B008530F0900E80F0A3C5F0F0C5F0E4F5F02279217A00E754206003027192740375B6
:20717B00F000C0E0C0F07402C0E0C0F01269B11581158115811581C20DE4F5F079327A00AD
:20719B0012C624C001C002740275F00079327A0012C624D007D000E60886F0C397C5F00936
:2071BB0097C5F079167A02C0E0C0F0D0F0D0E089828A8312C77E12C72470030271E0E47512
:2071DB00F08002724E126CE7F52485F025E5248525F07B007C8012C7117003027200E47506
:2071FB00F08002724E740875F00079327A0012C624C001C002740275F00079327A0012C6E5
:20721B0024D007D000E60886F0C397C5F00997C5F079667A02C0E0C0F0D0F0D0E089828A10
:20723B008312C77E12C72B7003027249D206E5248525F022E4F5F0900E80F0A3C5F0F0C5A4
:20725B00F0E4F5F0900E82F0A3C5F0F0C5F0740175F000C0E0C0F01273281581158145F015
:20727B006003027283027327740175F000C0E0C0F012732815811581F52485F02545F060B2
:20729B001E900E82E0A3F5F0E0C5F012C6ED45F0600D900E80E0A3F5F0E0C5F012C6ED450C
:2072BB00F070030272EE747875F007C0E0C0F01245C315811581740375F000C0E0C0F012C2
:2072DB004463158115817814438701D8FB12547E02728312546EE475F080C0E0C0F0E4C02A
:2072FB00E0C0E079147A0389828A83E0A3F5F0E0C0F0C0E012626D7FFA12C60E740475F01C
:20731B0000C0E0C0F0124463158115812278FB12C602E612C634C0E0C0F01267E815811560
:20733B0081F52485F02545F07003027352C200E5248525F002737F78FB12C602E612C634F7
:20735B00C0E0C0F0126EFF15811581F52485F02545F0700302737CD200E5248525F00273E1
:20737B007FE4F5F0227FFE7EFF1200DAE5288529F07F001200BEF0A3C5F0F0C5F078FB1236
:20739B00C602E60886F07B007C8012C71170030273CA7F001200BEE0A3F5F0E0C5F0F5282A
:2073BB0085F02978FB12C602E60886F00275A0E5288529F07F001200BEF0A3C5F0F0C5F065
:2073DB0078FB12C602E60886F0F52885F029E5288529F054FFC5F0547FC5F0F52485F02538
:2073FB0079207A00E75401700302743F79147A0389828A83E0A3F5F0E0C5F05400C5F0547F
:20741B0008C5F045F060030274280273AD791A7A0389828A83E0A3F5F0E0C5F0F52685F087
:20743B002702747479147A0389828A83E0A3F5F0E0C5F05408C5F05400C5F045F06003024D
:20745B0074600273AD79187A0389828A83E0A3F5F0E0C5F0F52685F027E4F52AE526852787
:20747B00F05400C5F05480C5F045F0700302748FE52A052AE5268527F054FFC5F0547FC53D
:20749B00F0F52685F027E5288529F05400C5F05480C5F045F0700302751EE52A70030275B7
:2074BB0001E5268527F0AB24AC2512C73D70030274E3E5268527F0C39524C5F09525C5F040
:2074DB00F52885F0290274FEE5248525F0C39526C5F09527C5F04400C5F04480C5F0F5288C
:2074FB0085F02902751BE5248525F02526C5F03527C5F04400C5F04480C5F0F52885F02960
:20751B0002757CE52A700302753AE5248525F02526C5F03527C5F0F52885F02902757CE5E3
:20753B00268527F0AB24AC2512C7347003027569E5268527F0C39524C5F09525C5F04400E3
:20755B00C5F04480C5F0F52885F02902757CE5248525F0C39526C5F09527C5F0F52885F05B
:20757B0029E5288529F078FB12C602F608A6F07F001200BEE0A3F5F0E0C5F0F52885F02934
:20759B0018E60886F07F020200D8E49010F0F078FB12C602E6540170030275DEE4F5F090EC
:2075BB0010ECF0A3C5F0F0C5F0E6540470030275DB748475F0079010ECF0A3C5F0F0C5F0E7
:2075DB0002760879147A0389828A83E0A3F5F0E0C5F04400C5F04402C0F0C0E0121A3C15E5
:2075FB008115819010ECF0A3C5F0F0C5F0C20974FF75F07F9010EAF0A3C5F0F0C5F01254E1
:20761B006EC2069010D9E0A3F5F0E0C5F054F3C5F054F3C5F09010D9F0A3C5F0F0C5F079CC
:20763B00207A00E75401600302766A126907F52685F0279010D9E0A3F5F0E0C5F0440CC550
:20765B00F04400C5F09010D9F0A3C5F0F0C5F079207A00E75401700302769A12716CF526E2
:20767B0085F0279010D9E0A3F5F0E0C5F04408C5F04400C5F09010D9F0A3C5F0F0C5F07904
:20769B00147A0389828A83E0A3F5F0E0C5F04400C5F04402C5F0F52885F02978FB12C6022D
:2076BB00E654026003027723E5268527F0C0E0C0F012738015811581F52685F02779087A9A
:2076DB000289828A83E0A3F5F0E0C5F05404C5F05400C5F045F06003027720E5268527F08A
:2076FB007B007C8012C71A600DE5268527F05400C5F05480C5F045F07003027720E4F5F055
:20771B00F52685F027027735E5288529F054F8C5F054FFC5F0F52885F029E5288529F0547B
:20773B0004C5F05400C5F045F06010E5268527F0C0E0C0F012565D15811581700302777083
:20775B00E5288529F04400C5F04404C5F0F52885F029027782E5288529F054FFC5F054FBB5
:20777B00C5F0F52885F029D207E5268527F07B007C8012C7117026E5268527F0C0E0C0F010
:20779B009010ECE0A3F5F0E0C0F0C0E0E5288529F0C0E0C0F012626D7FFA12C60E45F070CA
:2077BB00030277E69010EAE0A3F5F0E0C5F07BFF7C7F12C71170030277E3E475F08090102E
:2077DB00EAF0A3C5F0F0C5F00278D979207A00E7544070030278D3E5268527F0C0E0C0F01F
:2077FB009010EAE0A3F5F0E0C0F0C0E012551F15811581158115819010EAF0A3C5F0F0C5E7
:20781B00F079217A00E7540260030278D3E5288529F05404C5F05400C5F045F0602A90103C
:20783B00EAE0A3F5F0E0C0F0C0E012565D15811581F52A75F00045F0600E78FB12C602E660
:20785B00540112C63412C6ED45F070030278A774019010F0F0E52A75F0007B017C0012C7E4
:20787B00117003027894748075F000C0E0C0F0124463158115810278A4748375F000C0E0B3
:20789B00C0F0124463158115810278B7748475F000C0E0C0F012446315811581D20978FB27
:2078BB0012C602E6540170030278D39010EAE0A3F5F0E0C5F0027D5C12547E02761C125498
:2078DB006E79147A0389828A83E0A3F5F0E0C5F09010DBF0A3C5F0F0C5F09010DBE0A3F5A5
:2078FB00F0E0C0F0C0E0121A3C158115819010ECF0A3C5F0F0C5F079217A00E7540212C617
:20791B003445F060119010EAE0A3F5F0E0C5F07B007C8012C71A45F07003027CB479147AA0
:20793B000389828A83E0A3F5F0E0C5F05402C5F05400C5F045F07003027B8C9010EAE0A342
:20795B00F5F0E0C5F054FFC5F0547FC0F0C0E01203F8158115819010EAE0A3F5F0E0C5F0A7
:20797B005400C5F05480C5F045F0700302798E74FFF51279207A0389828A83E0A3F5F0E0B9
:20799B00C5F045F060030279C174FFF5F090108BF0A3C5F0F0C5F074FF75F07F90108DF05F
:2079BB00A3C5F0F0C5F09010EAE0A3F5F0E0C5F090108B12C77E12C70170030279ED901051
:2079DB00EAE0A3F5F0E0C5F090108BF0A3C5F0F0C5F09010EAE0A3F5F0E0C5F090108D12C7
:2079FB00C77E12C6F17003027A199010EAE0A3F5F0E0C5F090108DF0A3C5F0F0C5F0741C25
:207A1B0075F003C0E0C0F0740975F000C0E0C0F0120A6E158115811581158112086A74097E
:207A3B0075F000C0E0C0F0741C75F003C0E0C0F0120A6E158115811581158179207A0389AD
:207A5B00828A83E0A3F5F0E0C5F012C6D389828A83F0A3C5F0F0C5F079227A03C0E0C0F067
:207A7B00D0F0D0E089828A8312C77E12C7117003027B7079227A0389828A83E0A3F5F0E04A
:207A9B00C0F0C0E01203F8158115811206CA740975F000C0E0C0F012038A158115819010C3
:207ABB00EAF0A3C5F0F0C5F0740075F00CC0E0C0F0741C75F003C0E0C0F0120A6E15811522
:207ADB00811581158179207A03E4F5F089828A83F0A3C5F0F0C5F09010EAE0A3F5F0E0C068
:207AFB00F0C0E012565D15811581F52A7003027B4AE52A75F0007B017C0012C711700302C6
:207B1B007B30748075F000C0E0C0F012446315811581027B40748375F000C0E0C0F0124452
:207B3B0063158115817802438701D8FB027B5A748475F000C0E0C0F01244631581158178A2
:207B5B0001438701D8FBE4C0E0C0E012446315811581027B8C9010DBE0A3F5F0E0C5F0449D
:207B7B0000C5F04402C5F09010DBF0A3C5F0F0C5F09010EAE0A3F5F0E0C0F0C0E012565DEB
:207B9B001581158112C63445F060159010DBE0A3F5F0E0C5F05400C5F05402C5F012C6ED97
:207BBB0045F07003027BDE9010DBE0A3F5F0E0C5F04400C5F04404C5F09010DBF0A3C5F076
:207BDB00F0C5F09010DBE0A3F5F0E0C5F05400C5F05402C5F045F06003027CB179147A0388
:207BFB009010DBE0A3F5F0E0C5F05400C5F05404C5F089828A8312C77E4BC5F04CC5F090DC
:207C1B0010DBF0A3C5F0F0C5F09010DBE0A3F5F0E0C0F0C0E0121A3C158115819010ECF04E
:207C3B00A3C5F0F0C5F09010EAE0A3F5F0E0C0F0C0E012177B1581158179147A039010DBB5
:207C5B00E0A3F5F0E0C5F05400C5F05404C5F089828A8312C77E4BC5F04CC5F09010DB12F9
:207C7B00C77E12C71A7003027CB179147A0389828A83E0A3F5F0E0C5F09010DBF0A3C5F02D
:207C9B00F0C0F0C0E0121A3C158115819010ECF0A3C5F0F0C5F0027D0A79147A0389828A54
:207CBB0083E0A3F5F0E0C5F05402C5F05400C5F045F07003027CEE9010DBE0A3F5F0E0C579
:207CDB00F04400C5F04402C5F09010DBF0A3C5F0F0C5F09010DBE0A3F5F0E0C5F04400C5BC
:207CFB00F04404C5F09010DBF0A3C5F0F0C5F09010EAE0A3F5F0E0C0F0C0E09010ECE0A3E3
:207D1B00F5F0E0C0F0C0E09010DBE0A3F5F0E0C0F0C0E012626D7FFA12C60E79217A00E7E5
:207D3B0054026003027D52748775F000C0E0C0F0124463158115819010EAE0A3F5F0E0C572
:207D5B00F02278F912C602E60886F07BC87C0012C68118F608A6F018E60886F0252FC5F0FE
:207D7B003530C5F018F608A6F0C206E475F0809010EAF0A3C5F0F0C5F078F712C602E608E3
:207D9B0086F05402C5F05400C5F045F07003027E08E4C0E0C0E01267E81581158145F070B8
:207DBB0003027E08C20078FB12C602E675F000C0E0C0F01275A5158115819010EAF0A3C539
:207DDB00F0F0C5F079207A00E7544012C63445F060119010EAE0A3F5F0E0C5F07B007C80B5
:207DFB0012C71A45F07003027E08027E9678F712C602E60886F05401C5F05400C5F045F03A
:207E1B007003027E7CE4C0E0C0E0126EFF1581158145F07003027E7CD20078FB12C602E660
:207E3B0075F000C0E0C0F01275A5158115819010EAF0A3C5F0F0C5F079207A00E754401203
:207E5B00C63445F060119010EAE0A3F5F0E0C5F07B007C8012C71A45F07003027E7C027E52
:207E7B0096438701E52F8530F078F912C602860308860412C7246003027D9479207A00E7FA
:207E9B00544012C63412C6ED45F0600D79217A00E7540212C63412C6ED45F07003027EC9AD
:207EBB00E475F0809010EAF0A3C5F0F0C5F09010EAE0A3F5F0E0C5F02278FB12C602E60883
:207EDB0086F0F52485F025E5248525F054FFC5F0547FC0F0C0E01203F815811581E52485C9
:207EFB0025F05400C5F05480C5F045F07003027F1374FFF512027F16E4F512227FFB7EFF6F
:207F1B001200DAE47F001200BEF0740075F00CC0E0C0F0741075F003C0E0C0F0120A6E1527
:207F3B008115811581158174F275F0067F031200BEF0A3C5F0F0C5F012546ED20A7F03128F
:207F5B0000BEE0A3F5F0E0C0F0C0E01245C315811581E4C0E0C0E012446315811581E52F4D
:207F7B008530F07F011200BEF0A3C5F0F0C5F0740175F000C0E0C0F0123EF315811581F576
:207F9B003112C63412C6ED45F0601BE52F8530F07F011200BE12C77EC39BC5F09CC5F07BD5
:207FBB000A7C0012C72445F07003027FEB438701740175F000C0E0C0F01273281581158141
:207FDB0045F07003027FE5027FEB12547E027F8AE53170030280D5E4C0E0C0E0123EF315C1
:207FFB00811581F53112546EE53112C6347BFC12C62B12C711700302803B7F001200BEE070
:20801B00547F6003028035740375F000C0E0C0F012446315811581027F4202828D0280C22F
:20803B00E53112C6347BFB12C62B12C71170030280C27F001200BEE070030280AC7F001288
:20805B0000BEE05480700302808A79147A0389828A83E0A3F5F0E0C5F054FFC5F054F7C5DD
:20807B00F089828A83F0A3C5F0F0C5F00280AC79147A0389828A83E0A3F5F0E0C5F054F758
:20809B00C5F054FFC5F089828A83F0A3C5F0F0C5F0740675F000C0E0C0F012446315811570
:2080BB0081E4F5F00286A9740375F000C0E0C0F012446315811581027F42E52F8530F07F1E
:2080DB00011200BE12C77EC39BC5F09CC5F07B0A7C0012C73D70030280F8027F567F00128D
:2080FB0000BEE0600302816979207A00E75401700302812F740075F00CC0E0C0F0740875DE
:20811B00F003C0E0C0F0120A6E158115811581158102814C740075F00CC0E0C0F0740C7526
:20813B00F003C0E0C0F0120A6E158115811581158179207A00E7540170030281667F0012C3
:20815B0000BEE044807F001200BEF00281BA7F001200BEE0548012C63445F0600D79207A62
:20817B0000E7540112C63412C6ED45F070197F001200BEE0548012C63412C6ED45F06007A9
:20819B0079207A00E7540170030281BA740375F000C0E0C0F012446315811581027F5612CB
:2081BB00546E740775F000C0E0C0F01275A515811581F52485F025E5248525F07B007C808D
:2081DB0012C71170030281E6027F56E5248525F05400C5F05480C5F045F070030282017411
:2081FB0001F52A028204E4F52AE5248525F054FFC5F0547FC0F0C0E01203F815811581743E
:20821B001075F003C0E0C0F0740975F000C0E0C0F0120A6E1581158115811581E52A7003E5
:20823B000282441207DE02824712086A740975F000C0E0C0F0741075F003C0E0C0F0120A8B
:20825B006E15811581158115817F001200BEE0047F001200BEF0147828438701D8FB74FC09
:20827B0075F0067F031200BEF0A3C5F0F0C5F0027F567F001200BEE0547F12C634C0E0C0F4
:20829B00F01203F815811581741075F003C0E0C0F0740975F000C0E0C0F0120A6E158115F7
:2082BB0081158115811206CA79207A00E754017003028317791A7A03C001C002740975F041
:2082DB0000C0E0C0F012038A15811581D083D082F0A3C5F0F0C5F079147A0389828A83E0D4
:2082FB00A3F5F0E0C5F04400C5F04408C5F089828A83F0A3C5F0F0C5F002835C79187A0358
:20831B00C001C002740975F000C0E0C0F012038A15811581D083D082F0A3C5F0F0C5F079B7
:20833B00147A0389828A83E0A3F5F0E0C5F04408C5F04400C5F089828A83F0A3C5F0F0C56D
:20835B00F078FB12C602E612C6347B0212C62B12C71A700302837A740175F0000286A9746F
:20837B000575F0077F031200BEF0A3C5F0F0C5F012546E7F031200BEE0A3F5F0E0C0F0C054
:20839B00E01245C315811581E4C0E0C0E012446315811581E52F8530F07F011200BEF0A3F7
:2083BB00C5F0F0C5F0740175F000C0E0C0F0123EF315811581F53112C63412C6ED45F06023
:2083DB001BE52F8530F07F011200BE12C77EC39BC5F09CC5F07B0A7C0012C72445F07003FD
:2083FB00028421438701740175F000C0E0C0F01273281581158145F0700302841B028421FD
:20841B0012547E0283C0E531700302845312546EE53112C6347BFB12C62B12C711700302E8
:20843B00844002804D740375F000C0E0C0F01244631581158102838EE52F8530F07F01121F
:20845B0000BE12C77EC39BC5F09CC5F07B0A7C0012C73D700302847602838E7F001200BEA0
:20847B00E0548012C63445F0600D79207A00E7540112C63412C6ED45F070197F001200BE52
:20849B00E0548012C63412C6ED45F0600779207A00E7540170030284C7740375F000C0E015
:2084BB00C0F01244631581158102838E12546E740575F000C0E0C0F01275A515811581F5AA
:2084DB002485F025E5248525F07B007C8012C71170030284F302838EE5248525F07F01128B
:2084FB0000BEF0A3C5F0F0C5F0E5248525F09010DDF0A3C5F0F0C5F0E4F5F09010DFF0A3CE
:20851B00C5F0F0C5F0741475F01E9010E1F0A3C5F0F0C5F079147A0389828A83E0A3F5F0E3
:20853B00E0C5F054F2C5F054FFC5F09010E3F0A3C5F0F0C5F0E49010E5F0740E75F0079041
:20855B0010E6F0A3C5F0F0C5F0125840F52685F027E5268527F07B007C8012C7117003023F
:20857B00858002804DE5268527F0C0E0C0F01203F815811581740E75F000C0E0C0F0740928
:20859B0075F000C0E0C0F0120A6E15811581158115817F011200BEE0A3F5F0E0C0F0C0E041
:2085BB001203F8158115811206CA79207A00E75401700302863C740975F000C0E0C0F07459
:2085DB000875F003C0E0C0F0120A6E1581158115811581791A7A0389828A83E0A3F5F0E06E
:2085FB00C0F0C0E0127ED41581158112056A740975F000C0E0C0F012038A15811581F526E7
:20861B0085F02745F07003028639791A7A03E5268527F089828A83F0A3C5F0F0C5F00286F6
:20863B00A4740975F000C0E0C0F0740C75F003C0E0C0F0120A6E158115811581158179189E
:20865B007A0389828A83E0A3F5F0E0C0F0C0E0127ED41581158112056A740975F000C0E03F
:20867B00C0F012038A15811581F52685F02745F070030286A479187A03E5268527F0898219
:20869B008A83F0A3C5F0F0C5F0740175F0007F050200D878FB12C602E60886F02402C5F001
:2086BB003400C0F0C0E012C5C91581158178FB12C60226C5F00836C5F02403C5F03400C55F
:2086DB00F0F52885F029E5288529F0227FFE7EFF1200DA78F912C602E60886F008860308D9
:2086FB00860412C711700302875D78F912C602860108860289828A83E0A3F5F0E0C5F045D6
:20871B00F0700302874E18E60886F07F001200BEF0A3C5F0F0C5F018E60886F0C0E0C0F080
:20873B001286AE1581158178F912C602F608A6F00287057F001200BEE0A3F5F0E0C5F002F1
:20875B0087D178FB12C602E60886F07F001200BEF0A3C5F0F0C5F07F001200BEE0A3F5F002
:20877B00E0C0F0C0E01286AE158115817F001200BEF0A3C5F0F0C5F07F001200BEE0A3F539
:20879B00F0E0C5F078F912C602860308860412C71170030287B908E60886F00287D17F00EF
:2087BB001200BEE0A3F5F0E0C5F078FB12C602F608A6F002875D7F020200D878FB12C60262
:2087DB00E60886F0C0E0C0F01245C315811581E52F8530F0241EC5F03400C5F0F52885F059
:2087FB002979217A00E754016007740275F0008005740575F000C0E0C0F0123EF315811502
:20881B0081F531600302889712BF4A45F0700302887A1254569010D9E0A3F5F0E0C5F044D5
:20883B0001C5F04400C5F09010D9F0A3C5F0F0C5F09010D9E0A3F5F0E0C0F0C0E0E4C0E073
:20885B00C0E01260F51581158115811581E52F8530F0241EC5F03400C5F0F52885F0291238
:20887B00547E438701E52F8530F0AB28AC2912C73D70030288940288970287FCE53112C6A4
:20889B00347B0012C62B12C71A70030288D09010D9E0A3F5F0E0C5F054FEC5F054FFC5F0C6
:2088BB009010D9F0A3C5F0F0C5F012546EE53112C6340288D30287D6227FFE7EFF1200DA7D
:2088DB00E4F5F07F001200BEF0A3C5F0F0C5F078F912C602E60886F0F52685F02778FB128D
:2088FB00C602E60886F045F06007181818E60886F045F07003028937748F75F010C0E0C0A7
:20891B00F078F912C602E60886F0C0E0C0F012C59B158115811581158102895E748F75F032
:20893B001078F912C602860308860412C71A700302895EE4F5F0798F7A1012C624E4898211
:20895B008A83F078F912C602E60886F045F07003028A03748F75F010C0E0C0F012C5C9159C
:20897B00811581F52AE5268527F0F52885F029A928AA2989828A83E012C63445F06014A94A
:20899B0028AA2989828A83E012C6347B2C12C62B12C71A45F070030289EE8016E52A052A2B
:2089BB00E5288529F012C6D3F52885F02912C6DC80BDE52A798F7A1075F00012C624C001D7
:2089DB00C002A928AA2989828A83E0D083D082F00289B7E52A798F7A1075F00012C624E461
:2089FB0089828A83F0028A7978FB12C6028601088602C001C0027F001200CCE98AF0C0E008
:208A1B00C0F078FB12C602868208868312C6611581158115811581F52885F029E52885291E
:208A3B00F045F06003028A4B74FE75F0FF028D8A748F75F010AB28AC2912C71A7003028ABB
:208A5B0079748F75F010C0E0C0F0E5288529F0C0E0C0F012C59B1581158115811581748FF2
:208A7B0075F010C0E0C0F01287D615811581F531E53112C634908D6F02C63D7F001200BE53
:208A9B00E0A3F5F0E0C5F012C6D37F001200BEF0A3C5F0F0C5F012C6DC78F912C602E608EA
:208ABB0086F045F07003028B32E5268527F0F52885F029A928AA2989828A83E012C634456F
:208ADB00F06014A928AA2989828A83E012C6347B2C12C62B12C71A45F07003028B0CE52884
:208AFB008529F012C6D3F52885F02912C6DC028ACEA928AA2989828A83E06003028B1D029E
:208B1B0088DBE5288529F02401C5F03400C5F0F52685F027028B6B78FB12C6028601088658
:208B3B0002C001C0027F001200CCE98AF0C0E0C0F078FB12C602868208868312C661158150
:208B5B0015811581158145F06003028B6B0288DB028D8778F912C602E60886F045F06003E6
:208B7B00028BEF7F001200BEE0A3F5F0E0C5F012C6DC7F001200BEF0A3C5F0F0C5F012C64A
:208B9B00D3088601088602C001C0027F001200CCE98AF0C0E0C0F078FB12C6028682088652
:208BBB008312C661158115811581158145F06003028BEC7F001200BEE0A3F5F0E0C5F01217
:208BDB00C6D37F001200BEF0A3C5F0F0C5F012C6DC028D87E5268527F078F912C602860360
:208BFB0008860412C7117003028C87E5268527F0F52885F029A926AA2789828A83E07003E9
:208C1B00028C7AA926AA2789828A83E012C6347B2C12C62B12C7117003028C677F00120000
:208C3B00BEE0A3F5F0E0C5F012C6D37F001200BEF0A3C5F0F0C5F012C6DCE5268527F024F8
:208C5B0001C5F03400C5F0F52885F029E5268527F012C6D3F52685F02712C6DC028C10E55F
:208C7B00288529F0F52685F027028D21E5268527F0C39402C5F09400C5F0F52685F027E512
:208C9B00268527F078F912C602860308860412C71A6014A926AA2789828A83E012C6347B0B
:208CBB002C12C62B12C71A45F07003028CDCE5268527F012C6DCF52685F02712C6D3028C1A
:208CDB009A7F001200BEE0A3F5F0E0C5F012C6DC7F001200BEF0A3C5F0F0C5F012C6D3E513
:208CFB00268527F078F912C602860308860412C71A7003028D21E5268527F012C6D3F526AE
:208D1B0085F02712C6DC028D87740175F000C0E0C0F0123EF3158115817003028D4612548B
:208D3B007E7801438701D8FB028D247F001200BEE0A3F5F0E0C5F0028D8A74FFF5F0028D84
:208D5B008A744375F000C0E0C0F012446315811581028D875C8DFAFF558DFBFF248DFCFF9D
:208D7B006E8BFFFF968AFEFF00005C8D0288F87F020200D8E4F52AE52A75F0007B087C0088
:208D9B0012C724600F78FB12C602860108860289828A83E07003028DF68006E52A052A80B4
:208DBB00D678F912C602E60886F0252AC5F03400C5F0F9AAF008E60886F012C6D318F60866
:208DDB00A6F012C6DCC001C002F9AAF089828A83E0547FD083D082F0028DB6E52A052A75C0
:208DFB00F00078F912C60226C5F00836C5F0F9AAF0181818E60886F0540FC5F05400C5F0EF
:208E1B004490C5F04400C5F089828A83F008E60886F0252AC5F03400C0F0C0E0743C75F0A4
:208E3B000EC0E0C0F0740675F000C0E0C0F01254C87FFA12C60E227FFE7EFF1200DA78FB82
:208E5B0012C602E654017003028E7E797F7A0689828A83E0F52D747475F006F52885F029C1
:208E7B00028E9379727A0689828A83E0F52D744275F006F52885F02978F712C602E6547F51
:208E9B00F52AE5288529F0C0E0C0F0E52A75F000C0E0C0F012C5E51581158115811581F5D0
:208EBB002485F025E5248525F045F06003028EDAA928AA2989828A83E012C634028F7D7806
:208EDB00F912C602E612C6347B0012C62B12C6F17003028F09E6F404FBE5248525F0C39B84
:208EFB00C5F09400C5F0F52485F025028F1FE5248525F078F912C60226C5F03400C5F0F54F
:208F1B002485F025E5248525F0AB28AC2912C7247003028F3DE5288529F0F52485F025028F
:208F3B008F71E5288529F0252DC5F03400C5F0AB24AC2512C72B7003028F71E5288529F0B7
:208F5B00252DC5F03400C5F0C39401C5F09400C5F0F52485F025A924AA2589828A83E01257
:208F7B00C6347F020200D87FE47EFF1200DAE4F5F07F161200BEF0A3C5F0F0C5F078F71219
:208F9B00C602E60886F0C0E0C0F012C5C9158115817F181200BEF0A3C5F0F0C5F0E52F8581
:208FBB0030F07F1A1200BEF0A3C5F0F0C5F078F912C602E60886F0F52B18181886010886F4
:208FDB000289828A83E012C6347B2012C62B12C71A7003029005080808E60886F04480C5D0
:208FFB00F04400C5F018F608A6F078FB12C602E60886F04440C5F04400C5F018F608A6F032
:20901B00E52B75F00078F912C602F608A6F018E60886F07B067C0012C701700302909C7F6E
:20903B00181200BEE0A3F5F0E0C5F018C396C5F00896C5F07B077C0012C701700302907862
:20905B0018E60886F0C39406C5F09400C5F07F161200BEF0A3C5F0F0C5F00290997F1812F8
:20907B0000BEE0A3F5F0E0C5F0C39408C5F09400C5F07F161200BEF0A3C5F0F0C5F00290D9
:20909B00ABE4F5F07F161200BEF0A3C5F0F0C5F078F912C602E60886F07F161200BE12C702
:2090BB007EC39BC5F09CC0F0C0E07F021200CCE98AF0C0E0C0F0181818E60886F07F1612B3
:2090DB0000BE12C77E2BC5F03CC0F0C0E0128D8F7FFA12C60E7F021200CCE98AF0C0E0C045
:2090FB00F01245C31581158179217A00E754016007740275F0008005740575F000C0E0C0CA
:20911B00F0123EF31581158112C6347F001200BEF0A3C5F0F0C5F045F060030291561254A6
:20913B007E12BF4A438701E52F8530F07F1A1200BEF0A3C5F0F0C5F002910378F712C602C2
:20915B00E60886F0F52685F02708E60886F0F52BE52F8530F07F1A1200BE12C77EC39BC5B1
:20917B00F09CC5F07B127C0012C6812401C5F03400C5F0F52CE52C75F0007B057C0012C702
:20919B003470030291C57405F52C7F1A1200BEE0A3F5F0E0C5F0245AC5F03400C5F07F1A00
:2091BB001200BEF0A3C5F0F0C5F012546EE5268527F0252BC5F03400C5F0F9AAF089828A46
:2091DB0083E0F52A7F001200BEE0A3F5F0E0C5F090938B02C63DE52A75F000C0E0C0F0E54A
:2091FB002CC0E0C0F078F712C602E60886F0C0E0C0F0128E527FFA12C60EF52A78FB12C620
:20921B0002E60886F054BFC5F054FFC5F018F608A6F00293A3E52A75F000C0E0C0F0E52C44
:20923B00F40475F000C0E0C0F078F712C602E60886F0C0E0C0F0128E527FFA12C60EF52AF9
:20925B0078FB12C602E60886F054BFC5F054FFC5F018F608A6F00293A3E52B052BE52685BE
:20927B0027F0252BC5F03400C5F0F9AAF089828A83E054807003029298E52B052BE52B750B
:20929B00F0007F181200BE12C77E12C71170030292B574FC75F0FF0293BD78FB12C602E606
:2092BB000886F054C1C5F05400C5F045F07020E5268527F0252BC5F03400C5F0F9AAF089CC
:2092DB00828A83E012C6347B2012C62B12C71A45F070030292F402901B78FB12C602E6084F
:2092FB0086F04440C5F04400C5F018F608A6F00293A374FB75F0FF0293BDE52B75F0007BB2
:20931B00007C0012C734700302932DE52B152B02933D744375F000C0E0C0F0124463158197
:20933B001581E5268527F0252BC5F03400C5F0F9AAF089828A83E054807003029375E52BFB
:20935B0075F0007B007C0012C7347003029371E52B152B029375E52B052B02901B7443759D
:20937B00F000C0E0C0F01244631581158102901B1593FAFF0D93FBFF7492FCFF3092FFFF04
:20939B00F191FEFF00007893E5268527F0252BC5F03400C5F0F9AAF0E52A89828A83F002E7
:2093BB00901B7F1C0200D87FFE7EFF1200DA78FB12C602860108860289828A83E0A3F5F0A8
:2093DB00E0C5F0F52485F025E5248525F07B637C0012C73470030293FCE4F5F0F52485F0C5
:2093FB002578FB12C602860108860289828A83E0A3F5F0E0C5F07B007C0012C6F17003027F
:20941B009427746375F000F52485F025E5248525F09094AA02C63D748775F0067F0012001A
:20943B00BEF0A3C5F0F0C5F00294B6748B75F0067F001200BEF0A3C5F0F0C5F00294B674B4
:20945B008F75F0102410C5F03400C0F0C0E0744375F00EC0E0C0F0E5248525F02401C5F089
:20947B003400C0F0C0E0740375F00012C4E27FFA12C60E748F75F0102410C5F03400C5F010
:20949B007F001200BEF0A3C5F0F0C5F00294B6469463003294000000005A9478FB12C602EB
:2094BB008601088602E5248525F089828A83F0A3C5F0F0C5F0748F75F010C0E0C0F0749006
:2094DB0075F006C0E0C0F07F001200BEE0A3F5F0E0C0F0C0E0740375F00012C4E27FFA12B0
:2094FB00C60E748F75F0107F020200D879227A0378FB12C602E675F00089828A83F0A3C58A
:20951B00F0F0C5F07B017C0012C734700302957F79147A0389828A83E0A3F5F0E0C5F044AA
:20953B0002C5F04400C5F089828A83F0A3C5F0F0C5F079207A03E4F5F089828A83F0A3C50C
:20955B00F0F0C5F0740075F00CC0E0C0F0741C75F003C0E0C0F0120A6E158115811581157D
:20957B00810295B379227A03E4F5F089828A83F0A3C5F0F0C5F079147A0389828A83E0A37A
:20959B00F5F0E0C5F054FDC5F054FFC5F089828A83F0A3C5F0F0C5F0227FFE7EFF1200DA1B
:2095BB0078FB12C602860108860289828A83E0A3F5F0E0C5F0F52485F0259010CFE05403BE
:2095DB0012C63412C6ED45F0601418860108860289828A83E0A3F5F0E0C5F012C6ED45F0B8
:2095FB00701C78FB12C602860108860289828A83E0A3F5F0E0C5F07B007C0012C6F145F056
:20961B00700302962D741B75F000F52485F02502966E78FB12C602860108860289828A83CE
:20963B00E0A3F5F0E0C5F07B1B7C0012C701700302966E9010CFE054037003029664E4F5BF
:20965B00F0F52485F02502966E740175F000F52485F02578FB12C6028601088602E52485C7
:20967B0025F089828A83F0A3C5F0F0C5F0E5248525F09097D902C63D9010CFE054017003F6
:20969B000296B2749775F0067F001200BEF0A3C5F0F0C5F00296E29010CFE054027003021F
:2096BB0096D1748775F0067F001200BEF0A3C5F0F0C5F00296E2749B75F0067F001200BE43
:2096DB00F0A3C5F0F0C5F00296F6748B75F0067F001200BEF0A3C5F0F0C5F0748F75F010D6
:2096FB00C0E0C0F07F001200BEE0A3F5F0E0C0F0C0E012C59B15811581158115810297E5D0
:20971B00E5248525F012C6DCF52485F02512C6D3748F75F010C0E0C0F074A075F006C0E092
:20973B00C0F0E5248525F02441C5F03400C0F0C0E0E5248525F07B247C0012C66679007A2E
:20975B000812C62489828A83E0A3F5F0E0C5F045F06007742A75F0008005742075F000C0F8
:20977B00E0C0F0740475F00012C4E27FF812C60E9010CFE0540470030297D6748F75F0104B
:20979B00C0E0C0F0E5248525F07B247C0012C666790C7A0812C624E98AF0C0E0C0F012C5D5
:2097BB008B1581158115811581740875F000798F7A1012C624E489828A83F00297E5E59657
:2097DB001B009396000000001B97748F75F0107F020200D8E53112C6347BFF12C62B12C72D
:2097FB00117003029849E475F0059010D4F0A3C5F0F0C5F09010D2F0A3C5F0F0C5F0901039
:20981B00D4E0A3F5F0E0C0F0C0E09010D2E0A3F5F0E0C0F0C0E01286E71581158115811561
:20983B00819010D4F0A3C5F0F0C5F002988FE53112C6347BFB12C62B12C7117003029877F9
:20985B00741075F0069010D4F0A3C5F0F0C5F09010D2F0A3C5F0F0C5F002988FE475F005C7
:20987B009010D4F0A3C5F0F0C5F09010D2F0A3C5F0F0C5F0E49010D8F09010D8E060030204
:20989B009AA59010D4E0A3F5F0E0C5F02402C5F03400C5F0F52485F025A924AA2589828A55
:2098BB0083E012C6347B6512C62B12C7117003029907748F75F010C0E0C0F0744675F00E47
:2098DB00C0E0C0F0748B75F006C0E0C0F0E5248525F02401C5F03400C0F0C0E0740475F085
:2098FB000012C4E27FF812C60E029924748F75F010C0E0C0F0E5248525F0C0E0C0F012C5E7
:20991B009B1581158115811581748F75F010C0E0C0F01287D615811581F531E53112C6348E
:20993B00909A8A02C63D9010D412C78589828A83E0A3F5F0E0C5F07BFF7CFF12C71170031A
:20995B00029964E4F5F002AA279010D412C78589828A83E0A3F5F0E0C5F07B007C0112C799
:20997B002470030299999010D412C78589828A83E0A3F5F0E0C5F09010D8F0029AA29010D4
:20999B00D412C78589828A83E0A3F5F0E0C5F09010D2F0A3C5F0F0C5F09010D4F0A3C5F04A
:2099BB00F0C5F00298949010D4E0A3F5F0E0C0F0C0E01286AE158115819010D4F0A3C5F07F
:2099DB00F0C5F09010D412C78589828A83E0A3F5F0E0C5F045F06003029A0A9010D2E0A3AD
:2099FB00F5F0E0C5F09010D4F0A3C5F0F0C5F0029AA29010D4E0A3F5F0E0C0F0C0E0901087
:209A1B00D2E0A3F5F0E0C0F0C0E01286E715811581158115819010D4F0A3C5F0F0C5F00287
:209A3B009AA29010D2E0A3F5F0E0C5F07B007C0512C7117003029A59E4F5F002AA27E4751D
:209A5B00F0059010D4F0A3C5F0F0C5F09010D2F0A3C5F0F0C5F0029AA21255E4744375F091
:209A7B0000C0E0C0F012446315811581029894749AFAFF3D9AFBFF0D9AFFFFC199FEFF4153
:209A9B0099FCFF0000779A0298949010D8E075F00090A9BC02C63D9010D8E075F0007B10D9
:209ABB007C0012C7116007740175F0008005740275F0009010D8F09010D8E075F000C0E0BF
:209ADB00C0F0127F171581158145F07003029B1174A575F006C0E0C0F01245C31581158177
:209AFB00E4C0E0C0E012446315811581781E438701D8FB029A5302AA2479087A0289828ABD
:209B1B0083E0A3F5F0E0C5F05401C5F05400C5F045F07003029B3F74E275F007F52885F0BF
:209B3B0029029B7479087A0289828A83E0A3F5F0E0C5F05402C5F05400C5F045F070030200
:209B5B009B6A74D575F007F52885F029029B7474B875F007F52885F029E5288529F0C0E0C6
:209B7B00C0F0E4C0E0C0E01288D41581158115811581F52485F025E5248525F0909D320279
:209B9B00C63D79087A0289828A83E0A3F5F0E0C5F05401C5F05400C5F045F07003029BBE7F
:209BBB00029C3379147A0389828A83E0A3F5F0E0C5F054FFC5F054F7C5F089828A83F0A3E7
:209BDB00C5F0F0C5F0740075F00CC0E0C0F0740875F003C0E0C0F0120A6E1581158115815B
:209BFB001581791A7A03E4F5F089828A83F0A3C5F0F0C5F0029D4279087A0289828A83E000
:209C1B00A3F5F0E0C5F05403C5F05400C5F045F07003029C3302987779147A0389828A834B
:209C3B00E0A3F5F0E0C5F054F7C5F054FFC5F089828A83F0A3C5F0F0C5F0740075F00CC05A
:209C5B00E0C0F0740C75F003C0E0C0F0120A6E158115811581158179187A03E4F5F089825D
:209C7B008A83F0A3C5F0F0C5F0029D4279147A0389828A83E0A3F5F0E0C5F054FFC5F05473
:209C9B00F7C5F089828A83F0A3C5F0F0C5F0740075F00CC0E0C0F0740875F003C0E0C0F08F
:209CBB00120A6E1581158115811581791A7A03E4F5F089828A83F0A3C5F0F0C5F079147AC2
:209CDB000389828A83E0A3F5F0E0C5F054F7C5F054FFC5F089828A83F0A3C5F0F0C5F074D0
:209CFB000075F00CC0E0C0F0740C75F003C0E0C0F0120A6E158115811581158179187A0360
:209D1B00E4F5F089828A83F0A3C5F0F0C5F0029D42029D42029877879C0200129C01009D16
:209D3B009B000000002F9D029A5379147A0389828A83E0A3F5F0E0C5F05401C5F05400C570
:209D5B00F045F07003029D6C74069010CFF0029D7274049010CFF0E4C0E0C0E074B475F0D3
:209D7B0095C0E0C0F01288D41581158115811581F52AE52A75F0007BFF7C0012C711700C2E
:209D9B00E52A75F0007B1B7C0012C71145F07003029DB102AA2479147A0389828A83E0A3CB
:209DBB00F5F0E0C5F05401C5F05400C5F045F07003029E05E52A75F0007B007C0012C71159
:209DDB007003029E0579147A0389828A83E0A3F5F0E0C5F054FEC5F054FFC5F089828A830A
:209DFB00F0A3C5F0F0C5F0029A53E52A152A79287A03E52A75F00089828A83F0A3C5F0F03C
:209E1B00C5F079147A0389828A83E0A3F5F0E0C5F04401C5F04400C5F089828A83F0A3C5F0
:209E3B00F0F0C5F0E52A75F0007B247C0012C66679007A0812C62489828A83E0A3F5F0E04E
:209E5B00C5F012C6ED45F06029E52A75F0007B247C0012C666791E7A0812C62489828A83B5
:209E7B00E0A3F5F0E0C5F05401C5F05400C5F012C6ED45F07003029F5CE52A9010D8F0E5F1
:209E9B002A75F000C0E0C0F0120C7315811581E52A75F0007B247C0012C66679047A08122D
:209EBB00C624C001C002E52A75F0007B247C0012C66679057A0812C624E489828A83F0D095
:209EDB0083D082F079147A0389828A83E0A3F5F0E0C5F05404C5F05400C5F045F0700302C3
:209EFB009F31E52A75F0007B247C0012C66679087A0812C624E98AF0C0E0C0F0742475F0FB
:209F1B0003C0E0C0F0740475F000C0E0C0F01254C87FFA12C60EE52A75F0007B247C001278
:209F3B00C66679067A0812C624C001C00279227A0389828A83E0A3F5F0E0C5F0D083D08288
:209F5B00F0029A5374059010CFF0E4C0E0C0E074B475F095C0E0C0F01288D41581158115EA
:209F7B00811581F52AE52A75F0007BFF7C0012C711700CE52A75F0007B1B7C0012C711450B
:209F9B00F07003029FA402AA249010D8E075F00090A09902C63DE52A600302A0067481751F
:209FBB00F006C0E0C0F01245C315811581E49010D8F09010D8E075F0007B1A7C0012C724E3
:209FDB00700302A003800C9010D8E0049010D8F01480DF9010D8E075F000C0E0C0F0120C60
:209FFB007315811581029FE202A019E52AC3940175F000C0E0C0F0120C731581158102A0EE
:20A01B00A9E52A600302A06F120E4BF52485F025748F75F010C0E0C0F074B875F006C0E0DC
:20A03B00C0F0E5248525F0C0E0C0F0744A75F06AC0E0C0F0740475F00012C4E27FF812C6A1
:20A05B000E748F75F010C0E0C0F01287D61581158102A083E52A152AE52A75F000C0E0C02D
:20A07B00F0122F8C1581158102A0A9E52A75F000C0E0C0F01231631581158102A0A986A08A
:20A09B000D001CA00C00B19F0B000000A9A0029A53122FC002AA2474049010CFF0E4C0E011
:20A0BB00C0E074B475F095C0E0C0F01288D41581158115811581F52AE52A75F0007BFF7C24
:20A0DB000012C711700CE52A75F0007B1B7C0012C71145F0700302A0F702AA24E52A152A30
:20A0FB00748F75F010C0E0C0F0E52A75F0007B247C0012C666790C7A0812C624E98AF0C08A
:20A11B00E0C0F012C59B1581158115811581748F75F010C0E0C0F0748F75F010C0E0C0F03A
:20A13B0012C5C915811581D004D0032BC5F03CC5F09010D6F0A3C5F0F0C5F0748F75F010E5
:20A15B002407C5F03400C5F09010D612C77E12C734700302A1989010D6E0A3F5F0E0C5F020
:20A17B0012C6D39010D6F0A3C5F0F0C5F012C6DCF9AAF0742089828A83F002A1569010D664
:20A19B0012C785E489828A83F0E52A9010D8F0748F75F010C0E0C0F0E4C0E0C0E0E4C0E073
:20A1BB00C0E0128F827FFA12C60EF531E53112C6347BFC12C62B12C711700302A20C9010F3
:20A1DB00D8E075F0007B247C0012C666790C7A0812C624E98AF0C0E0C0F0748F75F010C000
:20A1FB00E0C0F012C59B158115811581158102A21C744675F000C0E0C0F012446315811557
:20A21B008102987774FFF5F090108BF0A3C5F0F0C5F074FF75F07F90108DF0A3C5F0F0C5A0
:20A23B00F0E4C0E0C0E074C275F093C0E0C0F01288D41581158115811581F52AE52A75F018
:20A25B00007B557C0012C711700CE52A75F0007B637C0012C71145F0700302A27B029877A1
:20A27B00E52A240175F000C0E0C0F012950715811581029A5379147A0389828A83E0A3F577
:20A29B00F0E0C5F054FBC5F054FFC5F089828A83F0A3C5F0F0C5F002987779247A038982D7
:20A2BB008A83E0A3F5F0E0C5F07B007C0012C71A701679267A0389828A83E0A3F5F0E0C5C8
:20A2DB00F07B007C0012C71A45F0700302A30F79147A0389828A83E0A3F5F0E0C5F04404C6
:20A2FB00C5F04400C5F089828A83F0A3C5F0F0C5F0029A53744375F000C0E0C0F01244637C
:20A31B001581158102AA2479267A0389828A83E0A3F5F0E0C5F0F52885F029E5288529F08F
:20A33B0045F0600302A34F741475F01EF52885F02902A37B79247A03E5288529F089828A36
:20A35B008312C77E12C724700302A37B79247A0389828A83E0A3F5F0E0C5F0F52885F0298E
:20A37B0079247A0389828A83E0A3F5F0E0C5F0F52685F027E5268527F0AB28AC2912C73480
:20A39B00700302A3AAE5288529F0F52685F027E5268527F09010DDF0A3C5F0F0C5F0E4F594
:20A3BB00F09010DFF0A3C5F0F0C5F0E5288529F09010E1F0A3C5F0F0C5F079147A038982F8
:20A3DB008A83E0A3F5F0E0C5F09010E3F0A3C5F0F0C5F074019010E5F074E875F006901097
:20A3FB00E6F0A3C5F0F0C5F0125840F52485F025E5248525F07B007C8012C71A700302A4EC
:20A41B00BA79247A03E5248525F089828A83F0A3C5F0F0C5F079267A0389828A83E0A3F5F9
:20A43B00F0E0C5F045F0600302A46279267A03741475F01E89828A83F0A3C5F0F0C5F0E4CC
:20A45B009010D8F00299C179147A0389828A83E0A3F5F0E0C5F05404C5F05400C5F045F0B3
:20A47B00600302A488E49010D8F00299C179267A0389828A83E0A3F5F0E0C5F0AB24AC25B7
:20A49B0012C724700302A4B779267A03E5248525F089828A83F0A3C5F0F0C5F002A2B57443
:20A4BB004675F000C0E0C0F01244631581158102AA2479267A0389828A83E0A3F5F0E0C590
:20A4DB00F09010DDF0A3C5F0F0C5F079247A0389828A83E0A3F5F0E0C5F09010DFF0A3C501
:20A4FB00F0F0C5F0741475F01E9010E1F0A3C5F0F0C5F079147A0389828A83E0A3F5F0E0C9
:20A51B00C5F09010E3F0A3C5F0F0C5F074019010E5F074ED75F0069010E6F0A3C5F0F0C5C2
:20A53B00F0125840F52485F025E5248525F07B007C8012C71A700302A59B79267A03E524CC
:20A55B008525F089828A83F0A3C5F0F0C5F079247A0389828A83E0A3F5F0E0C5F0AB24AC97
:20A57B002512C734700302A59879247A03E5248525F089828A83F0A3C5F0F0C5F002A2B5C1
:20A59B00744675F000C0E0C0F01244631581158102AA2479147A0389828A83E0A3F5F0E012
:20A5BB00C5F0541FC5F054FFC5F089828A83F0A3C5F0F0C5F079147A0389828A83E0A3F5FC
:20A5DB00F0E0C5F04480C5F04400C5F089828A83F0A3C5F0F0C5F0029A5379147A03898260
:20A5FB008A83E0A3F5F0E0C5F0541FC5F054FFC5F089828A83F0A3C5F0F0C5F079147A03F7
:20A61B0089828A83E0A3F5F0E0C5F04440C5F04400C5F089828A83F0A3C5F0F0C5F0029A37
:20A63B00539010D8E075F0007B197C0012C7116007740175F0008003E4F5F0C0E0C0F074A4
:20A65B000275F000C0E0C0F01241D81581158115811581748F75F010C0E0C0F0E4C0E0C099
:20A67B00E0740175F000C0E0C0F0128F827FFA12C60E7BFC7CFF12C711700302A6CB9010D1
:20A69B00D8E075F0007B197C0012C7116007740175F0008003E4F5F0C0E0C0F0740175F0D1
:20A6BB0000C0E0C0F01241D8158115811581158102AA24748175F006C0E0C0F01245C315FD
:20A6DB00811581740075F003C0E0C0F0E4C0E0C0E0742C75F000C0E0C0F012C4F07FFA1252
:20A6FB00C60E79147A0389828A83E0A3F5F0E0C5F04480C5F04400C5F089828A83F0A3C56A
:20A71B00F0F0C5F0792A7A03741875F00089828A83F0A3C5F0F0C5F0E4C0E0C0E0120EC06F
:20A73B0015811581744075F000C0E0C0F01244631581158102987702AA24748F75F010C06B
:20A75B00E0C0F0744B75F00EC0E0C0F079067A0289828A83E0A3F5F0E0C0F0C0E074037535
:20A77B00F00012C4E27FFA12C60E748F75F010C0E0C0F01287D61581158102AA24748F750C
:20A79B00F010C0E0C0F0744E75F00EC0E0C0F0742475F000C0E0C0F0740312C4E27FFA12C2
:20A7BB00C60E748F75F010C0E0C0F01287D61581158102AA2479087A0289828A83E0A3F5EA
:20A7DB00F0E0C5F09010DDF0A3C5F0F0C5F0E4F5F09010DFF0A3C5F0F0C5F074FF75F00062
:20A7FB009010E1F0A3C5F0F0C5F074FFF5F09010E3F0A3C5F0F0C5F0E49010E5F074AF7517
:20A81B00F0079010E6F0A3C5F0F0C5F0125840F52485F025E5248525F07B007C8012C71A49
:20A83B00700302A85479087A02E5248525F089828A83F0A3C5F0F0C5F002AA2479067A021C
:20A85B0089828A83E0A3F5F0E0C5F09010DDF0A3C5F0F0C5F0E4F5F09010DFF0A3C5F0F0DE
:20A87B00C5F074FFF5F09010E1F0A3C5F0F0C5F074FFF5F09010E3F0A3C5F0F0C5F0E49006
:20A89B0010E5F074B375F0079010E6F0A3C5F0F0C5F0125840F52485F025E5248525F07B37
:20A8BB00007C8012C71A700302A8DA79067A02E5248525F089828A83F0A3C5F0F0C5F002F2
:20A8DB00AA24E4C0E0C0E0123EF315811581600302A947740175F000C0E0C0F0126EFF15E9
:20A8FB00811581748F75F010C0E0C0F0745375F00EC0E0C0F0740275F00079327A0012C6FC
:20A91B0024E70987F0C0E0C0F0740375F00012C4E27FFA12C60E748F75F010C0E0C0F01274
:20A93B0045C31581158143870102A8DD02AA24E4C0E0C0E0123EF315811581600302A9B64F
:20A95B00740275F000C0E0C0F07405C0E0C0F01264751581158115811581748F75F010C06D
:20A97B00E0C0F0745875F00EC0E0C0F0900E7AE0A3F5F0E0C0F0C0E0740375F00012C4E259
:20A99B007FFA12C60E748F75F010C0E0C0F01245C31581158143870102A94A02AA24029805
:20A9BB00774AA92200DDA8210057A82000D0A71F0098A71E0055A71D00CEA61C003CA61A93
:20A9DB00003CA61900F5A51800AEA51700CDA4160022A31500B5A2140090A213001FA21261
:20A9FB0000B2A00E00ACA01B005F9F0D005F9F0C005F9F0B00459D0A00149B1100B29A0F50
:20AA1B0000B29A10000000B9A902988F2278FB12C602860108860289828A83E075F00090C1
:20AA3B00B29302C63D79877A0F742475F00089828A83F0A3C5F0F0C5F079897A0FE52F8502
:20AA5B0030F089828A83F0A3C5F0F0C5F0798B7A0FE475F00289828A83F0A3C5F0F0C5F0D9
:20AA7B00798D7A0FC001C00279067A0289828A83E0A3F5F0E0C5F0D083D082F0A3C5F0F0BC
:20AA9B00C5F012C1AD798F7A0FC001C002748F75F010D083D082F0A3C5F0F0C5F07405755A
:20AABB00F00002B2D6740275F000C0E0C0F078F912C6028601088602740475F00012C6249B
:20AADB00E4F5F012C62489828A83E0A3F5F0E0C0F0C0E01264751581158115811581F52A84
:20AAFB0079877A0F900E7AE0A3F5F0E0C5F0C3952AC5F09400C5F089828A83F0A3C5F0F0CD
:20AB1B00C5F079897A0F900E7AE0A3F5F0E0C5F089828A83F0A3C5F0F0C5F0126677F524B8
:20AB3B0085F025E5248525F0C0E0C0F0E4C0E0C0E0E4C0E0C0E012626D7FFA12C60E74026F
:20AB5B0075F00002B2D678FB12C6028601088602740475F00012C624E98AF0F52885F02990
:20AB7B00E5288529F02402C5F03400C5F0F9AAF089828A83E0A3F5F0E0C5F0F52485F025F0
:20AB9B00748775F00FC0E0C0F0A928AA2989828A83E0A3F5F0E0C0F0C0E0E5248525F0C321
:20ABBB0033C5F033C0F0C0E01254C87FFA12C60EE5248525F002B2D678FB12C60286010879
:20ABDB008602740475F00012C624740275F00012C62489828A83E0A3F5F0E0C5F07B017C15
:20ABFB000012C6B4F52685F02778FB12C6028601088602740475F00012C624740275F000DF
:20AC1B0012C62489828A83E0A3F5F0E0C5F05400C5F05480C5F045F0700302AC48E5268548
:20AC3B0027F012C6DCF52685F02712C6D378FB12C6028601088602740475F00012C624E4AB
:20AC5B00F5F012C62489828A83E0A3F5F0E0C0F0C0E078F912C6028601088602740475F009
:20AC7B000012C624740475F00012C624E98AF0C0E0C0F0E5268527F0C0E0C0F01254C87F8D
:20AC9B00FA12C60EE4F5F002B2D6E4F5F0900E80F0A3C5F0F0C5F079977A0FC001C0027402
:20ACBB000175F000C0E0C0F0126EFF15811581D083D082F0A3C5F0F0C5F0E4F52AE52A75FF
:20ACDB00F0007B057C0012C724700302AD2D8006E52A052A80E779877A0FE52A75F000C336
:20ACFB0033C5F033C5F012C624C001C002E52A75F000C333C5F033C5F079327A0012C624C2
:20AD1B00E70987F0D083D082F0A3C5F0F0C5F002ACEBE52A240175F00002B2D678FB12C618
:20AD3B00028601088602740475F00012C624E4F5F012C62489828A83E0A3F5F0E0C0F0C071
:20AD5B00E0120C7315811581E4F5F002B2D678FB12C6028601088602740475F00012C624AB
:20AD7B00E4F5F012C62489828A83E0A3F5F0E0C0F0C0E0120D1515811581E4F5F002B2D690
:20AD9B0079877A0FC001C002120F62D083D082F0A3C5F0F0C5F0F52485F025E5248525F021
:20ADBB002402C5F03400C0F0C0E0E4C0E0C0E0741E75F000C0E0C0F012C4F07FFA12C60E89
:20ADDB0002B28B79877A0FE4F5F089828A83F0A3C5F0F0C5F0740175F00002B2D679877AE4
:20ADFB000FC001C002120E4BD083D082F0A3C5F0F0C5F079897A0F744A75F06A89828A8379
:20AE1B00F0A3C5F0F0C5F0740275F00002B2D679877A0F89828A83E0A3F5F0E0C5F0901087
:20AE3B008AF0740175F00002B2D679877A0FE4F5F089828A83F0A3C5F0F0C5F0740175F0E8
:20AE5B0000C0E0C0F0126EFF1581158145F0600302AE9079877A0F89828A83E0A3F5F0E01B
:20AE7B00C5F04401C5F04400C5F089828A83F0A3C5F0F0C5F0740175F000C0E0C0F0126767
:20AE9B00E81581158145F0600302AEC979877A0F89828A83E0A3F5F0E0C5F04402C5F04495
:20AEBB0000C5F089828A83F0A3C5F0F0C5F0740175F00002B2D678FB12C6028601088602F5
:20AEDB00740475F00012C624E4F5F012C62489828A83E0A3F5F0E0C0F0C0E078F912C602BE
:20AEFB008601088602740475F00012C624740275F00012C62489828A83E0A3F5F0E0C0F060
:20AF1B00C0E0E4C0E0C0E0127D5D7FFA12C60E7B007C8012C711700302AF5079877A0FE4C5
:20AF3B00F5F089828A83F0A3C5F0F0C5F0740175F00002B2D679897A0F9010EAE0A3F5F02B
:20AF5B00E0C5F089828A83F0A3C5F0F0C5F079207A00E75401700302AFF07401F52A798B41
:20AF7B007A0FE52F8530F0900E8012C77EC39BC5F09CC5F089828A83F0A3C5F0F0C5F0791D
:20AF9B00147A0389828A83E0A3F5F0E0C5F05400C5F05408C5F045F0700302AFBEE52A446C
:20AFBB0004F52A740875F003C0E0C0F0740075F00CC0E0C0F012025A158115811581158124
:20AFDB007B017C0012C71A700302AFEDE52A4408F52A02B0687402F52A798B7A0FE52F850B
:20AFFB0030F0900E8212C77EC39BC5F09CC5F089828A83F0A3C5F0F0C5F079147A03898221
:20B01B008A83E0A3F5F0E0C5F05408C5F05400C5F045F0700302B039E52A4404F52A740C68
:20B03B0075F003C0E0C0F0740075F00CC0E0C0F012025A15811581158115817B017C001238
:20B05B00C71A700302B068E52A4408F52A79877A0FE52A75F00089828A83F0A3C5F0F0C5DB
:20B07B00F0740375F00002B2D679877A0F741575F00089828A83F0A3C5F0F0C5F079897A67
:20B09B000F746875F00089828A83F0A3C5F0F0C5F0748D75F00FC0E0C0F0740075F002C0E0
:20B0BB00E0C0F0746875F000C0E0C0F01254C87FFA12C60E798B7A0FC001C002740075F0DE
:20B0DB0002C0E0C0F0743475F000C0E0C0F0120B931581158115811581D083D082F0A3C5A1
:20B0FB00F0F0C5F0743775F00002B2D678FB12C6028601088602740475F00012C624E4F5F0
:20B11B00F012C62489828A83E0A3F5F0E0C5F07B157C0012C71A700302B14D79877A0F74A4
:20B13B000175F00089828A83F0A3C5F0F0C5F002B27B78FB12C6028601088602740475F019
:20B15B000012C624740275F00012C62489828A83E0A3F5F0E0C5F07B687C0012C71A700327
:20B17B0002B19579877A0F740275F00089828A83F0A3C5F0F0C5F002B27B78FB12C6028601
:20B19B0001088602740475F00012C624740675F00012C624E98AF0C0E0C0F0743475F0008F
:20B1BB00C0E0C0F0120B93158115811581158178FB12C6028601088602C0E0C0F07404757B
:20B1DB00F00012C624740475F00012C624D0F0D0E089828A8312C77E12C71A700302B21284
:20B1FB0079877A0F740375F00089828A83F0A3C5F0F0C5F002B27B740075F002C0E0C0F070
:20B21B0078F912C6028601088602740475F00012C624740675F00012C624E98AF0C0E0C03A
:20B23B00F0746875F000C0E0C0F01254C87FFA12C60E79877A0FE4F5F089828A83F0A3C523
:20B25B00F0F0C5F0740175F00002B2D679877A0F740175F00089828A83F0A3C5F0F0C5F072
:20B27B0079847A0F89828A83E0440489828A83F0740175F00002B2D607B1890084B0880084
:20B29B00D1AE820045AE81002AAE8A00F8AD0A00DEAD09009BAD080069AD070037AD060022
:20B2BB00A5AC0400D3AB030061AB0200C0AA010040AA0000000067B2E4F5F022C29C124E78
:20B2DB002745F0700A90108AE012C63412C6ED45F0700302B2F6D29C02B4AB79897A0F9066
:20B2FB0010EAE0A3F5F0E0C5F089828A83F0A3C5F0F0C5F079207A00E75401700302B3962A
:20B31B007401F52A798B7A0FE52F8530F0900E8012C77EC39BC5F09CC5F089828A83F0A3B4
:20B33B00C5F0F0C5F079147A0389828A83E0A3F5F0E0C5F05400C5F05408C5F045F07003B7
:20B35B0002B364E52A4404F52A740875F003C0E0C0F0740075F00CC0E0C0F012025A1581D6
:20B37B001581158115817B017C0012C71A700302B393E52A4408F52A02B40E7402F52A79FE
:20B39B008B7A0FE52F8530F0900E8212C77EC39BC5F09CC5F089828A83F0A3C5F0F0C5F0E5
:20B3BB0079147A0389828A83E0A3F5F0E0C5F05408C5F05400C5F045F0700302B3DFE52AEE
:20B3DB004404F52A740C75F003C0E0C0F0740075F00CC0E0C0F012025A1581158115811539
:20B3FB00817B017C0012C71A700302B40EE52A4408F52A90108AE01490108AF00479837A63
:20B41B000F748A89828A83F079847A0F748A89828A83F079857A0F90108AE089828A83F0D7
:20B43B0079877A0FE52A75F00089828A83F0A3C5F0F0C5F0748375F00FC0E0C0F074037548
:20B45B00F000C0E0C0F012BDCD1581158115811581124E3145F0600302B47C43870102B4C1
:20B47B006C748375F00FC0E0C0F0740375F000C0E0C0F012BDCD1581158115811581124E0A
:20B49B003145F0600302B4A943870102B499D29C22E49010F5F012546E12C1AD748F75F09A
:20B4BB0010C0E0C0F01245C315811581E4C0E0C0E01244631581158112724F12546EE4F542
:20B4DB00F09010F1F0A3C5F0F0C5F0E4F5F09010F3F0A3C5F0F0C5F0E475F0809010EAF057
:20B4FB00A3C5F0F0C5F074F0F52D02BC1712BF4A45F0700302B59190108AE075F0007B00E4
:20B51B007C0012C734700302B53FE52F8530F0241EC5F03400C5F09010F1F0A3C5F0F0C5F7
:20B53B00F002B556E52F8530F0242CC5F03401C5F09010F1F0A3C5F0F0C5F09010D9E0A3D1
:20B55B00F5F0E0C5F04401C5F04400C5F09010D9F0A3C5F0F0C5F09010D9E0A3F5F0E0C07C
:20B57B00F0C0E0E4C0E0C0E01260F5158115811581158112545612547E740175F000C0E023
:20B59B00C0F0123EF315811581F531600302B919E52F8530F09010F112C77E12C7347003F3
:20B5BB0002B6F19010D9E0A3F5F0E0C5F054FEC5F054FFC5F09010D9F0A3C5F0F0C5F0E4F8
:20B5DB00C0E0C0E01273281581158145F0700302B6DAE4C0E0C0E01275A5158115819010E1
:20B5FB00EAF0A3C5F0F0C5F079147A0389828A83E0A3F5F0E0C5F05401C5F05400C5F045E2
:20B61B00F0700302B63D1254AE7B0A7C0012C6812402C5F03400C5F09010F3F0A3C5F0F0BA
:20B63B00C5F090108AE075F0007B007C0012C73460119010EAE0A3F5F0E0C5F07B007C8058
:20B65B0012C71A45F0700302B66812B2D712546E79147A0389828A83E0A3F5F0E0C5F05432
:20B67B0003C5F05400C5F07B027C0012C711604579167A0389828A83E0A3F5F0E0C5F054F1
:20B69B0001C5F05400C5F012C6ED45F0602779207A0389828A83E0A3F5F0E0C5F012C6ED5F
:20B6BB0045F0601190108DE0A3F5F0E0C5F07BFF7C7F12C71A45F0700302B6DA02BA53E509
:20B6DB002F8530F02403C5F03400C5F09010F1F0A3C5F0F0C5F04387011254AE7B0A7C0058
:20B6FB0012C681F52E9010F3E0A3F5F0E0C5F045F0600EE52E75F0009010F312C77E12C745
:20B71B003D45F0700302B76579287A0389828A83E0A3F5F0E0C5F0F52AE52A75F0007B24A6
:20B73B007C0012C66679187A0812C624E98AF0C0E0C0F012434915811581E4F5F09010F34C
:20B75B00F0A3C5F0F0C5F002B508E52E75F000AB3E7C0012C71A700302B916E52E75F00096
:20B77B00C3C5F013C5F0137B037C0012C67A90B90202C63D1212A7F52485F02545F0700399
:20B79B0002B7F6D20AD207E5248525F0C0E0C0F01245C3158115819010D9E0A3F5F0E0C070
:20B7BB00F0C0E0E4C0E0C0E01260F5158115811581158179147A0389828A83E0A3F5F0E091
:20B7DB00C0F0C0E0740175F000C0E0C0F01260F5158115811581158102B91279147A0389B5
:20B7FB00828A83E0A3F5F0E0C5F05403C5F05400C5F07B027C0012C711604579167A038970
:20B81B00828A83E0A3F5F0E0C5F05401C5F05400C5F012C6ED45F0602779207A0389828A42
:20B83B0083E0A3F5F0E0C5F012C6ED45F0601190108DE0A3F5F0E0C5F07BFF7C7F12C71A70
:20B85B0045F0700302B86502BA53D2079010EAE0A3F5F0E0C0F0C0E079147A0389828A83DA
:20B87B00E0A3F5F0E0C5F04400C5F04480C0F0C0E0121A3C15811581C0E0C0F09010DBE064
:20B89B00A3F5F0E0C0F0C0E012626D7FFA12C60E02B912E52E540275F000C0E0C0F0E4C006
:20B8BB00E0C0E01241D81581158115811581D207748F75F010C0E0C0F01245C31581158183
:20B8DB009010D9E0A3F5F0E0C5F054F3C5F054F3C0F0C0E0E4C0E0C0E01260F5158115818D
:20B8FB001581158102B912AEB80200F6B701008FB700000000F6B7E52EF53E02BC60E531B1
:20B91B0012C6347BFC12C62B12C711700302B93CE4C0E0C0E0123EF315811581F53102B9BE
:20B93B005E79217A00E754016007740275F0008005740575F000C0E0C0F0123EF31581155B
:20B95B0081F53112546E79147A0389828A83E0A3F5F0E0C5F05403C5F05400C5F07B027C24
:20B97B000012C711603A79167A0389828A83E0A3F5F0E0C5F05401C5F05400C5F012C6ED2F
:20B99B0045F0601CE53112C6347BFF12C62B12C711700DE53112C6347BFE12C62B12C7114D
:20B9BB0045F0700302BB1879207A0389828A83E0A3F5F0E0C5F045F0701190108DE0A3F569
:20B9DB00F0E0C5F07BFF7C7F12C71145F0700302BA00740375F000C0E0C0F0124463158189
:20B9FB00158102B508E53112C63490BB0C02C63D9010F5E075F0007B007C0012C71170032B
:20BA1B0002BA2774029010F5F002BA3C9010F5E0C3940175F0007B037C0012C67A9010F522
:20BA3B00F002BA539010F5E0240175F0007B037C0012C67A9010F5F09010F5E075F0007BC7
:20BA5B00017C0012C711700302BA9790108DE0A3F5F0E0C0F0C0E0748975F007C0E0C0F020
:20BA7B0079147A0389828A83E0A3F5F0E0C0F0C0E012626D7FFA12C60E02BB099010F5E076
:20BA9B0075F0007B027C0012C711700302BADB90108BE0A3F5F0E0C0F0C0E0748E75F00708
:20BABB00C0E0C0F079147A0389828A83E0A3F5F0E0C0F0C0E012626D7FFA12C60E02BB095B
:20BADB009010EAE0A3F5F0E0C0F0C0E074F275F007C0E0C0F079147A0389828A83E0A3F56D
:20BAFB00F0E0C0F0C0E012626D7FFA12C60E02B5083FBAFEFF0BBAFFFF000018BBE5311258
:20BB1B00C63490BBFF02C63D74FCF5319010F3E0A3F5F0E0C5F045F0700302BB7779287AA4
:20BB3B000389828A83E0A3F5F0E0C5F0F52AE52A75F0007B247C0012C66679187A0812C6FB
:20BB5B0024E98AF0C0E0C0F012434915811581E4F5F09010F3F0A3C5F0F0C5F0E53112C6F2
:20BB7B0034C0E0C0F01297EF158115817404F52A02BBA6E4F52A02BBA67401F52A02BBA60B
:20BB9B007402F52A02BBA67403F52AE52A75F000C0E0C0F0123A63158115819010EAF0A340
:20BBBB00C5F0F0C5F074FFF53E9010D9E0A3F5F0E0C5F054F3C5F054F3C5F09010D9F0A3F0
:20BBDB00C5F0F0C5F079147A0389828A83E0A3F5F0E0C5F09010DBF0A3C5F0F0C5F002B7B0
:20BBFB008F02BC17A2BBFBFF9BBBFAFF94BBFEFF8EBBFFFF23BBFCFF000017BC9010EAE077
:20BC1B00A3F5F0E0C0F0C0E079147A0389828A83E0A3F5F0E0C5F04400C5F04480C0F0C005
:20BC3B00E0121A3C15811581C0E0C0F079147A0389828A83E0A3F5F0E0C0F0C0E012626D8A
:20BC5B007FFA12C60E02B508227FFE7EFF1200DA124E027F001200BEF0A3C5F0F0C5F07B8A
:20BC7B00FF7CFF12C71A700302BDC57F001200BEE0A3F5F0E0C5F0F52A79207A00E7540488
:20BC9B00600302BD4FE52A75F00090BD4302C63D79207A00E7540812C63445F0700E90105A
:20BCBB0087E075F0007B037C0012C72445F0700302BCDFC203E4901087F0E4901088F0C2E3
:20BCDB000202BC6B901088E075F0007B007C0012C71A7031901087E0C3940575F000C3C5D6
:20BCFB00F013C5F013C0E0C0F0740375F00079847A0E12C624D0F0D0E089828A8312C77AD6
:20BD1B007C0012C71A45F0700302BD2A02BCCEE4901088F0901087F0748475F00E02BDC877
:20BD3B00D20202BC6B02BD4F3BBDDB00ABBCC000000040BD79207A00E75404700302BD85DD
:20BD5B00C202E52A75F00090BD7902C63D74C0F52A02BD8574DBF52A02BD8502BC6B6FBD27
:20BD7B00DD0068BDDC00000076BD901088E0252A901088F0901087E075F0007BFF7C0012B4
:20BD9B00C724700302BDC0901087E004901087F01479847A0E75F00012C624E52A89828AEB
:20BDBB0083F002BDC2D20302BC6BE4F5F07F020200D87FFE7EFF1200DA78F912C60286019A
:20BDDB00088602740375F00012C62478FB12C602E6F52C89828A83F0E52C75F0007B017C16
:20BDFB000012C6B4F52CE52C2404F52C1818E60886F07F001200BEF0A3C5F0F0C5F0E4F578
:20BE1B002A74C075F000C0E0C0F0124DBA15811581E52C152C700302BEC37F001200BEE038
:20BE3B00A3F5F0E0C5F012C6D37F001200BEF0A3C5F0F0C5F012C6DCF9AAF089828A83E0A4
:20BE5B00F52BE52A252BF52AE52B75F0007BC07C0012C711700302BE8B74DB75F000C0E001
:20BE7B00C0F0124DBA1581158174DCF52B02BEB0E52B75F0007BDB7C0012C711700302BE6E
:20BE9B00B074DB75F000C0E0C0F0124DBA1581158174DDF52BE52B75F000C0E0C0F0124DF9
:20BEBB00BA1581158102BE2CE52A12C634FBACF0E475F001C39BC5F09CC5F0F52BE52B7590
:20BEDB00F0007BC07C0012C711700302BF0074DB75F000C0E0C0F0124DBA1581158174DCE9
:20BEFB00F52B02BF25E52B75F0007BDB7C0012C711700302BF2574DB75F000C0E0C0F01281
:20BF1B004DBA1581158174DDF52BE52B75F000C0E0C0F0124DBA1581158174C075F000C0FF
:20BF3B00E0C0F0124DBA158115817F020200D87FFD7EFF1200DAE47F021200BEF012BC647A
:20BF5B007F001200BEF0A3C5F0F0C5F045F0700302C0C37F021200BEE0047F021200BEF0E7
:20BF7B00147F001200BE12C785740275F00012C62489828A83E075F00090108912C77A7CB9
:20BF9B000012C711601779857A0F89828A83E075F00090108912C77A7C0012C71145F070BA
:20BFBB000302BFE6748375F00FC0E0C0F079867A0F89828A83E075F000C0E0C0F012BDCD30
:20BFDB00158115811581158102BF5879847A0FC001C0027F001200BE12C785740175F00045
:20BFFB0012C62489828A83E0D083D082F07F001200BE12C785740275F00012C62489828A84
:20C01B0083E0901089F079837A0FC001C0027F001200BE12C78589828A83E0D083D082F047
:20C03B007F001200BEE0A3F5F0E0C0F0C0E012AA2815811581F52A7F001200BE12C78574AE
:20C05B000175F00012C62489828A83E05402700302C07102BF5879857A0FC001C0027F00CD
:20C07B001200BE12C785740275F00012C62489828A83E0D083D082F079847A0F89828A8375
:20C09B00E0440189828A83F0748375F00FC0E0C0F0E52A75F000C0E0C0F012BDCD15811592
:20C0BB00811581158102BF587F021200BEE075F0007F030200D87FFE7EFF1200DA7480F5DE
:20C0DB00A8740875F0007F001200BEF0A3C5F0F0C5F07F001200BEE0A3F5F0E0C5F07B2099
:20C0FB007C0012C724700302C13480207F001200BEE0A3F5F0E0C5F012C6D37F001200BE5C
:20C11B00F0A3C5F0F0C5F012C6DC80C67F001200BE12C785E4F702C107E59044404480F519
:20C13B0090E4F5F09010D9F0A3C5F0F0C5F0C205124D0112413474B4F51E74FFF5A0E5B09F
:20C15B004444F5B0740175F000C0E0C0F0E4C0E0C0F0E4C0E0C0E0124B6D7FFA12C60EE408
:20C17B00901087F0740175F000900E80F0A3C5F0F0C5F0900E82F0A3C5F0F0C5F0740275B0
:20C19B00F000C0E0C0F0126EFF158115817F020200D8900032798F7A107B107C00EB4C604C
:20C1BB001CE493A3CAC583CAC9C582C9F0A3CAC583CAC9C582C91BBBFFE31C80E0222212A7
:20C1DB00C0D112C1AD748F75F010C0E0C0F01245C31581158174FFF5F0C0E0C0F074017593
:20C1FB00F000C0E0C0F01260F5158115811581158112546EE4C0E0C0E01244631581158148
:20C21B0079087A0289828A83E0A3F5F0E0C5F05401C5F05400C5F045F0600302C26BE4F53E
:20C23B002CE52C75F0007B0C7C0012C724700302C2688006E52C052C80E7740275F000C0D8
:20C25B00E0C0F0126EFF1581158102C24F02C26E438701740175F000C0E0C0F0123EF315F6
:20C27B0081158112C6347B0012C62B12C71A700302C370740175F000C0E0C0F0123EF315E5
:20C29B0081158112C6347B0012C62B12C71A700302C3704387011254AE7B327C0012C73432
:20C2BB00700302C36DE4C0E0C0E0123EF315811581438701E4C0E0C0E01244631581158157
:20C2DB00740175F000C0E0C0F0123EF31581158112C6347B0012C62B12C71A700302C301F4
:20C2FB0043870102C2DB740175F000C0E0C0F0123EF315811581600302C32C12BF4A45F07C
:20C31B00700302C32312546E12547E43870102C301E4C0E0C0E0123EF315811581F531E5C0
:20C33B003112C6347BFF12C62B12C711700DE53112C6347BFB12C62B12C71145F070030292
:20C35B00C36DE53112C634C0E0C0F01297EF1581158102C28E12B4AC2212C4BB868208864F
:20C37B008308E4FEFFE0700612C4BBE4F022B42551A3E0B42D05430780A3E0B43003430748
:20C39B004024D0B40A00500BCE75F00AA42EFEA3E080EEE0B46413E60886F030F70843074F
:20C3BB002012C6E3A6F018F68003B4750543070A8021B478054307108019B46F1043070894
:20C3DB00801112C4BBF0A312C4BBA38095B462624307027A00C004C005C006C007AB0753EB
:20C3FB00031F7C00E60886F012C681A6F018F6EDD007D006D005D0042430B43A0040022438
:20C41B0007C0E00AE645F070CC12C4BBA902EF30E505742DF0A30A12C4C4D0E0F0A3D9FAC6
:20C43B000808EF30E7A1EAC39E509C7420F0A30A80F4B4630DAA0112C4BB12C4C4E6F0A3DB
:20C45B0080DEB47331C082C08386820886837A00E06004A30A80F9868318868212C4BB12BD
:20C47B00C4C412C4BBE0A312C4BB6004F0A380F2D005D00480AAB4691B86017A00E76004B4
:20C49B00090A80F912C4BB12C4C48601E76091F009A380F8F97A0112C4BB12C4C4E9809EB1
:20C4BB00CDC583CDCCC582CC22EE601A8FF020F715C002EAC39E500C742030F6027430F0B2
:20C4DB00A30A80EFD0022223F42581F886820886830802C37478F712C602868208868308B8
:20C4FB00860708088603088604EB4C600AEFF0A31BBBFFF51C80F222D2AF22C2AF2278FB23
:20C51B0012C602E60886F030F73A02C6E378F912C6028603088604088605088606ED8EF0BE
:20C53B0012C744401CED8EF02278F912C6028603088604088605088606ED8EF012C7444085
:20C55B00E4EB8CF02278FB12C602860308860475F0FE74017F0012C724600575F001E422C6
:20C57B00EF0FF5F0A412C72470F6EF1475F0002278F912C6028682088683E0600DA380FA5E
:20C59B0078F912C6028682088683088601088602C9C582C9CAC583CAE0A3C9C582C9CAC55D
:20C5BB0083CAF06003A380E8E5828583F02278FB12C6028682088683E4F5F0FAE06009A31F
:20C5DB000ABA00F805F080F4EA2278F912C60286820886830886F0E0B5F0068583F0E58243
:20C5FB0022A370F3F5F022C82581C822C92581C97A0022D083D082CF2581F581CFC082C064
:20C61B008322CF2581F581CF2229F9E5F03AFA227C00CB30E7011CCB2275F00030E7021536
:20C63B00F022FDE493A3FEE493A3FF4E7009E493FE740193FF800BE493A3B5050BE493B5C6
:20C65B00F0068F838E82E473A380D8FEEBA4FD8EF0ECA4FCEB8EF0A4C5F02C2DC5F02212BD
:06C67B00C6818EF0ED22E5
:20C68100C002C001AAF0F97E007D007F11C3E933F9EA33FADF08F5F0E9D001D00222ED336F
:20C6A100FDEE33FEC3ED9BF5F0EE9C40E0ADF0FED380DBBB000122C333C5F033C5F0DBF777
:20C6C10022BB000122C3C5F013C5F013DBF72212C6D304700205F02212C6DC14B4FF021548
:20C6E100F02212C6DCF4C5F0F4C5F02245F0802312C7444029801E12C74440227017801E5F
:20C7010012C74440107017800C12C7445010800512C7586009E4F5F02212C75860F7E4F5B0
:20C72100F0042212C75840F680EB12C75840EF70E480EB12C75840DD70E480D912C7585075
:20C74100DD80D2C39BC5F09C20E70720D207C345F02220D2F9D322C5F0C39C7003E5F09B02
:20C76100229010F6E0A360F8E0FFA3E0A3CF2582F582EF3583F58380EBFBE0CB22FCE0FB0A
:20C78100A3E0CC22FAE0F9A3E0CA220000000048C34F813827C5A03ECCCCCE4220000080C0
:20C7A10025690C6D0C710C750C256300257320203A2025730A000A56616C75657C20202028
:20C7C1002020257320202025730A2D2D2D2D2D7C000A001B310025732563002A0A002573DF
:20C7E10025631B4B85002020202020000A001B3103000A004D696E004D617800417667005A
:20C8010044657600434E542025640025732025730050525420535441542C4E4F20535441F7
:20C8210054005052542044454E532C4E4F2044454E5300544558542C47524150484943538E
:20C8410000534D4F4F54482C434F55525345004E4F524D414C2C5749444500505254204488
:20C861004154412C4E4F204441544100015072696E74696E67005345545550000A20436F25
:20C881006174696E6720546869636B6E65737320446174610A000A0A4D6F64656C3A202590
:20C8A10073004354495F4D004E00460054000A0053657220233A2025750A0044617465207D
:20C8C1003A2025730A0054696D65203A2025730A42617463683A2025630A49442020203ABB
:20C8E1002025730A0044657363203A20000A55736572203A20000A0A000A537461746973C3
:20C90100746963730A000A23202020203A2025640A556E6974733A2025730A004D69637225
:20C921006F6E73004D696C73000A25732044656E7369747920506C6F740A00436F7572739A
:20C941006500536D6F6F7468000A000A446174610A000A0A002563253264205225642000ED
:20C961002563253364200025730A000A44617465203A2025730A0054696D65203A2025736B
:20C981000A203C3C3C3C20202020454E44203E3E3E3E3E3E0A000A0A002575002D2D2D0052
:20C9A10025642E0030256400256400256400257325642E0020000025640025640020202013
:20C9C10020002573257300F100080000000025640025732573002575003220257800462065
:09C9E1002575004E462025750065
:00000001FF
