:020000000144B9
:20003200542E452E4B2E4E2E4F432E4F2E4D2E000000E58775C7AA75C7555387FBF5F0E58A
:20005200C6540144E875C7AA75C75543C602F5C675C7AA75C75553C6FD78227400F608B8B9
:200072003FFBE5F054105320EF422075813E7522F075237F906C6679007A7C7B647C00EB4E
:200092004C601CE493A3CAC583CAC9C582C9F0A3CAC583CAC9C582C91BBBFFE31C80E090AB
:2000B2007EF5E4F012674375C7AA75C75543C602E504F0A3E505F075C7AA75C75553C6FDC6
:2000D2002212001B80FB7E00CF2522F582EE3523F583EF227E00CF2522F9EE3523FAEF228C
:2000F2007E00C5222FC522C5233EC5232278F9126ADCE60886F0C0E0C0F0740975F000C024
:20011200E0C0F0120B64158115811581158178FB126ADCE60886F0C0E0C0F0740E75F000FE
:20013200C0E0C0F0120B641581158115811581E50D126B0EAB12126B05126BF470030201E1
:2001520059E4F5F002015C12015D22E509B50E15E50AB50F10E50BB5100BE50CB51106C3B1
:20017200E4F5F00422E4F5F02278F9126ADCE60886F0C0E0C0F0740975F000C0E0C0F012D2
:200192000B64158115811581158178FB126ADCE60886F0C0E0C0F0740E75F000C0E0C0F0D0
:2001B200120B641581158115811581E50D60030201D5E5126007740175F00080031201E871
:2001D2000201E7E51260081201E8126BC78003E4F5F00201E72212015D400570037401226E
:2001F200E42278FB126ADCE60886F0C0E0C0F0740975F000C0E0C0F0120B64158115811574
:20021200811581C374879509F8400EE50D700A08E50A03D8FD75F0002275F0012278FB1244
:200232006ADCE60886F0C0E0C0F0740975F000C0E0C0F0120B641581158115811581C37470
:200252008F9509F840D30500E50B850AF0C3C5F013C5F013D8F7C0E0E50D6006E5F044802D
:20027200F5F0D0E02275F00122740075F07CC0E0C0F078F9126ADCE60886F0C0E0C0F012F9
:200292000B6415811581158115812278FB126ADCE60886F07B2E7C00126BEB70030202BB75
:2002B200E5084408F50802031BE5084401F508E508540470030202DAE50854086003020261
:2002D200D7050EE50E02031B78FB126ADCE60886F0C0E0C0F01204EC1581158145F07003BA
:2002F20002030EE50854087003020307E5084404F50802030B050EE50E02031BE508540860
:20031200700302031B150EE50E227FFC7EFF1200F4E4F517F508740E75F000C0E0C0F012CC
:20033200027B15811581E4F5F07F001200D8F0A3C5F0F0C5F07F001200D8E0A3F5F0E0C56D
:20035200F07B057C00126BCB700302044580207F001200D8E0A3F5F0E0C5F0126BAD7F00EA
:200372001200D8F0A3C5F0F0C5F0126BB680C67F001200D8E0A3F5F0E0C5F0C333C5F033D7
:20039200C5F079147A7C126AFE78FB126ADCE60886F089828A83126C58126B5B7F02120011
:2003B200D8F0A3C5F0F0C5F07F021200D8E0A3F5F0E0C5F045F0700C7F001200D8E0A3F56C
:2003D200F0E0C5F045F070030203FA7F021200D8E0A3F5F0E0C5F02430C5F03400C0F0C0CA
:2003F200E012029D158115817F001200D8E0A3F5F0E0C5F0C333C5F033C5F079147A7C12A0
:200412006AFE7F021200D8E0A3F5F0E0C5F089828A83126C58126B40FBACF078FB126ADCED
:20043200E60886F0C39BC5F09CC5F018F608A6F00203611205297F040200F2740E75F00032
:20045200C0E0C0F012027B1581158178FB126ADC86060886077810E5075480700FE506C31E
:2004720033F506E50733F507D8EF800DE507F50FE506F510E82480F50E22E50FF50AE51054
:20049200F50BE511F50CC3E51133F511E51033F510E50F33F50FE433F5F0E51133F511E5F9
:2004B2001033F510E50F33F50FE5F033F5F0E511250CF511E510350BF510E50F350AF50F2C
:2004D200E435F0F5F0E51133F511E51033F510E50F33F50FE5F033F5F02278FB126ADC8635
:2004F20001120AA712048C701AE994302511F511E43510F510E4350FF50F4007120AF5E47B
:20051200F5F022E50AF50FE50BF510E50CF511120AF5E4F5F00422120AA7120B577409121D
:2005320005BD702FE509FA7498F5091205D4EA602230E710740C75F07C120A74EAF42401E4
:20055200FA02055E741075F07C120A741206601AEA70F9120B51120AF5E4E4F508740E7515
:20057200F000C0E0C0F0741375F000C0E0C0F0120B64158115811581158122E50D60077425
:200592000175F0008003E4F5F02278FB126ADCE60886F0C0E0C0F0740975F000C0E0C0F0C4
:2005B200120B641581158115811581F875F000E6700E08E6700A08E6700608E6700204223D
:2005D200E42274091205BD701EE50A20E719C31509E5096014E50C33F50CE50B33F50BE5A5
:2005F2000A33F50A30E7E8C322D32278F9126ADCE60886F0C0E0C0F0740975F000C0E0C015
:20061200F0120B64158115811581158178FB126ADCE60886F0C0E0C0F0740E75F000C0E0F9
:20063200C0F0120B641581158115811581120660740975F000C0E0C0F0741375F000C0E0E9
:20065200C0F0120B64158115811581158122E5096004E50E700CE4F50DF509F50AF50BF544
:200672000C22E50D6512F50DE509250E30E708501775170102068E400F751702E4F50DF54D
:2006920009F50AF50BF50C222480F5091206DBED20E70EEC33FCEF33FFEE33FEED33FD15F9
:2006B20009EC33501574012FFF700F74012EFE7009E43DFD500413FD0509EFF50CEEF50BF1
:2006D200EDF50AE50960B2E422E511850CF0A4AFF0E510850CF0A42FFFE4E5F03400FEE544
:2006F20011850BF0A42FE5F03EFFE43400FEE50F850CF0A42FFFE5F03EFEE43400FDE510FA
:20071200850BF0A42FFFE5F03EFEED3400FDE511850AF0A42FFCE5F03EFFED3400FEE50FDD
:20073200850BF0A42FFFE5F03EFEE43400FDE510850AF0A42FFFE5F03EFEED3400FDE50FC6
:20075200850AF0A42EFEE5F03DFD2278F9126ADCE60886F0C0E0C0F0740975F000C0E0C048
:20077200F0120B64158115811581158178FB126ADCE60886F0C0E0C0F0740E75F000C0E098
:20079200C0F0120B6415811581158115811207C0740975F000C0E0C0F0741375F000C0E027
:2007B200C0F0120B64158115811581158122E512650DF50DE50E7003020683E509700302BD
:2007D200068EC3E509950E500620E70602068B20E7E62480F509120162500CC3E50A950F73
:2007F20070028003020812C3E50A13F50AE50B13F50BE50C13F50C0509E509700302068310
:20081200120841C0E0120841C0E0120841C0E012084154F0C36001D3E4D0E03400F50CD0A6
:20083200E03400F50BD0E03400F50A1205D422AA0AA90BA80C850AF0E50B7C00AB0F126B64
:200852005B30F00274FFFBF50A750B00750C001206DB85020A85010B85000CC3E50C9FFFA3
:20087200E50B9EFEE50A9DFD500D1BEF2510FFEE350FFEED3400FD750C008F0B8E0AEB22A8
:2008920078F9126ADCE60886F0C0E0C0F0740975F000C0E0C0F0120B64158115811581153F
:2008B2008178FB126ADCE60886F0C0E0C0F0740E75F000C0E0C0F0120B64158115811581AC
:2008D20015811208DA120960E512F4F512740975F000C0E0C0F0741375F000C0E0C0F0128F
:2008F2000B6415811581158115812278F9126ADCE60886F0C0E0C0F0740975F000C0E0C03E
:20091200F0120B64158115811581158178FB126ADCE60886F0C0E0C0F0740E75F000C0E0F6
:20093200C0F0120B641581158115811581120960740975F000C0E0C0F0741375F000C0E0E3
:20095200C0F0120B64158115811581158122E50D6512F5F0C3E509950EF940249418501EC1
:20097200780F740A2402FC0209A9E50EF509E50FF50AE510F50BE511F50CE512F50DE422BB
:20099200F404F9C3941850E2E50EF509E512F50D780A740F2402FCE665F0FD08E665F0FE29
:2009B20008E665F0FFE95407FBE95418030303F9E9600AAF06AE05ADF0190209C2EB6010B4
:2009D200E5F013ED13FDEE13FEEF13FF1B0209CFE5F013A804EF3618F50CEE3618F50BED30
:2009F20036F50AE5F0701A5054E50A13F50AE50B13F50BE50C13F50C0509E509703F0206F1
:200A1200834015E50DF4F50DE50CF404F50CE4950BF50BE4950AF50AE50A20E7207020D39B
:200A3200E5099408403604F509E50BF50AE50CF50B7004E50A6025E4F50C020A2AE422E5D4
:200A52000914F5096019C3E50C33F50CE50B33F50BE50A33F50A30E7E6020A4F02068E02D4
:200A7200068BA983A882F58285F083E4F512E0330350037512FFF5F0A3E033C5F033F50EAE
:200A92006001D3E5F013F50FA3E0F510A3E0F5118983888222E5812404F8D0E0F6D0E018E7
:200AB200F6E50D33E50913C0E0E50A2313C0E0E50BC0E0E50CC0E00581058122E5812404C6
:200AD200F8D0E0F6D0E018F6E51233E50E13C0E0E50F2313C0E0E510C0E0E511C0E005815D
:200AF200058122D0E0F583D0E0F582750D00D0E0F50CD0E0F50BD0E033F5F0D0E033F50961
:200B12005003750DFFC36001D3E5F013F50AE47322D0E0F583D0E0F582751200D0E0F5110C
:200B3200D0E0F510D0E033F5F0D0E033F50E50037512FFC36001D3E5F013F50FE473227893
:200B520009790E8004780E79097F05E6F70809DFFA2278F9126ADCE583C0E0E582C0E0869C
:200B720007088606EE7043EFB40903020B83B40E0D8F017D05E709C0E0DDFA020BEA75052F
:200B9200008F0109E733F5F019E733C0E050037505FFC36001D3E5F013C0E00909E7C0E0F4
:200BB20009E7C0E0EDC0E0020BEA7505008E838F82A3E033F5F08E838F82E033C0E05003B0
:200BD2007505FFC36001D3E5F013C0E0A3A3E0C0E0A3E0C0E0EDC0E0088607088606EFB4C9
:200BF2000903020BFAB40E1AEF2404F9D0E0F7D0E019F7D0E019F7D0E019F7D0E019F7023B
:200C12000C7CE506B40023EF2403F9D0E0F5F0D0E0F7D0E019F7D0E0C5F033D0E013C5F05D
:200C3200231319F7E5F019F78040EFF582850683A3A3A3D0E0F9D0E0F0E5828583F0126B35
:200C5200B6F58285F083D0E0F0E582126BB6F58285F083D0E0C933D0E013C92313F0E582EF
:200C7200126BB6F58285F083E9F0D0E0F582D0E0F58375F000EF227FFD7EFF1200F4E4F54A
:200C9200F0F52485F02578FB126ADCE60886F0F52685F027E4F52AE5268527F07B007C0018
:200CB200126C0E7003020D01E52A75F000C333C5F033C5F078F9126ADC8601088602126AB0
:200CD200FEE5248525F089828A83126C582BC5F03CC5F0F52485F025E52A052AE5268527FA
:200CF200F0126BB6F52685F027126BAD020CA9E5248525F07F030200F22278FB126ADCE63B
:200D12000886F05402C5F05400C5F045F0600D18E60886F05400C5F05402C5F045F0700355
:200D3200020DA27420F52E746475F07CC0E0C0F074B775F076C0E0C0F0E52E75F000C0E0C2
:200D5200C0F079227A73C001C00279207A73D083D082E0A3F5F0E0C5F089828A83126C58B0
:200D7200C39BC5F09CC0F0C0E0740475F000126A4B7FF8126AE8740475F00079647A7C1221
:200D92006AFEE489828A83F0746475F07C020DA5E4F5F0227FFC7EFF1200F47F040200F220
:200DB200E5A04407F5A078FB126ADCE60886F0F52485F025E5A054076407F52EE52E6003F6
:200DD200020DDDC208E4F5F0020F5D78FB126ADCE60886F07B017C00126BEB7003020E0200
:200DF200E52E126B0E7BFF126B05126B40020F5DE4F52CD20B79217A00E75401126B0E451A
:200E1200F0601078FB126ADCE60886F07B017C00126BF445F07003020E3F740875F000C030
:200E3200E0C0F012111215811581020E4F740175F000C0E0C0F012111215811581E5248537
:200E520025F07B017C00126B8EF52485F025E5A054076407F52D6003020E70020EF1E52E51
:200E7200540475F00045F0600CE52D75F000AB2E7C00126BF445F07003020EBBE52C126BC4
:200E92000E126BC745F06004E52D54037003020EBBD20B740275F000C0E0C0F0121112155C
:200EB200811581E52D452EF52C438701E52D75F00045F0601D78FB126ADCE60886F045F00B
:200ED2006010E5248525F0126BB6F52485F025126BC745F07003020EEE020EF1020E60E5C7
:200EF2002D7003020EFDD208020F2579217A00E75401126B0E45F0600978FB126ADCE608F1
:200F120086F045F07003020F23C208E4F5F0020F5DC208E52C6003020F30E52EF52CE52CA8
:200F320054F7F52CE52C540175F00045F06004E52C54027003020F50E52C54FEF52CE52CFF
:200F5200126B0E7BFF126B05126B402278FB126ADCE60886F0126BB618F608A6F0126BADE1
:200F720045F07003020F7F438701020F5E22126A5C74C175F004F51C85F01DD20F126A59FC
:200F920022126A5C74B675F0EDF51C85F01DC20F126A5922740975F007F52F85F030C28C5E
:200FB200C2A9E51C851DF07B087C00126B9C126BBDF58CE51C851DF05400C5F05401C5F0A8
:200FD200126BBDF58AE589F52AE52A54F0F52AE52A4401F52AE52AF589126A59D28CD2A999
:080FF20022120FA6120F932238
:07000B00C0D0C0E0020FFAB3
:200FFA00E51DF4F58CE51CF4F58A200F28C0F0E52F8530F02401C5F0340085F02FF5303025
:20101A00010FE51E14F51E7008E5B04444F5B0C201D0F0800F300E0CE53D2323F53D54C038
:09103A00453CF5A0D0E0D0D03215
:07001B00C0D0C0E002104359
:20104300C0F0E51EC4F51EF5F0E5B054BB30F002440430F1024440F5B0D0F0E528F58BE592
:2010630029F58DD0E0D0D032126A5CC2ABC28EE589540F4410F589E5288529F0907EE7F078
:20108300A3C5F0F0C5F0741A75F0F478FB126ADC8603088604126B5BFBACF074FFF5F0C3F9
:2010A3009BC5F09CC5F0F52885F029E5288529F054FFC5F05400C5F0F58BE5288529F07B6F
:2010C300087C00126B9CF58DD28ED2AB126A5978F9126ADCE60886F0126BB618F608A6F030
:2010E300126BAD7B007C00126BDB70030210F84387010210D2C28EC2AB907EE7E0A3F5F02E
:20110300E0C5F0F52885F029E5B04444F5B022120F801219D478FB126ADCE60886F05480F5
:20112300C5F05400C5F045F07003021135C20B021137D20B78FB126ADCE60886F0540FC5B3
:20114300F05400C5F018F608A6F07430F51EE5B0F51778FB126ADCE6F5F0232325F024D0AA
:20116300F582747BF583E0FFA3E0FEA3E0C0E0A3E0F50EA3E0200B206010E51E4402F51EEB
:20118300E51754FBF5B0F517800EE51E4401F51EE51754BFF5B0F517EFC0E0E4C0E0EEC0E6
:2011A300E0E4C0E012106BE517F5B01581158115811581E50E601A7832438701D8FBE4C0E9
:2011C300E0E50EC0E0E4C0E012106B1581158115811581E517F5B0120F93D20B79217A00EA
:2011E300E7540870030211F7E5B04444F5B0E4F51E0211FD7407F51ED201C20B1219B02238
:2012030078FFE5904404F59000209202D8FA2278FB126ADC8606E59054EFF5907B08E50668
:2012230033F506E590400454F780024408F590004410F5900000000054EFF59000DBDF12B9
:2012430012032278FB126ADC8606E59054FDF590F5F0121203E5F04401F590E506C0E0C0BC
:20126300F0121212D0F0D0E0E5F04402F590227FFB7EFF1200F474017F021200D8F0E47FE3
:20128300031200D8F0740175F000C0E0C0F0120DB2158115817F041200D8F079207A00E7F0
:2012A300548070030212AFC2070212BF742075F000C0E0C0F012124615811581741875F0B5
:2012C30000C0E0C0F012124615811581E4C0E0C0E01212461581158178FB126ADCE608862C
:2012E300F07F001200D8F0A3C5F0F0C5F07F001200D8126C5F89828A83E075F0007B017C0A
:2013030000126BEB70030213327F001200D8E0A3F5F0E0C5F0126BAD7F001200D8F0A3C557
:20132300F0F0C5F0126BB674017F031200D8F0E4C0E0C0E012124615811581741575F00069
:20134300C0E0C0F012124615811581E59054FDF590121203E59054FEF590E5904401F590A7
:2013630074E075F000C0E0C0F012121215811581E59054FEF590E4F52EE52E75F0007B09B0
:201383007C00126BFE600D7F001200D8126C5F89828A83E0700302168E8024E52E052E7F26
:2013A300001200D8E0A3F5F0E0C5F0126BAD7F001200D8F0A3C5F0F0C5F0126BB680BAE571
:2013C3002E75F0007B027C00126B8EF52D7F001200D8126C5F89828A83E0F52BE52B54800F
:2013E30070030215AEE5904401F590E52D44E075F000C0E0C0F012121215811581E52B54C2
:201403002070030214E7E4F52CE52C75F0007B047C00126BFE70030214D4800AE52C052C1F
:20142300E52D052D80E37F001200D8E0A3F5F0E0C5F0126BAD7F001200D8F0A3C5F0F0C50C
:20144300F0126BB6E52B544070030214B2E52B5410700302149074027F031200D8F07F00A9
:201463001200D8126C5F89828A83E044C075F000C0E0C0F012121215811581E52D44E075E4
:20148300F000C0E0C0F0121212158115817F001200D8126C5F89828A83E0540F44B075F0AD
:2014A30000C0E0C0F0121212158115810214D17F001200D8126C5F89828A83E0540F44D0DB
:2014C30075F000C0E0C0F01212121581158102141FE52B544070030214E4E52DC39404F54A
:2014E3002D021593E52B54407003021531E52B540FF52CE52C75F0007B027C00126B8EF5B0
:201503002CE52C700302152274CF75F000C0E0C0F012121215811581E52C152C021504E533
:201523002E152E74027F031200D8F0021593E52B54107003021593E52B540F75F0007B04D3
:201543007C00126B40F52DE52D44E075F000C0E0C0F0121212158115817F001200D8E0A3F4
:20156300F5F0E0C5F0126BAD7F001200D8F0A3C5F0F0C5F0126BB67F001200D8126C5F896C
:20158300828A83E0700302158F0213D0E52E152EE52D44E075F000C0E0C0F01212121581CE
:2015A3001581E59054FEF59002139EE52B75F0007B2E7C00126BEB7003021634E52E60035C
:2015C3000215CCE4F52D0215DDE52EC3940175F0007B047C00126B40F52DE5904401F59042
:2015E300E52D240244E075F000C0E0C0F01212121581158174B875F000C0E0C0F01212125E
:2016030015811581E52E75F0007B047C00126B40F52DE52D44E075F000C0E0C0F012121228
:2016230015811581E59054FEF590E52E152E02139EE52B75F0007B617C00126C17600CE573
:201643002B75F0007B7A7C00126C0545F0700302165BE52B54DFF52BE52E75F0007B087C0E
:2016630000126BEB700302166F02168EE52B547FF52BE52B4480F52BE52B75F000C0E0C093
:20168300F01212121581158102139EE5904402F5907F001200D8126C5F89828A83E0700351
:2016A3000217BF78FB126ADCE60886F0126BAD18F608A6F0126BB678FB126ADC8601088637
:2016C3000289828A83E075F0007B2E7C00126BEB70030216EB18E60886F0126BAD18F608E9
:2016E300A6F0126BB60216BA78FB126ADC860108860289828A83E060030217020218177F44
:20170300021200D8E07003021714741EF52A0217187406F52A79217A00E754047003021700
:2017230032E52A75F0007B027C00126B9CF52A152AE52A7003021769740175F000C0E0C052
:20174300F0120DB21581158175F0007F041200D8126C547C00126BF47003021763021817E8
:20176300438701021732740175F000C0E0C0F0120DB21581158175F0007F041200D8126CD9
:20178300547C00126BF4701E79217A00E75404126B0E45F06010740175F000C0E0C0F012B8
:2017A30039271581158145F070030217B5C20A021817E47F021200D8F00212DB7F03120065
:2017C300D8E075F0007B017C00126BEB70030217F2740775F000C0E0C0F0E4C0E0C0F0E4C3
:2017E300C0E0C0E012181C7FFA126AE80218177F031200D8E075F0007B027C00126BEB70D0
:2018030003021817741A75F000C0E0C0F0121246158115817F050200F27FFE7EFF1200F440
:2018230078F7126ADCE60886F0901958026B17E59054C0F590740A75F000C0E0C0F0120F93
:201843005E15811581D292E5904420F590E59054FDF590121203E5904401F590744275F06D
:2018630000C0E0C0F012121215811581743075F000C0E0C0F012121215811581741575F00A
:2018830000C0E0C0F012121215811581742075F000C0E0C0F012121215811581741175F0FE
:2018A30000C0E0C0F012121215811581E5904402F590021964E4C0E0C0E01212461581157B
:2018C30081E5904401F590E59054FDF590121203E4F5F07F001200D8F0A3C5F0F0C5F07F35
:2018E300001200D8E0A3F5F0E0C5F07B207C00126BCB700302192F80207F001200D8E0A356
:20190300F5F0E0C5F0126BAD7F001200D8F0A3C5F0F0C5F0126BB680C674CF75F000C0E009
:20192300C0F0121212158115810218FCE5904402F590740175F000C0E0C0F0120F5E1581FD
:201943001581741A75F000C0E0C0F012124615811581021964B81807003218010000006410
:2019630019740175F000C0E0C0F0120F5E158115817F020200F2C28E78FB126ADC86030855
:201983008604749675F098126B5B126BBDC0E0E589540F4420F589D0E0F58DF58BC28BD27D
:2019A3008E0000759840E5B04403F5B022C2AC907C1EE0A3F5F0E0C0F0C0E012197915813C
:2019C3001581E4F519F518E4F51BF51AD2ACD29C22E598540870030219E34387010219D45A
:2019E300C29CC2ACE4F598C28EE5894450F589E58954DFF5892278FB126ADCE60886F0F572
:201A03002485F025A924AA2589828A83E07003021A68A924AA2589828A83E0126B0E7B0AD6
:201A2300126B05126BEB7003021A3E740D75F000C0E0C0F0121A6915811581A924AA2589D0
:201A4300828A83E0126B0EC0E0C0F0121A6915811581E5248525F0126BADF52485F02512E6
:201A63006BB6021A072278FB126ADCC001C002E6C0E0E51AF904B4FF027400B51B0700002D
:201A830000000080F6FAD0E0C083C0828982758370F08A1AD082D083209B02D299D002D028
:201AA3000122C0E0C0E0121A69D0E0D0E022E519B5180574FFF5F022F8C082C08388827563
:201AC3008370E0D083D08208B8FF027800881975F00022E518C3951975F0002222E51AC351
:071AE300951B75F0002222A3
:07002300C0D0C0E0021AEAA0
:201AEA00C00030981CA818C083C0827583708882E599C298F0D082D08308B8FF0278008853
:201B0A0018309909C299E51BB51A09C29BD000D0E0D0D032F8C083C0827583708882E0D050
:201B2A0082D083F59908B8FF027800881BD29B80DC23F42581F8126C3C1268DD126C3CC053
:201B4A0082C0831219F915811581222278FC126ADC8604188603188683188682E4FDFE12F9
:201B6A001AB1A9F0B9FF0A75C7AA75C755D2BF80EEB408028003B47F27ED4E60E21DBDFFCE
:201B8A00011E7408121AA57420121AA57408121AA58583F0E582126BB685F083F58280BFDD
:201BAA00121AA5F024F3600EA30DBD00010EED8EF0126BCB70A9740A121AA5E4F0ED8EF0FF
:201BCA0022222278F7126ADCE60886F0C0E0C0F0747C75F07CC0E0C0F0120B64158115814C
:201BEA001581158178F9126ADCE60886F02404C5F03400C0F0C0E0747C75F07CC0E0C0F000
:201C0A001205FD1581158115811581742875F077C0E0C0F0740E75F000C0E0C0F0120B64CE
:201C2A001581158115811581120960740975F000C0E0C0F0747875F07CC0E0C0F0120B64F7
:201C4A001581158115811581747C75F07CC0E0C0F0747C75F07CC0E0C0F01205FD15811521
:201C6A00811581158178F9126ADCE60886F0240CC5F03400C0F0C0E0740E75F000C0E0C0D0
:201C8A00F0120B641581158115811581120660747875F07CC0E0C0F0740E75F000C0E0C095
:201CAA00F0120B641581158115811581120960740975F000C0E0C0F0747875F07CC0E0C077
:201CCA00F0120B64158115811581158178F9126ADCE60886F02414C5F03400C0F0C0E0741F
:201CEA000075F07CC0E0C0F01200FF15811581158115817B017C00126BF47003021D93783A
:201D0A00F9126ADCE60886F02414C5F03400C0F0C0E0740975F000C0E0C0F0120B6415814A
:201D2A00158115811581747C75F07CC0E0C0F0740E75F000C0E0C0F0120B641581158115BD
:201D4A00811581120660120660120660747875F07CC0E0C0F0740E75F000C0E0C0F0120B89
:201D6A00641581158115811581120960740975F000C0E0C0F0747875F07CC0E0C0F0120BB6
:201D8A00641581158115811581747C75F07CC0E0C0F078F7126ADCE60886F02408C5F0341C
:201DAA0000C0F0C0E01205FD1581158115811581740975F000C0E0C0F0747475F07CC0E0C2
:201DCA00C0F0120B64158115811581158178FB126ADCE60886F0C0E0C0F0740075F07CC0DC
:201DEA00E0C0F01200FF15811581158115817B017C00126BF47003021E62747475F07CC0F9
:201E0A00E0C0F0740975F000C0E0C0F0120B64158115811581158178FB126ADCE60886F0EE
:201E2A00C0E0C0F0740E75F000C0E0C0F0120B641581158115811581120660740975F000DE
:201E4A00C0E0C0F0747475F07CC0E0C0F0120B641581158115811581747C75F07CC0E0C005
:201E6A00F0747C75F07CC0E0C0F01205FD158115811581158178F9126ADCE60886F024107A
:201E8A00C5F03400C0F0C0E0740E75F000C0E0C0F0120B6415811581158115811206607403
:201EAA000975F000C0E0C0F0747075F07CC0E0C0F0120B64158115811581158178FB126A7D
:201ECA00DCE60886F0C0E0C0F0740075F07CC0E0C0F01200FF15811581158115817B017C62
:201EEA0000126BF47003021F37747075F07CC0E0C0F0740975F000C0E0C0F0120B6415813E
:201F0A0015811581158178FB126ADCE60886F0C0E0C0F0740E75F000C0E0C0F0120B6415A9
:201F2A0081158115811581120660021F54747075F07CC0E0C0F0740975F000C0E0C0F0120E
:201F4A000B641581158115811581747475F07CC0E0C0F0740E75F000C0E0C0F0120B6415CA
:201F6A008115811581158112096078F9126ADCE60886F02400C5F03400C0F0C0E0740E7518
:201F8A00F000C0E0C0F0120B641581158115811581120960742C75F077C0E0C0F0740E75E0
:201FAA00F000C0E0C0F0120B641581158115811581120660747875F07CC0E0C0F0740E7572
:201FCA00F000C0E0C0F0120B6415811581158115811207C022E52F8530F02408C5F034070E
:201FEA00C5F0907ECFF0A3C5F0F0C5F022E52F8530F0907ECFF0A3C5F0F0C5F022E52F85F8
:20200A0030F0C39408C5F09407C5F0907ECF126C58126C0E7003022036740275F000C0E0AD
:20202A00C0F01211121581158112216D22E52F8530F0907ECF126C58C39BC5F09CC5F0C330
:20204A00C5F013C5F0132278FB126ADCE60886F0126BB618F608A6F0126BAD45F0700302E2
:20206A0020A778F7126ADCE60886F0126BAD18F608A6F0126BB6F9AAF008E60886F0126BDF
:20208A00AD18F608A6F0126BB6C001C002F9AAF089828A83E0D083D082F00220512278F901
:2020AA00126ADCE60886F05400C5F05480C5F045F0700302211F08E60886F05400C5F05415
:2020CA0080C5F045F07003022110181818E60886F07BFF7C7F126BFE0856C5F00856C5F024
:2020EA0054FFC5F0547FC5F045F0700302210118E60886F002216C78F9126ADCE60886F042
:20210A0002216C02211C78F9126ADCE60886F002216C02216C78FB126ADCE60886F0540019
:20212A00C5F05480C5F045F0700302213F18E60886F002216C78FB126ADCE60886F01818E3
:20214A00188603088604126C0E700302216018E60886F002216C78FB126ADCE60886F00284
:20216A00216C22740375F000C0E0C0F0E4C0E0C0F0E4C0E0C0E01212467FFA126AE8E59066
:20218A0044404480F590E5B0547FF5B0438701E5B04480F5B0438701E5B0547FF5B0126A3E
:2021AA005C75C7AA75C7557587022278FB126ADC860108860289828A83E0A3F5F0E0C5F02B
:2021CA002278F9126ADC860108860208E60886F089828A83F0A3C5F0F0C5F022E4F5F02275
:2021EA007FFE7EFF1200F478FB126ADCE60886F07BFF7CFF126BEB700302221A78F7126AAD
:20220A00DCE60886F00826C5F00836C5F002233A78F9126ADCE60886F07B007C00126BCBD3
:20222A00700302224A18E60886F07BFF7CFF126B407F001200D8F0A3C5F0F0C5F002225FAC
:20224A0078F9126ADCE60886F07F001200D8F0A3C5F0F0C5F078FB126ADCE60886F054402E
:20226A00C5F05400C5F045F070030222AE78F7126ADCE60886F07B897C01126C0E7003026F
:20228A0022AB7F001200D8E0A3F5F0E0C5F07B047C00126B407F001200D8F0A3C5F0F0C5E3
:2022AA00F00222E278F7126ADCE60886F07BBC7C02126C1770030222E27F001200D8E0A344
:2022CA00F5F0E0C5F07B0A7C00126B407F001200D8F0A3C5F0F0C5F078F9126ADCE6088629
:2022EA00F07B007C00126BCB7003022315181818E60886F07F001200D8126C58C39BC5F0FA
:20230A009CC5F018F608A6F002233178F7126ADCE60886F07F001200D8126C582BC5F03CDA
:20232A00C5F018F608A6F078F7126ADCE60886F07F020200F27FFA7EFF1200F4E52F8530CD
:20234A00F07F001200D8F0A3C5F0F0C5F07F021200D8F0A3C5F0F0C5F0907EE2E0A3F5F07D
:20236A00E0C5F07BFF7CFF126BEB70030223B7748E75F07EC0E0C0F0742075F07CC0E0C008
:20238A00F0907EDCE0A3F5F0E0C0F0C0E0740375F000126A4B7FFA126AE8748E75F07EC09C
:2023AA00E0C0F0121272158115810223E3907EDCE0A3F5F0E0C0F0C0E0907EE5E0A3F5F0DC
:2023CA00E0C0F0C0E0907EE2E0A3F5F0E0C0F0C0E0122D6C7FFA126AE879217A00E7540163
:2023EA006007740275F0008005740575F000C0E0C0F0120DB215811581F53160030225072A
:20240A001264C345F07003022417121FF7438701907EE4E075F00045F0601BE52F8530F001
:20242A007F021200D8126C58C39BC5F09CC5F07B057C00126C0E45F070030224F0740175BD
:20244A00F000C0E0C0F01239271581158145F070030224DF740175F000C0E0C0F0123B7AF6
:20246A0015811581F52485F025E5248525F07B007C80126BF4601EE5248525F0907EDE12C9
:20248A006C58126C17600EE5248525F0907EE0126C58126BFE45F070030224CCE52485253C
:2024AA00F0907EDCF0A3C5F0F0C5F0121FF7E52F8530F07F021200D8F0A3C5F0F0C5F00210
:2024CA002363748775F000C0E0C0F012111215811581022363E52F8530F07F021200D8F0BF
:2024EA00A3C5F0F0C5F0122007E52F8530F07F001200D8F0A3C5F0F0C5F00223E3121FF75D
:20250A00E52F8530F07F001200D8126C58C39BC5F09CC5F07B1E7C00126C0E700302253EDC
:20252A00746475F0007F041200D8F0A3C5F0F0C5F0022583E52F8530F07F001200D8126CB0
:20254A0058C39BC5F09CC5F07B0F7C00126C0E7003022572740A75F0007F041200D8F0A334
:20256A00C5F0F0C5F0022583740175F0007F041200D8F0A3C5F0F0C5F0E531126B0E9027C1
:20258A0036026B17907EDCE0A3F5F0E0C5F0022751907EE0E0A3F5F0E0C5F07F041200D8BE
:2025AA00126C58C39BC5F09CC5F0907EDC126C58126BFE70030225E9907EE0E0A3F5F0E0E3
:2025CA00C5F0907EDCF0A3C5F0F0C5F0740375F000C0E0C0F01211121581158102274E90D1
:2025EA007EDCE0A3F5F0E0C0F0C0E07F041200D8E0A3F5F0E0C0F0C0E0907EE2E0A3F5F082
:20260A00E0C0F0C0E01221EA7FFA126AE8907EDCF0A3C5F0F0C5F002274E907EDEE0A3F5D4
:20262A00F0E0C5F07F041200D8126C582BC5F03CC5F0907EDC126C58126C0E7021907EDE2E
:20264A00E0A3F5F0E0C5F07F041200D8126C582BC5F03CC5F0907EE0126C58126C0E45F0DA
:20266A007003022696740375F000C0E0C0F012111215811581907EDEE0A3F5F0E0C5F09019
:20268A007EDCF0A3C5F0F0C5F002274E907EDCE0A3F5F0E0C0F0C0E07F041200D8E0A3F50B
:2026AA00F0E0C5F0126BBDC0E0C0F0907EE2E0A3F5F0E0C0F0C0E01221EA7FFA126AE890EF
:2026CA007EDCF0A3C5F0F0C5F002274EE475F080022751907EDCE0A3F5F0E0C5F0907EDE1C
:2026EA00126C58126BEB700302270C907EE0E0A3F5F0E0C5F0907EDCF0A3C5F0F0C5F00226
:20270A002720907EDEE0A3F5F0E0C5F0907EDCF0A3C5F0F0C5F002274E740375F000C0E0B5
:20272A00C0F012111215811581022363DD26FAFFD626FBFF2426FFFF9B25FEFF8E25FCFF51
:20274A00000023270223637F060200F27FFE7EFF1200F478F9126ADC860108860274208927
:20276A00828A83F0E4F5F07F001200D8F0A3C5F0F0C5F0181818E60886F07B007C80126B11
:20278A00EB70030227A308E60886F0126BAD18F608A6F0126BB602287578F7126ADCE6083C
:2027AA0086F05400C5F05480C5F045F070030227DC088601088602742D89828A83F0181862
:2027CA0018E60886F054FFC5F0547FC5F018F608A6F078F9126ADCE60886F0126BAD18F6D2
:2027EA0008A6F0126BB6181818E60886F07B647C00126B5BF52485F02518E60886F07B6411
:20280A007C00126B54F52B79087A7289828A83E0A3F5F0E0C5F05408C5F05400C5F045F070
:20282A00601078F7126ADCE60886F07BE07C2E126C0E45F0702E79087A7289828A83E0A387
:20284A00F5F0E0C5F05408C5F05400C5F0126BC745F0601078F7126ADCE60886F07B147CBB
:20286A001E126C0E45F070030228B77F001200D8E0A3F5F0E0C5F0126BAD7F001200D8F032
:20288A00A3C5F0F0C5F0126BB678F9126ADCE60886F0C0E0C0F0742375F07CC0E0C0F012A7
:2028AA006A6F1581158115811581022BE378FB126ADCE60886F05460C5F05400C5F045F0F7
:2028CA006003022A8BE5248525F07B077C00126BFE700302298178F9126ADCE60886F0C0AC
:2028EA00E0C0F0742775F07CC0E0C0F0E5248525F0C0E0C0F0740375F000126A4B7FFA1251
:20290A006AE8E52B75F0007B0A7C00126BFE700302294F78F9126ADCE60886F02402C5F075
:20292A003400C0F0C0E0742B75F07CC0E0C0F0E52B75F000C0E0C0F07403126A4B7FFA12AB
:20294A006AE802297E78F9126ADCE60886F02402C5F03400C0F0C0E0742F75F07CC0E0C002
:20296A00F0E52B75F000C0E0C0F07403126A4B7FFA126AE8022A88E5248525F07B637C00CC
:20298A00126C0E70030229C178F9126ADCE60886F0C0E0C0F0743275F07CC0E0C0F0E524E5
:2029AA008525F0C0E0C0F0740375F000126A4B7FFA126AE8022A88E52B75F0007B0A7C0079
:2029CA00126B5BF52AE52B75F0007B0A7C00126B547B057C00126C1770030229EBE52A0581
:2029EA002AE52A75F0007B097C00126C0E7003022A0FE5248525F0126BADF52485F0251263
:202A0A006BB6E4F52A78F9126ADCE60886F0C0E0C0F0743575F07CC0E0C0F0E5248525F08E
:202A2A007B0A7C00126BFE6007743B75F07C8005743D75F07CC0E0C0F0E5248525F0C0E06F
:202A4A00C0F0740475F000126A4B7FF8126AE878F9126ADCE60886F02403C5F03400C0F050
:202A6A00C0E0743E75F07CC0E0C0F0E52A75F000C0E0C0F07403126A4B7FFA126AE8022BBD
:202A8A00E378FB126ADCE60886F05440C5F05400C5F045F07003022BE378F7126ADCE6085B
:202AAA0086F0C0E0C0F012044D15811581743875F077C0E0C0F0740975F000C0E0C0F0129B
:202ACA000B641581158115811581120660740975F000C0E0C0F012022F1581158178F7128B
:202AEA006ADCF608A6F018E60886F07B0A7C00126B5BF52485F02518E60886F07B0A7C006D
:202B0A00126B54F52BE5248525F07B647C00126BFE7003022B27E52BF52A022A0FE5248582
:202B2A0025F07BE77C03126C0E7003022BB7E5248525F07BB87C0B126C0E705379087A7299
:202B4A0089828A83E0A3F5F0E0C5F05408C5F05400C5F0126BC745F0600CE5248525F07B39
:202B6A009E7C07126C0E45F0702578F9126ADCE60886F0C39401C5F09400C5F0F9AAF08935
:202B8A00828A83E0126B0E7B2D126B05126BEB45F07003022BA302287578F9126ADCE608D1
:202BAA0086F0126BB618F608A6F0126BAD78F9126ADCE60886F0C0E0C0F0744175F07CC0B9
:202BCA00E0C0F0E5248525F0C0E0C0F0740375F000126A4B7FFA126AE87F001200D8E0A3FC
:202BEA00F5F0E0C5F07F020200F278F9126ADCE60886F054FFC5F05400C5F045F0700302F4
:202C0A002D6B18E60886F07B087C00126B9CF52B18E60886F054FFC5F05400C5F0F52CE5CB
:202C2A009054FDF590121203E5904401F59078FB126ADCE67003022C4A74E1F52E022C4E2E
:202C4A0074E2F52EE4F52AE52A75F0007B087C00126BFE7003022D40800CE52A052AE52E41
:202C6A002404F52E80E1740175F000AB2A7C00126B8EF52DE52D552C7003022D3DE52E754C
:202C8A00F000C0E0C0F01212121581158178FB126ADCE67003022CF174B175F000C0E0C05B
:202CAA00F012121215811581E52E75F000C0E0C0F012121215811581E52D552B7003022C5B
:202CCA00DE74C175F000C0E0C0F012121215811581022CEE748E75F000C0E0C0F0121212B7
:202CEA0015811581022D3D74B875F000C0E0C0F012121215811581E52E75F000C0E0C0F027
:202D0A0012121215811581E52D552B7003022D2D74C875F000C0E0C0F01212121581158193
:202D2A00022D3D748775F000C0E0C0F012121215811581022C64121203E59054FEF59012F4
:202D4A001203E5904402F590E52B54FF7003022D6B741A75F000C0E0C0F01212461581154C
:202D6A0081227FDE7EFF1200F478F7126ADCE60886F0C0E0C0F07F001200E6E98AF0C0E0D1
:202D8A00C0F0080808E60886F0C0E0C0F01227567FFA126AE87F201200D8F0A3C5F0F0C5BB
:202DAA00F078F9126ADCE60886F045F06003022DC5744475F07C18F608A6F0748E75F07E36
:202DCA00C0E0C0F0744975F07CC0E0C0F078F5126ADCE60886F0C0E0C0F07F001200E6E9D2
:202DEA008AF0C0E0C0F0740475F000126A4B7FF8126AE8748E75F07EC0E0C0F012127215A0
:202E0A0081158178FB126ADCE60886F0F52885F02979207A00E754026003022E42E5B05499
:202E2A00046003022E42E5288529F04410C5F04410C5F0F52885F02978F7126ADCE60886FC
:202E4A00F07B007C80126BEB7003022E6CE5288529F054F7C5F054F7C5F0F52885F0290222
:202E6A002EEE79207A00E754017003022EC8E5288529F05400C5F05408C5F045F070030203
:202E8A002EB3E5288529F04408C5F04400C5F0F52885F029E5288529F054FFC5F054F7C524
:202EAA00F0F52885F029022EC5E5288529F054F7C5F054FFC5F0F52885F029022EEEE528CF
:202ECA008529F05408C5F05400C5F045F07003022EEEE5288529F054FFC5F054F7C5F0F5C2
:202EEA002885F029E5288529F0C0E0C0F0740175F000C0E0C0F0122BF415811581158115D5
:202F0A008178F7126ADCE60886F07B007C80126BF47003022F3F907ED8E0A3F5F0E0C0F052
:202F2A00C0E0E4C0E0C0E0122BF41581158115811581022F63907ED8E0A3F5F0E0C5F0546F
:202F4A00F3C5F054F3C0F0C0E0E4C0E0C0E0122BF415811581158115817F201200D8E0A36F
:202F6A00F5F0E0C5F07F220200F278F9126ADCE6F5060808E6F50308E6F50485033C85046C
:202F8A003D7824438701D8FBE53C54DFF53C4387017D04438701DDFBDEF7E53C4428F53CA9
:202FAA00F5A04387012278F9126ADCE60886F045F06003022FC6E4F5F00232E51219D4E404
:202FCA00F52AE52A75F0007B047C00126BFE70030230218006E52A052A80E7740175F00013
:202FEA00AB2A7C00126B8E78FB126ADC56C5F0E4C5F045F0700302301EE52A75F000C3339A
:20300A00C5F033C5F079327A00126AFE74FFF5F0F709A7F0022FDF740875F00079327A0065
:20302A00126AFEE4F5F0F709A7F0120F80C28EE5A0440FF5A0E590547FF590742FF53C7439
:20304A00F0F53D780A438701D8FBD20E741775F002F51C85F01DE5B04408F5B078F9126A3C
:20306A00DCE60886F0F52685F027E5B04420F5B0E5268527F045F07003023259E4F52BE5EC
:20308A002B75F0007B047C00126BFE70030232468006E52B052B80E7E5268527F078F912DC
:2030AA006ADC8603088604126BF4600CE52B75F0007B017C00126BF445F070030230CC0242
:2030CA00309C740175F000AB2B7C00126B8E78FB126ADC56C5F0E4C5F045F060030230EDBD
:2030EA0002309CE5B054EFF5B0E52B75F000903138026B17742F75F0F0F52885F0290231A3
:20310A004C742775F0F0F52885F02902314C743775F078F52885F02902314C742775F078F5
:20312A00F52885F029E5B04410F5B002314C25310300183102000B310100FE3000000000AE
:20314A004C31E4F58DE4F58BE5B054F7F5B0D28E741A75F000C0E0C0F0E5288529F0C0E0AB
:20316A00C0F0122F741581158115811581C28EE580547F75F000F52485F025E5B05420706F
:20318A00030231A0E5248525F04480C5F04400C5F0F52485F025E5B04408F5B0E58B75F02C
:2031AA00007B087C00126B8E4524C5F04525C5F0F52485F025E52B75F000C333C5F033C5F3
:2031CA00F079327A00126AFEE5248525F08703098704126BFE7003023200E52B75F000C33B
:2031EA0033C5F033C5F079327A00126AFEE5248525F0F709A7F0E52B75F0007B017C00129D
:20320A006BEB6019740875F00079327A00126AFEE5248525F08703098704126C0E45F07063
:20322A0003023243740875F00079327A00126AFEE5248525F0F709A7F002309CE5268527CB
:20324A00F0126BB6F52685F027126BAD02307AE5B054F7F5B0C20EE59044404480F590C25B
:20326A008EE5A04420440FF5A0120F931219B078FB126ADCE6540170030232B9E4F5F079AE
:20328A00327A00126AFEC001C00279647A72D007D000C000C007E60886F089828A83126C8A
:2032AA00582BC5F03CC5F0D007D000F608A6F0740875F00079327A00126AFEC001C0027429
:2032CA000275F00079327A00126AFED007D000E60886F0C397C5F00997C5F022744C75F028
:2032EA0072C0E0C0F0740975F000C0E0C0F0120B641581158115811581740475F00079326F
:20330A007A00126AFEE70987F0C0E0C0F012044D158115811207C0E4F5F079327A00126A26
:20332A00FEC001C002740275F00079327A00126AFED007D000E60886F0C397C5F00997C00E
:20334A00F0C0E012044D15811581120660120AA7120B51745475F072C0E0C0F0740975F0CA
:20336A0000C0E0C0F0120B6415811581158115811208D4745075F072C0E0C0F0740E75F05A
:20338A0000C0E0C0F0120B6415811581158115811207C0E4F50D746075F072C0E0C0F074CC
:2033AA000E75F000C0E0C0F0120B641581158115811581120660120B51745C75F072C0E03A
:2033CA00C0F0740975F000C0E0C0F0120B6415811581158115811208D4745875F072C0E0F7
:2033EA00C0F0740E75F000C0E0C0F0120B641581158115811581120660120B51740475F040
:20340A0073C0E0C0F0740975F000C0E0C0F0120B6415811581158115811207C0742875F0FA
:20342A0077C0E0C0F0740E75F000C0E0C0F0120B641581158115811581120960120B2312DE
:20344A000660120B51745475F072C0E0C0F0740975F000C0E0C0F0120B641581158115812A
:20346A0015811208D4745075F072C0E0C0F0740E75F000C0E0C0F0120B6415811581158159
:20348A0015811207C0E50D6006E475F0808003E4F5F0F52685F027E4F50D740975F000C007
:2034AA00E0C0F0743075F072C0E0C0F0740875F073C0E0C0F0121BCD7FFA126AE87409753A
:2034CA00F000C0E0C0F012022F15811581F52485F025E5248525F045F060030234F0E4F546
:2034EA00F0F52685F027E5248525F04526C5F04527C5F022C20D79087A7289828A83E0A33E
:20350A00F5F0E0C5F05401C5F05400C5F045F0601178FB126ADCE6126B0E7B02126B051221
:20352A006BF445F07003023539E4F5F002376A907C80E0A3F5F0E0C5F045F0600302354DF9
:20354A0002360C740375F000C0E0C0F07402C0E0C0F0122FB01581158115811581E4F5F019
:20356A0079327A00126AFEC001C002740275F00079327A00126AFED007D000E60886F0C3D7
:20358A0097C5F00997C5F0F52485F02579167A72C0E0C0F0D0F0D0E089828A83126C581292
:2035AA006C0E70030235C678FB126ADCE660030235BED20DE5248525F002376A79147A7270
:2035CA00E5248525F089828A83126C58126BFE602A907C80E0A3F5F0E0C5F0126BC745F049
:2035EA007019E52F8530F0907C80126C58C39BC5F09CC5F07B2C7C01126C0E45F07003025F
:20360A003767740375F000C0E0C0F0740FC0E0C0F0122FB01581158115811581E4F5F07978
:20362A00327A00126AFEC001C002740275F00079327A00126AFED007D000E60886F0C397F8
:20364A00C5F00997C5F0F52485F02579167A72C0E0C0F0D0F0D0E089828A83126C58126CFC
:20366A000E700302368578FB126ADCE6600302367DD20DE5248525F002376A79147A72E5B6
:20368A00248525F089828A83126C58126C0E70030236A3E4F5F002376AE4F5F079327A0040
:2036AA00126AFEE70987F0C0E0C0F012044D15811581120B57740675F00079327A00126A4C
:2036CA00FEE70987F0C0E0C0F012044D158115811208D4744C75F072C0E0C0F0740E75F0E0
:2036EA0000C0E0C0F0120B641581158115811581120660740475F00079327A00126AFEE7BC
:20370A000987F0C0E0C0F012044D158115811207C0745875F072C0E0C0F0740E75F000C0CD
:20372A00E0C0F0120B6415811581158115811208D4740975F000C0E0C0F0740475F073C0E6
:20374A00E0C0F0120B641581158115811581E52F8530F0907C80F0A3C5F0F0C5F0E4F5F0FB
:20376A002279217A00E754206003023791740375F000C0E0C0F07402C0E0C0F0122FB01589
:20378A0081158115811581C20DE4F5F079327A00126AFEC001C002740275F00079327A0022
:2037AA00126AFED007D000E60886F0C397C5F00997C5F079167A72C0E0C0F0D0F0D0E08952
:2037CA00828A83126C58126BFE70030237DFE475F08002384D1232E6F52485F025E52485B9
:2037EA0025F07B007C80126BEB70030237FFE475F08002384D740875F00079327A00126A4E
:20380A00FEC001C002740275F00079327A00126AFED007D000E60886F0C397C5F00997C524
:20382A00F079667A72C0E0C0F0D0F0D0E089828A83126C58126C057003023848D206E524BC
:20384A008525F022E4F5F0907C80F0A3C5F0F0C5F0E4F5F0907C82F0A3C5F0F0C5F07401A7
:20386A0075F000C0E0C0F01239271581158145F06003023882023926740175F000C0E0C0FC
:20388A00F012392715811581F52485F02545F0601E907C82E0A3F5F0E0C5F0126BC745F026
:2038AA00600D907C80E0A3F5F0E0C5F0126BC745F070030238ED740D75F077C0E0C0F01236
:2038CA00127215811581740375F000C0E0C0F0121112158115817814438701D8FB1220073E
:2038EA00023882121FF7E475F080C0E0C0F0E4C0E0C0E079147A7389828A83E0A3F5F0E0C3
:20390A00C0F0C0E0122D6C7FFA126AE8740475F000C0E0C0F0121112158115812278FB1290
:20392A006ADCE6126B0EC0E0C0F01234FE15811581F52485F02545F07003023951D200E568
:20394A00248525F0023954E4F5F0227FFE7EFF1200F4E5288529F07F001200D8F0A3C5F0C9
:20396A00F0C5F078FB126ADCE60886F07B007C80126BEB700302399F7F001200D8E0A3F55C
:20398A00F0E0C5F0F52885F02978FB126ADCE60886F0023B75E5288529F07F001200D8F0F8
:2039AA00A3C5F0F0C5F078FB126ADCE60886F0F52885F029E5288529F054FFC5F0547FC5CB
:2039CA00F0F52485F02579207A00E754017003023A1479147A7389828A83E0A3F5F0E0C589
:2039EA00F05400C5F05408C5F045F060030239FD023982791A7A7389828A83E0A3F5F0E046
:203A0A00C5F0F52685F027023A4979147A7389828A83E0A3F5F0E0C5F05408C5F05400C5F2
:203A2A00F045F06003023A3502398279187A7389828A83E0A3F5F0E0C5F0F52685F027E498
:203A4A00F52AE5268527F05400C5F05480C5F045F07003023A64E52A052AE5268527F05483
:203A6A00FFC5F0547FC5F0F52685F027E5288529F05400C5F05480C5F045F07003023AF335
:203A8A00E52A7003023AD6E5268527F0AB24AC25126C177003023AB8E5268527F0C3952422
:203AAA00C5F09525C5F0F52885F029023AD3E5248525F0C39526C5F09527C5F04400C5F0CE
:203ACA004480C5F0F52885F029023AF0E5248525F02526C5F03527C5F04400C5F04480C546
:203AEA00F0F52885F029023B51E52A7003023B0FE5248525F02526C5F03527C5F0F528855F
:203B0A00F029023B51E5268527F0AB24AC25126C0E7003023B3EE5268527F0C39524C5F05B
:203B2A009525C5F04400C5F04480C5F0F52885F029023B51E5248525F0C39526C5F09527BF
:203B4A00C5F0F52885F029E5288529F078FB126ADCF608A6F07F001200D8E0A3F5F0E0C56B
:203B6A00F0F52885F02918E60886F07F020200F2E4907EEFF078FB126ADCE6540170030253
:203B8A003BB3E4F5F0907EEBF0A3C5F0F0C5F0E654047003023BB0741975F077907EEBF08E
:203BAA00A3C5F0F0C5F0023BDD79147A7389828A83E0A3F5F0E0C5F04400C5F04402C0F066
:203BCA00C0E0120D0C15811581907EEBF0A3C5F0F0C5F0C20974FF75F07F907EE9F0A3C58D
:203BEA00F0F0C5F0121FF7C206907ED8E0A3F5F0E0C5F054F3C5F054F3C5F0907ED8F0A3E2
:203C0A00C5F0F0C5F012376BF52685F027907ED8E0A3F5F0E0C5F04408C5F04400C5F09068
:203C2A007ED8F0A3C5F0F0C5F079147A7389828A83E0A3F5F0E0C5F04400C5F04402C5F0B4
:203C4A00F52885F02978FB126ADCE654026003023CBCE5268527F0C0E0C0F012395515810E
:203C6A001581F52685F02779087A7289828A83E0A3F5F0E0C5F05404C5F05400C5F045F020
:203C8A006003023CB9E5268527F07B007C80126BF4600DE5268527F05400C5F05480C5F08B
:203CAA0045F07003023CB9E4F5F0F52685F027023CCEE5288529F054F8C5F054FFC5F0F526
:203CCA002885F029E5288529F05404C5F05400C5F045F06010E5268527F0C0E0C0F0122184
:203CEA00E6158115817003023D09E5288529F04400C5F04404C5F0F52885F029023D1BE552
:203D0A00288529F054FFC5F054FBC5F0F52885F029D207E5268527F07B007C80126BEB703D
:203D2A0026E5268527F0C0E0C0F0907EEBE0A3F5F0E0C0F0C0E0E5288529F0C0E0C0F012BE
:203D4A002D6C7FFA126AE845F07003023D7F907EE9E0A3F5F0E0C5F07BFF7C7F126BEB703C
:203D6A0003023D7CE475F080907EE9F0A3C5F0F0C5F0023DF379207A00E754407003023D5C
:203D8A00EDE5268527F0C0E0C0F0907EE9E0A3F5F0E0C0F0C0E01220A815811581158115F5
:203DAA0081907EE9F0A3C5F0F0C5F079217A00E754026003023DED748475F000C0E0C0F007
:203DCA0012111215811581D20978FB126ADCE654017003023DED907EE9E0A3F5F0E0C5F004
:203DEA00024151122007023BF1121FF779147A7389828A83E0A3F5F0E0C5F0907EDAF0A38C
:203E0A00C5F0F0C5F0907EDAE0A3F5F0E0C0F0C0E0120D0C15811581907EEBF0A3C5F0F036
:203E2A00C5F079217A00E75402126B0E45F06011907EE9E0A3F5F0E0C5F07B007C80126B59
:203E4A00F445F070030240A979147A7389828A83E0A3F5F0E0C5F05402C5F05400C5F045E9
:203E6A00F070030240A6907EE9E0A3F5F0E0C5F054FFC5F0547FC0F0C0E012044D158115C0
:203E8A0081907EE9E0A3F5F0E0C5F05400C5F05480C5F045F07003023EA874FFF51279206E
:203EAA007A7389828A83E0A3F5F0E0C5F045F06003023EDB74FFF5F0907E8AF0A3C5F0F01B
:203ECA00C5F074FF75F07F907E8CF0A3C5F0F0C5F0907EE9E0A3F5F0E0C5F0907E8A126C3B
:203EEA0058126BDB7003023F07907EE9E0A3F5F0E0C5F0907E8AF0A3C5F0F0C5F0907EE9DD
:203F0A00E0A3F5F0E0C5F0907E8C126C58126BCB7003023F33907EE9E0A3F5F0E0C5F09077
:203F2A007E8CF0A3C5F0F0C5F0741C75F073C0E0C0F0740975F000C0E0C0F0120B6415817F
:203F4A00158115811581120960740975F000C0E0C0F0741C75F073C0E0C0F0120B64158119
:203F6A0015811581158179207A7389828A83E0A3F5F0E0C5F0126BAD89828A83F0A3C5F050
:203F8A00F0C5F079227A73C0E0C0F0D0F0D0E089828A83126C58126BEB700302408A7922FA
:203FAA007A7389828A83E0A3F5F0E0C0F0C0E012044D158115811207C0740975F000C0E070
:203FCA00C0F012022F15811581907EE9F0A3C5F0F0C5F0740075F07CC0E0C0F0741C75F03A
:203FEA0073C0E0C0F0120B64158115811581158179207A73E4F5F089828A83F0A3C5F0F07C
:20400A00C5F0907EE9E0A3F5F0E0C0F0C0E01221E615811581F52A7003024064E52A75F061
:20402A00007B017C00126BEB700302404A748075F000C0E0C0F01211121581158102405A71
:20404A00748375F000C0E0C0F0121112158115817802438701D8FB024074748475F000C05E
:20406A00E0C0F0121112158115817801438701D8FBE4C0E0C0E0121112158115810240A6C1
:20408A00907EDAE0A3F5F0E0C5F04400C5F04402C5F0907EDAF0A3C5F0F0C5F00240FF79AE
:2040AA00147A7389828A83E0A3F5F0E0C5F05402C5F05400C5F045F070030240E3907EDA17
:2040CA00E0A3F5F0E0C5F04400C5F04402C5F0907EDAF0A3C5F0F0C5F0907EDAE0A3F5F0C0
:2040EA00E0C5F04400C5F04404C5F0907EDAF0A3C5F0F0C5F0907EE9E0A3F5F0E0C0F0C0A7
:20410A00E0907EEBE0A3F5F0E0C0F0C0E0907EDAE0A3F5F0E0C0F0C0E0122D6C7FFA126A04
:20412A00E879217A00E754026003024147748775F000C0E0C0F012111215811581907EE947
:20414A00E0A3F5F0E0C5F02278FB126ADCE60886F0F52485F025E5248525F054FFC5F05455
:20416A007FC0F0C0E012044D15811581E5248525F05400C5F05480C5F045F0700302419126
:20418A0074FFF512024194E4F512227FFB7EFF1200F4E47F001200D8F0740075F07CC0E088
:2041AA00C0F0741075F073C0E0C0F0120B641581158115811581748775F0767F031200D87E
:2041CA00F0A3C5F0F0C5F0121FF7D20A7F031200D8E0A3F5F0E0C0F0C0E01212721581159F
:2041EA0081E4C0E0C0E012111215811581E52F8530F07F011200D8F0A3C5F0F0C5F074012A
:20420A0075F000C0E0C0F0120DB215811581F531126B0E126BC745F0601BE52F8530F07F05
:20422A00011200D8126C58C39BC5F09CC5F07B0A7C00126BFE45F07003024269438701743F
:20424A000175F000C0E0C0F01239271581158145F07003024263024269122007024208E59A
:20426A00317003024321E4C0E0C0E0120DB215811581F531121FF7E531126B0E7BFC126B26
:20428A0005126BEB70030242B97F001200D8E0547F60030242B3740375F000C0E0C0F01283
:2042AA001112158115810241C002448502430EE531126B0E7BFB126B05126BEB70030243CB
:2042CA000E7F001200D8E070030242F879147A7389828A83E0A3F5F0E0C5F054FFC5F054E3
:2042EA00F7C5F089828A83F0A3C5F0F0C5F0740675F000C0E0C0F012111215811581E4F59A
:20430A00F0024850740375F000C0E0C0F0121112158115810241C0E52F8530F07F0112002E
:20432A00D8126C58C39BC5F09CC5F07B0A7C00126C1770030243440241D47F001200D8E06F
:20434A0060030243B279207A00E75401700302437B740075F07CC0E0C0F0740875F073C0BE
:20436A00E0C0F0120B641581158115811581024398740075F07CC0E0C0F0740C75F073C030
:20438A00E0C0F0120B64158115811581158179207A00E7540170030243B27F001200D8E0A8
:2043AA0044807F001200D8F0121FF7740775F000C0E0C0F0123B7A15811581F52485F025D8
:2043CA00E5248525F07B007C80126BEB70030243DE0241D4E5248525F05400C5F05480C55F
:2043EA00F045F070030243F97401F52A0243FCE4F52AE5248525F054FFC5F0547FC0F0C017
:20440A00E012044D15811581741075F073C0E0C0F0740975F000C0E0C0F0120B6415811519
:20442A008115811581E52A700302443C1208D402443F120960740975F000C0E0C0F074101D
:20444A0075F073C0E0C0F0120B6415811581158115817F001200D8E0047F001200D8F01497
:20446A007828438701D8FB749175F0767F031200D8F0A3C5F0F0C5F00241D47F001200D83B
:20448A00E0547F126B0EC0E0C0F012044D15811581741075F073C0E0C0F0740975F000C0A7
:2044AA00E0C0F0120B6415811581158115811207C079207A00E75401700302450F791A7A8B
:2044CA0073C001C002740975F000C0E0C0F012022F15811581D083D082F0A3C5F0F0C5F0A9
:2044EA0079147A7389828A83E0A3F5F0E0C5F04400C5F04408C5F089828A83F0A3C5F0F0D9
:20450A00C5F002455479187A73C001C002740975F000C0E0C0F012022F15811581D083D07C
:20452A0082F0A3C5F0F0C5F079147A7389828A83E0A3F5F0E0C5F04408C5F04400C5F089F0
:20454A00828A83F0A3C5F0F0C5F078FB126ADCE6126B0E7B02126B05126BF47003024572FD
:20456A00740175F000024850749A75F0767F031200D8F0A3C5F0F0C5F0121FF77F031200BF
:20458A00D8E0A3F5F0E0C0F0C0E012127215811581E4C0E0C0E012111215811581E52F85C1
:2045AA0030F07F011200D8F0A3C5F0F0C5F0740175F000C0E0C0F0120DB215811581F5312D
:2045CA00126B0E126BC745F0601BE52F8530F07F011200D8126C58C39BC5F09CC5F07B0A70
:2045EA007C00126BFE45F07003024619438701740175F000C0E0C0F01239271581158145D9
:20460A00F070030246130246191220070245B8E531700302464B121FF7E531126B0E7BFBDE
:20462A00126B05126BEB70030246380242CB740375F000C0E0C0F0121112158115810245B0
:20464A0086E52F8530F07F011200D8126C58C39BC5F09CC5F07B0A7C00126C17700302461C
:20466A006E024586121FF7740575F000C0E0C0F0123B7A15811581F52485F025E524852546
:20468A00F07B007C80126BEB700302469A024586E5248525F07F011200D8F0A3C5F0F0C515
:2046AA00F0E5248525F0907EDCF0A3C5F0F0C5F0E4F5F0907EDEF0A3C5F0F0C5F0741475E7
:2046CA00F01E907EE0F0A3C5F0F0C5F079147A7389828A83E0A3F5F0E0C5F054F2C5F05409
:2046EA00FFC5F0907EE2F0A3C5F0F0C5F0E4907EE4F074A375F076907EE5F0A3C5F0F0C577
:20470A00F012233FF52685F027E5268527F07B007C80126BEB70030247270242CBE526856C
:20472A0027F0C0E0C0F012044D15811581740E75F000C0E0C0F0740975F000C0E0C0F012FE
:20474A000B6415811581158115817F011200D8E0A3F5F0E0C0F0C0E012044D1581158112E5
:20476A0007C079207A00E7540170030247E3740975F000C0E0C0F0740875F073C0E0C0F0A4
:20478A00120B641581158115811581791A7A7389828A83E0A3F5F0E0C0F0C0E0124152154C
:2047AA00811581120660740975F000C0E0C0F012022F15811581F52685F02745F07003025E
:2047CA0047E0791A7A73E5268527F089828A83F0A3C5F0F0C5F002484B740975F000C0E065
:2047EA00C0F0740C75F073C0E0C0F0120B64158115811581158179187A7389828A83E0A365
:20480A00F5F0E0C0F0C0E012415215811581120660740975F000C0E0C0F012022F15811510
:20482A0081F52685F02745F0700302484B79187A73E5268527F089828A83F0A3C5F0F0C5BF
:20484A00F0740175F0007F050200F278FB126ADCE60886F02402C5F03400C0F0C0E0126A02
:20486A009D1581158178FB126ADC26C5F00836C5F02403C5F03400C5F0F52885F029E5283F
:20488A008529F0227FFE7EFF1200F478F9126ADCE60886F0088603088604126BEB70030221
:2048AA00490478F9126ADC860108860289828A83E0A3F5F0E0C5F045F070030248F518E6C7
:2048CA000886F07F001200D8F0A3C5F0F0C5F018E60886F0C0E0C0F01248551581158178DB
:2048EA00F9126ADCF608A6F00248AC7F001200D8E0A3F5F0E0C5F002497878FB126ADCE6F9
:20490A000886F07F001200D8F0A3C5F0F0C5F07F001200D8E0A3F5F0E0C0F0C0E012485509
:20492A00158115817F001200D8F0A3C5F0F0C5F07F001200D8E0A3F5F0E0C5F078F9126A98
:20494A00DC8603088604126BEB700302496008E60886F00249787F001200D8E0A3F5F0E0F0
:20496A00C5F078FB126ADCF608A6F00249047F020200F278FB126ADCE60886F0C0E0C0F0D6
:20498A0012127215811581E52F8530F0241EC5F03400C5F0F52885F02979217A00E75401A7
:2049AA006007740275F0008005740575F000C0E0C0F0120DB215811581F5316003024A3EE8
:2049CA001264C345F07003024A21121FDF907ED8E0A3F5F0E0C5F04401C5F04400C5F09009
:2049EA007ED8F0A3C5F0F0C5F0907ED8E0A3F5F0E0C0F0C0E0E4C0E0C0E0122BF4158115EC
:204A0A008115811581E52F8530F0241EC5F03400C5F0F52885F029122007438701E52F85EE
:204A2A0030F0AB28AC29126C177003024A3B024A3E0249A3E531126B0E7B00126B05126B82
:204A4A00F47003024A77907ED8E0A3F5F0E0C5F054FEC5F054FFC5F0907ED8F0A3C5F0F012
:204A6A00C5F0121FF7E531126B0E024A7A02497D227FFE7EFF1200F4E4F5F07F001200D8CC
:204A8A00F0A3C5F0F0C5F078F9126ADCE60886F0F52685F02778FB126ADCE60886F045F0D7
:204AAA006007181818E60886F045F07003024ADE748E75F07EC0E0C0F078F9126ADCE6081B
:204ACA0086F0C0E0C0F0126A6F1581158115811581024B05748E75F07E78F9126ADC86033A
:204AEA00088604126BF47003024B05E4F5F0798E7A7E126AFEE489828A83F078F9126ADCED
:204B0A00E60886F045F07003024BAA748E75F07EC0E0C0F0126A9D15811581F52AE526855F
:204B2A0027F0F52885F029A928AA2989828A83E0126B0E45F06014A928AA2989828A83E02D
:204B4A00126B0E7B2C126B05126BF445F07003024B958016E52A052AE5288529F0126BADF3
:204B6A00F52885F029126BB680BDE52A798E7A7E75F000126AFEC001C002A928AA298982E1
:204B8A008A83E0D083D082F0024B5EE52A798E7A7E75F000126AFEE489828A83F0024C2097
:204BAA0078FB126ADC8601088602C001C0027F001200E6E98AF0C0E0C0F078FB126ADC860B
:204BCA0082088683126B3B1581158115811581F52885F029E5288529F045F06003024BF2EB
:204BEA0074FE75F0FF024F31748E75F07EAB28AC29126BF47003024C20748E75F07EC0E0EF
:204C0A00C0F0E5288529F0C0E0C0F0126A6F1581158115811581748E75F07EC0E0C0F01255
:204C2A00497D15811581F531E531126B0E904F16026B177F001200D8E0A3F5F0E0C5F012C0
:204C4A006BAD7F001200D8F0A3C5F0F0C5F0126BB678F9126ADCE60886F045F07003024C86
:204C6A00D9E5268527F0F52885F029A928AA2989828A83E0126B0E45F06014A928AA2989F2
:204C8A00828A83E0126B0E7B2C126B05126BF445F07003024CB3E5288529F0126BADF528DB
:204CAA0085F029126BB6024C75A928AA2989828A83E06003024CC4024A82E5288529F024A8
:204CCA0001C5F03400C5F0F52685F027024D1278FB126ADC8601088602C001C0027F00121D
:204CEA0000E6E98AF0C0E0C0F078FB126ADC8682088683126B3B158115811581158145F0E8
:204D0A006003024D12024A82024F2E78F9126ADCE60886F045F06003024D967F001200D865
:204D2A00E0A3F5F0E0C5F0126BB67F001200D8F0A3C5F0F0C5F0126BAD088601088602C0DA
:204D4A0001C0027F001200E6E98AF0C0E0C0F078FB126ADC8682088683126B3B1581158194
:204D6A001581158145F06003024D937F001200D8E0A3F5F0E0C5F0126BAD7F001200D8F09A
:204D8A00A3C5F0F0C5F0126BB6024F2EE5268527F078F9126ADC8603088604126BEB7003F4
:204DAA00024E2EE5268527F0F52885F029A926AA2789828A83E07003024E21A926AA278964
:204DCA00828A83E0126B0E7B2C126B05126BEB7003024E0E7F001200D8E0A3F5F0E0C5F007
:204DEA00126BAD7F001200D8F0A3C5F0F0C5F0126BB6E5268527F02401C5F03400C5F0F597
:204E0A002885F029E5268527F0126BADF52685F027126BB6024DB7E5288529F0F52685F0C6
:204E2A0027024EC8E5268527F0C39402C5F09400C5F0F52685F027E5268527F078F9126AE0
:204E4A00DC8603088604126BF46014A926AA2789828A83E0126B0E7B2C126B05126BF4456A
:204E6A00F07003024E83E5268527F0126BB6F52685F027126BAD024E417F001200D8E0A3BA
:204E8A00F5F0E0C5F0126BB67F001200D8F0A3C5F0F0C5F0126BADE5268527F078F9126A47
:204EAA00DC8603088604126BF47003024EC8E5268527F0126BADF52685F027126BB6024FE9
:204ECA002E740175F000C0E0C0F0120DB2158115817003024EED1220077801438701D8FB73
:204EEA00024ECB7F001200D8E0A3F5F0E0C5F0024F3174FFF5F0024F31744375F000C0E00F
:204F0A00C0F012111215811581024F2E034FFAFFFC4EFBFFCB4EFCFF154DFFFF3D4CFEFF6E
:204F2A000000034F024A9F7F020200F27FFE7EFF1200F478FB126ADC860108860289828A3E
:204F4A0083E0A3F5F0E0C5F0F52485F025E5248525F07B637C00126C0E7003024F70E4F57E
:204F6A00F0F52485F02578FB126ADC860108860289828A83E0A3F5F0E0C5F07B007C001284
:204F8A006BCB7003024F9B746375F000F52485F025E5248525F090501E026B17741175F074
:204FAA00767F001200D8F0A3C5F0F0C5F002502A741575F0767F001200D8F0A3C5F0F0C5D5
:204FCA00F002502A748E75F07E2410C5F03400C0F0C0E0744E75F07CC0E0C0F0E524852563
:204FEA00F02401C5F03400C0F0C0E0740375F000126A4B7FFA126AE8748E75F07E2410C5FB
:20500A00F03400C5F07F001200D8F0A3C5F0F0C5F002502ABA4F6300A64F00000000CE4F5D
:20502A0078FB126ADC8601088602E5248525F089828A83F0A3C5F0F0C5F0748E75F07EC037
:20504A00E0C0F0741A75F076C0E0C0F07F001200D8E0A3F5F0E0C0F0C0E0740375F000120E
:20506A006A4B7FFA126AE8748E75F07E7F020200F279227A7378FB126ADCE675F000898291
:20508A008A83F0A3C5F0F0C5F07B017C00126C0E70030250F379147A7389828A83E0A3F5C6
:2050AA00F0E0C5F04402C5F04400C5F089828A83F0A3C5F0F0C5F079207A73E4F5F089820E
:2050CA008A83F0A3C5F0F0C5F0740075F07CC0E0C0F0741C75F073C0E0C0F0120B64158158
:2050EA0015811581158102512779227A73E4F5F089828A83F0A3C5F0F0C5F079147A738911
:20510A00828A83E0A3F5F0E0C5F054FDC5F054FFC5F089828A83F0A3C5F0F0C5F022E531AE
:20512A00126B0E7BFF126B05126BEB7003025182E475F075907ED3F0A3C5F0F0C5F0907E94
:20514A00D1F0A3C5F0F0C5F0907ED3E0A3F5F0E0C0F0C0E0907ED1E0A3F5F0E0C0F0C0E097
:20516A0012488E1581158115811581907ED3F0A3C5F0F0C5F00251C8E531126B0E7BFB12D3
:20518A006B05126BEB70030251B0749275F075907ED3F0A3C5F0F0C5F0907ED1F0A3C5F0E2
:2051AA00F0C5F00251C8E475F075907ED3F0A3C5F0F0C5F0907ED1F0A3C5F0F0C5F0E49059
:2051CA007ED7F0907ED7E060030253DE907ED3E0A3F5F0E0C5F02402C5F03400C5F0F5246A
:2051EA0085F025A924AA2589828A83E0126B0E7B65126B05126BEB7003025240748E75F0B4
:20520A007EC0E0C0F0745175F07CC0E0C0F0741575F076C0E0C0F0E5248525F02401C5F08F
:20522A003400C0F0C0E0740475F000126A4B7FF8126AE802525D748E75F07EC0E0C0F0E596
:20524A00248525F0C0E0C0F0126A6F1581158115811581748E75F07EC0E0C0F012497D15D1
:20526A00811581F531E531126B0E9053C3026B17907ED3126C5F89828A83E0A3F5F0E0C539
:20528A00F07BFF7CFF126BEB700302529DE4F5F0025876907ED3126C5F89828A83E0A3F56C
:2052AA00F0E0C5F07B007C01126BFE70030252D2907ED3126C5F89828A83E0A3F5F0E0C570
:2052CA00F0907ED7F00253DB907ED3126C5F89828A83E0A3F5F0E0C5F0907ED1F0A3C5F0D5
:2052EA00F0C5F0907ED3F0A3C5F0F0C5F00251CD907ED3E0A3F5F0E0C0F0C0E012485515D4
:20530A00811581907ED3F0A3C5F0F0C5F0907ED3126C5F89828A83E0A3F5F0E0C5F045F096
:20532A006003025343907ED1E0A3F5F0E0C5F0907ED3F0A3C5F0F0C5F00253DB907ED3E0CD
:20534A00A3F5F0E0C0F0C0E0907ED1E0A3F5F0E0C0F0C0E012488E15811581158115819044
:20536A007ED3F0A3C5F0F0C5F00253DB907ED1E0A3F5F0E0C5F07B007C75126BEB70030290
:20538A005392E4F5F0025876E475F075907ED3F0A3C5F0F0C5F0907ED1F0A3C5F0F0C5F02D
:2053AA000253DB12216D744375F000C0E0C0F0121112158115810251CDAD53FAFF7653FB69
:2053CA00FF4653FFFFFA52FEFF7A52FCFF0000B0530251CD907ED7E075F00090583F026B3C
:2053EA0017907ED7E075F0007B0B7C00126BEB6007740175F0008005740275F000907ED772
:20540A00F0907ED7E075F000C0E0C0F01241951581158145F0700302544A743A75F076C073
:20542A00E0C0F012127215811581E4C0E0C0E012111215811581781E438701D8FB02538C76
:20544A00025873746675F077C0E0C0F0E4C0E0C0E0124A7B1581158115811581F52485F08E
:20546A0025E5248525F09054CA026B1779147A7389828A83E0A3F5F0E0C5F054FFC5F0543D
:20548A00F7C5F089828A83F0A3C5F0F0C5F0740075F07CC0E0C0F0740875F073C0E0C0F008
:2054AA00120B641581158115811581791A7A73E4F5F089828A83F0A3C5F0F0C5F00251B0B8
:2054CA00765400000000C75402538C74FFF5F0907E8AF0A3C5F0F0C5F074FF75F07F907EBA
:2054EA008CF0A3C5F0F0C5F0E4C0E0C0E0743675F04FC0E0C0F0124A7B15811581158115A9
:20550A0081F52AE52A75F0007B557C00126BEB700CE52A75F0007B637C00126BEB45F07062
:20552A00030255310251B0E52A240175F000C0E0C0F012507B1581158102538C79147A7386
:20554A0089828A83E0A3F5F0E0C5F0541FC5F054FFC5F089828A83F0A3C5F0F0C5F079146A
:20556A007A7389828A83E0A3F5F0E0C5F04480C5F04400C5F089828A83F0A3C5F0F0C5F0A8
:20558A0002538C79147A7389828A83E0A3F5F0E0C5F0541FC5F054FFC5F089828A83F0A3B6
:2055AA00C5F0F0C5F079147A7389828A83E0A3F5F0E0C5F04440C5F04400C5F089828A83AE
:2055CA00F0A3C5F0F0C5F002538C740B75F076C0E0C0F012127215811581740075F073C07B
:2055EA00E0C0F0E4C0E0C0E0742C75F000C0E0C0F0126AB97FFA126AE879147A7389828A77
:20560A0083E0A3F5F0E0C5F04480C5F04400C5F089828A83F0A3C5F0F0C5F0E4C0E0C0E065
:20562A00120D0B15811581744075F000C0E0C0F0121112158115810251B0025873748E75F9
:20564A00F07EC0E0C0F0745675F07CC0E0C0F079067A7289828A83E0A3F5F0E0C0F0C0E06C
:20566A00740375F000126A4B7FFA126AE8748E75F07EC0E0C0F012497D158115810258739A
:20568A00748E75F07EC0E0C0F0745975F07CC0E0C0F0742475F000C0E0C0F07403126A4B42
:2056AA007FFA126AE8748E75F07EC0E0C0F012497D1581158102587379087A7289828A8378
:2056CA00E0A3F5F0E0C5F0907EDCF0A3C5F0F0C5F0E4F5F0907EDEF0A3C5F0F0C5F074FFD7
:2056EA0075F000907EE0F0A3C5F0F0C5F074FFF5F0907EE2F0A3C5F0F0C5F0E4907EE4F065
:20570A00744075F077907EE5F0A3C5F0F0C5F012233FF52485F025E5248525F07B007C80CE
:20572A00126BF4700302574679087A72E5248525F089828A83F0A3C5F0F0C5F00258737981
:20574A00067A7289828A83E0A3F5F0E0C5F0907EDCF0A3C5F0F0C5F0E4F5F0907EDEF0A319
:20576A00C5F0F0C5F074FFF5F0907EE0F0A3C5F0F0C5F074FFF5F0907EE2F0A3C5F0F0C54D
:20578A00F0E4907EE4F0744475F077907EE5F0A3C5F0F0C5F012233FF52485F025E5248520
:2057AA0025F07B007C80126BF470030257CC79067A72E5248525F089828A83F0A3C5F0F0EC
:2057CA00C5F0025873E4C0E0C0E0120DB2158115816003025839740175F000C0E0C0F012EA
:2057EA0034FE15811581748E75F07EC0E0C0F0745F75F07CC0E0C0F0740275F00079327A08
:20580A0000126AFEE70987F0C0E0C0F0740375F000126A4B7FFA126AE8748E75F07EC0E048
:20582A00C0F0121272158115814387010257CF0258730251B0CF57150049571400C256130F
:20584A00008A56120047561100D45510008D550F0046550E00D5540D004D540C00EB530AA0
:20586A0000EB530B0000003C580251C82278FB126ADC860108860289828A83E075F0009035
:20588A005D33026B1779877A7D742475F00089828A83F0A3C5F0F0C5F079897A7DE52F855F
:2058AA0030F089828A83F0A3C5F0F0C5F0798B7A7D740A75F00189828A83F0A3C5F0F0C5C5
:2058CA00F0798D7A7DC001C00279067A7289828A83E0A3F5F0E0C5F0D083D082F0A3C5F0E1
:2058EA00F0C5F0126716798F7A7DC001C002748E75F07ED083D082F0A3C5F0F0C5F07405F8
:20590A0075F000025D5678FB126ADC8601088602740475F000126AFEE98AF0F52885F0290C
:20592A00E5288529F02402C5F03400C5F0F9AAF089828A83E0A3F5F0E0C5F0F52485F02593
:20594A00748775F07DC0E0C0F0A928AA2989828A83E0A3F5F0E0C0F0C0E0E5248525F0C356
:20596A0033C5F033C0F0C0E01220517FFA126AE8E5248525F0025D5678FB126ADC860108A0
:20598A008602740475F000126AFE740275F000126AFE89828A83E0A3F5F0E0C5F07B017CBC
:2059AA0000126B8EF52685F02778FB126ADC8601088602740475F000126AFE740275F00007
:2059CA00126AFE89828A83E0A3F5F0E0C5F05400C5F05480C5F045F070030259F7E5268512
:2059EA0027F0126BB6F52685F027126BAD78FB126ADC8601088602740475F000126AFEE455
:205A0A00F5F0126AFE89828A83E0A3F5F0E0C0F0C0E078F9126ADC8601088602740475F0B0
:205A2A0000126AFE740475F000126AFEE98AF0C0E0C0F0E5268527F0C0E0C0F01220517FDF
:205A4A00FA126AE8E4F5F0025D56E4F5F0907C80F0A3C5F0F0C5F079977A7DC001C0027420
:205A6A000175F000C0E0C0F01234FE15811581D083D082F0A3C5F0F0C5F0E4F52AE52A75DD
:205A8A00F0007B057C00126BFE7003025ADC8006E52A052A80E779877A7DE52A75F000C391
:205AAA0033C5F033C5F0126AFEC001C002E52A75F000C333C5F033C5F079327A00126AFE69
:205ACA00E70987F0D083D082F0A3C5F0F0C5F0025A9A1232E6F52485F025E5248525F0C08D
:205AEA00E0C0F0E4C0E0C0E0E4C0E0C0E0122D6C7FFA126AE8E52A240175F000025D567975
:205B0A00877A7DE475F07089828A83F0A3C5F0F0C5F0740175F000025D5679877A7D741530
:205B2A0075F00089828A83F0A3C5F0F0C5F079897A7D746875F00089828A83F0A3C5F0F067
:205B4A00C5F0748D75F07DC0E0C0F0740075F072C0E0C0F0746875F000C0E0C0F0122051A4
:205B6A007FFA126AE8798B7A7DC001C002740075F072C0E0C0F0743475F000C0E0C0F012B6
:205B8A000C891581158115811581D083D082F0A3C5F0F0C5F0743775F000025D5678FB1232
:205BAA006ADC8601088602740475F000126AFEE4F5F0126AFE89828A83E0A3F5F0E0C5F0CF
:205BCA007B157C00126BF47003025BED79877A7D740175F00089828A83F0A3C5F0F0C5F0AB
:205BEA00025D1B78FB126ADC8601088602740475F000126AFE740275F000126AFE89828AFE
:205C0A0083E0A3F5F0E0C5F07B687C00126BF47003025C3579877A7D740275F00089828ABD
:205C2A0083F0A3C5F0F0C5F0025D1B78FB126ADC8601088602740475F000126AFE74067548
:205C4A00F000126AFEE98AF0C0E0C0F0743475F000C0E0C0F0120C891581158115811581C1
:205C6A0078FB126ADC8601088602C0E0C0F0740475F000126AFE740475F000126AFED0F07A
:205C8A00D0E089828A83126C58126BF47003025CB279877A7D740375F00089828A83F0A3EA
:205CAA00C5F0F0C5F0025D1B740075F072C0E0C0F078F9126ADC8601088602740475F000AE
:205CCA00126AFE740675F000126AFEE98AF0C0E0C0F0746875F000C0E0C0F01220517FFAA7
:205CEA00126AE879877A7DE4F5F089828A83F0A3C5F0F0C5F0740175F000025D5679877A68
:205D0A007D740175F00089828A83F0A3C5F0F0C5F079847A7D89828A83E0440489828A83D1
:205D2A00F0740175F000025D56A75B8900245B8800095B0900545A040082590300105902E0
:205D4A00008F5800000000075DE4F5F022E4907EF4F0121FF7126716748E75F07EC0E0C031
:205D6A00F012127215811581E4C0E0C0E01211121581158112384E121FF7E4F5F0907EF05B
:205D8A00F0A3C5F0F0C5F0E4F5F0907EF2F0A3C5F0F0C5F0E475F080907EE9F0A3C5F0F05E
:205DAA00C5F074F0F52D0261901264C345F07003025E0FE52F8530F0242CC5F03401C5F0B3
:205DCA00907EF0F0A3C5F0F0C5F0907ED8E0A3F5F0E0C5F04401C5F04400C5F0907ED8F022
:205DEA00A3C5F0F0C5F0907ED8E0A3F5F0E0C0F0C0E0E4C0E0C0E0122BF415811581158107
:205E0A001581121FDF122007740175F000C0E0C0F0120DB215811581F5316003025F4AE559
:205E2A002F8530F0907EF0126C58126C0E7003025F44907ED8E0A3F5F0E0C5F054FEC5F022
:205E4A0054FFC5F0907ED8F0A3C5F0F0C5F0E4C0E0C0E01239271581158145F07003025F92
:205E6A002DE4C0E0C0E0123B7A15811581907EE9F0A3C5F0F0C5F079147A7389828A83E07E
:205E8A00A3F5F0E0C5F05401C5F05400C5F045F07003025EBB1220377B0A7C00126B5B249F
:205EAA0002C5F03400C5F0907EF2F0A3C5F0F0C5F0121FF779147A7389828A83E0A3F5F029
:205ECA00E0C5F05403C5F05400C5F07B027C00126BEB604579167A7389828A83E0A3F5F00C
:205EEA00E0C5F05401C5F05400C5F0126BC745F0602779207A7389828A83E0A3F5F0E0C545
:205F0A00F0126BC745F06011907E8CE0A3F5F0E0C5F07BFF7C7F126BF445F07003025F2DEA
:205F2A00026084E52F8530F02403C5F03400C5F0907EF0F0A3C5F0F0C5F04387010261D901
:205F4A00E531126B0E7BFC126B05126BEB7003025F6DE4C0E0C0E0120DB215811581F531AD
:205F6A00025F8F79217A00E754016007740275F0008005740575F000C0E0C0F0120DB215FC
:205F8A00811581F531121FF779147A7389828A83E0A3F5F0E0C5F05403C5F05400C5F07B73
:205FAA00027C00126BEB603A79167A7389828A83E0A3F5F0E0C5F05401C5F05400C5F012A1
:205FCA006BC745F0601CE531126B0E7BFF126B05126BEB700DE531126B0E7BFE126B0512A4
:205FEA006BEB45F0700302614979207A7389828A83E0A3F5F0E0C5F045F07011907E8CE022
:20600A00A3F5F0E0C5F07BFF7C7F126BEB45F07003026031740375F000C0E0C0F0121112E0
:20602A0015811581025DB3E531126B0E90613D026B17907EF4E075F0007B007C00126BEB1F
:20604A0070030260587402907EF4F002606D907EF4E0C3940175F0007B037C00126B5490D8
:20606A007EF4F0026084907EF4E0240175F0007B037C00126B54907EF4F0907EF4E075F05E
:20608A00007B017C00126BEB70030260C8907E8CE0A3F5F0E0C0F0C0E0741E75F077C0E0B9
:2060AA00C0F079147A7389828A83E0A3F5F0E0C0F0C0E0122D6C7FFA126AE802613A907EC9
:2060CA00F4E075F0007B027C00126BEB700302610C907E8AE0A3F5F0E0C0F0C0E0742375FE
:2060EA00F077C0E0C0F079147A7389828A83E0A3F5F0E0C0F0C0E0122D6C7FFA126AE8022B
:20610A00613A907EE9E0A3F5F0E0C0F0C0E074AD75F077C0E0C0F079147A7389828A83E08C
:20612A00A3F5F0E0C0F0C0E0122D6C7FFA126AE8025DB37060FEFF3C60FFFF00004961E50D
:20614A0031126B0E906188026B1774FCF531E531126B0EC0E0C0F0125128158115817404C6
:20616A00F52A79147A7389828A83E0A3F5F0E0C5F0907EDAF0A3C5F0F0C5F00261905461EA
:20618A00FCFF00009061907EE9E0A3F5F0E0C0F0C0E079147A7389828A83E0A3F5F0E0C5DB
:2061AA00F04400C5F04480C0F0C0E0120D0C15811581C0E0C0F079147A7389828A83E0A31C
:2061CA00F5F0E0C0F0C0E0122D6C7FFA126AE8025DB3227FFE7EFF1200F4121AB17F001276
:2061EA0000D8F0A3C5F0F0C5F07BFF7CFF126BF4700302633E7F001200D8E0A3F5F0E0C5DE
:20620A00F0F52A79207A00E7540460030262C8E52A75F0009062BC026B1779207A00E75490
:20622A0008126B0E45F0700E907E87E075F0007B037C00126BFE45F07003026258C203E4B2
:20624A00907E87F0E4907E88F0C2020261E4907E88E075F0007B007C00126BF47031907E48
:20626A0087E0C3940575F000C3C5F013C5F013C0E0C0F0740375F00079847A7C126AFED030
:20628A00F0D0E089828A83126C547C00126BF445F070030262A3026247E4907E88F0907EAB
:2062AA0087F0748475F07C026341D2020261E40262C8B462DB002462C0000000B9627920AC
:2062CA007A00E7540470030262FEC202E52A75F0009062F2026B1774C0F52A0262FE74DB82
:2062EA00F52A0262FE0261E4E862DD00E162DC000000EF62907E88E0252A907E88F0907EDC
:20630A0087E075F0007BFF7C00126BFE7003026339907E87E004907E87F01479847A7C75AB
:20632A00F000126AFEE52A89828A83F002633BD2030261E4E4F5F07F020200F27FFE7EFFDE
:20634A001200F478F9126ADC8601088602740375F000126AFE78FB126ADCE6F52C89828A90
:20636A0083F0E52C75F0007B017C00126B8EF52CE52C2404F52C1818E60886F07F00120087
:20638A00D8F0A3C5F0F0C5F0E4F52A74C075F000C0E0C0F0121A6915811581E52C152C70BF
:2063AA000302643C7F001200D8E0A3F5F0E0C5F0126BAD7F001200D8F0A3C5F0F0C5F01236
:2063CA006BB6F9AAF089828A83E0F52BE52A252BF52AE52B75F0007BC07C00126BEB700362
:2063EA0002640474DB75F000C0E0C0F0121A691581158174DCF52B026429E52B75F0007B75
:20640A00DB7C00126BEB700302642974DB75F000C0E0C0F0121A691581158174DDF52BE596
:20642A002B75F000C0E0C0F0121A69158115810263A5E52A126B0EFBACF0E475F001C39BCE
:20644A00C5F09CC5F0F52BE52B75F0007BC07C00126BEB700302647974DB75F000C0E0C012
:20646A00F0121A691581158174DCF52B02649EE52B75F0007BDB7C00126BEB700302649EC7
:20648A0074DB75F000C0E0C0F0121A691581158174DDF52BE52B75F000C0E0C0F0121A6962
:2064AA001581158174C075F000C0E0C0F0121A69158115817F020200F27FFD7EFF1200F488
:2064CA00E47F021200D8F01261DD7F001200D8F0A3C5F0F0C5F045F0700302663C7F0212EE
:2064EA0000D8E0047F021200D8F0147F001200D8126C5F740275F000126AFE89828A83E0D4
:20650A0075F000907E89126C547C00126BEB601779857A7D89828A83E075F000907E89124D
:20652A006C547C00126BEB45F0700302655F748375F07DC0E0C0F079867A7D89828A83E028
:20654A0075F000C0E0C0F012634615811581158115810264D179847A7DC001C0027F00122A
:20656A0000D8126C5F740175F000126AFE89828A83E0D083D082F07F001200D8126C5F74C1
:20658A000275F000126AFE89828A83E0907E89F079837A7DC001C0027F001200D8126C5FD5
:2065AA0089828A83E0D083D082F07F001200D8E0A3F5F0E0C0F0C0E012587715811581F541
:2065CA002A7F001200D8126C5F740175F000126AFE89828A83E0540270030265EA0264D1A4
:2065EA0079857A7DC001C0027F001200D8126C5F740275F000126AFE89828A83E0D083D063
:20660A0082F079847A7D89828A83E0440189828A83F0748375F07DC0E0C0F0E52A75F00028
:20662A00C0E0C0F012634615811581158115810264D17F021200D8E075F0007F030200F290
:20664A007FFE7EFF1200F47480F5A8740875F0007F001200D8F0A3C5F0F0C5F07F001200D7
:20666A00D8E0A3F5F0E0C5F07B207C00126BFE70030266AD80207F001200D8E0A3F5F0E0D0
:20668A00C5F0126BAD7F001200D8F0A3C5F0F0C5F0126BB680C67F001200D8126C5FE4F721
:2066AA00026680E59044404480F590E4F5F0907ED8F0A3C5F0F0C5F0C2051219B0120FF354
:2066CA0074B4F51E74FFF5A0E5B04444F5B0740175F000C0E0C0F0E4C0E0C0F0E4C0E0C009
:2066EA00E012181C7FFA126AE8E4907E87F0740175F000907C80F0A3C5F0F0C5F0907C8243
:20670A00F0A3C5F0F0C5F07F020200F2900032798E7A7E7B107C00EB4C601CE493A3CAC5E9
:20672A0083CAC9C582C9F0A3CAC583CAC9C582C91BBBFFE31C80E0222212664A12671674A4
:20674A008E75F07EC0E0C0F01212721581158174FFF5F0C0E0C0F0740175F000C0E0C0F0DA
:20676A00122BF41581158115811581121FF7E4C0E0C0E01211121581158179087A72898261
:20678A008A83E0A3F5F0E0C5F05401C5F05400C5F045F060030267D4E4F52CE52C75F00082
:2067AA007B0C7C00126BFE70030267D18006E52C052C80E7740275F000C0E0C0F01234FE06
:2067CA00158115810267B80267D7438701740175F000C0E0C0F0120DB215811581126B0EA5
:2067EA007B00126B05126BF470030268D9740175F000C0E0C0F0120DB215811581126B0EB9
:20680A007B00126B05126BF470030268D94387011220377B327C00126C0E70030268D6E4CA
:20682A00C0E0C0E0120DB215811581438701E4C0E0C0E012111215811581740175F000C027
:20684A00E0C0F0120DB215811581126B0E7B00126B05126BF4700302686A438701026844E8
:20686A00740175F000C0E0C0F0120DB21581158160030268951264C345F0700302688C129C
:20688A001FF712200743870102686AE4C0E0C0E0120DB215811581F531E531126B0E7BFF9E
:2068AA00126B05126BEB700DE531126B0E7BFB126B05126BEB45F070030268D6E531126BEB
:2068CA000EC0E0C0F0125128158115810267F7125D5722126A24868208868308E4FEFFE0CF
:2068EA007006126A24E4F022B42551A3E0B42D05430780A3E0B4300343074024D0B40A007F
:20690A00500BCE75F00AA42EFEA3E080EEE0B46413E60886F030F708430720126BBDA6F03C
:20692A0018F68003B4750543070A8021B478054307108019B46F104307088011126A24F0CF
:20694A00A3126A24A38095B462624307027A00C004C005C006C007AB0753031F7C00E6084D
:20696A0086F0126B5BA6F018F6EDD007D006D005D0042430B43A0040022407C0E00AE64554
:20698A00F070CC126A24A902EF30E505742DF0A30A126A2DD0E0F0A3D9FA0808EF30E7A1B9
:2069AA00EAC39E509C7420F0A30A80F4B4630DAA01126A24126A2DE6F0A380DEB47331C0EA
:2069CA0082C08386820886837A00E06004A30A80F98683188682126A24126A2D126A24E0F9
:2069EA00A3126A246004F0A380F2D005D00480AAB4691B86017A00E76004090A80F9126A82
:206A0A0024126A2D8601E76091F009A380F8F97A01126A24126A2DE9809ECDC583CDCCC5F5
:206A2A0082CC22EE601A8FF020F715C002EAC39E500C742030F6027430F0A30A80EFD00222
:206A4A002223F42581F88682088683080268DDD2AF22C2AF2278F9126ADC8682088683E0F5
:206A6A00600DA380FA78F9126ADC8682088683088601088602C9C582C9CAC583CAE0A3C980
:206A8A00C582C9CAC583CAF06003A380E8E5828583F02278FB126ADC8682088683E4F5F074
:206AAA00FAE06009A30ABA00F805F080F4EA2278F7126ADC868208868308860708088603A7
:206ACA00088604EB4C600AEFF0A31BBBFFF51C80F222C82581C822C92581C97A0022D083FE
:206AEA00D082CF2581F581CFC082C08322CF2581F581CF2229F9E5F03AFA227C00CB30E752
:206B0A00011CCB2275F00030E70215F022FDE493A3FEE493A3FF4E7009E493FE740193FF4B
:206B2A00800BE493A3B5050BE493B5F0068F838E82E473A380D8FEEBA4FD8EF0ECA4FCEBCC
:116B4A008EF0A4C5F02C2DC5F022126B5B8EF0ED22CE
:206B5B00C002C001AAF0F97E007D007F11C3E933F9EA33FADF08F5F0E9D001D00222ED33F0
:206B7B00FDEE33FEC3ED9BF5F0EE9C40E0ADF0FED380DBBB000122C333C5F033C5F0DBF7F8
:206B9B0022BB000122C3C5F013C5F013DBF722126BAD04700205F022126BB614B4FF0215CB
:206BBB00F022126BB6F4C5F0F4C5F02245F08023126C1E4029801E126C1E40227017801E63
:206BDB00126C1E40107017800C126C1E50108005126C326009E4F5F022126C3260F7E4F536
:206BFB00F00422126C3240F680EB126C3240EF70E480EB126C3240DD70E480D9126C3250FB
:206C1B00DD80D2C39BC5F09C20E70720D207C345F02220D2F9D322C5F0C39C7003E5F09B83
:206C3B0022907EF5E0A360F8E0FFA3E0A3CF2582F582EF3583F58380EBFBE0CB22FCE0FB1E
:206C5B00A3E0CC22FAE0F9A3E0CA220000000048C34F813827C5A03ECCCCCE4220000010B1
:206C7B0027E80364000A00010080252575002D2D2D0025642E003025640025640025640030
:206C9B00257325642E002000002564002564002020202000257325730025640025732573EF
:0F6CBB00002575003146202578004620257500FC
:00000001FF
