:020000000132CB
:20003200E58775C7AA75C7555387FBF5F0E5C6540F44F075C7AA75C75543C602F5C675C756
:20005200AA75C75553C6FD43C60478227400F608B841FBE5F054105320EF42207581407588
:2000720022FE75231C907CD779007A147B087C02EB4C601CE493A3CAC583CAC9C582C9F03D
:20009200A3CAC583CAC9C582C91BBBFFE31C80E090186FE4F01279DB75C7AA75C75543C6F1
:2000B20002E504F0A3E505F075C7AA75C75553C6FD2212001B80FBC82581C822C92581C9EF
:2000D2007A0022D083D082CF2581F581CFC082C08322CF2581F581CF22FBE0CB22FCE0FBF1
:2000F200A3E0CC22FAE0F9A3E0CA2229F9E5F03AFA227C00CB30E7011CCB2275F00030E70A
:200112000215F022FDE493A3FEE493A3FF4E7009E493FE740193FF800BE493A3B5050BE4E5
:2001320093B5F0068F838E82E473A380D8FEEBA4FD8EF0ECA4FCEB8EF0A4C5F02C2DC5F097
:200152002231598EF0ED22C002C001AAF0F97E007D007F11C3E933F9EA33FADF08F5F0E90F
:20017200D001D00222ED33FDEE33FEC3ED9BF5F0EE9C40E0ADF0FED380DBBB000122C333F5
:20019200C5F033C5F0DBF722BB000122C3C5F013C5F013DBF722240280022401C5F03400E1
:2001B200C5F022C394028003C39401C5F09400C5F02231BAF4C5F0F4C5F02245F0702204D8
:2001D20022511C4024801A511C401E7014801A511C400E7014800A511C500E80045130609E
:2001F20008E4F5F022513060F8E4F5F00422513040F780ED513040F170E780ED513040E1F5
:2002120070E780DD513050E180D7C39BC5F09C20E70720D207C345F02220D2F9D322C5F0AA
:20023200C39C7003E5F09B2290186FE0A360EEE0FFA3E0A3CF2582F582EF3583F58380EBE4
:200252007E00CF2522F582EE3523F583EF227E00CF2522F9EE3523FAEF227E00C5222FC57B
:2002720022C5233EC5232278F91200C9E60886F0C0E0C0F0740975F000C0E0C0F0120A8844
:20029200158115811581158178FB1200C9E60886F0C0E0C0F0740E75F000C0E0C0F0120A9F
:2002B200881581158115811581E50D12010DAB121201041201F770030202D3E4F5F0020245
:2002D200D61202D722E509B50E15E50AB50F10E50BB5100BE50CB51106C3E4F5F00422E48D
:2002F200F5F02278F91200C9E60886F0C0E0C0F0740975F000C0E0C0F0120A8815811581E3
:200312001581158178FB1200C9E60886F0C0E0C0F0740E75F000C0E0C0F0120A8815811517
:200332008115811581E50D600302034FE5126007740175F000800312035F02035EE512606C
:200352000812035F1201CD8003E4F5F0221202D740057003740122E42278FB1200C9E60845
:2003720086F0C0E0C0F0740975F000C0E0C0F0120A881581158115811581C374879509F823
:20039200400EE50D700A08E50A03D8FD75F0002275F0012278FB1200C9E60886F0C0E0C0A1
:2003B200F0740975F000C0E0C0F0120A881581158115811581C3748E9509F840D305000892
:2003D200E50B850AF0C3C5F013C5F013D8F7C0E0E50D6006E5F04480F5F0D0E02275F001CC
:2003F20022740075F014C0E0C0F078F91200C9E60886F0C0E0C0F0120A8815811581158126
:20041200158122740E75F000C0E0C0F01203F31581158178FB1200C986060886077810E5CB
:20043200075480700FE506C333F506E50733F507D8EF800DE507F50FE506F510E82480F5A4
:200452000E22E50FF50AE510F50BE511F50CC3E51133F511E51033F510E50F33F50FE4331A
:20047200F5F0E51133F511E51033F510E50F33F50FE5F033F5F0E511250CF511E510350BAF
:20049200F510E50F350AF50FE435F0F5F0E51133F511E51033F510E50F33F50FE5F033F59C
:2004B200F022E50D6007740175F0008003E4F5F02278FB1200C9E60886F0C0E0C0F07409F8
:2004D20075F000C0E0C0F0120A881581158115811581F875F000E6700E08E6700A08E670D2
:2004F2000608E670020422E42274091204E4701EE50A20E719C31509E5096014E50C33F5E8
:200512000CE50B33F50BE50A33F50A30E7E8C322D32278F91200C9E60886F0C0E0C0F0742C
:200532000975F000C0E0C0F0120A88158115811581158178FB1200C9E60886F0C0E0C0F0ED
:20055200740E75F000C0E0C0F0120A881581158115811581120587740975F000C0E0C0F086
:20057200741375F000C0E0C0F0120A88158115811581158122E5096004E50E700CE4F50D68
:20059200F509F50AF50BF50C22E50D6512F50DE509250E30E70850177517010205B5400F7F
:2005B200751702E4F50DF509F50AF50BF50C222480F509120602ED20E70EEC33FCEF33FF9B
:2005D200EE33FEED33FD1509EC33501574012FFF700F74012EFE7009E43DFD500413FD0568
:2005F20009EFF50CEEF50BEDF50AE50960B2E422E511850CF0A4AFF0E510850CF0A42FFF0E
:20061200E4E5F03400FEE511850BF0A42FE5F03EFFE43400FEE50F850CF0A42FFFE5F03E12
:20063200FEE43400FDE510850BF0A42FFFE5F03EFEED3400FDE511850AF0A42FFCE5F03EC8
:20065200FFED3400FEE50F850BF0A42FFFE5F03EFEE43400FDE510850AF0A42FFFE5F03EA5
:20067200FEED3400FDE50F850AF0A42EFEE5F03DFD2278F91200C9E60886F0C0E0C0F07464
:200692000975F000C0E0C0F0120A88158115811581158178FB1200C9E60886F0C0E0C0F08C
:2006B200740E75F000C0E0C0F0120A8815811581158115811206E7740975F000C0E0C0F0C4
:2006D200741375F000C0E0C0F0120A88158115811581158122E512650DF50DE50E700302DB
:2006F20005AAE50970030205B5C3E509950E500620E7060205B220E7E62480F5091202DC2D
:20071200500DC3E50A950F700415098002E139E50A13F50AE50B13F50BE50C13F50C0509CF
:20073200E50970030205AA120765C0E0120765C0E0120765C0E012076554F0C36001D3E49E
:20075200D0E03400F50CD0E03400F50BD0E03400F50A22AA0AA90BA80C850AF0E50B7C00B2
:20077200AB0F12015930F00274FFFBF50A750B00750C0012060285020A85010B85000CC321
:20079200E50C9FFFE50B9EFEE50A9DFD500D1BEF2510FFEE350FFEED3400FD750C008F0B9F
:2007B2008E0AEB2278F91200C9E60886F0C0E0C0F0740975F000C0E0C0F0120A8815811501
:2007D200811581158178FB1200C9E60886F0C0E0C0F0740E75F000C0E0C0F0120A881581E7
:2007F2001581158115811207FE120884E512F4F512740975F000C0E0C0F0741375F000C0A0
:20081200E0C0F0120A8815811581158115812278F91200C9E60886F0C0E0C0F0740975F036
:2008320000C0E0C0F0120A88158115811581158178FB1200C9E60886F0C0E0C0F0740E7561
:20085200F000C0E0C0F0120A881581158115811581120884740975F000C0E0C0F07413757E
:20087200F000C0E0C0F0120A88158115811581158122E50D6512F5F0C3E509950EF9402409
:200892009418501E780F740A2402FC0208CDE50EF509E50FF50AE510F50BE511F50CE51267
:2008B200F50DE422F404F9C3941850E2E50EF509E512F50D780A740F2402FCE665F0FD083B
:2008D200E665F0FE08E665F0FFE95407FBE95418030303F9E9600AAF06AE05ADF01902087A
:2008F200E6EB6010E5F013ED13FDEE13FEEF13FF1B0208F3E5F013A804EF3618F50CEE36B2
:2009120018F50BED36F50AE5F0701A5054E50A13F50AE50B13F50BE50C13F50C0509E50983
:20093200703F0205AA4015E50DF4F50DE50CF404F50CE4950BF50BE4950AF50AE50A20E722
:20095200207020D3E5099408403604F509E50BF50AE50CF50B7004E50A6025E4F50C020948
:200972004EE422E50914F5096019C3E50C33F50CE50B33F50BE50A33F50A30E7E6020973F1
:200992000205B50205B2A983A882F58285F083E4F512E0330350037512FFF5F0A3E033C5D1
:2009B200F033F50E6001D3E5F013F50FA3E0F510A3E0F5118983888222E5812404F8D0E060
:2009D200F6D0E018F6E50D33E50913C0E0E50A2313C0E0E50BC0E0E50CC0E0058105812277
:2009F200E5812404F8D0E0F6D0E018F6E51233E50E13C0E0E50F2313C0E0E510C0E0E511D6
:200A1200C0E00581058122D0E0F583D0E0F582750D00D0E0F50CD0E0F50BD0E033F5F0D02C
:200A3200E033F5095003750DFFC36001D3E5F013F50AE47322D0E0F583D0E0F58275120092
:200A5200D0E0F511D0E0F510D0E033F5F0D0E033F50E50037512FFC36001D3E5F013F50FAF
:200A7200E473227809790E8004780E79097F05E6F70809DFFA2278F91200C9E583C0E0E5B1
:200A920082C0E08607088606EE7043EFB40903020AA7B40E0D8F017D05E709C0E0DDFA02B4
:200AB2000B0E7505008F0109E733F5F019E733C0E050037505FFC36001D3E5F013C0E009D2
:200AD20009E7C0E009E7C0E0EDC0E0020B0E7505008E838F82A3E033F5F08E838F82E033D0
:200AF200C0E050037505FFC36001D3E5F013C0E0A3A3E0C0E0A3E0C0E0EDC0E008860708E6
:200B12008606EFB40903020B1EB40E1AEF2404F9D0E0F7D0E019F7D0E019F7D0E019F7D0BA
:200B3200E019F7020BA0E506B40023EF2403F9D0E0F5F0D0E0F7D0E019F7D0E0C5F033D0D1
:200B5200E013C5F0231319F7E5F019F78040EFF582850683A3A3A3D0E0F9D0E0F0E582855E
:200B720083F01201BAF58285F083D0E0F0E5821201BAF58285F083D0E0C933D0E013C92316
:200B920013F0E5821201BAF58285F083E9F0D0E0F582D0E0F58375F000EF227FFE7EFF12F3
:200BB200026E78FB1200C9E60886F045F0600C18E60886F07BFF7CFF1201F745F07003023B
:200BD2000C1D78FB1200C9860108860289828A83E0A3F5F0E0C5F07F00120252F0A3C5F033
:200BF200F0C5F0188601088602E4F5F089828A83F0A3C5F0F0C5F07F00120252E0A3F5F0F4
:200C1200E0C5F018F608A6F0020BB47F0202026C78FB1200C9E675F0007B007C001202002B
:200C3200700BE675F0007B1A7C0012021645F06003020CA578FB1200C9E675F0007B227CA4
:200C52000012013F79107A081200FD89828A83E0A3F5F0E0C0F0C0E0120BAD1581158178F8
:200C7200FB1200C9E675F0007B227C0012013F79007A081200FDE98AF0C0E0C0F0E4C0E095
:200C9200C0E0742275F000C0E0C0F0127C377FFA1200D522E4F5F0F52485F025E4F5F0F5D6
:200CB2002685F027E5268527F07B167C031202007015020D13E5268527F01201ACF52685E8
:200CD200F0271201BA80DDE5268527F07B207C0012013F79007A1D1200FD89828A83E0A3F7
:200CF200F5F0E0C5F045F07003020D10E5248525F0240FC5F03400C5F0F52485F025020C6C
:200D1200C7E5248525F0227FFE7EFF12026E740075F01D7F00120252F0A3C5F0F0C5F07F72
:200D320000120252E0A3F5F0E0C5F07B007C801202007003020D7B7F00120252E0A3F5F069
:200D5200E0C5F01201A87F00120252F0A3C5F0F0C5F01201B5F9AAF0E4F5F089828A83F033
:200D7200A3C5F0F0C5F0020D31E4F52AE52A75F0007B1A7C001202007009020DA8E52A0544
:200D92002A80E9E52A75F000C0E0C0F0120C2215811581020D8F740075F012C0E0C0F0E4C1
:200DB200C0E0C0E074A075F001C0E0C0F0127C377FFA1200D57F0202026CE4F5F0F5288596
:200DD200F029E5288529F07B167C031202007015020E86E5288529F01201ACF52885F029D9
:200DF2001201BA80DDE5288529F07B207C0012013F79007A1D1200FD89828A83E0A3F5F004
:200E1200E0C5F045F06003020E83E4F52AE52A75F0007B0F7C001202007009020E6AE52A6D
:200E3200052A80E9E5288529F07B207C0012013F79027A1D1200FDE52A75F000C333C5F0B4
:200E520033C5F01200FDE475F08089828A83F0A3C5F0F0C5F0020E30E5288529F07B207CB9
:200E72000012013F79007A1D1200FDE98AF0020E89020DE5E4F5F0227FFC7EFF12026E7822
:200E9200F71200C9E60886F07B007C001202007003020EACE4F5F002109578FB1200C9868C
:200EB2000108860289828A83E0A3F5F0E0C5F07F00120252F0A3C5F0F0C5F078F71200C95E
:200ED200E60886F07B0F7C00120216600C7F00120252E0A3F5F0E0C5F045F07003020F4A1B
:200EF2007F001202521200F689828A83E0A3F5F0E0C5F07BFF7CFF1201EF6003020F4A7FAA
:200F1200001202521200F689828A83E0A3F5F0E0C5F07F00120252F0A3C5F0F0C5F078F7FB
:200F32001200C9E60886F0C3940FC5F09400C5F018F608A6F0020ECD7F00120252E0A3F516
:200F5200F0E0C5F01201CD45F0702C7F001202521200F689828A83E0A3F5F0E0C5F07BFFCD
:200F72007CFF1201EF601078F71200C9E60886F07B0F7C0012021645F0700302106F78F9FA
:200F92001200C9E612010D1201CD45F07012120DCC7F02120252F0A3C5F0F0C5F01201CD28
:200FB20045F07003020FBFE4F5F00210957F021202521200F674FFF5F089828A83F0A3C580
:200FD200F0F0C5F07F00120252E0A3F5F0E0C5F045F0700302100B7F001202521200F67F57
:200FF20002120252E0A3F5F0E0C5F089828A83F0A3C5F0F0C5F002102C78FB1200C9860162
:201012000886027F02120252E0A3F5F0E0C5F089828A83F0A3C5F0F0C5F07F02120252E07E
:20103200A3F5F0E0C5F07F00120252F0A3C5F0F0C5F078F71200C9E60886F07B0F7C0012E9
:201052000216700302106F18E60886F0C3940FC5F09400C5F018F608A6F0020ECD7F001278
:2010720002521200F6740275F0001200FD78F71200C9E60886F0C333C5F033C5F01200FDC8
:20109200E98AF07F0402026C78F71200C9E6F52E08080808E60886F05402C5F05400C5F0FD
:2010B20045F0600D18E60886F05400C5F05402C5F045F0700302111778F51200C9E608865E
:2010D200F0C0E0C0F0743275F014C0E0C0F079167A03C001C00279147A03D083D082E0A38E
:2010F200F5F0E0C5F089828A831200EFC39BC5F09CC0F0C0E0740375F000127C297FFA122E
:2011120000D50211B4790C7A0389828A83E0A3F5F0E0C5F05401C5F05400C5F045F060035F
:2011320002113BE4F5F0021312E4F5F078F51200C986010886021200FDE52E244189828A1B
:2011520083F0E52E75F0007B227C0012013F791A7A081200FD89828A83E0A3F5F0E0C5F0EE
:2011720045F060030211CF78F51200C9E60886F02401C5F03400C0F0C0E0743975F014C0F3
:20119200E0C0F0080808E60886F07BE87C03120153C0E0C0F0740375F000127C297FFA127B
:2011B20000D5740475F00078F51200C986010886021200FDE489828A83F00212F1E52E7584
:2011D200F0007B227C0012013F791A7A081200FD78F91200C9E60886F089828A831200EFB5
:2011F200120153F52685F0271201CD45F0600D08E60886F05400C5F05480C5F045F0700398
:2012120002126B78F51200C9E60886F02401C5F03400C0F0C0E0743F75F014C0E0C0F0E5D2
:201232002E75F0007B227C0012013F791A7A081200FD78F51200C9E60886F089828A8312A4
:2012520000EF120159C0E0C0F0740375F000127C297FFA1200D50212F178FB1200C9E6089D
:2012720086F05400C5F05480C5F045F06003021296E5268527F01201ACF52685F0271201E2
:20129200BA0212C5E5268527F045F060030212C5E52E75F0007B227C0012013F791A7A0899
:2012B2001200FD89828A83E0A3F5F0E0C5F0F52685F02778F51200C9E60886F0C0E0C0F045
:2012D200744675F014C0E0C0F0E5268527F0C0E0C0F0740375F000127C297FFA1200D5741B
:2012F2000575F00078F51200C986010886021200FDE489828A83F078F51200C9E60886F06C
:2013120022740875F016C0E0C0F0791C7A0389828A83E0A3F5F0E0C0F0C0E0791C7A0389F5
:20133200828A83E0A3F5F0E0C5F07B227C0012013F79007A081200FD89828A83E0A3F5F01A
:20135200E0C0F0C0E078F51200C9E60886F0C0E0C0F012109A7FF81200D5227FFE7EFF1207
:20137200026E790C7A0389828A83E0A3F5F0E0C5F05401C5F05400C5F045F060030213987C
:20139200E4F5F00214A2791C7A0389828A83E0A3F5F0E0C5F0F52B75F0007B227C001201E2
:2013B2003F79007A081200FD89828A83E0A3F5F0E0C0F0C0E0740175F000C0E0C0F0E52BE8
:2013D2007B227C0012013F79107A081200FDE98AF0C0E0C0F0120E8A7FFA1200D57F001228
:2013F2000252F0A3C5F0F0C5F07F00120252E0A3F5F0E0C5F045F06003021457740475F0D6
:2014120000C0E0C0F0121AB515811581790C7A0389828A83E0A3F5F0E0C5F054FEC5F054EB
:20143200FFC5F089828A83F0A3C5F0F0C5F0744E75F014C0E0C0F0124E3A15811581E47537
:20145200F0010214A27F001202521200F678FB1200C9E60886F089828A83F0A3C5F0F0C51D
:20147200F0E52B75F0007B227C0012013F79007A081200FD89828A83E0A3F5F0E0C5F01259
:2014920001AC89828A83F0A3C5F0F0C5F01201BA7F0202026C74FFF5F0227FFE7EFF120242
:2014B2006E78FB1200C9E670030214CAE6F52CF52DE52C152C0214D1E4F52C741AF52DE529
:2014D2002C75F000AB2D7C0012020070090217AAE52C052C80E978FB1200C9E612010D12B4
:2014F20001CD45F06021E52C75F0007B227C0012013F79007A081200FD89828A83E0A3F5DB
:20151200F0E0C5F01201CD45F060030214E2745775F014C0E0C0F0E52C244175F000C0E0B5
:20153200C0F0E52C75F0007B227C0012013F79127A081200FDE98AF0C0E0C0F0E52C75F0C3
:20155200007B227C0012013F79007A081200FD89828A83E0A3F5F0E0C0F0C0E0E52C75F0DE
:20157200007B227C0012013F791A7A081200FD89828A83E0A3F5F0E0C0F0C0E0E52C75F0A4
:20159200007B227C0012013F791C7A081200FD89828A83E0A3F5F0E0C0F0C0E0790C7A03F6
:2015B20089828A83E0A3F5F0E0C5F05480C5F05400C5F045F06007748A75F01480057492D4
:2015D20075F014C0E0C0F0740775F0001225BD7FF21200D5E4F5F0F52885F029E52C75F00A
:2015F200007B227C0012013F79007A081200FDE5288529F089828A831200EF120200701507
:20161200021792E5288529F01201ACF52885F0291201BA80C7E5288529F0C0E0C0F0E4C035
:20163200E0C0E0E52C75F0007B227C0012013F79107A081200FDE98AF0C0E0C0F0120E8AC0
:201652007FFA1200D5F52485F02545F07003021792E52C75F0007B227C0012013F791A7A24
:20167200081200FD89828A83E0A3F5F0E0C5F0F52E45F070030216CE749775F014C0E0C097
:20169200F0E52C244175F000C0E0C0F0E5288529F0AB2E7C00120159C0E0C0F0E5288529A6
:2016B200F0AB2E7C00120153C0E0C0F0740475F0001225BD7FF81200D50216FF74A275F05C
:2016D20014C0E0C0F0E52C244175F000C0E0C0F0E5288529F07BE87C03120153C0E0C0F026
:2016F200740375F0001225BD7FFA1200D5A924AA2589828A83E0A3F5F0E0C0F0C0E0742EBA
:2017120075F018C0E0C0F0790C7A0389828A83E0A3F5F0E0C5F04400C5F04480C0F0C0E0C6
:2017320012325A7FFA1200D574A975F014C0E0C0F0742E75F018C0E0C0F0740275F0001257
:2017520025BD1581158115811581740175F000C0E0C0F01217BB1581158112010D7B001256
:2017720001041201F7700302178F740775F000C0E0C0F0121AB5158115810217AA02161500
:2017920074AD75F014C0E0C0F0740175F0001225BD158115810214E27F0202026C7FFC7E71
:2017B200FF12026E7F0402026CE5A04407F5A078FB1200C9E60886F0F52485F025E5A05400
:2017D200076407F52E60030217E4C208E4F5F002194C78FB1200C9E60886F07B017C00124C
:2017F20001EF7003021809E52E12010D7BFF12010412013F02194CE4F52C79217A00E75480
:201812000112010D45F0601078FB1200C9E60886F07B017C001201F745F0700302184474C2
:201832000975F000C0E0C0F0121AB515811581021854740275F000C0E0C0F0121AB51581BB
:201852001581E5A054076407F52D70030218E2E52E540475F00045F0600CE52D75F000AB71
:201872002E7C001201F745F070030218AAE52C12010D1201CD45F06004E52D5403700302AE
:2018920018AA740375F000C0E0C0F0121AB515811581E52D452EF52C438701E52D75F00053
:2018B20045F0602278FB1200C9E60886F07B017C001201F76010E5248525F01201BAF524B2
:2018D20085F0251201CD45F060030218E2021854E52D70030218EED20802191679217A00CE
:2018F200E7540112010D45F0600978FB1200C9E60886F045F07003021914C208E4F5F002BE
:20191200194CC208E52C6003021921E52EF52CE52C54F7F52C540275F00045F06004E52CC0
:201932005401700302193FE52C54FDF52CE52C12010D7BFF12010412013F2278FB1200C96C
:20195200E60886F01201BA18F608A6F01201AC45F0700302196E43870102194D22127C5D68
:20197200745675F002F51C85F01DD20F027C5A127C5D749875F0E9F51C85F01DC20F027C91
:201992005A7FFF7EFF12026EC28CC2A9E51C851DF07B087C0012019A1201C4F58CE51C8588
:2019B2001DF05400C5F05401C5F01201C4F58AE5897F00120252F07F00120252E054F07FD4
:2019D20000120252F07F00120252E044017F00120252F07F00120252E0F589127C5AD28C37
:0D19F200D2A97F0102026C12199302198123
:07000B00C0D0C0E00219FFA4
:2019FF00E51DF4F58CE51CF4F58A200F16C0F0E52F8530F02401C5F0340085F02FF530D088
:171A1F00F0800F300E0CE53F2323F53F54C0453EF5A0D0E0D0D0329B
:07001B00C0D0C0E0021A365C
:201A3600C0F0E51E03F51E85B0F05440C5F054BF45F0F5B0D0F0D0E0D0D032C2ABC28EE588
:201A560089540F4420F58974FD75F01D78FB1200C986030886041201591201C62401C5F027
:201A76003400C5F0F58D74FFF58BD28ED2AB78F91200C9E60886F01201BA18F608A6F012DA
:201A960001AC7B007C001201E17003021AAA438701021A84C28EC2ABE5B054BFF5B02212B6
:201AB600196F12245F78FB1200C9E60886F0901C41020116747D75F000C0E0C0F07478C0E9
:201AD600E0C0F0121A511581158115811581747D75F000C0E0C0F07496C0E0C0F0121A510E
:201AF6001581158115811581021C6974FA75F000C0E0C0F07450C0E0C0F0121A5115811592
:201B16008115811581021C6974FA75F000C0E0C0F07478C0E0C0F0121A51158115811581DD
:201B36001581021C69E5904440F59074FA75F000C0E0C0F07478C0E0C0F0121A511581156D
:201B56008115811581747D75F000C0E0C0F0745AC0E0C0F0121A511581158115811581E544
:201B76009054BFF590021C69747D75F000C0E0C0F07491C0E0C0F0121A5115811581158166
:201B96001581021C69744B75F000C0E0C0F074A0C0E0C0F0121A5115811581158115810263
:201BB6001C69E5904440F590744B75F000C0E0C0F07482C0E0C0F0121A5115811581158113
:201BD6001581744B75F000C0E0C0F0740BC0E0C0F0121A511581158115811581E59054BFB9
:201BF600F590021C69742375F000C0E0C0F07450C0E0C0F0121A511581158115811581028C
:201C16001C69E5904440F59074FA75F000C0E0C0F0740BC0E0C0F0121A511581158115817A
:201C36001581E59054BFF590021C69181C0700FB1B0900B81B08009B1B06007E1B05003B9A
:201C56001B04001E1B0300011B0200CA1A01000000181C12198102243B78FFE5904404F5A6
:201C76009000209202D8FA2278FB1200C98606E59054EFF5907B08E50633F506E5904004AA
:201C960054F780024408F590004410F5900000000054EFF59000DBDF121C6F2278FB1200F1
:201CB600C98606E59054FDF590F5F0121C6FE5F04401F590E506C0E0C0F0121C7ED0F0D0D6
:201CD600E0E5F04402F590227FFB7EFF12026E74017F02120252F0E47F03120252F0740156
:201CF60075F000C0E0C0F01217BB158115817F04120252F079207A00E720E703021D1AC231
:201D160007021D2A742075F000C0E0C0F0121CB215811581741875F000C0E0C0F0121CB2E7
:201D360015811581E4C0E0C0E0121CB21581158178FB1200C9E60886F07F00120252F0A307
:201D5600C5F0F0C5F07F001202521200F689828A83E075F0007B017C001201EF7003021D3D
:201D76009D7F00120252E0A3F5F0E0C5F01201AC7F00120252F0A3C5F0F0C5F01201BA74FC
:201D9600017F03120252F0E4C0E0C0E0121CB215811581741575F000C0E0C0F0121CB215F1
:201DB600811581E59054FDF590121C6FE59054FEF5904401F59074E075F000C0E0C0F012DD
:201DD6001C7E15811581E59054FEF590E4F52EE52E75F0007B097C00120200600D7F00124A
:201DF60002521200F689828A83E070270220DBE52E052E7F00120252E0A3F5F0E0C5F012AB
:201E160001AC7F00120252F0A3C5F0F0C5F01201BA80BCE52E75F0007B027C0012018CF51F
:201E36002D7F001202521200F689828A83E0F52B54807003022004E5904401F590E52D4458
:201E5600E075F000C0E0C0F0121C7E15811581E52B20E503021F46E4F52CE52C75F0007B8A
:201E7600047C00120200700D021F34E52C052CE52D052D80E57F00120252E0A3F5F0E0C509
:201E9600F01201AC7F00120252F0A3C5F0F0C5F01201BAE52B20E603021F12E52B20E4037B
:201EB600021EF074027F03120252F07F001202521200F689828A83E044C075F000C0E0C000
:201ED600F0121C7E15811581E52D44E075F000C0E0C0F0121C7E158115817F00120252126A
:201EF60000F689828A83E0540F44B075F000C0E0C0F0121C7E15811581021F317F00120215
:201F1600521200F689828A83E0540F44D075F000C0E0C0F0121C7E15811581021E81E52BA4
:201F360020E603021F43E52DC39404F52D021FE9E52B20E603021F8DE52B540FF52C75F0C5
:201F5600007B027C0012018CF52CE52C7003021F7E74CF75F000C0E0C0F0121C7E15811540
:201F760081E52C152C021F60E52E152E74027F03120252F0021FE9E52B20E403021FE9E543
:201F96002B540F75F0007B047C0012013FF52D44E075F000C0E0C0F0121C7E158115817F99
:201FB60000120252E0A3F5F0E0C5F01201AC7F00120252F0A3C5F0F0C5F01201BA7F0012B9
:201FD60002521200F689828A83E06003021E37E52E152EE52D44E075F000C0E0C0F0121C6E
:201FF6007E15811581E59054FEF590021E05E52B75F0007B2E7C001201EF7003022088E512
:202016002E6003022022E4F52D022033E52EC3940175F0007B047C0012013FF52DE5904482
:2020360001F590E52D240244E075F000C0E0C0F0121C7E1581158174B875F000C0E0C0F03A
:20205600121C7E15811581E52E75F0007B047C0012013FF52D44E075F000C0E0C0F0121CA4
:202076007E15811581E59054FEF590E52E152E021E05E52B75F0007B617C00120216600C76
:20209600E52B75F0007B7A7C0012020645F070030220AFE52B54DFF52BE52E75F0007B0853
:2020B6007C001201EF60030220DBE52B547FF52B4480F52B75F000C0E0C0F0121C7E15814E
:2020D6001581021E05E5904402F5907F001202521200F689828A83E070030221D678FB1219
:2020F60000C9E60886F01201AC18F608A6F01201BA78FB1200C9860108860289828A83E008
:2021160075F0007B2E7C001201EF700302213818E60886F01201AC18F608A6F01201BA0299
:20213600210778FB1200C9860108860289828A83E0700302222E7F02120252E070030221E2
:202156006274057F02120252F002216A74047F02120252F07F02120252E0147F0212025219
:20217600F070030221A7740175F000C0E0C0F01217BB1581158175F0007F04120252120082
:20219600EB7C001201F7600302222E43870102216A740175F000C0E0C0F01217BB158115F2
:2021B6008175F0007F041202521200EB7C001201F7600302222EE47F02120252F0021D46E2
:2021D6007F03120252E075F0007B017C001201EF7003022209740775F000C0E0C0F0E4C04E
:2021F600E0C0F0E4C0E0C0E01222337FFA1200D502222E7F03120252E075F0007B027C00D6
:202216001201EF700302222E741A75F000C0E0C0F0121CB2158115817F0502026C7FFE7EA3
:20223600FF12026E78F71200C9E60886F09023CF020116E59054C0F590740A75F000C0E02D
:20225600C0F012194D15811581D292E5904420F59054FDF590121C6FE5904401F5907442EA
:2022760075F000C0E0C0F0121C7E15811581743075F000C0E0C0F0121C7E15811581741501
:2022960075F000C0E0C0F0121C7E15811581742075F000C0E0C0F0121C7E158115817411F5
:2022B60075F000C0E0C0F0121C7E15811581E5904402F5900223EF741175F000C0E0C0F0ED
:2022D600121CB2158115810223EF741075F000C0E0C0F0121CB2158115810223EF74207566
:2022F600F000C0E0C0F0121CB2158115810223EF78F91200C9E60886F0C0E0C0F0121CDE5C
:20231600158115810223EF0223EFE4C0E0C0E0121CB215811581E5904401F59054FDF5900E
:20233600121C6FE4F5F07F00120252F0A3C5F0F0C5F07F00120252E0A3F5F0E0C5F07B20D2
:202356007C001201D370230223937F00120252E0A3F5F0E0C5F01201AC7F00120252F0A3A1
:20237600C5F0F0C5F01201BA80C874CF75F000C0E0C0F0121C7E15811581022360E59044CA
:2023960002F590740175F000C0E0C0F012194D15811581741A75F000C0E0C0F0121CB2159A
:2023B6008115810223EF741875F000C0E0C0F0121CB2158115810223EFBC2308002023074A
:2023D6000006230500F3220400E0220300CD220200492201000000EF23740175F000C0E0B2
:2023F600C0F012194D158115817F0202026CC28E78FB1200C98603088604740075F04B1293
:2024160001591201C4C0E0E589540F4420F589D0E0F58DF58BC28BD28E0000759840E5B0E1
:202436004407F5B022C2AC90142CE0A3F5F0E0C0F0C0E012240415811581E4F519F518E455
:20245600F51BF51AD2ACD29C22209B0302246B43870102245FE5B054FCF5B0C29CC2ACE460
:20247600F598C28EE5894450F58954DFF5892278FB1200C9860108860289828A83E0700346
:202496000224F118860108860289828A83E012010D7B0A1201041201EF70030224C4740D4C
:2024B60075F000C0E0C0F01224F21581158178FB1200C9E60886F01201AC18F608A6F012CE
:2024D60001BAF9AAF089828A83E012010DC0E0C0F01224F2158115810224852278FB12008A
:2024F600C9C001C002E6C0E0E51AF904B4FF027400B51B0A75C7AA75C755D2BF80F3FAD0B0
:20251600E0C083C0828982758300F08A1AD082D083209B02D299D002D00122C0E0C0E012C5
:2025360024F2D0E0D0E022E519B5180574FFF5F022F8C082C0838882758300E0D083D0829F
:1625560008B8FF027800881975F00022E518C3951975F0002222F7
:07002300C0D0C0E002256C13
:20256C00C00030981CA818C083C0827583008882E599C298F0D082D08308B8FF0278008836
:20258C0018309909C299E51BB51A09C29BD000D0E0D0D032F8C083C0827583008882E0D034
:2025AC0082D083F59908B8FF027800881BD29B80DC23F42581F812023A127ABB12023AC0AF
:2025CC0082C08312248515811581222278FC1200C98604188603188683188682E4FDFE1253
:2025EC00253DA9F0B9FF0A75C7AA75C755D2BF80EEB408028003B47F27ED4E60E21DBDFFAB
:20260C00011E7408122531742012253174081225318583F0E5821201BA85F083F58280BFF1
:20262C00122531F024F3600EA30DBD00010EED8EF01201D370A9740A122531E4F0ED8EF0A6
:20264C00222278F71200C9E60886F0C0E0C0F0742075F016C0E0C0F0120A881581158115E8
:20266C0081158178F91200C9E60886F02404C5F03400C0F0C0E0742075F016C0E0C0F012B5
:20268C0005241581158115811581741475F014C0E0C0F0740E75F000C0E0C0F0120A88156C
:2026AC0081158115811581120884740975F000C0E0C0F0741C75F016C0E0C0F0120A8815E7
:2026CC0081158115811581742075F016C0E0C0F0742075F016C0E0C0F01205241581158186
:2026EC001581158178F91200C9E60886F0240CC5F03400C0F0C0E0740E75F000C0E0C0F052
:20270C00120A881581158115811581120587741C75F016C0E0C0F0740E75F000C0E0C0F081
:20272C00120A881581158115811581120884740975F000C0E0C0F0741C75F016C0E0C0F066
:20274C00120A88158115811581158178F91200C9E60886F02414C5F03400C0F0C0E07400DC
:20276C0075F014C0E0C0F012027915811581158115817B017C001201F7700302281478F97B
:20278C001200C9E60886F02414C5F03400C0F0C0E0740975F000C0E0C0F0120A88158115FC
:2027AC008115811581742075F016C0E0C0F0740E75F000C0E0C0F0120A8815811581158164
:2027CC001581120587120587120587741C75F016C0E0C0F0740E75F000C0E0C0F0120A8847
:2027EC001581158115811581120884740975F000C0E0C0F0741C75F016C0E0C0F0120A88A6
:20280C001581158115811581742075F016C0E0C0F078F71200C9E60886F02408C5F0340032
:20282C00C0F0C0E01205241581158115811581740975F000C0E0C0F0741875F016C0E0C010
:20284C00F0120A88158115811581158178FB1200C9E60886F0C0E0C0F0740075F014C0E0F1
:20286C00C0F012027915811581158115817B017C001201F770030228E3741875F016C0E08E
:20288C00C0F0740975F000C0E0C0F0120A88158115811581158178FB1200C9E60886F0C0DC
:2028AC00E0C0F0740E75F000C0E0C0F0120A881581158115811581120587740975F000C009
:2028CC00E0C0F0741875F016C0E0C0F0120A881581158115811581742075F016C0E0C0F0AA
:2028EC00742075F016C0E0C0F0120524158115811581158178F91200C9E60886F02410C531
:20290C00F03400C0F0C0E0740E75F000C0E0C0F0120A8815811581158115811205877409E9
:20292C0075F000C0E0C0F0741475F016C0E0C0F0120A88158115811581158178FB1200C939
:20294C00E60886F0C0E0C0F0740075F014C0E0C0F012027915811581158115817B017C009D
:20296C001201F770030229B8741475F016C0E0C0F0740975F000C0E0C0F0120A8815811517
:20298C00811581158178FB1200C9E60886F0C0E0C0F0740E75F000C0E0C0F0120A8815810B
:2029AC001581158115811205870229D5741475F016C0E0C0F0740975F000C0E0C0F0120A0A
:2029CC00881581158115811581741875F016C0E0C0F0740E75F000C0E0C0F0120A88158143
:2029EC0015811581158112088478F91200C9E60886F02400C5F03400C0F0C0E0740E75F077
:202A0C0000C0E0C0F0120A881581158115811581120884741875F014C0E0C0F0740E75F084
:202A2C0000C0E0C0F0120A881581158115811581120587741C75F016C0E0C0F0740E75F05E
:202A4C0000C0E0C0F0120A8815811581158115810206E778FB1200C9E60886F01201BA1898
:202A6C00F608A6F01201AC45F07003022AB578F71200C9E60886F01201AC18F608A6F01243
:202A8C0001BAF9AAF008E60886F01201AC18F608A6F01201BAC001C002F9AAF089828A830A
:202AAC00E0D083D082F0022A5F2278F91200C9E60886F05400C5F05480C5F045F0700302FC
:202ACC002B2D08E60886F05400C5F05480C5F045F07003022B1E181818E60886F07BFF7CFF
:202AEC007F1202000856C5F00856C5F054FFC5F0547FC5F045F07003022B0F18E60886F021
:202B0C00022B7A78F91200C9E60886F0022B7A022B2A78F91200C9E60886F0022B7A022BD0
:202B2C007A78FB1200C9E60886F05400C5F05480C5F045F07003022B4D18E60886F0022B00
:202B4C007A78FB1200C9E60886F0181818860308860412020E7003022B6E18E60886F0022C
:202B6C002B7A78FB1200C9E60886F0022B7A22740375F000C0E0C0F0E4C0E0C0F0E4C0E045
:202B8C00C0E0121CB27FFA1200D5E5904480F590E5B0547FF5B0438701E5B04480F5B04372
:202BAC008701E5B0547FF5B0127C5D75C7AA75C7557587022278FB1200C9E60886F07B00C5
:202BCC007C011202007003022BE878FB1200C9E6F500E6F5F008E6C5F0022BFD78FB12008A
:202BEC00C9860108860289828A83E0A3F5F0E0C5F0227FFE7EFF12026E78F91200C9E608FC
:202C0C0086F07B007C011202007003022C3F18E60886F07F00120252F0A3C5F0F0C5F07F79
:202C2C00001202521200F608E60886F0F709A7F0022C5978F91200C9860108860208E60837
:202C4C0086F089828A83F0A3C5F0F0C5F07F0202026C790C7A0389828A83E0A3F5F0E0C5D5
:202C6C00F05404C5F05400C5F045F06003022C82E4F5F0022CE478FB1200C9E60886F05419
:202C8C0000C5F05480C5F045F07003022CA2740175F000022CE479187A0378FB1200C9E644
:202CAC000886F089828A831200EF1202007017791A7A0378FB1200C9E60886F089828A83FC
:202CCC001200EF12020E45F07003022CE1740175F000022CE4E4F5F0227FFE7EFF12026EBB
:202CEC0078F91200C9E60886F07B007C001201D37003022D1C18E60886F07BFF7CFF1201F9
:202D0C003F7F00120252F0A3C5F0F0C5F0022D3178F91200C9E60886F07F00120252F0A30E
:202D2C00C5F0F0C5F078FB1200C9E60886F05480C5F05400C5F045F06003022DD878F712C9
:202D4C0000C9E60886F07BBC7C021202167003022D7D7F00120252E0A3F5F0E0C5F07B0AD5
:202D6C007C0012013F7F00120252F0A3C5F0F0C5F078F91200C9E60886F07B007C001201ED
:202D8C00D37003022DB0181818E60886F07F001202521200EFC39BC5F09CC5F018F608A650
:202DAC00F0022DCC78F71200C9E60886F07F001202521200EF2BC5F03CC5F018F608A6F00B
:202DCC0078F71200C9E60886F0022ECF78FB1200C9E60886F05480C5F05400C5F045F07051
:202DEC0003022ECF78F71200C9E60886F0C0E0C0F012041515811581742475F014C0E0C0FF
:202E0C00F0740975F000C0E0C0F0120A88158115811581158112058778F71200C9E608862C
:202E2C00F07B3C7C0F1202007003022E5A7F00120252E0A3F5F0E0C5F07B0A7C0012013F0E
:202E4C00C0E0C0F012041515811581022E787F00120252E0A3F5F0E0C5F07B647C001201C7
:202E6C003FC0E0C0F01204151581158178F91200C9E60886F07B007C001201D37003022E30
:202E8C00931207F8022E96120884742475F014C0E0C0F0740E75F000C0E0C0F0120A8815CD
:202EAC00811581158115811206E7740975F000C0E0C0F01203A61581158178F71200C9F66B
:202ECC0008A6F07F0202026C7FFB7EFF12026EE52F8530F07F00120252F0A3C5F0F0C5F053
:202EEC007F02120252F0A3C5F0F0C5F078F11200C9E60886F0C0E0C0F078F91200C9E608C0
:202F0C0086F0C0E0C0F078F31200C9E60886F0C0E0C0F01236617FFA1200D579217A00E7E1
:202F2C0054016007740275F0008005740575F000C0E0C0F01217BB15811581F5336003029E
:202F4C00306A1277CE45F07003022F6AE52F8530F02484C5F03403C5F0F53185F032438798
:202F6C000178F91200C9E675F00045F0601BE52F8530F07F021202521200EFC39BC5F09CAD
:202F8C00C5F07B057C0012020E45F0700302304212409345F07003023031740175F000C0AC
:202FAC00E0C0F012425015811581F52485F0257B007C801201F76022E5248525F078F312CF
:202FCC0000C98603088604120216600EE5248525F008860308860412020045F070030230B5
:202FEC0021E5248525F078F11200C9F608A6F0E52F8530F02484C5F03403C5F0F53185F08C
:20300C0032E52F8530F07F02120252F0A3C5F0F0C5F0022EF8740875F000C0E0C0F0121A60
:20302C00B515811581E52F8530F07F02120252F0A3C5F0F0C5F0E52F8530F0AB31AC321291
:20304C00020E7003023056122B7BE52F8530F07F00120252F0A3C5F0F0C5F0022F27E52FAA
:20306C008530F02484C5F03403C5F0F53185F032E52F8530F07F001202521200EFC39BC5C7
:20308C00F09CC5F07B1E7C0012020E70030230A774647F04120252F00230DAE52F8530F0EA
:2030AC007F001202521200EFC39BC5F09CC5F07B0F7C0012020E70030230D2740A7F041208
:2030CC000252F00230DA74017F04120252F0E53312010D90323A02011678F11200C9E608C7
:2030EC0086F002325578F11200C9E60886F0C0E0C0F07F04120252E012010DC0E0C0F0781C
:20310C00F31200C9E60886F0C0E0C0F0122CE57FFA1200D578F11200C9F608A6F018E608C0
:20312C0086F00808088603088604120216700302315C18E60886F078F11200C9F608A6F05A
:20314C00740475F000C0E0C0F0121AB51581158102325278F11200C9E60886F0C0E0C0F0AB
:20316C007F04120252E0F40412010DC0E0C0F078F31200C9E60886F0C0E0C0F0122CE57F76
:20318C00FA1200D578F11200C9F608A6F018E60886F00886030886041202007012181818ED
:2031AC00E60886F0080808860308860412020E45F070030231E2740475F000C0E0C0F0124E
:2031CC001AB51581158178F31200C9E60886F0181818F608A6F0023252E475F0800232558A
:2031EC0078F11200C9E60886F00886030886041201EF700302321408E60886F078F1120054
:20320C00C9F608A6F002322478F31200C9E60886F0181818F608A6F0023252740475F00004
:20322C00C0E0C0F0121AB515811581022EF8EC31FBFFE531FAFF5F31FEFFF130FFFFE53016
:20324C00FCFF00002732022EF87F0502026C7FFE7EFF12026E78F91200C98601088602749F
:20326C002089828A83F0E4F5F07F00120252F0A3C5F0F0C5F0181818E60886F07B007C805C
:20328C001201EF70030232A708E60886F01201AC18F608A6F01201BA02332678F71200C989
:2032AC00E60886F05400C5F05480C5F045F070030232E0088601088602742D89828A83F088
:2032CC00181818E60886F054FFC5F0547FC5F018F608A6F078F91200C9E60886F01201AC8B
:2032EC0018F608A6F01201BA181818E60886F07B647C00120159F52485F02518E60886F0A7
:20330C007B647C00120153F52B18E60886F07B147C1E12020E70030233687F00120252E024
:20332C00A3F5F0E0C5F01201AC7F00120252F0A3C5F0F0C5F01201BA78F91200C9E6088646
:20334C00F0C0E0C0F074B075F014C0E0C0F0127C70158115811581158102365078FB1200D1
:20336C00C9E654C060030234F1E5248525F07B077C00120200700302342778F91200C9E63D
:20338C000886F0C0E0C0F074B475F014C0E0C0F0E5248525F0C0E0C0F0740375F000127C05
:2033AC00297FFA1200D5E52B75F0007B0A7C0012020070030233F578F91200C9E60886F0A1
:2033CC002402C5F03400C0F0C0E074B875F014C0E0C0F0E52B75F000C0E0C0F07403127CC3
:2033EC00297FFA1200D502342478F91200C9E60886F02402C5F03400C0F0C0E074BC75F03A
:20340C0014C0E0C0F0E52B75F000C0E0C0F07403127C297FFA1200D50234EEE52B75F00050
:20342C007B0A7C00120159F52AE52B75F0007B0A7C001201537B057C001202167003023449
:20344C0051E52A052AE52A75F0007B097C0012020E7003023475E5248525F01201ACF524A2
:20346C0085F0251201BAE4F52A78F91200C9E60886F0C0E0C0F074BF75F014C0E0C0F0E5F5
:20348C00248525F07B0A7C00120200600774C575F014800574C775F014C0E0C0F0E524851D
:2034AC0025F0C0E0C0F0740475F000127C297FF81200D578F91200C9E60886F02403C5F01D
:2034CC003400C0F0C0E074C875F014C0E0C0F0E52A75F000C0E0C0F07403127C297FFA12DA
:2034EC0000D502365078FB1200C9E620E7030235CC18181818E60886F0C0E0C0F0120415E3
:20350C0015811581742475F014C0E0C0F0740975F000C0E0C0F0120A881581158115811565
:20352C0081120587740A75F000C0E0C0F0120415158115811206E7740975F000C0E0C0F0A5
:20354C001203A61581158178F71200C9F608A6F018E60886F07B0A7C00120159F52485F023
:20356C002518E60886F07B0A7C00120153F52BE5248525F07B647C00120200600302342745
:20358C00E5248525F07BD67C06120216600302332678F91200C9E60886F0C0E0C0F074CB82
:2035AC0075F014C0E0C0F0E5248525F0C0E0C0F0740375F000127C297FFA1200D5023650C8
:2035CC0078F71200C9E60886F07BE87C0312020E600302332678F71200C9E60886F0C0E021
:2035EC00C0F012041515811581742875F014C0E0C0F0740975F000C0E0C0F0120A881581E7
:20360C00158115811581120587740975F000C0E0C0F01203A61581158178F71200C9F608DD
:20362C00A6F018E60886F07B647C00120159F52485F02518E60886F07B647C00120153F5C0
:20364C002B0233867F00120252E0A3F5F0E0C5F07F0202026C7FB87EFF12026E78F71200EE
:20366C00C9E60886F0C0E0C0F07F00120260E98AF0C0E0C0F0080808E60886F0C0E0C0F04F
:20368C0012325A7FFA1200D57F44120252F0A3C5F0F0C5F078F91200C9E60886F045F060C5
:2036AC00030236BA74CE75F01418F608A6F0742E75F018C0E0C0F074D375F014C0E0C0F023
:2036CC0078F51200C9E60886F0C0E0C0F07F00120260E98AF0C0E0C0F0740475F000127CD1
:2036EC00297FF81200D5742E75F018C0E0C0F0121CDE1581158178FB1200C9E60886F0F5E9
:20370C002885F02930B203023728E5288529F04410C5F04410C5F0F52885F029E52885295E
:20372C00F054FFC5F05400C5F045F07003023838E5288529F054FFC5F0547FC5F0F5288585
:20374C00F0297B087C0012019AF52BE5288529F054FFC5F05400C5F0F52CE59054FDF59050
:20376C00121C6FE5904401F59074E1F52EE4F52AE52A75F0007B087C00120200700F0238A6
:20378C000DE52A052AE52E2404F52E80E3740175F000AB2A7C0012018CF52D552C7003022F
:2037AC00380AE52E75F000C0E0C0F0121C7E1581158174B175F000C0E0C0F0121C7E1581FF
:2037CC001581E52E75F000C0E0C0F0121C7E15811581E52D552B70030237FA74C175F000D5
:2037EC00C0E0C0F0121C7E1581158102380A748E75F000C0E0C0F0121C7E15811581023789
:20380C008D121C6FE59054FEF590121C6FE5904402F590E52B547F7003023838741A75F08E
:20382C0000C0E0C0F0121CB2158115817F44120252E0A3F5F0E0C5F07F4802026C78F91240
:20384C0000C9E6F5060808E6F50308E6F50485033E85043F7834438701D8FBE53E54DFF5BA
:20386C003E4387017D04438701DDFBDEF7E53E4428F53EF5A02278F91200C9E60886F045CC
:20388C00F06003023898E4F5F0023B8112245FE4F52AE52A75F0007B047C001202007009DC
:2038AC000238D3E52A052A80E9E52A75F000C333C5F033C5F079347A001200FD74FFF5F0B3
:2038CC00F709A7F00238AF740875F00079347A001200FDE4F5F0F709A7F012196FC28EE516
:2038EC00A0440FF5A0E590547FF590742FF53E74F0F53F780A438701D8FBD20E740675F01A
:20390C0001F51C85F01DE5B04408F5B078F91200C9E60886F0F52685F027E5268527F0451E
:20392C00F07003023B06E4F52BE52B75F0007B047C001202007009023AF3E52B052B80E9FC
:20394C00E5268527F078F91200C986030886041201F7600CE52B75F0007B017C001201F760
:20396C0045F06003023946740175F000AB2B7C0012018C78FB1200C956C5F0E4C5F045F030
:20398C007003023946E52B75F0009039E8020116742F75F0F0F52885F029E5B054E9F5B0BE
:2039AC000239FC742775F0F0F52885F029E5B054E9F5B00239FC743775F078F52885F02928
:2039CC00E5B054E9F5B00239FC742775F0F0F52885F029E5B04416F5B00239FCD5390300A6
:2039EC00C2390200AF3901009C3900000000FC39E4F58DE4F58BE5B054F7F5B0D28E742187
:203A0C0075F000C0E0C0F0E5288529F0C0E0C0F01238491581158115811581C28EE58054F6
:203A2C007F75F000F52485F02520B503023A4DE5248525F04480C5F04400C5F0F52485F0DF
:203A4C0025E5B04408F5B0E58B75F0007B087C0012018C4524C5F04525C5F0F52485F0254C
:203A6C00E52B75F000C333C5F033C5F079347A001200FDE5248525F0870309870412020027
:203A8C007003023AADE52B75F000C333C5F033C5F079347A001200FDE5248525F0F709A736
:203AAC00F0E52B75F0007B017C001201EF6019740875F00079347A001200FDE5248525F068
:203ACC00870309870412020E45F07003023AF0740875F00079347A001200FDE5248525F00C
:203AEC00F709A7F0023946E5268527F01201BAF52685F0271201AC023926E5B054F7F5B0D2
:203B0C00C20EE5904480F590C28EE5A0442FF5A012198112243BE4F5F079347A001200FD12
:203B2C00C001C00279647A02D007D000C000C007E60886F089828A831200EF2BC5F03CC511
:203B4C00F0D007D000F608A6F0740875F00079347A001200FD740275F000C001C00279340C
:203B6C007A001200FDD007D000E60886F0C397C5F00997C5F022E4F5F079347A001200FD20
:203B8C00740275F000C001C00279347A001200FDD007D000E60886F0C397C5F00997C0F01B
:203BAC00C0E0120415158115811209F2745475F002C0E0C0F0740975F000C0E0C0F0120A28
:203BCC008815811581158115811207F8745075F002C0E0C0F0740E75F000C0E0C0F0120A1A
:203BEC008815811581158115811206E7E4F50D746075F002C0E0C0F0740E75F000C0E0C022
:203C0C00F0120A881581158115811581120587120A75745C75F002C0E0C0F0740975F00014
:203C2C00C0E0C0F0120A8815811581158115811207F8745875F002C0E0C0F0740E75F000B1
:203C4C00C0E0C0F0120A881581158115811581120587120A75740475F003C0E0C0F0740930
:203C6C0075F000C0E0C0F0120A8815811581158115811206E7741475F014C0E0C0F0740EB5
:203C8C0075F000C0E0C0F0120A881581158115811581120884120A47120587120A7574546F
:203CAC0075F002C0E0C0F0740975F000C0E0C0F0120A8815811581158115811207F874503E
:203CCC0075F002C0E0C0F0740E75F000C0E0C0F0120A8815811581158115811206E7E50DFD
:203CEC006006E475F0808003E4F5F0F52685F027E4F50D740975F000C0E0C0F0743075F065
:203D0C0002C0E0C0F0740875F003C0E0C0F012264E7FFA1200D5740975F000C0E0C0F012E7
:203D2C0003A615811581F52485F02545F06003023D46E4F5F0F52685F027E5248525F0456A
:203D4C0026C5F04527C5F022740375F000C0E0C0F074FFC0E0C0F0123882158115811581BC
:203D6C001581E4F5F079347A001200FD740275F000C001C00279347A001200FDD007D00067
:203D8C00E60886F0C397C5F00997C5F0F52485F02579167A02C0E0C0F0D0F0D0E089828A3C
:203DAC00831200EF12020E7003023DC0E5248525F0023E9F79147A02E5248525F089828A1C
:203DCC00831200EF1202007003023E9CE4F5F079347A001200FDE70987F0C0E0C0F0120424
:203DEC001515811581120A7B740675F00079347A001200FDE70987F0C0E0C0F012041515D3
:203E0C008115811207F8740475F00079347A001200FDE70987F0C0E0C0F0120415158115CE
:203E2C0081120587744C75F002C0E0C0F0740E75F000C0E0C0F0120A88158115811581152E
:203E4C00811206E7745875F002C0E0C0F0740E75F000C0E0C0F0120A8815811581158115A1
:203E6C00811207F8740975F000C0E0C0F0740475F003C0E0C0F0120A8815811581158115C7
:203E8C0081E52F8530F0901624F0A3C5F0F0C5F0E4F5F022740375F000C0E0C0F07403C0D7
:203EAC00E0C0F01238821581158115811581E4F5F079347A001200FD740275F000C001C0E7
:203ECC000279347A001200FDD007D000E60886F0C397C5F00997C5F079167A02C0E0C0F0D4
:203EEC00D0F0D0E089828A831200EF1202007003023F06E475F080023F6F123B82F5248579
:203F0C00F0257B007C801201EF7003023F21E475F080023F6F740875F00079347A0012009F
:203F2C00FD740275F000C001C00279347A001200FDD007D000E60886F0C397C5F00997C565
:203F4C00F079667A02C0E0C0F0D0F0D0E089828A831200EF1202067003023F6AD206E52418
:203F6C008525F02212409345F07003024092124093F52485F02545F0601E901626E0A3F589
:203F8C00F0E0C5F01201CD45F0600D901624E0A3F5F0E0C5F01201CD45F0700302404A74BF
:203FAC002E75F018C0E0C0F074D875F014C0E0C0F0E5248525F0C0E0C0F0901626E0A3F5AE
:203FCC00F0E0C0F0C0E0740475F000127C297FF81200D5742E75F018C0E0C0F0121CDE1533
:203FEC00811581740175F000C0E0C0F01217BB1581158112010D7BFF1201041201EF70033E
:20400C00024012122B7B1277CE45F06003024012740475F000C0E0C0F0121AB5158115810B
:20402C007814438701D8FBE52F8530F0AB31AC3212020E7003024047122B7B023F7AE52F32
:20404C008530F02484C5F03403C5F0F53185F032E475F080C0E0C0F0E4C0E0C0E0790C7A5D
:20406C000389828A83E0A3F5F0E0C0F0C0E01236617FFA1200D5740575F000C0E0C0F01238
:20408C001AB51581158122123D54F52485F02545F070030240AAE5248525F00240ADE4F5A2
:2040AC00F022790C7A0389828A83E0A3F5F0E0C5F05408C5F05400C5F01201CD45F070101C
:2040CC0078FB1200C9E60886F07B007C801201EF45F070030240EF78FB1200C9E60886F01E
:2040EC0002424F78FB1200C9E60886F054FFC5F0547FC5F0F52485F025790E7A0389828A93
:20410C0083E0A3F5F0E0C5F054FFC5F0547FC5F0F52685F02778FB1200C9E60886F05400C6
:20412C00C5F05480C5F045F070030241C5790E7A0389828A83E0A3F5F0E0C5F05400C5F063
:20414C005480C5F045F070030241A4E5268527F0AB24AC251202167003024182E5268527DB
:20416C00F0C39524C5F09525C5F078FB1200C9F608A6F00241A1E5248525F0C39526C5F007
:20418C009527C5F04400C5F04480C5F078FB1200C9F608A6F00241C2E5248525F02526C596
:2041AC00F03527C5F04400C5F04480C5F078FB1200C9F608A6F0024246790E7A0389828A7B
:2041CC0083E0A3F5F0E0C5F05400C5F05480C5F045F070030241FCE5248525F02526C5F037
:2041EC003527C5F078FB1200C9F608A6F0024246E5268527F0AB24AC2512020E7003024216
:20420C002FE5268527F0C39524C5F09525C5F04400C5F04480C5F078FB1200C9F608A6F0C8
:20422C00024246E5248525F0C39526C5F09527C5F078FB1200C9F608A6F078FB1200C9E68B
:20424C000886F0227FF87EFF12026E78FB1200C9E620E00302428DE4F5F07F04120252F092
:20426C00A3C5F0F0C5F0E620E20302428A74E175F0147F04120252F0A3C5F0F0C5F0024294
:20428C00B9790C7A0389828A83E0A3F5F0E0C5F04400C5F04402C0F0C0E0121313158115D0
:2042AC00817F04120252F0A3C5F0F0C5F0C20974FF75F07F7F00120252F0A3C5F0F0C5F0A7
:2042CC00E52F8530F02484C5F03403C5F0F53185F032C206123EA0F52685F027790C7A0392
:2042EC0089828A83E0A3F5F0E0C5F04400C5F04402C5F0F52885F02978FB1200C9E630E1A9
:20430C0003024328E5268527F0C0E0C0F01240AE15811581F52685F02702433AE52885290D
:20432C00F054F8C5F054FFC5F0F52885F029E5268527F07B007C801201EF7028E52685274E
:20434C00F0C0E0C0F07F04120252E0A3F5F0E0C0F0C0E0E5288529F0C0E0C0F01236617F6D
:20436C00FA1200D545F060030243FAD20779207A00E720E6030243E3E5268527F0C0E0C06E
:20438C00F07F00120252E0A3F5F0E0C0F0C0E0122AB615811581158115817F00120252F085
:2043AC00A3C5F0F0C5F079217A00E730E1030243E3740575F000C0E0C0F0121AB515811503
:2043CC0081D20978FB1200C9E620E0030243E3E5268527F002473EE52F8530F0AB31AC3275
:2043EC0012020E70030243F7122B7B0242DEE52F8530F02484C5F03403C5F0F53185F03237
:20440C00790C7A0389828A83E0A3F5F0E0C5F07F02120252F0A3C5F0F0C5F079217A00E7AA
:20442C00540212010D45F060137F00120252E0A3F5F0E0C5F07B007C801201F745F0700347
:20444C00024646790C7A0389828A83E0A3F5F0E0C5F05402C5F05400C5F045F070030245A8
:20446C00AC7F00120252E0A3F5F0E0C0F0C0E012041515811581741075F003C0E0C0F07400
:20448C000975F000C0E0C0F0120A881581158115811581120884740975F000C0E0C0F07412
:2044AC001075F003C0E0C0F0120A88158115811581158179147A0389828A83E0A3F5F0E0C2
:2044CC00C5F01201AC89828A83F0A3C5F0F0C5F079167A03C0E0C0F0D0F0D0E089828A8373
:2044EC001200EF1201EF700302458C79167A0389828A83E0A3F5F0E0C0F0C0E0120415156B
:20450C008115811206E7740975F000C0E0C0F01203A6158115817F00120252F0A3C5F0F043
:20452C00C5F0740075F014C0E0C0F0741075F003C0E0C0F0120A88158115811581158179CC
:20454C00147A03E4F5F089828A83F0A3C5F0F0C5F07F00120252E0A3F5F0E0C0F0C0E01261
:20456C002C5E1581158145F06003024589740175F000C0E0C0F0121AB5158115810245ACE7
:20458C007F02120252E0A3F5F0E0C5F04400C5F04402C5F07F02120252F0A3C5F0F0C5F063
:2045AC007F00120252E0A3F5F0E0C0F0C0E0122C5E1581158145F060177F02120252E0A394
:2045CC00F5F0E0C5F05400C5F05402C5F01201CD45F070030246137F02120252E0A3F5F00F
:2045EC00E0C5F04400C5F04404C5F07F02120252F0A3C5F0F0C5F0740875F000C0E0C0F01F
:20460C00121AB5158115817F02120252E0A3F5F0E0C5F05400C5F05402C5F045F0600302EF
:20462C0046437F00120252E0A3F5F0E0C0F0C0E012136D158115810246A4790C7A038982B1
:20464C008A83E0A3F5F0E0C5F05402C5F05400C5F045F070030246847F02120252E0A3F55D
:20466C00F0E0C5F04400C5F04402C5F07F02120252F0A3C5F0F0C5F07F02120252E0A3F582
:20468C00F0E0C5F04400C5F04404C5F07F02120252F0A3C5F0F0C5F07F02120252E0A3F560
:2046AC00F0E0C5F04400C5F04480C5F07F02120252F0A3C5F0F0C5F07F02120252E0A3F5C4
:2046CC00F0E0C0F0C0E0121313158115817F04120252F0A3C5F0F0C5F07F00120252E0A30C
:2046EC00F5F0E0C0F0C0E07F04120252E0A3F5F0E0C0F0C0E07F02120252E0A3F5F0E0C029
:20470C00F0C0E01236617FFA1200D579217A00E730E103024732740875F000C0E0C0F01227
:20472C001AB5158115817F00120252E0A3F5F0E0C5F07F0802026C7FFB7EFF12026EE47FBD
:20474C0000120252F0740075F014C0E0C0F0740875F003C0E0C0F0120A8815811581158120
:20476C001581790C7A0389828A83E0A3F5F0E0C5F054F7C5F054F7C5F089828A83F0A3C510
:20478C00F0F0C5F074E675F0147F03120252F0A3C5F0F0C5F0E52F8530F02484C5F0340383
:2047AC00C5F0F53185F0327F03120252E0A3F5F0E0C0F0C0E0121CDE15811581740175F0D9
:2047CC0000C0E0C0F0121AB515811581E52F8530F07F01120252F0A3C5F0F0C5F0740175FA
:2047EC00F000C0E0C0F01217BB15811581F53312010D1201CD45F0601BE52F8530F07F014C
:20480C001202521200EFC39BC5F09CC5F07B0A7C0012020045F0700302484B438701124052
:20482C009345F0600302484BE52F8530F0AB31AC3212020E7003024848122B7B0247E9E543
:20484C00337003024922E4C0E0C0E01217BB15811581F533E52F8530F02484C5F03403C5CB
:20486C00F0F53185F032E53312010D7BFC1201041201EF70030248A87F00120252E060031A
:20488C000248A2740475F000C0E0C0F0121AB515811581024790024A1C02490FE533120120
:2048AC000D7BFA1201041201EF700302490F790C7A0389828A83E0A3F5F0E0C5F054F7C55D
:2048CC00F054F7C5F089828A83F0A3C5F0F0C5F0740075F014C0E0C0F0740875F003C0E016
:2048EC00C0F0120A881581158115811581740775F000C0E0C0F0121AB515811581E4F5F0FA
:20490C00024D0D740475F000C0E0C0F0121AB515811581024790E52F8530F07F011202527D
:20492C001200EFC39BC5F09CC5F07B0A7C0012021660030247B3E52F8530F02484C5F03432
:20494C0003C5F0F53185F032740775F000C0E0C0F012425015811581F52485F0257B007C1C
:20496C00801201EF60030247B3E5248525F05400C5F05480C5F045F070030249907401F528
:20498C002A024993E4F52AE5248525F054FFC5F0547FC0F0C0E012041515811581740875EA
:2049AC00F003C0E0C0F0740975F000C0E0C0F0120A881581158115811581E52A70030249AD
:2049CC00D31207F80249D6120884740975F000C0E0C0F0740875F003C0E0C0F0120A881509
:2049EC00811581158115817F00120252E0047F00120252F0147814438701D8FB74F275F0C1
:204A0C00147F03120252F0A3C5F0F0C5F00247B37F00120252E012010DC0E0C0F012041545
:204A2C0015811581740875F003C0E0C0F0740975F000C0E0C0F0120A88158115811581155D
:204A4C00811206E7790E7A03C001C002740975F000C0E0C0F01203A615811581D083D08285
:204A6C00F0A3C5F0F0C5F0790C7A0389828A83E0A3F5F0E0C5F04408C5F04400C5F0898221
:204A8C008A83F0A3C5F0F0C5F0740075F014C0E0C0F0740875F003C0E0C0F0120A88158165
:204AAC0015811581158178FB1200C9E612010D7B021201041201F77003024AD0740175F0CD
:204ACC0000024D0D74FE75F0147F03120252F0A3C5F0F0C5F0E52F8530F02484C5F0340361
:204AEC00C5F0F53185F0327F03120252E0A3F5F0E0C0F0C0E0121CDE15811581740175F096
:204B0C0000C0E0C0F0121AB515811581E52F8530F07F01120252F0A3C5F0F0C5F0740175B6
:204B2C00F000C0E0C0F01217BB15811581F53312010D1201CD45F0601BE52F8530F07F0108
:204B4C001202521200EFC39BC5F09CC5F07B0A7C0012020045F07003024B8B4387011240CC
:204B6C009345F06003024B8BE52F8530F0AB31AC3212020E7003024B88122B7B024B29E536
:204B8C00337003024BC9E52F8530F02484C5F03403C5F0F53185F032E53312010D7BFA12BF
:204BAC0001041201EF60030248BA740475F000C0E0C0F0121AB515811581024AF3E52F8569
:204BCC0030F07F011202521200EFC39BC5F09CC5F07B0A7C001202166003024AF3E52F85F8
:204BEC0030F02484C5F03403C5F0F53185F032740575F000C0E0C0F012425015811581F580
:204C0C002485F0257B007C801201EF6003024AF3E5248525F07F01120252F0A3C5F0F0C529
:204C2C00F0E5248525F0C0E0C0F0E4C0E0C0E0741475F01EC0E0C0F0790C7A0389828A83EC
:204C4C00E0A3F5F0E0C5F054F2C5F054FFC0F0C0E0E4C0E0C0E0741275F015C0E0C0F01227
:204C6C002ED47FF41200D5F52685F0277B007C801201EF60030248BAE5268527F0C0E0C02E
:204C8C00F012041515811581740E75F000C0E0C0F0740975F000C0E0C0F0120A8815811509
:204CAC0081158115817F01120252E0A3F5F0E0C0F0C0E0120415158115811206E774097575
:204CCC00F000C0E0C0F0740875F003C0E0C0F0120A881581158115811581790C7A0389824B
:204CEC008A83E0A3F5F0E0C5F04400C5F04408C5F089828A83F0A3C5F0F0C5F0740175F0C5
:204D0C00007F0502026C78FB1200C9E60886F02402C5F03400C0F0C0E0127C9E158115812A
:204D2C0078FB1200C926C5F00836C5F02403C5F03400C5F018F608A6F018E60886F0227FBD
:204D4C00FE7EFF12026E78F91200C9E60886F00886030886041201EF7003024DC178F9126F
:204D6C0000C9860108860289828A83E0A3F5F0E0C5F045F07003024DB218E60886F07F008E
:204D8C00120252F0A3C5F0F0C5F018E60886F0C0E0C0F0124D121581158178F91200C9F609
:204DAC0008A6F0024D697F00120252E0A3F5F0E0C5F0024E3578FB1200C9E60886F07F00F9
:204DCC00120252F0A3C5F0F0C5F07F00120252E0A3F5F0E0C0F0C0E0124D12158115817FDB
:204DEC0000120252F0A3C5F0F0C5F07F00120252E0A3F5F0E0C5F078F91200C9860308860F
:204E0C00041201EF7003024E1D08E60886F0024E357F00120252E0A3F5F0E0C5F078FB1248
:204E2C0000C9F608A6F0024DC17F0202026C7FFE7EFF12026E78FB1200C9E60886F0C0E03A
:204E4C00C0F0121CDE15811581E52F8530F0241EC5F03400C5F0F52885F02979217A00E70F
:204E6C0054016007740275F0008005740575F000C0E0C0F01217BB1581158112010D7F002D
:204E8C00120252F0A3C5F0F0C5F045F06003024EE41277CE45F07003024EB9E52F8530F026
:204EAC002484C5F03403C5F0F53185F032E52F8530F0AB31AC3212020E7003024ECD122B6E
:204ECC007B438701E52F8530F0AB28AC291202166003024EE4024E677F00120252E0A3F54A
:204EEC00F0E0C5F07B007C001201F77003024F1DE52F8530F02484C5F03403C5F0F5318592
:204F0C00F0327F00120252E0A3F5F0E0C5F0024F20024E417F0202026C7FF87EFF12026E18
:204F2C00E4F5F07F06120252F0A3C5F0F0C5F078F91200C9E60886F07F00120252F0A3C5D7
:204F4C00F0F0C5F078FB1200C9E60886F045F06007181818E60886F045F07003024F8F74BA
:204F6C002E75F018C0E0C0F078F91200C9E60886F0C0E0C0F0127C701581158115811581D4
:204F8C00024FB6742E75F01878F91200C986030886041201F77003024FB6E4F5F0792E7A0A
:204FAC00181200FDE489828A83F078F91200C9E60886F045F07003025081742E75F018C0C8
:204FCC00E0C0F0127C9E15811581F52A7F00120252E0A3F5F0E0C5F07F02120252F0A3C59D
:204FEC00F0F0C5F07F021202521200F689828A83E012010D45F060187F021202521200F66D
:20500C0089828A83E012010D7B2C1201041201F745F0702702506CE52A052A7F02120252F5
:20502C00E0A3F5F0E0C5F01201AC7F02120252F0A3C5F0F0C5F01201BA80A9E52A792E7AAE
:20504C001875F0001200FDC001C0027F021202521200F689828A83E0D083D082F002502344
:20506C00E52A792E7A1875F0001200FDE489828A83F002510E78FB1200C98601088602C0F6
:20508C0001C0027F06120260E98AF0C0E0C0F078FB1200C9868208868312013A15811581B5
:2050AC00158115817F02120252F0A3C5F0F0C5F07F02120252E0A3F5F0E0C5F045F0600368
:2050CC000250D774FE75F0FF0254C1742E75F0187F021202521200EF1201F7700302510EC9
:2050EC00742E75F018C0E0C0F07F02120252E0A3F5F0E0C0F0C0E0127C70158115811581F6
:20510C001581742E75F018C0E0C0F0124E3A158115817F04120252F0A3C5F0F0C5F07F045F
:20512C00120252E0A3F5F0E0C5F09054A60201167F06120252E0A3F5F0E0C5F01201AC7F37
:20514C0006120252F0A3C5F0F0C5F01201BA78F91200C9E60886F045F0700302520B7F00E7
:20516C00120252E0A3F5F0E0C5F07F02120252F0A3C5F0F0C5F07F021202521200F68982F2
:20518C008A83E012010D45F060187F021202521200F689828A83E012010D7B2C1201041272
:2051AC0001F745F070030251D67F02120252E0A3F5F0E0C5F01201AC7F02120252F0A3C538
:2051CC00F0F0C5F01201BA0251827F021202521200F689828A83E07003024F2C7F02120220
:2051EC0052E0A3F5F0E0C5F02401C5F03400C5F07F00120252F0A3C5F0F0C5F002524178B2
:20520C00FB1200C98601088602C001C0027F06120260E98AF0C0E0C0F078FB1200C9868210
:20522C0008868312013A158115811581158145F07003024F2C0254BE78F91200C9E60886B3
:20524C00F045F060030252C57F06120252E0A3F5F0E0C5F01201BA7F06120252F0A3C5F0B9
:20526C00F0C5F01201AC088601088602C001C0027F06120260E98AF0C0E0C0F078FB1200EB
:20528C00C9868208868312013A158115811581158145F060030252C27F06120252E0A3F56A
:2052AC00F0E0C5F01201AC7F06120252F0A3C5F0F0C5F01201BA0254BE7F00120252E0A37D
:2052CC00F5F0E0C5F078F91200C986030886041201EF70030253A47F00120252E0A3F5F026
:2052EC00E0C5F07F02120252F0A3C5F0F0C5F07F001202521200F689828A83E0700302538C
:20530C00897F001202521200F689828A83E012010D7B2C1201041201EF70030253687F067E
:20532C00120252E0A3F5F0E0C5F01201AC7F06120252F0A3C5F0F0C5F01201BA7F00120207
:20534C0052E0A3F5F0E0C5F02401C5F03400C5F07F02120252F0A3C5F0F0C5F07F001202C8
:20536C0052E0A3F5F0E0C5F01201AC7F00120252F0A3C5F0F0C5F01201BA0252FB7F021292
:20538C000252E0A3F5F0E0C5F07F00120252F0A3C5F0F0C5F002547A7F00120252E0A3F5B1
:2053AC00F0E0C5F0C39402C5F09400C5F07F00120252F0A3C5F0F0C5F07F00120252E0A3CB
:2053CC00F5F0E0C5F078F91200C986030886041201F760187F001202521200F689828A8359
:2053EC00E012010D7B2C1201041201F745F070030254207F00120252E0A3F5F0E0C5F012C7
:20540C0001BA7F00120252F0A3C5F0F0C5F01201AC0253C57F06120252E0A3F5F0E0C5F032
:20542C001201BA7F06120252F0A3C5F0F0C5F01201AC7F00120252E0A3F5F0E0C5F078F9A9
:20544C001200C986030886041201F7700302547A7F00120252E0A3F5F0E0C5F01201AC7FDD
:20546C0000120252F0A3C5F0F0C5F01201BA0254BE7F06120252E0A3F5F0E0C5F00254C1ED
:20548C0074FFF5F00254C1740475F000C0E0C0F0121AB5158115810254BE9354FBFF8C5482
:2054AC00FAFF7D54FCFF4452FEFF3C51FFFF0000BE54024F507F0802026CE4F52AE52A75CC
:2054CC00F0007B087C00120200600F78FB1200C9860108860289828A83E0700902552BE511
:2054EC002A052A80D878F91200C9E60886F0252AC5F03400C5F0F9AAF008E60886F0120140
:20550C00AC18F608A6F01201BAC001C002F9AAF089828A83E0547FD083D082F00254EBE5BE
:20552C002A052A75F00078F91200C926C5F00836C5F0F9AAF0181818E60886F0540FC5F030
:20554C005400C5F04490C5F04400C5F089828A83F0E52A052A75F0000826C5F00836C5F033
:20556C00F9AAF074F189828A83F0E52A052A75F0001826C5F00836C5F0F9AAF0E489828A8A
:20558C0083F0E52A052A75F0001826C5F00836C5F0F9AAF0740889828A83F0E52A052A7539
:2055AC00F0001826C5F00836C5F0F9AAF0E489828A83F0E52A052A75F0001826C5F00836B6
:2055CC00C5F0F9AAF0E489828A83F0E52A052A75F0001826C5F00836C5F0F9AAF0E4898280
:2055EC008A83F0227FFE7EFF12026E78F71200C9E6547FF608080808E60886F045F0600CE6
:20560C00901430E0A3F5F0E0C5F0800A90142EE0A3F5F0E0C5F0C0E0C0F078F51200C9E6D6
:20562C0075F000C0E0C0F0127CBA15811581158115817F00120252F0A3C5F0F0C5F07F00B8
:20564C00120252E0A3F5F0E0C5F045F0600302567278F71200C9E675F000080826C5F008F1
:20566C0036C5F002574A7F00120252E0A3F5F0E0C5F078F91200C926C5F00836C5F07F0015
:20568C00120252F0A3C5F0F0C5F07F001202521200F689828A83E012010D7B011201041201
:2056AC0001EF70030256D57F00120252E0A3F5F0E0C5F02401C5F03400C5F0F9AAF089820B
:2056CC008A83E012010D02574A7F001202521200F689828A83E012010D7B02120104120162
:2056EC00EF700302573A78FB1200C9E60886F045F070030257257F00120252E0A3F5F0E0A4
:20570C00C5F0C39401C5F09400C5F0F9AAF089828A83E012010D02574A78F71200C9E6757F
:20572C00F000080826C5F00836C5F002574A7F001202521200F689828A83E012010D7F0266
:20574C0002026C7FE27EFF12026EE4F5F07F16120252F0A3C5F0F0C5F078F71200C9E60884
:20576C0086F0C0E0C0F0127C9E158115817F18120252F0A3C5F0F0C5F0E52F8530F07F1CC1
:20578C00120252F0A3C5F0F0C5F078F91200C9E60886F07B067C001201E1700302580D7FB0
:2057AC0018120252E0A3F5F0E0C5F018C396C5F00896C5F07B077C001201E170030257E942
:2057CC0018E60886F0C39406C5F09400C5F07F16120252F0A3C5F0F0C5F002580A7F1812F1
:2057EC000252E0A3F5F0E0C5F0C39408C5F09400C5F07F16120252F0A3C5F0F0C5F00258AD
:20580C001CE4F5F07F16120252F0A3C5F0F0C5F078F91200C9E60886F07F161202521200F2
:20582C00EFC39BC5F09CC0F0C0E07F02120260E98AF0C0E0C0F0181818E60886F07F161273
:20584C0002521200EF2BC5F03CC0F0C0E01254C67FFA1200D57F02120260E98AF0C0E0C037
:20586C00F0121CDE1581158179217A00E754016007740275F0008005740575F000C0E0C09F
:20588C00F01217BB1581158112010D7F00120252F0A3C5F0F0C5F045F060030258D8E52F2C
:2058AC008530F0AB31AC3212020E70030258BE122B7B1277CE438701E52F8530F07F1C1290
:2058CC000252F0A3C5F0F0C5F0025874E52F8530F07F1C1202521200EFC39BC5F09CC5F08E
:2058EC007B127C001201592401C5F03400C5F07F1A120252F0A3C5F0F0C5F07F1A12025279
:20590C00E0A3F5F0E0C5F07B057C001201E17003025930740575F0007F1A120252F0A3C55B
:20592C00F0F0C5F0E52F8530F02484C5F03403C5F0F53185F03278F71200C9E60886F00841
:20594C0026C5F00836C5F0F9AAF089828A83E0F52A7F00120252E0A3F5F0E0C5F0905B7581
:20596C00020116E52A75F0007F1A1202521200EF2BC5F03CC5F07B5A7C00120200700302E3
:20598C0059BFE52A75F000C0E0C0F07F1A120252E0A3F5F0E0C0F0C0E078F71200C9E60850
:2059AC0086F0C0E0C0F01255F07FFA1200D5F52A0259CF740475F000C0E0C0F0121AB515F2
:2059CC00811581025B8DE52A75F0007F1A1202521200EFC39BC5F09CC5F07B407C00120297
:2059EC000E7003025A0BE52A75F0007F1A1202521200EFC39BC5F09CC5F0F52A025A71E50A
:205A0C002A75F0007F1A1202521200EFC39BC5F09CC5F07B207C0012020E7003025A61E539
:205A2C002A75F000C0E0C0F07F1A120252E0A3F5F0E0C5F01201C4C0E0C0F078F71200C90E
:205A4C00E60886F0C0E0C0F01255F07FFA1200D5F52A025A71740475F000C0E0C0F0121A8A
:205A6C00B515811581025B8D78F91200C9E60886F01201AC18F608A6F01201BA181818E639
:205A8C000886F00826C5F00836C5F0F9AAF089828A83E054807003025AB618E60886F01234
:205AAC0001AC18F608A6F01201BA78F91200C9E60886F07F181202521200EF1201EF700391
:205ACC00025AD774FC75F0FF025BAB02579674FA75F0FF025BAB78F91200C9E60886F07BB7
:205AEC00007C001201E17003025B0A18E60886F01201BA18F608A6F01201AC025B1A7404AD
:205B0C0075F000C0E0C0F0121AB51581158178F71200C9E60886F00826C5F00836C5F0F93A
:205B2C00AAF089828A83E054807003025B7218E60886F07B007C001201E17003025B5E1804
:205B4C00E60886F01201BA18F608A6F01201AC025B7278F91200C9E60886F01201AC18F651
:205B6C0008A6F01201BA025796E25AFBFFDA5AFAFF745AFCFFD259FEFF6F59FFFF00008D18
:205B8C005B78F71200C9E60886F00826C5F00836C5F0F9AAF0E52A89828A83F00257967F02
:205BAC001E02026C7FFE7EFF12026E78FB1200C9860108860289828A83E0A3F5F0E0C5F055
:205BCC00F52485F0257B197C0012020E7003025BE5E4F5F0F52485F02578FB1200C98601CE
:205BEC0008860289828A83E0A3F5F0E0C5F07B007C001201D37003025C10741975F000F54F
:205C0C002485F025E5248525F0905C93020116743D75F0157F00120252F0A3C5F0F0C5F082
:205C2C00025C9F744175F0157F00120252F0A3C5F0F0C5F0025C9F742E75F0182410C5F055
:205C4C003400C0F0C0E0744675F015C0E0C0F0E5248525F02401C5F03400C0F0C0E07403B8
:205C6C0075F000127C297FFA1200D5742E75F0182410C5F03400C5F07F00120252F0A3C56E
:205C8C00F0F0C5F0025C9F2F5C19001B5C00000000435C78FB1200C98601088602E52485B9
:205CAC0025F089828A83F0A3C5F0F0C5F0742E75F018C0E0C0F0744975F015C0E0C0F07F49
:205CCC0000120252E0A3F5F0E0C0F0C0E0740375F000127C297FFA1200D5742E75F0187F29
:205CEC000202026C7FFE7EFF12026E78FB1200C9860108860289828A83E0A3F5F0E0C5F030
:205D0C00F52485F02590186EE0540312010D1201CD45F0601418860108860289828A83E0A7
:205D2C00A3F5F0E0C5F01201CD45F0701C78FB1200C9860108860289828A83E0A3F5F0E0D4
:205D4C00C5F07B007C001201D345F07003025D69741B75F000F52485F025025DAA78FB1200
:205D6C0000C9860108860289828A83E0A3F5F0E0C5F07B1B7C001201E17003025DAA9018F8
:205D8C006EE054037003025DA0E4F5F0F52485F025025DAA740175F000F52485F02578FB5B
:205DAC001200C98601088602E5248525F089828A83F0A3C5F0F0C5F0E5248525F0905F1596
:205DCC0002011690186EE054017003025DEE745075F0157F00120252F0A3C5F0F0C5F00281
:205DEC005E1E90186EE054027003025E0D745475F0157F00120252F0A3C5F0F0C5F0025E7B
:205E0C001E745875F0157F00120252F0A3C5F0F0C5F0025E32745D75F0157F00120252F08E
:205E2C00A3C5F0F0C5F0742E75F018C0E0C0F07F00120252E0A3F5F0E0C0F0C0E0127C706F
:205E4C001581158115811581025F21E5248525F01201BAF52485F0251201AC742E75F0185B
:205E6C00C0E0C0F0746275F015C0E0C0F0E5248525F02441C5F03400C0F0C0E0E524852532
:205E8C00F07B227C0012013F79007A081200FD89828A83E0A3F5F0E0C5F045F06007742A42
:205EAC0075F0008005742075F000C0E0C0F0740475F000127C297FF81200D590186EE05467
:205ECC00047003025F12742E75F018C0E0C0F0E5248525F07B227C0012013F79127A081230
:205EEC0000FDE98AF0C0E0C0F0127C601581158115811581740875F000792E7A181200FD77
:205F0C00E489828A83F0025F21215E1B00CF5D00000000575E742E75F0187F0202026C7FFD
:205F2C00F97EFF12026E78FB1200C9E612010D7BFE1201041201EF7003025F9AE475F005BB
:205F4C007F02120252F0A3C5F0F0C5F07F00120252F0A3C5F0F0C5F07F02120252E0A3F530
:205F6C00F0E0C0F0C0E07F00120252E0A3F5F0E0C0F0C0E0124D4B15811581158115817FF7
:205F8C0002120252F0A3C5F0F0C5F0025FB6E475F0057F02120252F0A3C5F0F0C5F07F00E8
:205FAC00120252F0A3C5F0F0C5F0E47F06120252F07F06120252E060030261787F02120225
:205FCC0052E0A3F5F0E0C5F02402C5F03400C0F0C0E0124E3A15811581F53312010D906108
:205FEC005D0201167F021202521200F689828A83E0A3F5F0E0C5F07BFF7CFF1201EF7003B1
:20600C00026015E4F5F0026E707F021202521200F689828A83E0A3F5F0E0C5F07B007C0158
:20602C0012020070030260507F021202521200F689828A83E0A3F5F0E0C5F07F061202522C
:20604C00F00261757F021202521200F689828A83E0A3F5F0E0C5F07F00120252F0A3C5F03B
:20606C00F0C5F07F02120252F0A3C5F0F0C5F0025FBD7F02120252E0A3F5F0E0C0F0C0E0FE
:20608C00124D12158115817F02120252F0A3C5F0F0C5F07F021202521200F689828A83E09C
:2060AC00A3F5F0E0C5F045F060030260D17F00120252E0A3F5F0E0C5F07F02120252F0A390
:2060CC00C5F0F0C5F00261757F02120252E0A3F5F0E0C0F0C0E07F00120252E0A3F5F0E0D6
:2060EC00C0F0C0E0124D4B15811581158115817F02120252F0A3C5F0F0C5F00261757F0017
:20610C00120252E0A3F5F0E0C5F07B007C051201EF7003026128E4F5F0026E70E475F0051D
:20612C007F02120252F0A3C5F0F0C5F07F00120252F0A3C5F0F0C5F0026175122B7B7404A5
:20614C0075F000C0E0C0F0121AB515811581025FBD4761FBFF0A61FAFFD460FEFF7E60FF3F
:20616C00FFF05FFCFF00004A61025FBD7F06120252E075F000906E110201167F06120252BE
:20618C00E075F0007B117C001201EF6007740175F0008005740275F000C0E0C0F012474317
:2061AC001581158145F070030261CA746875F015C0E0C0F0124E3A15811581026122026E71
:2061CC006D790C7A0389828A83E0A3F5F0E0C5F054F7C5F054FFC5F089828A83F0A3C5F0C7
:2061EC00F0C5F0740075F014C0E0C0F0740875F003C0E0C0F0120A88158115811581158181
:20620C00026122790C7A0389828A83E0A3F5F0E0C5F05401C5F05400C5F045F070030262B7
:20622C0036740690186EF002623C740490186EF0E4C0E0C0E074F075F05CC0E0C0F0124F84
:20624C00251581158115811581F52A75F0007BFF7C001201EF700CE52A75F0007B1B7C0037
:20626C001201EF45F06003026E6D790C7A0389828A83E0A3F5F0E0C5F05401C5F05400C561
:20628C00F045F070030262CAE52A75F0007B007C001201EF70030262CA790C7A0389828A87
:2062AC0083E0A3F5F0E0C5F054FEC5F054FFC5F089828A83F0A3C5F0F0C5F0026122E52AAA
:2062CC00152A791C7A03E52A75F00089828A83F0A3C5F0F0C5F0790C7A0389828A83E0A34B
:2062EC00F5F0E0C5F04401C5F04400C5F089828A83F0A3C5F0F0C5F0E52A75F0007B227C93
:20630C000012013F79007A081200FD89828A83E0A3F5F0E0C5F01201CD45F06029E52A75DE
:20632C00F0007B227C0012013F79027A081200FD89828A83E0A3F5F0E0C5F05401C5F05477
:20634C0000C5F01201CD45F0700302660CE52A78FB1200C9F61214A7F52485F02578FB1228
:20636C0000C9E6F52AE5248525F07BFE7CFF1201EF60030262A5E5248525F07BFF7CFF1294
:20638C00020E7003026441E52A75F0007B227C0012013F791E7A081200FDE5248525F024F9
:2063AC0001C5F03400C5F089828A83F0A3C5F0F0C5F0E52A75F0007B227C0012013F791ABB
:2063CC007A081200FDE5248525F07B1A7C0012013FC001C00279127A121200FD89828A8359
:2063EC00E0A3F5F0E0C5F0D083D082F0A3C5F0F0C5F0E52A75F0007B227C0012013F791C8E
:20640C007A081200FDE5248525F07B1A7C0012013FC001C00279107A121200FD89828A831A
:20642C00E0A3F5F0E0C5F0D083D082F0A3C5F0F0C5F002660CE52A75F0007B227C001201AD
:20644C003F791A7A081200FDE52A75F0007B227C0012013FC001C002791C7A081200FD89BC
:20646C00828A83E0A3F5F0E0C5F0D083D082F0A3C5F0F0C5F0E52A78FB1200C9F6E52A751B
:20648C00F0007B227C0012013F791A7A081200FD89828A83E0A3F5F0E0C5F045F06020E5C2
:2064AC002A75F0007B227C0012013F791A7A081200FD89828A83E0A3F5F0E0C5F0800574A4
:2064CC000175F000C0E0C0F0740175F000C0E0C0F07463C0E0C0F0E4C0E0C0E0E4C0E0C041
:2064EC00E0747575F015C0E0C0F0122ED47FF41200D5F52485F02578FB1200C9E6F52AE5A4
:20650C00248525F07B007C801201F7600CE5248525F07B017C001201F745F0700302660C03
:20652C00E52A75F0007B227C0012013F791A7A081200FDE5248525F089828A83F0A3C5F049
:20654C00F0C5F0E52A75F0007B227C0012013F791C7A081200FD89828A83E0A3F5F0E0C560
:20656C00F045F06020E52A75F0007B227C0012013F791C7A081200FD89828A83E0A3F5F0E5
:20658C00E0C5F08005740175F000C0E0C0F0E4C0E0C0E0746375F000C0E0C0F0E4C0E0C0B7
:2065AC00F0E4C0E0C0E0747A75F015C0E0C0F0122ED47FF41200D5F52485F0257B007C806B
:2065CC001201F7600CE5248525F07B017C0012020E45F0700302660C78FB1200C9E6120119
:2065EC000D7B2212010412013F791C7A081200FDE5248525F089828A83F0A3C5F0F0C5F0AE
:20660C00026122740590186EF0E4C0E0C0E074F075F05CC0E0C0F0124F2515811581158189
:20662C001581F52A75F0007BFF7C001201EF700CE52A75F0007B1B7C001201EF45F06003A0
:20664C00026E6D7F06120252E075F0009067A2020116E52A600302667B747F75F015C0E00D
:20666C00C0F0121CDE15811581120D1902668EE533C3940112010DC0E0C0F0120C22158142
:20668C0015810267B2E52A60030266D4120CA6F52485F025742E75F018C0E0C0F074887538
:2066AC00F015C0E0C0F0E5248525F0C0E0C0F0744A75F02EC0E0C0F0740475F000127C2951
:2066CC007FF81200D502677CE52A152A742E75F018C0E0C0F0749675F015C0E0C0F0E52ACB
:2066EC00244175F000C0E0C0F0E52A75F0007B227C0012013F79127A081200FDE98AF0C056
:20670C00E0C0F0E52A75F0007B227C0012013F79007A081200FD89828A83E0A3F5F0E0C0D4
:20672C00F0C0E0E52A75F0007B227C0012013F791A7A081200FD89828A83E0A3F5F0E0C09A
:20674C00F0C0E0E52A75F0007B227C0012013F791C7A081200FD89828A83E0A3F5F0E0C078
:20676C00F0C0E0740775F000127C297FF21200D5742E75F018C0E0C0F0124E3A1581158159
:20678C000267B2E52A75F000C0E0C0F01214AC158115810267B28F670D0091660C005E662B
:2067AC000B000000B267026122740490186EF0E4C0E0C0E074F075F05CC0E0C0F0124F2587
:2067CC001581158115811581F52A75F0007BFF7C001201EF700CE52A75F0007B1B7C0012C5
:2067EC0001EF45F06003026E6DE52A152A7F06120252E075F0007B0F7C001201EF7003022D
:20680C006821E52A75F000C0E0C0F01217AF1581158102694F742E75F018C0E0C0F0E52AE3
:20682C0075F0007B227C0012013F79127A081200FDE98AF0C0E0C0F0127C7015811581156E
:20684C00811581742E75F018C0E0C0F0742E75F018C0E0C0F0127C9E15811581D004D00338
:20686C002BC5F03CC5F07F04120252F0A3C5F0F0C5F0742E75F0182407C5F03400C5F07FFE
:20688C00041202521200EF12020E70030268C67F04120252E0A3F5F0E0C5F01201AC7F0494
:2068AC00120252F0A3C5F0F0C5F01201BAF9AAF0742089828A83F002687E7F04120252129A
:2068CC0000F6E489828A83F0E52A78FB1200C9F6742E75F018C0E0C0F0E4C0E0C0E0E4C040
:2068EC00E0C0E012574F7FFA1200D5F53312010D7BFC1201041201EF700302693F78FB127A
:20690C0000C9E612010D7B2212010412013F79127A081200FDE98AF0C0E0C0F0742E75F0C0
:20692C0018C0E0C0F0127C70158115811581158102694F740775F000C0E0C0F0121AB515AD
:20694C00811581025F9AE4C0E0C0E074B075F05BC0E0C0F0124F2515811581158115817F64
:20696C0006120252F07F06120252E075F0007B557C001201EF70107F06120252E075F00081
:20698C007B197C001201EF45F06003025F9A7F06120252E060030269CA790C7A0389828A4C
:2069AC0083E0A3F5F0E0C5F054FDC5F054FFC5F089828A83F0A3C5F0F0C5F0026A35790C12
:2069CC007A0389828A83E0A3F5F0E0C5F04402C5F04400C5F089828A83F0A3C5F0F0C5F020
:2069EC0079147A03E4F5F089828A83F0A3C5F0F0C5F079167A037F06120252E0240175F052
:206A0C000089828A83F0A3C5F0F0C5F0740075F014C0E0C0F0741075F003C0E0C0F0120AD0
:206A2C00881581158115811581026122790C7A0389828A83E0A3F5F0E0C5F054FBC5F05476
:206A4C00FFC5F089828A83F0A3C5F0F0C5F079187A03C001C002791A7A03E4F5F089828A72
:206A6C0083F0A3C5F0F0C5F0D083D082F0A3C5F0F0C5F0025F9A79187A0389828A83E0A364
:206A8C00F5F0E0C5F07B007C001201F77016791A7A0389828A83E0A3F5F0E0C5F07B007CCD
:206AAC00001201F745F07003026ADC790C7A0389828A83E0A3F5F0E0C5F04404C5F0440078
:206ACC00C5F089828A83F0A3C5F0F0C5F0026122740475F000C0E0C0F0121AB51581158131
:206AEC00026E6D791A7A0389828A83E0A3F5F0E0C5F0F52885F02945F06003026B17741429
:206B0C0075F01EF52885F029026B4379187A03E5288529F089828A831200EF120200700322
:206B2C00026B4379187A0389828A83E0A3F5F0E0C5F0F52885F02979187A0389828A83E0B5
:206B4C00A3F5F0E0C5F0F52685F027AB28AC2912020E7003026B6DE5288529F0F52685F003
:206B6C0027E5268527F0C0E0C0F0E4C0E0C0E0E5288529F0C0E0C0F0790C7A0389828A83B2
:206B8C00E0A3F5F0E0C0F0C0E0740175F000C0E0C0F074B875F015C0E0C0F0122ED47FF4AA
:206BAC001200D5F52485F0257B007C801201F77003026C6279187A03E5248525F089828A25
:206BCC0083F0A3C5F0F0C5F0791A7A0389828A83E0A3F5F0E0C5F045F06003026C08791A73
:206BEC007A03741475F01E89828A83F0A3C5F0F0C5F0E47F06120252F002607E790C7A035B
:206C0C0089828A83E0A3F5F0E0C5F05404C5F05400C5F045F06003026C30E47F0612025238
:206C2C00F002607E791A7A0389828A83E0A3F5F0E0C5F0AB24AC251202007003026C5F79E6
:206C4C001A7A03E5248525F089828A83F0A3C5F0F0C5F0026A82740775F000C0E0C0F012B9
:206C6C001AB515811581026E6D791A7A0389828A83E0A3F5F0E0C0F0C0E079187A03898257
:206C8C008A83E0A3F5F0E0C0F0C0E0741475F01EC0E0C0F0790C7A0389828A83E0A3F5F066
:206CAC00E0C0F0C0E0740175F000C0E0C0F074BD75F015C0E0C0F0122ED47FF41200D5F510
:206CCC002485F0257B007C801201F77003026D22791A7A03E5248525F089828A83F0A3C542
:206CEC00F0F0C5F079187A0389828A83E0A3F5F0E0C5F0AB24AC2512020E7003026D1F7994
:206D0C00187A03E5248525F089828A83F0A3C5F0F0C5F0026A82740775F000C0E0C0F012FA
:206D2C001AB515811581026E6D790C7A0389828A83E0A3F5F0E0C5F0543FC5F054FFC5F008
:206D4C0089828A83F0A3C5F0F0C5F0026122790C7A0389828A83E0A3F5F0E0C5F04480C5FD
:206D6C00F04400C5F089828A83F0A3C5F0F0C5F0790C7A0389828A83E0A3F5F0E0C5F054AE
:206D8C00BFC5F054FFC5F089828A83F0A3C5F0F0C5F0026122026E6D026E6D74C275F01577
:206DAC00C0E0C0F0E4C0E0C0E0124F251581158115811581025F9A74DF75F015C0E0C0F05D
:206DCC00121CDE15811581740075F003C0E0C0F0E4C0E0C0E0741E75F000C0E0C0F0127C4A
:206DEC00377FFA1200D5120D19740175F000C0E0C0F0121AB515811581025F9A026E6D02A7
:206E0C006E6D026E6D0E6E1F000B6E1E00C36D1D00A76D1C00A46D1B00A16D1A005A6D19CB
:206E2C0000356D1800756C1700EF6A1600826A1500386A140052691300B5670F00B5670E4B
:206E4C00000F660D000F660C000F660B000F620A00CD611200876110008761110000006D8A
:206E6C006E025FB67F0702026C78FB1200C9860108860289828A83E075F00090711B0201AA
:206E8C0016792B7A17E52F8530F089828A83F0A3C5F0F0C5F0740175F00002713678FB12D5
:206EAC0000C98601088602740475F0001200FDE4F5F01200FD89828A83E0A3F5F0E0C5F00D
:206ECC00F52485F025E4F52A78FB1200C98601088602740475F0001200FD740275F00012B2
:206EEC0000FDE52A75F00089828A831200EF120200701B026F4FE52A052AE5248525F02498
:206F0C0002C5F03400C5F0F52485F02580BA792B7A17E52A75F000C333C5F033C5F012008A
:206F2C00FDC001C002E5248525F0C0E0C0F0122BC115811581D083D082F0A3C5F0F0C5F016
:206F4C00026F02E52A75F00002713678FB1200C98601088602740475F0001200FD74027559
:206F6C00F0001200FD89828A83E0A3F5F0E0C5F07B017C0012018CF52685F02778FB12001E
:206F8C00C98601088602740475F0001200FD740275F0001200FD89828A83E0A3F5F0E0C50A
:206FAC00F05400C5F05480C5F045F07003026FCCE5268527F01201BAF52685F0271201AC74
:206FCC0078FB1200C98601088602740475F0001200FDE4F5F01200FD89828A83E0A3F5F0FC
:206FEC00E0C0F0C0E078F91200C98601088602740475F0001200FD740475F0001200FDE931
:20700C008AF0C0E0C0F0E5268527F0C0E0C0F0122A5F7FFA1200D5E4F5F0027136793B7A08
:20702C0017C001C002123D54D083D082F0A3C5F0F0C5F0E4F52AE52A75F0007B057C0012F0
:20704C0002007009027095E52A052A80E9792B7A17E52A75F000C333C5F033C5F01200FDB0
:20706C00E52A75F000C333C5F033C5F0C001C00279347A001200FDE70987F0D083D082F048
:20708C00A3C5F0F0C5F0027053123B82F52485F025C0E0C0F0E4C0E0C0E0E4C0E0C0E012F6
:2070AC0036617FFA1200D5E52A240175F00002713678FB1200C98601088602740475F00049
:2070CC001200FDE4F5F01200FD89828A83E0A3F5F0E0C0F0C0E0120C2215811581E4F5F0D8
:2070EC0002713679287A1789828A83E0440489828A83F0792B7A17740175F00089828A833A
:20710C00F0A3C5F0F0C5F0740175F000027136BD70060029700400576F0300A96E02008DB4
:20712C006E00000000EF70E4F5F0227FFC7EFF12026E7401F540E52F8530F02484C5F0341D
:20714C0003C5F0F53185F03274E875F015C0E0C0F0121CDE15811581740175F000C0E0C006
:20716C00F0121AB515811581123F70E52F8530F02484C5F03403C5F0F53185F032E4F5F0AD
:20718C007F00120252F0A3C5F0F0C5F0E475F0807F02120252F0A3C5F0F0C5F002740812E4
:2071AC0077CE45F070030271C7E52F8530F02484C5F03403C5F0F53185F032E52F8530F014
:2071CC00AB31AC3212020E70030271DB122B7B740175F000C0E0C0F01217BB1581158160B4
:2071EC0003027262E52F8530F07F001202521200EF12020E700302725C12409345F0700319
:20720C0002723DE4C0E0C0E0124250158115817F02120252F0A3C5F0F0C5F07401F540E55A
:20722C002F8530F02484C5F03403C5F0F53185F032E52F8530F02403C5F03400C5F07F005B
:20724C00120252F0A3C5F0F0C5F043870102725F43870102747179217A00E7540160077454
:20726C000275F0008005740575F000C0E0C0F01217BB15811581F533E52F8530F02484C58A
:20728C00F03403C5F0F53185F032E54075F000907459020116E53312010D9073F4020116F1
:2072AC00E53312010DC0E0C0F0125F2B15811581027408790C7A0389828A83E0A3F5F0E092
:2072CC00C5F05401C5F05400C5F045F060030272F0740475F000C0E0C0F0121AB515811525
:2072EC0081027408791C7A0389828A83E0A3F5F0E0C5F0F52E75F0007B227C0012013F79F0
:20730C00007A081200FDE53312010D7BFA1201041201EFC001C00245F06007740175F00011
:20732C00800474FFF5F0D083D0821200EF2BC5F03CC0F0C0E0E4C0E0C0E0E52E75F0007B3C
:20734C00227C0012013F79107A081200FDE98AF0C0E0C0F0120E8A7FFA1200D5F52485F0CC
:20736C002545F06003027387740475F000C0E0C0F0121AB5158115810273F1E52E75F00030
:20738C007B227C0012013F79007A081200FDE53312010D7BFA1201041201EFC001C00245DE
:2073AC00F06007740175F000800474FFF5F0D083D082C082C0831200EF2BC5F03CC5F0D0E8
:2073CC0083D082F0A3C5F0F0C5F0A924AA2589828A83E0A3F5F0E0C5F07F02120252F0A3B4
:2073EC00C5F0F0C5F0027408BF72FAFFBF72FBFFAC72FFFFAC72FEFF000008747F0212020C
:20740C0052E0A3F5F0E0C0F0C0E0790C7A0389828A83E0A3F5F0E0C5F04400C5F04480C0E2
:20742C00F0C0E012131315811581C0E0C0F0790C7A0389828A83E0A3F5F0E0C0F0C0E01238
:20744C0036617FFA1200D502747102747156740500567404005674030056740200A1720111
:20746C0000000071740271ABE5318532F0C39484C5F09403C5F0FBACF0E52F8530F0C39BB6
:20748C00C5F09CC5F07B647C0012020E70030274EE74F175F015C0E0C0F0121CDE158115A0
:2074AC0081740175F000C0E0C0F01217BB1581158112010D1201CD45F06006124093120172
:2074CC00CD45F070030274EE438701E52F8530F0AB31AC3212020E70030274EB122B7B02D9
:2074EC0074AD7F0402026C7FFE7EFF12026E12253D7F00120252F0A3C5F0F0C5F07BFF7CB4
:20750C00FF1201F7700302764F7F00120252E0A3F5F0E0C5F0F52A79207A00E730E203020A
:20752C0075DAE52A75F0009075CE02011679207A00E7540812010D45F0700E90182BE0753F
:20754C00F0007B037C0012020045F0700302756DC203E490182BF0E490182CF0C202027447
:20756C00FA90182CE075F0007B007C001201F7703190182BE0C3940575F000C3C5F013C586
:20758C00F013C0E0C0F0740375F00079287A161200FDD0F0D0E089828A831200EB7C00125D
:2075AC0001F745F0600302755CE490182CF090182BF0742875F016027652D2020274FA02CA
:2075CC0075DAC675DB003975C0000000CB7579207A00E720E20302760FC202E52A75F000CE
:2075EC0090760302011674C0F52A02760F74DBF52A02760F0274FAF975DD00F275DC000090
:20760C0000007690182CE0252A90182CF090182BE075F0007BFF7C00120200700302764ACA
:20762C0090182BE00490182BF01479287A1675F0001200FDE52A89828A83F002764CD2035B
:20764C000274FAE4F5F07F0202026C7FFE7EFF12026E78F91200C98601088602740375F039
:20766C00001200FD78FB1200C9E689828A83F0E675F000C333C5F033C5F0F62404F6181891
:20768C00E60886F07F00120252F0A3C5F0F0C5F0E4F52A74C075F000C0E0C0F01224F2157F
:2076AC0081158178FB1200C9E61670030277497F00120252E0A3F5F0E0C5F01201AC7F0008
:2076CC00120252F0A3C5F0F0C5F01201BAF9AAF089828A83E0F52BE52A252BF52AE52B75D0
:2076EC00F0007BC07C001201EF700302771174DB75F000C0E0C0F01224F21581158174DC30
:20770C00F52B027736E52B75F0007BDB7C001201EF700302773674DB75F000C0E0C0F0120D
:20772C0024F21581158174DDF52BE52B75F000C0E0C0F01224F2158115810276AFE52A1229
:20774C00010DFBACF0E475F001C39BC5F09CC5F0F52B75F0007BC07C001201EF70030277A0
:20776C008474DB75F000C0E0C0F01224F21581158174DCF52B0277A9E52B75F0007BDB7C48
:20778C00001201EF70030277A974DB75F000C0E0C0F01224F21581158174DDF52BE52B75F8
:2077AC00F000C0E0C0F01224F21581158174C075F000C0E0C0F01224F2158115817F020269
:2077CC00026C7FFD7EFF12026EE47F02120252F01274F37F00120252F0A3C5F0F0C5F04569
:2077EC00F0700302790E7F02120252E0047F02120252F0147F001202521200F6740275F013
:20780C00001200FD89828A83E075F00090182D1200EB7C001201EF601779297A1789828A61
:20782C0083E075F00090182D1200EB7C001201EF45F07003027867742775F017C0E0C0F034
:20784C00792A7A1789828A83E075F000C0E0C0F0127657158115811581158179287A17C012
:20786C0001C0027F001202521200F6740175F0001200FD89828A83E0D083D082F07F001245
:20788C000252E0A3F5F0E0C0F0C0E0126E7515811581F52A7F001202521200F6740175F0E9
:2078AC00001200FD89828A83E0540260030277DC79297A17C001C0027F001202521200F604
:2078CC00740275F0001200FD89828A83E0D083D082F079287A1789828A83E0440189828A21
:2078EC0083F0742775F017C0E0C0F0E52A75F000C0E0C0F0127657158115811581158102A5
:20790C0077DC7F02120252E075F0007F0302026C7FFE7EFF12026E7480F5A8740875F000FC
:20792C007F00120252F0A3C5F0F0C5F07F00120252E0A3F5F0E0C5F07B207C0012020070EC
:20794C002302797D7F00120252E0A3F5F0E0C5F01201AC7F00120252F0A3C5F0F0C5F0127B
:20796C0001BA80C87F001202521200F6E4F7027950E5904480F590C20512243B1219F974D7
:20798C00B4F51E74FFF5A0E5B054B7F5B0740175F000C0E0C0F0E4C0E0C0F0E4C0E0C0E045
:2079AC001222337FFA1200D5E490182BF0E4F5F0901624F0A3C5F0F0C5F0901626F0A3C5A9
:2079CC00F0F0C5F0E59054BFF5907F0202026C12791C79207A00E720E4030279FC74F6750A
:2079EC00F015C0E0C0F0121CDE15811581027A0C74FF75F015C0E0C0F0121CDE15811581F1
:207A0C00E52F8530F02484C5F03403C5F0F53185F032740175F000C0E0C0F0121AB51581EA
:207A2C001581740175F000C0E0C0F01217BB1581158112010D7BFF1201041201EF70030242
:207A4C007AB8E4C0E0C0E01217BB15811581438701740175F000C0E0C0F0121AB515811533
:207A6C0081740175F000C0E0C0F01217BB158115816003027AB81277CE45F07003027A9E8F
:207A8C00E52F8530F02484C5F03403C5F0F53185F032E52F8530F0AB31AC3212020E700303
:207AAC00027AB2122B7B438701027A6D027137127C02868208868308E4FEFFE07006127C00
:207ACC0002E4F022B42551A3E0B42D05430780A3E0B4300343074024D0B40A00500BCE7501
:207AEC00F00AA42EFEA3E080EEE0B46413E60886F030F7084307201201C4A6F018F68003B9
:207B0C00B4750543070A8021B478054307108019B46F104307088011127C02F0A3127C0249
:207B2C00A38095B462624307027A00C004C005C006C007AB0753031F7C00E60886F0120113
:207B4C0059A6F018F6EDD007D006D005D0042430B43A0040022407C0E00AE645F070CC1217
:207B6C007C02A902EF30E505742DF0A30A127C0BD0E0F0A3D9FA0808EF30E7A1EAC39E5088
:207B8C009C7420F0A30A80F4B4630DAA01127C02127C0BE6F0A380DEB47331C082C0838666
:207BAC00820886837A00E06004A30A80F98683188682127C02127C0B127C02E0A3127C024D
:207BCC006004F0A380F2D005D00480AAB4691B86017A00E76004090A80F9127C02127C0B24
:207BEC008601E76091F009A380F8F97A01127C02127C0BE9809ECDC583CDCCC582CC22EE91
:207C0C00601A8FF020F715C002EAC39E500C742030F6027430F0A30A80EFD0022223F4252E
:207C2C0081F8868208868308027ABB78F71200C9868208868308860708088603088604EB59
:207C4C004C600AEFF0A31BBBFFF51C80F222D2AF22C2AF2278F91200C98682088683E0608B
:207C6C000DA380FA78F91200C98682088683088601088602C9C582C9CAC583CAE0A3C9C584
:207C8C0082C9CAC583CAF06003A380E8E5828583F02278FB1200C98682088683E4F5F0FAA8
:207CAC00E06009A30ABA00F805F080F4EA2278F91200C986820886830886F0E0B5F00685A8
:207CCC0083F0E58222A370F3F5F0220000000048C34F813827C5A03ECCCCCE4220000040AA
:207CEC0080000043C800004180000042A0000041228F5E40182CB8802517153015202564FF
:207D0C0020202000256420202000C3256420202000C1522564202020004D454D2046554C80
:207D2C004C0042617463682025632025732052656164696E67733A256420526F77733A256F
:207D4C006420436F6C733A256420556E6974733A25730A0A004D6963726F6E73004D696C29
:207D6C00730025632532642052256420002563253364200025730A000A0A00494E4600250A
:207D8C00642E0030256400256400257325642E00200000256400256400202020200025736A
:207DAC002573002575206C662025640043414C2000015A45524F20504C415445004D4F5235
:207DCC0045204F522053454C00014E4F4E2D5A45524F205355425354524154450041444A88
:207DEC00430001202728292A2B2D2F303132333435363738393C3D3E40020001303132331D
:207E0C0034353637383902004F464600455849540025640043414D20257300414C4C004FBE
:207E2C004646004E4F4E4500455849540025632563250043414C20434F4D504C45544500C2
:207E4C00524F575300434F4C5300574149542E2E94C20055736564202575206F66202575B9
:207E6C000025632025732025642052656164696E677320256420526F777320256420436FD1
:207E8C006C73004C4F574C004849204C003330302C313230302C323430302C343830302C24
:207EAC00393630302C4558495400574149542E2E94C20054656B6E6F636F6D0049646C65DC
:137ECC00005761746368646F670054656B6E6F436F6D0052
:00000001FF
